{
	"Project/MultiAgentBlockchain/english_auction.sol": {
		"Auction": {
			"abi": [
				{
					"inputs": [
						{
							"internalType": "string",
							"name": "_obj",
							"type": "string"
						},
						{
							"internalType": "uint256",
							"name": "_price",
							"type": "uint256"
						},
						{
							"components": [
								{
									"internalType": "uint256",
									"name": "x",
									"type": "uint256"
								},
								{
									"internalType": "uint256",
									"name": "y",
									"type": "uint256"
								}
							],
							"internalType": "struct Auction.Positions",
							"name": "_pos",
							"type": "tuple"
						}
					],
					"stateMutability": "nonpayable",
					"type": "constructor"
				},
				{
					"anonymous": false,
					"inputs": [
						{
							"indexed": false,
							"internalType": "address",
							"name": "_owner",
							"type": "address"
						},
						{
							"indexed": false,
							"internalType": "address",
							"name": "_winner",
							"type": "address"
						},
						{
							"indexed": false,
							"internalType": "uint256",
							"name": "_winningBid",
							"type": "uint256"
						}
					],
					"name": "AuctionClosed",
					"type": "event"
				},
				{
					"anonymous": false,
					"inputs": [
						{
							"indexed": false,
							"internalType": "address",
							"name": "_owner",
							"type": "address"
						},
						{
							"indexed": false,
							"internalType": "string",
							"name": "_object",
							"type": "string"
						},
						{
							"indexed": false,
							"internalType": "uint256",
							"name": "_initialPrice",
							"type": "uint256"
						}
					],
					"name": "AuctionOpened",
					"type": "event"
				},
				{
					"anonymous": false,
					"inputs": [
						{
							"indexed": false,
							"internalType": "address",
							"name": "_withdrawer",
							"type": "address"
						},
						{
							"indexed": false,
							"internalType": "uint256",
							"name": "amount",
							"type": "uint256"
						}
					],
					"name": "FundsWithdrawn",
					"type": "event"
				},
				{
					"anonymous": false,
					"inputs": [
						{
							"indexed": false,
							"internalType": "string",
							"name": "_text",
							"type": "string"
						},
						{
							"indexed": false,
							"internalType": "address",
							"name": "_bidder",
							"type": "address"
						},
						{
							"indexed": false,
							"internalType": "uint256",
							"name": "_bidAmount",
							"type": "uint256"
						}
					],
					"name": "NewBid",
					"type": "event"
				},
				{
					"anonymous": false,
					"inputs": [
						{
							"indexed": false,
							"internalType": "address",
							"name": "_winner",
							"type": "address"
						},
						{
							"indexed": false,
							"internalType": "string",
							"name": "_object",
							"type": "string"
						}
					],
					"name": "WinningWithdrawn",
					"type": "event"
				},
				{
					"inputs": [
						{
							"internalType": "address",
							"name": "",
							"type": "address"
						}
					],
					"name": "bidders",
					"outputs": [
						{
							"internalType": "uint256",
							"name": "",
							"type": "uint256"
						}
					],
					"stateMutability": "view",
					"type": "function"
				},
				{
					"inputs": [],
					"name": "close",
					"outputs": [],
					"stateMutability": "nonpayable",
					"type": "function"
				},
				{
					"inputs": [],
					"name": "endAt",
					"outputs": [
						{
							"internalType": "uint256",
							"name": "",
							"type": "uint256"
						}
					],
					"stateMutability": "view",
					"type": "function"
				},
				{
					"inputs": [],
					"name": "isOpen",
					"outputs": [
						{
							"internalType": "bool",
							"name": "is_open",
							"type": "bool"
						}
					],
					"stateMutability": "view",
					"type": "function"
				},
				{
					"inputs": [],
					"name": "offer",
					"outputs": [],
					"stateMutability": "payable",
					"type": "function"
				},
				{
					"inputs": [],
					"name": "open",
					"outputs": [],
					"stateMutability": "nonpayable",
					"type": "function"
				},
				{
					"inputs": [],
					"name": "retire_funds",
					"outputs": [],
					"stateMutability": "payable",
					"type": "function"
				},
				{
					"inputs": [],
					"name": "retire_win",
					"outputs": [],
					"stateMutability": "payable",
					"type": "function"
				}
			],
			"devdoc": {
				"kind": "dev",
				"methods": {},
				"version": 1
			},
			"evm": {
				"assembly": "    /* \"Project/MultiAgentBlockchain/english_auction.sol\":221:3253  contract Auction{... */\n  mstore(0x40, 0x80)\n    /* \"Project/MultiAgentBlockchain/english_auction.sol\":570:837  constructor(string memory _obj, uint256 _price, Positions memory _pos){... */\n  callvalue\n  dup1\n  iszero\n  tag_1\n  jumpi\n  0x00\n  dup1\n  revert\ntag_1:\n  pop\n  mload(0x40)\n  sub(codesize, bytecodeSize)\n  dup1\n  bytecodeSize\n  dup4\n  codecopy\n  dup2\n  dup2\n  add\n  0x40\n  mstore\n  dup2\n  add\n  swap1\n  tag_2\n  swap2\n  swap1\n  tag_3\n  jump\t// in\ntag_2:\n    /* \"Project/MultiAgentBlockchain/english_auction.sol\":667:677  msg.sender */\n  caller\n    /* \"Project/MultiAgentBlockchain/english_auction.sol\":651:656  owner */\n  0x00\n  dup1\n    /* \"Project/MultiAgentBlockchain/english_auction.sol\":651:678  owner = payable(msg.sender) */\n  0x0100\n  exp\n  dup2\n  sload\n  dup2\n  0xffffffffffffffffffffffffffffffffffffffff\n  mul\n  not\n  and\n  swap1\n  dup4\n  0xffffffffffffffffffffffffffffffffffffffff\n  and\n  mul\n  or\n  swap1\n  sstore\n  pop\n    /* \"Project/MultiAgentBlockchain/english_auction.sol\":698:702  _obj */\n  dup3\n    /* \"Project/MultiAgentBlockchain/english_auction.sol\":689:695  object */\n  0x01\n    /* \"Project/MultiAgentBlockchain/english_auction.sol\":689:702  object = _obj */\n  swap1\n  dup2\n  tag_6\n  swap2\n  swap1\n  tag_7\n  jump\t// in\ntag_6:\n  pop\n    /* \"Project/MultiAgentBlockchain/english_auction.sol\":721:727  _price */\n  dup2\n    /* \"Project/MultiAgentBlockchain/english_auction.sol\":713:718  price */\n  0x02\n    /* \"Project/MultiAgentBlockchain/english_auction.sol\":713:727  price = _price */\n  dup2\n  swap1\n  sstore\n  pop\n    /* \"Project/MultiAgentBlockchain/english_auction.sol\":744:748  _pos */\n  dup1\n    /* \"Project/MultiAgentBlockchain/english_auction.sol\":738:741  pos */\n  0x07\n    /* \"Project/MultiAgentBlockchain/english_auction.sol\":738:748  pos = _pos */\n  0x00\n  dup3\n  add\n  mload\n  dup2\n  0x00\n  add\n  sstore\n  0x20\n  dup3\n  add\n  mload\n  dup2\n  0x01\n  add\n  sstore\n  swap1\n  pop\n  pop\n    /* \"Project/MultiAgentBlockchain/english_auction.sol\":776:777  0 */\n  0x00\n    /* \"Project/MultiAgentBlockchain/english_auction.sol\":759:765  winner */\n  0x04\n  0x00\n    /* \"Project/MultiAgentBlockchain/english_auction.sol\":759:778  winner = address(0) */\n  0x0100\n  exp\n  dup2\n  sload\n  dup2\n  0xffffffffffffffffffffffffffffffffffffffff\n  mul\n  not\n  and\n  swap1\n  dup4\n  0xffffffffffffffffffffffffffffffffffffffff\n  and\n  mul\n  or\n  swap1\n  sstore\n  pop\n    /* \"Project/MultiAgentBlockchain/english_auction.sol\":802:803  0 */\n  0x00\n    /* \"Project/MultiAgentBlockchain/english_auction.sol\":789:799  best_price */\n  0x05\n    /* \"Project/MultiAgentBlockchain/english_auction.sol\":789:803  best_price = 0 */\n  dup2\n  swap1\n  sstore\n  pop\n    /* \"Project/MultiAgentBlockchain/english_auction.sol\":824:829  false */\n  0x00\n    /* \"Project/MultiAgentBlockchain/english_auction.sol\":814:821  is_open */\n  0x06\n  0x00\n    /* \"Project/MultiAgentBlockchain/english_auction.sol\":814:829  is_open = false */\n  0x0100\n  exp\n  dup2\n  sload\n  dup2\n  0xff\n  mul\n  not\n  and\n  swap1\n  dup4\n  iszero\n  iszero\n  mul\n  or\n  swap1\n  sstore\n  pop\n    /* \"Project/MultiAgentBlockchain/english_auction.sol\":570:837  constructor(string memory _obj, uint256 _price, Positions memory _pos){... */\n  pop\n  pop\n  pop\n    /* \"Project/MultiAgentBlockchain/english_auction.sol\":221:3253  contract Auction{... */\n  jump(tag_8)\n    /* \"#utility.yul\":7:82   */\ntag_9:\n    /* \"#utility.yul\":40:46   */\n  0x00\n    /* \"#utility.yul\":73:75   */\n  0x40\n    /* \"#utility.yul\":67:76   */\n  mload\n    /* \"#utility.yul\":57:76   */\n  swap1\n  pop\n    /* \"#utility.yul\":7:82   */\n  swap1\n  jump\t// out\n    /* \"#utility.yul\":88:205   */\ntag_10:\n    /* \"#utility.yul\":197:198   */\n  0x00\n    /* \"#utility.yul\":194:195   */\n  dup1\n    /* \"#utility.yul\":187:199   */\n  revert\n    /* \"#utility.yul\":211:328   */\ntag_11:\n    /* \"#utility.yul\":320:321   */\n  0x00\n    /* \"#utility.yul\":317:318   */\n  dup1\n    /* \"#utility.yul\":310:322   */\n  revert\n    /* \"#utility.yul\":334:451   */\ntag_12:\n    /* \"#utility.yul\":443:444   */\n  0x00\n    /* \"#utility.yul\":440:441   */\n  dup1\n    /* \"#utility.yul\":433:445   */\n  revert\n    /* \"#utility.yul\":457:574   */\ntag_13:\n    /* \"#utility.yul\":566:567   */\n  0x00\n    /* \"#utility.yul\":563:564   */\n  dup1\n    /* \"#utility.yul\":556:568   */\n  revert\n    /* \"#utility.yul\":580:682   */\ntag_14:\n    /* \"#utility.yul\":621:627   */\n  0x00\n    /* \"#utility.yul\":672:674   */\n  0x1f\n    /* \"#utility.yul\":668:675   */\n  not\n    /* \"#utility.yul\":663:665   */\n  0x1f\n    /* \"#utility.yul\":656:661   */\n  dup4\n    /* \"#utility.yul\":652:666   */\n  add\n    /* \"#utility.yul\":648:676   */\n  and\n    /* \"#utility.yul\":638:676   */\n  swap1\n  pop\n    /* \"#utility.yul\":580:682   */\n  swap2\n  swap1\n  pop\n  jump\t// out\n    /* \"#utility.yul\":688:868   */\ntag_15:\n    /* \"#utility.yul\":736:813   */\n  0x4e487b7100000000000000000000000000000000000000000000000000000000\n    /* \"#utility.yul\":733:734   */\n  0x00\n    /* \"#utility.yul\":726:814   */\n  mstore\n    /* \"#utility.yul\":833:837   */\n  0x41\n    /* \"#utility.yul\":830:831   */\n  0x04\n    /* \"#utility.yul\":823:838   */\n  mstore\n    /* \"#utility.yul\":857:861   */\n  0x24\n    /* \"#utility.yul\":854:855   */\n  0x00\n    /* \"#utility.yul\":847:862   */\n  revert\n    /* \"#utility.yul\":874:1155   */\ntag_16:\n    /* \"#utility.yul\":957:984   */\n  tag_55\n    /* \"#utility.yul\":979:983   */\n  dup3\n    /* \"#utility.yul\":957:984   */\n  tag_14\n  jump\t// in\ntag_55:\n    /* \"#utility.yul\":949:955   */\n  dup2\n    /* \"#utility.yul\":945:985   */\n  add\n    /* \"#utility.yul\":1087:1093   */\n  dup2\n    /* \"#utility.yul\":1075:1085   */\n  dup2\n    /* \"#utility.yul\":1072:1094   */\n  lt\n    /* \"#utility.yul\":1051:1069   */\n  0xffffffffffffffff\n    /* \"#utility.yul\":1039:1049   */\n  dup3\n    /* \"#utility.yul\":1036:1070   */\n  gt\n    /* \"#utility.yul\":1033:1095   */\n  or\n    /* \"#utility.yul\":1030:1118   */\n  iszero\n  tag_56\n  jumpi\n    /* \"#utility.yul\":1098:1116   */\n  tag_57\n  tag_15\n  jump\t// in\ntag_57:\n    /* \"#utility.yul\":1030:1118   */\ntag_56:\n    /* \"#utility.yul\":1138:1148   */\n  dup1\n    /* \"#utility.yul\":1134:1136   */\n  0x40\n    /* \"#utility.yul\":1127:1149   */\n  mstore\n    /* \"#utility.yul\":917:1155   */\n  pop\n    /* \"#utility.yul\":874:1155   */\n  pop\n  pop\n  jump\t// out\n    /* \"#utility.yul\":1161:1290   */\ntag_17:\n    /* \"#utility.yul\":1195:1201   */\n  0x00\n    /* \"#utility.yul\":1222:1242   */\n  tag_59\n  tag_9\n  jump\t// in\ntag_59:\n    /* \"#utility.yul\":1212:1242   */\n  swap1\n  pop\n    /* \"#utility.yul\":1251:1284   */\n  tag_60\n    /* \"#utility.yul\":1279:1283   */\n  dup3\n    /* \"#utility.yul\":1271:1277   */\n  dup3\n    /* \"#utility.yul\":1251:1284   */\n  tag_16\n  jump\t// in\ntag_60:\n    /* \"#utility.yul\":1161:1290   */\n  swap2\n  swap1\n  pop\n  jump\t// out\n    /* \"#utility.yul\":1296:1604   */\ntag_18:\n    /* \"#utility.yul\":1358:1362   */\n  0x00\n    /* \"#utility.yul\":1448:1466   */\n  0xffffffffffffffff\n    /* \"#utility.yul\":1440:1446   */\n  dup3\n    /* \"#utility.yul\":1437:1467   */\n  gt\n    /* \"#utility.yul\":1434:1490   */\n  iszero\n  tag_62\n  jumpi\n    /* \"#utility.yul\":1470:1488   */\n  tag_63\n  tag_15\n  jump\t// in\ntag_63:\n    /* \"#utility.yul\":1434:1490   */\ntag_62:\n    /* \"#utility.yul\":1508:1537   */\n  tag_64\n    /* \"#utility.yul\":1530:1536   */\n  dup3\n    /* \"#utility.yul\":1508:1537   */\n  tag_14\n  jump\t// in\ntag_64:\n    /* \"#utility.yul\":1500:1537   */\n  swap1\n  pop\n    /* \"#utility.yul\":1592:1596   */\n  0x20\n    /* \"#utility.yul\":1586:1590   */\n  dup2\n    /* \"#utility.yul\":1582:1597   */\n  add\n    /* \"#utility.yul\":1574:1597   */\n  swap1\n  pop\n    /* \"#utility.yul\":1296:1604   */\n  swap2\n  swap1\n  pop\n  jump\t// out\n    /* \"#utility.yul\":1610:1856   */\ntag_19:\n    /* \"#utility.yul\":1691:1692   */\n  0x00\n    /* \"#utility.yul\":1701:1814   */\ntag_66:\n    /* \"#utility.yul\":1715:1721   */\n  dup4\n    /* \"#utility.yul\":1712:1713   */\n  dup2\n    /* \"#utility.yul\":1709:1722   */\n  lt\n    /* \"#utility.yul\":1701:1814   */\n  iszero\n  tag_68\n  jumpi\n    /* \"#utility.yul\":1800:1801   */\n  dup1\n    /* \"#utility.yul\":1795:1798   */\n  dup3\n    /* \"#utility.yul\":1791:1802   */\n  add\n    /* \"#utility.yul\":1785:1803   */\n  mload\n    /* \"#utility.yul\":1781:1782   */\n  dup2\n    /* \"#utility.yul\":1776:1779   */\n  dup5\n    /* \"#utility.yul\":1772:1783   */\n  add\n    /* \"#utility.yul\":1765:1804   */\n  mstore\n    /* \"#utility.yul\":1737:1739   */\n  0x20\n    /* \"#utility.yul\":1734:1735   */\n  dup2\n    /* \"#utility.yul\":1730:1740   */\n  add\n    /* \"#utility.yul\":1725:1740   */\n  swap1\n  pop\n    /* \"#utility.yul\":1701:1814   */\n  jump(tag_66)\ntag_68:\n    /* \"#utility.yul\":1848:1849   */\n  0x00\n    /* \"#utility.yul\":1839:1845   */\n  dup5\n    /* \"#utility.yul\":1834:1837   */\n  dup5\n    /* \"#utility.yul\":1830:1846   */\n  add\n    /* \"#utility.yul\":1823:1850   */\n  mstore\n    /* \"#utility.yul\":1672:1856   */\n  pop\n    /* \"#utility.yul\":1610:1856   */\n  pop\n  pop\n  pop\n  jump\t// out\n    /* \"#utility.yul\":1862:2296   */\ntag_20:\n    /* \"#utility.yul\":1951:1956   */\n  0x00\n    /* \"#utility.yul\":1976:2042   */\n  tag_70\n    /* \"#utility.yul\":1992:2041   */\n  tag_71\n    /* \"#utility.yul\":2034:2040   */\n  dup5\n    /* \"#utility.yul\":1992:2041   */\n  tag_18\n  jump\t// in\ntag_71:\n    /* \"#utility.yul\":1976:2042   */\n  tag_17\n  jump\t// in\ntag_70:\n    /* \"#utility.yul\":1967:2042   */\n  swap1\n  pop\n    /* \"#utility.yul\":2065:2071   */\n  dup3\n    /* \"#utility.yul\":2058:2063   */\n  dup2\n    /* \"#utility.yul\":2051:2072   */\n  mstore\n    /* \"#utility.yul\":2103:2107   */\n  0x20\n    /* \"#utility.yul\":2096:2101   */\n  dup2\n    /* \"#utility.yul\":2092:2108   */\n  add\n    /* \"#utility.yul\":2141:2144   */\n  dup5\n    /* \"#utility.yul\":2132:2138   */\n  dup5\n    /* \"#utility.yul\":2127:2130   */\n  dup5\n    /* \"#utility.yul\":2123:2139   */\n  add\n    /* \"#utility.yul\":2120:2145   */\n  gt\n    /* \"#utility.yul\":2117:2229   */\n  iszero\n  tag_72\n  jumpi\n    /* \"#utility.yul\":2148:2227   */\n  tag_73\n  tag_13\n  jump\t// in\ntag_73:\n    /* \"#utility.yul\":2117:2229   */\ntag_72:\n    /* \"#utility.yul\":2238:2290   */\n  tag_74\n    /* \"#utility.yul\":2283:2289   */\n  dup5\n    /* \"#utility.yul\":2278:2281   */\n  dup3\n    /* \"#utility.yul\":2273:2276   */\n  dup6\n    /* \"#utility.yul\":2238:2290   */\n  tag_19\n  jump\t// in\ntag_74:\n    /* \"#utility.yul\":1957:2296   */\n  pop\n    /* \"#utility.yul\":1862:2296   */\n  swap4\n  swap3\n  pop\n  pop\n  pop\n  jump\t// out\n    /* \"#utility.yul\":2316:2671   */\ntag_21:\n    /* \"#utility.yul\":2383:2388   */\n  0x00\n    /* \"#utility.yul\":2432:2435   */\n  dup3\n    /* \"#utility.yul\":2425:2429   */\n  0x1f\n    /* \"#utility.yul\":2417:2423   */\n  dup4\n    /* \"#utility.yul\":2413:2430   */\n  add\n    /* \"#utility.yul\":2409:2436   */\n  slt\n    /* \"#utility.yul\":2399:2521   */\n  tag_76\n  jumpi\n    /* \"#utility.yul\":2440:2519   */\n  tag_77\n  tag_12\n  jump\t// in\ntag_77:\n    /* \"#utility.yul\":2399:2521   */\ntag_76:\n    /* \"#utility.yul\":2550:2556   */\n  dup2\n    /* \"#utility.yul\":2544:2557   */\n  mload\n    /* \"#utility.yul\":2575:2665   */\n  tag_78\n    /* \"#utility.yul\":2661:2664   */\n  dup5\n    /* \"#utility.yul\":2653:2659   */\n  dup3\n    /* \"#utility.yul\":2646:2650   */\n  0x20\n    /* \"#utility.yul\":2638:2644   */\n  dup7\n    /* \"#utility.yul\":2634:2651   */\n  add\n    /* \"#utility.yul\":2575:2665   */\n  tag_20\n  jump\t// in\ntag_78:\n    /* \"#utility.yul\":2566:2665   */\n  swap2\n  pop\n    /* \"#utility.yul\":2389:2671   */\n  pop\n    /* \"#utility.yul\":2316:2671   */\n  swap3\n  swap2\n  pop\n  pop\n  jump\t// out\n    /* \"#utility.yul\":2677:2754   */\ntag_22:\n    /* \"#utility.yul\":2714:2721   */\n  0x00\n    /* \"#utility.yul\":2743:2748   */\n  dup2\n    /* \"#utility.yul\":2732:2748   */\n  swap1\n  pop\n    /* \"#utility.yul\":2677:2754   */\n  swap2\n  swap1\n  pop\n  jump\t// out\n    /* \"#utility.yul\":2760:2882   */\ntag_23:\n    /* \"#utility.yul\":2833:2857   */\n  tag_81\n    /* \"#utility.yul\":2851:2856   */\n  dup2\n    /* \"#utility.yul\":2833:2857   */\n  tag_22\n  jump\t// in\ntag_81:\n    /* \"#utility.yul\":2826:2831   */\n  dup2\n    /* \"#utility.yul\":2823:2858   */\n  eq\n    /* \"#utility.yul\":2813:2876   */\n  tag_82\n  jumpi\n    /* \"#utility.yul\":2872:2873   */\n  0x00\n    /* \"#utility.yul\":2869:2870   */\n  dup1\n    /* \"#utility.yul\":2862:2874   */\n  revert\n    /* \"#utility.yul\":2813:2876   */\ntag_82:\n    /* \"#utility.yul\":2760:2882   */\n  pop\n  jump\t// out\n    /* \"#utility.yul\":2888:3031   */\ntag_24:\n    /* \"#utility.yul\":2945:2950   */\n  0x00\n    /* \"#utility.yul\":2976:2982   */\n  dup2\n    /* \"#utility.yul\":2970:2983   */\n  mload\n    /* \"#utility.yul\":2961:2983   */\n  swap1\n  pop\n    /* \"#utility.yul\":2992:3025   */\n  tag_84\n    /* \"#utility.yul\":3019:3024   */\n  dup2\n    /* \"#utility.yul\":2992:3025   */\n  tag_23\n  jump\t// in\ntag_84:\n    /* \"#utility.yul\":2888:3031   */\n  swap3\n  swap2\n  pop\n  pop\n  jump\t// out\n    /* \"#utility.yul\":3037:3154   */\ntag_25:\n    /* \"#utility.yul\":3146:3147   */\n  0x00\n    /* \"#utility.yul\":3143:3144   */\n  dup1\n    /* \"#utility.yul\":3136:3148   */\n  revert\n    /* \"#utility.yul\":3315:3915   */\ntag_27:\n    /* \"#utility.yul\":3399:3404   */\n  0x00\n    /* \"#utility.yul\":3443:3447   */\n  0x40\n    /* \"#utility.yul\":3431:3440   */\n  dup3\n    /* \"#utility.yul\":3426:3429   */\n  dup5\n    /* \"#utility.yul\":3422:3441   */\n  sub\n    /* \"#utility.yul\":3418:3448   */\n  slt\n    /* \"#utility.yul\":3415:3532   */\n  iszero\n  tag_88\n  jumpi\n    /* \"#utility.yul\":3451:3530   */\n  tag_89\n  tag_25\n  jump\t// in\ntag_89:\n    /* \"#utility.yul\":3415:3532   */\ntag_88:\n    /* \"#utility.yul\":3550:3571   */\n  tag_90\n    /* \"#utility.yul\":3566:3570   */\n  0x40\n    /* \"#utility.yul\":3550:3571   */\n  tag_17\n  jump\t// in\ntag_90:\n    /* \"#utility.yul\":3541:3571   */\n  swap1\n  pop\n    /* \"#utility.yul\":3627:3628   */\n  0x00\n    /* \"#utility.yul\":3667:3727   */\n  tag_91\n    /* \"#utility.yul\":3723:3726   */\n  dup5\n    /* \"#utility.yul\":3714:3720   */\n  dup3\n    /* \"#utility.yul\":3703:3712   */\n  dup6\n    /* \"#utility.yul\":3699:3721   */\n  add\n    /* \"#utility.yul\":3667:3727   */\n  tag_24\n  jump\t// in\ntag_91:\n    /* \"#utility.yul\":3660:3664   */\n  0x00\n    /* \"#utility.yul\":3653:3658   */\n  dup4\n    /* \"#utility.yul\":3649:3665   */\n  add\n    /* \"#utility.yul\":3642:3728   */\n  mstore\n    /* \"#utility.yul\":3581:3739   */\n  pop\n    /* \"#utility.yul\":3795:3797   */\n  0x20\n    /* \"#utility.yul\":3836:3896   */\n  tag_92\n    /* \"#utility.yul\":3892:3895   */\n  dup5\n    /* \"#utility.yul\":3883:3889   */\n  dup3\n    /* \"#utility.yul\":3872:3881   */\n  dup6\n    /* \"#utility.yul\":3868:3890   */\n  add\n    /* \"#utility.yul\":3836:3896   */\n  tag_24\n  jump\t// in\ntag_92:\n    /* \"#utility.yul\":3829:3833   */\n  0x20\n    /* \"#utility.yul\":3822:3827   */\n  dup4\n    /* \"#utility.yul\":3818:3834   */\n  add\n    /* \"#utility.yul\":3811:3897   */\n  mstore\n    /* \"#utility.yul\":3749:3908   */\n  pop\n    /* \"#utility.yul\":3315:3915   */\n  swap3\n  swap2\n  pop\n  pop\n  jump\t// out\n    /* \"#utility.yul\":3921:4806   */\ntag_3:\n    /* \"#utility.yul\":4043:4049   */\n  0x00\n    /* \"#utility.yul\":4051:4057   */\n  dup1\n    /* \"#utility.yul\":4059:4065   */\n  0x00\n    /* \"#utility.yul\":4108:4111   */\n  0x80\n    /* \"#utility.yul\":4096:4105   */\n  dup5\n    /* \"#utility.yul\":4087:4094   */\n  dup7\n    /* \"#utility.yul\":4083:4106   */\n  sub\n    /* \"#utility.yul\":4079:4112   */\n  slt\n    /* \"#utility.yul\":4076:4196   */\n  iszero\n  tag_94\n  jumpi\n    /* \"#utility.yul\":4115:4194   */\n  tag_95\n  tag_10\n  jump\t// in\ntag_95:\n    /* \"#utility.yul\":4076:4196   */\ntag_94:\n    /* \"#utility.yul\":4256:4257   */\n  0x00\n    /* \"#utility.yul\":4245:4254   */\n  dup5\n    /* \"#utility.yul\":4241:4258   */\n  add\n    /* \"#utility.yul\":4235:4259   */\n  mload\n    /* \"#utility.yul\":4286:4304   */\n  0xffffffffffffffff\n    /* \"#utility.yul\":4278:4284   */\n  dup2\n    /* \"#utility.yul\":4275:4305   */\n  gt\n    /* \"#utility.yul\":4272:4389   */\n  iszero\n  tag_96\n  jumpi\n    /* \"#utility.yul\":4308:4387   */\n  tag_97\n  tag_11\n  jump\t// in\ntag_97:\n    /* \"#utility.yul\":4272:4389   */\ntag_96:\n    /* \"#utility.yul\":4413:4487   */\n  tag_98\n    /* \"#utility.yul\":4479:4486   */\n  dup7\n    /* \"#utility.yul\":4470:4476   */\n  dup3\n    /* \"#utility.yul\":4459:4468   */\n  dup8\n    /* \"#utility.yul\":4455:4477   */\n  add\n    /* \"#utility.yul\":4413:4487   */\n  tag_21\n  jump\t// in\ntag_98:\n    /* \"#utility.yul\":4403:4487   */\n  swap4\n  pop\n    /* \"#utility.yul\":4206:4497   */\n  pop\n    /* \"#utility.yul\":4536:4538   */\n  0x20\n    /* \"#utility.yul\":4562:4626   */\n  tag_99\n    /* \"#utility.yul\":4618:4625   */\n  dup7\n    /* \"#utility.yul\":4609:4615   */\n  dup3\n    /* \"#utility.yul\":4598:4607   */\n  dup8\n    /* \"#utility.yul\":4594:4616   */\n  add\n    /* \"#utility.yul\":4562:4626   */\n  tag_24\n  jump\t// in\ntag_99:\n    /* \"#utility.yul\":4552:4626   */\n  swap3\n  pop\n    /* \"#utility.yul\":4507:4636   */\n  pop\n    /* \"#utility.yul\":4675:4677   */\n  0x40\n    /* \"#utility.yul\":4701:4789   */\n  tag_100\n    /* \"#utility.yul\":4781:4788   */\n  dup7\n    /* \"#utility.yul\":4772:4778   */\n  dup3\n    /* \"#utility.yul\":4761:4770   */\n  dup8\n    /* \"#utility.yul\":4757:4779   */\n  add\n    /* \"#utility.yul\":4701:4789   */\n  tag_27\n  jump\t// in\ntag_100:\n    /* \"#utility.yul\":4691:4789   */\n  swap2\n  pop\n    /* \"#utility.yul\":4646:4799   */\n  pop\n    /* \"#utility.yul\":3921:4806   */\n  swap3\n  pop\n  swap3\n  pop\n  swap3\n  jump\t// out\n    /* \"#utility.yul\":4812:4911   */\ntag_28:\n    /* \"#utility.yul\":4864:4870   */\n  0x00\n    /* \"#utility.yul\":4898:4903   */\n  dup2\n    /* \"#utility.yul\":4892:4904   */\n  mload\n    /* \"#utility.yul\":4882:4904   */\n  swap1\n  pop\n    /* \"#utility.yul\":4812:4911   */\n  swap2\n  swap1\n  pop\n  jump\t// out\n    /* \"#utility.yul\":4917:5097   */\ntag_29:\n    /* \"#utility.yul\":4965:5042   */\n  0x4e487b7100000000000000000000000000000000000000000000000000000000\n    /* \"#utility.yul\":4962:4963   */\n  0x00\n    /* \"#utility.yul\":4955:5043   */\n  mstore\n    /* \"#utility.yul\":5062:5066   */\n  0x22\n    /* \"#utility.yul\":5059:5060   */\n  0x04\n    /* \"#utility.yul\":5052:5067   */\n  mstore\n    /* \"#utility.yul\":5086:5090   */\n  0x24\n    /* \"#utility.yul\":5083:5084   */\n  0x00\n    /* \"#utility.yul\":5076:5091   */\n  revert\n    /* \"#utility.yul\":5103:5423   */\ntag_30:\n    /* \"#utility.yul\":5147:5153   */\n  0x00\n    /* \"#utility.yul\":5184:5185   */\n  0x02\n    /* \"#utility.yul\":5178:5182   */\n  dup3\n    /* \"#utility.yul\":5174:5186   */\n  div\n    /* \"#utility.yul\":5164:5186   */\n  swap1\n  pop\n    /* \"#utility.yul\":5231:5232   */\n  0x01\n    /* \"#utility.yul\":5225:5229   */\n  dup3\n    /* \"#utility.yul\":5221:5233   */\n  and\n    /* \"#utility.yul\":5252:5270   */\n  dup1\n    /* \"#utility.yul\":5242:5323   */\n  tag_104\n  jumpi\n    /* \"#utility.yul\":5308:5312   */\n  0x7f\n    /* \"#utility.yul\":5300:5306   */\n  dup3\n    /* \"#utility.yul\":5296:5313   */\n  and\n    /* \"#utility.yul\":5286:5313   */\n  swap2\n  pop\n    /* \"#utility.yul\":5242:5323   */\ntag_104:\n    /* \"#utility.yul\":5370:5372   */\n  0x20\n    /* \"#utility.yul\":5362:5368   */\n  dup3\n    /* \"#utility.yul\":5359:5373   */\n  lt\n    /* \"#utility.yul\":5339:5357   */\n  dup2\n    /* \"#utility.yul\":5336:5374   */\n  sub\n    /* \"#utility.yul\":5333:5417   */\n  tag_105\n  jumpi\n    /* \"#utility.yul\":5389:5407   */\n  tag_106\n  tag_29\n  jump\t// in\ntag_106:\n    /* \"#utility.yul\":5333:5417   */\ntag_105:\n    /* \"#utility.yul\":5154:5423   */\n  pop\n    /* \"#utility.yul\":5103:5423   */\n  swap2\n  swap1\n  pop\n  jump\t// out\n    /* \"#utility.yul\":5429:5570   */\ntag_31:\n    /* \"#utility.yul\":5478:5482   */\n  0x00\n    /* \"#utility.yul\":5501:5504   */\n  dup2\n    /* \"#utility.yul\":5493:5504   */\n  swap1\n  pop\n    /* \"#utility.yul\":5524:5527   */\n  dup2\n    /* \"#utility.yul\":5521:5522   */\n  0x00\n    /* \"#utility.yul\":5514:5528   */\n  mstore\n    /* \"#utility.yul\":5558:5562   */\n  0x20\n    /* \"#utility.yul\":5555:5556   */\n  0x00\n    /* \"#utility.yul\":5545:5563   */\n  keccak256\n    /* \"#utility.yul\":5537:5563   */\n  swap1\n  pop\n    /* \"#utility.yul\":5429:5570   */\n  swap2\n  swap1\n  pop\n  jump\t// out\n    /* \"#utility.yul\":5576:5669   */\ntag_32:\n    /* \"#utility.yul\":5613:5619   */\n  0x00\n    /* \"#utility.yul\":5660:5662   */\n  0x20\n    /* \"#utility.yul\":5655:5657   */\n  0x1f\n    /* \"#utility.yul\":5648:5653   */\n  dup4\n    /* \"#utility.yul\":5644:5658   */\n  add\n    /* \"#utility.yul\":5640:5663   */\n  div\n    /* \"#utility.yul\":5630:5663   */\n  swap1\n  pop\n    /* \"#utility.yul\":5576:5669   */\n  swap2\n  swap1\n  pop\n  jump\t// out\n    /* \"#utility.yul\":5675:5782   */\ntag_33:\n    /* \"#utility.yul\":5719:5727   */\n  0x00\n    /* \"#utility.yul\":5769:5774   */\n  dup3\n    /* \"#utility.yul\":5763:5767   */\n  dup3\n    /* \"#utility.yul\":5759:5775   */\n  shl\n    /* \"#utility.yul\":5738:5775   */\n  swap1\n  pop\n    /* \"#utility.yul\":5675:5782   */\n  swap3\n  swap2\n  pop\n  pop\n  jump\t// out\n    /* \"#utility.yul\":5788:6181   */\ntag_34:\n    /* \"#utility.yul\":5857:5863   */\n  0x00\n    /* \"#utility.yul\":5907:5908   */\n  0x08\n    /* \"#utility.yul\":5895:5905   */\n  dup4\n    /* \"#utility.yul\":5891:5909   */\n  mul\n    /* \"#utility.yul\":5930:6027   */\n  tag_111\n    /* \"#utility.yul\":5960:6026   */\n  0xffffffffffffffffffffffffffffffffffffffffffffffffffffffffffffffff\n    /* \"#utility.yul\":5949:5958   */\n  dup3\n    /* \"#utility.yul\":5930:6027   */\n  tag_33\n  jump\t// in\ntag_111:\n    /* \"#utility.yul\":6048:6087   */\n  tag_112\n    /* \"#utility.yul\":6078:6086   */\n  dup7\n    /* \"#utility.yul\":6067:6076   */\n  dup4\n    /* \"#utility.yul\":6048:6087   */\n  tag_33\n  jump\t// in\ntag_112:\n    /* \"#utility.yul\":6036:6087   */\n  swap6\n  pop\n    /* \"#utility.yul\":6120:6124   */\n  dup1\n    /* \"#utility.yul\":6116:6125   */\n  not\n    /* \"#utility.yul\":6109:6114   */\n  dup5\n    /* \"#utility.yul\":6105:6126   */\n  and\n    /* \"#utility.yul\":6096:6126   */\n  swap4\n  pop\n    /* \"#utility.yul\":6169:6173   */\n  dup1\n    /* \"#utility.yul\":6159:6167   */\n  dup7\n    /* \"#utility.yul\":6155:6174   */\n  and\n    /* \"#utility.yul\":6148:6153   */\n  dup5\n    /* \"#utility.yul\":6145:6175   */\n  or\n    /* \"#utility.yul\":6135:6175   */\n  swap3\n  pop\n    /* \"#utility.yul\":5864:6181   */\n  pop\n  pop\n    /* \"#utility.yul\":5788:6181   */\n  swap4\n  swap3\n  pop\n  pop\n  pop\n  jump\t// out\n    /* \"#utility.yul\":6187:6247   */\ntag_35:\n    /* \"#utility.yul\":6215:6218   */\n  0x00\n    /* \"#utility.yul\":6236:6241   */\n  dup2\n    /* \"#utility.yul\":6229:6241   */\n  swap1\n  pop\n    /* \"#utility.yul\":6187:6247   */\n  swap2\n  swap1\n  pop\n  jump\t// out\n    /* \"#utility.yul\":6253:6395   */\ntag_36:\n    /* \"#utility.yul\":6303:6312   */\n  0x00\n    /* \"#utility.yul\":6336:6389   */\n  tag_115\n    /* \"#utility.yul\":6354:6388   */\n  tag_116\n    /* \"#utility.yul\":6363:6387   */\n  tag_117\n    /* \"#utility.yul\":6381:6386   */\n  dup5\n    /* \"#utility.yul\":6363:6387   */\n  tag_22\n  jump\t// in\ntag_117:\n    /* \"#utility.yul\":6354:6388   */\n  tag_35\n  jump\t// in\ntag_116:\n    /* \"#utility.yul\":6336:6389   */\n  tag_22\n  jump\t// in\ntag_115:\n    /* \"#utility.yul\":6323:6389   */\n  swap1\n  pop\n    /* \"#utility.yul\":6253:6395   */\n  swap2\n  swap1\n  pop\n  jump\t// out\n    /* \"#utility.yul\":6401:6476   */\ntag_37:\n    /* \"#utility.yul\":6444:6447   */\n  0x00\n    /* \"#utility.yul\":6465:6470   */\n  dup2\n    /* \"#utility.yul\":6458:6470   */\n  swap1\n  pop\n    /* \"#utility.yul\":6401:6476   */\n  swap2\n  swap1\n  pop\n  jump\t// out\n    /* \"#utility.yul\":6482:6751   */\ntag_38:\n    /* \"#utility.yul\":6592:6631   */\n  tag_120\n    /* \"#utility.yul\":6623:6630   */\n  dup4\n    /* \"#utility.yul\":6592:6631   */\n  tag_36\n  jump\t// in\ntag_120:\n    /* \"#utility.yul\":6653:6744   */\n  tag_121\n    /* \"#utility.yul\":6702:6743   */\n  tag_122\n    /* \"#utility.yul\":6726:6742   */\n  dup3\n    /* \"#utility.yul\":6702:6743   */\n  tag_37\n  jump\t// in\ntag_122:\n    /* \"#utility.yul\":6694:6700   */\n  dup5\n    /* \"#utility.yul\":6687:6691   */\n  dup5\n    /* \"#utility.yul\":6681:6692   */\n  sload\n    /* \"#utility.yul\":6653:6744   */\n  tag_34\n  jump\t// in\ntag_121:\n    /* \"#utility.yul\":6647:6651   */\n  dup3\n    /* \"#utility.yul\":6640:6745   */\n  sstore\n    /* \"#utility.yul\":6558:6751   */\n  pop\n    /* \"#utility.yul\":6482:6751   */\n  pop\n  pop\n  pop\n  jump\t// out\n    /* \"#utility.yul\":6757:6830   */\ntag_39:\n    /* \"#utility.yul\":6802:6805   */\n  0x00\n    /* \"#utility.yul\":6757:6830   */\n  swap1\n  jump\t// out\n    /* \"#utility.yul\":6836:7025   */\ntag_40:\n    /* \"#utility.yul\":6913:6945   */\n  tag_125\n  tag_39\n  jump\t// in\ntag_125:\n    /* \"#utility.yul\":6954:7019   */\n  tag_126\n    /* \"#utility.yul\":7012:7018   */\n  dup2\n    /* \"#utility.yul\":7004:7010   */\n  dup5\n    /* \"#utility.yul\":6998:7002   */\n  dup5\n    /* \"#utility.yul\":6954:7019   */\n  tag_38\n  jump\t// in\ntag_126:\n    /* \"#utility.yul\":6889:7025   */\n  pop\n    /* \"#utility.yul\":6836:7025   */\n  pop\n  pop\n  jump\t// out\n    /* \"#utility.yul\":7031:7217   */\ntag_41:\n    /* \"#utility.yul\":7091:7211   */\ntag_128:\n    /* \"#utility.yul\":7108:7111   */\n  dup2\n    /* \"#utility.yul\":7101:7106   */\n  dup2\n    /* \"#utility.yul\":7098:7112   */\n  lt\n    /* \"#utility.yul\":7091:7211   */\n  iszero\n  tag_130\n  jumpi\n    /* \"#utility.yul\":7162:7201   */\n  tag_131\n    /* \"#utility.yul\":7199:7200   */\n  0x00\n    /* \"#utility.yul\":7192:7197   */\n  dup3\n    /* \"#utility.yul\":7162:7201   */\n  tag_40\n  jump\t// in\ntag_131:\n    /* \"#utility.yul\":7135:7136   */\n  0x01\n    /* \"#utility.yul\":7128:7133   */\n  dup2\n    /* \"#utility.yul\":7124:7137   */\n  add\n    /* \"#utility.yul\":7115:7137   */\n  swap1\n  pop\n    /* \"#utility.yul\":7091:7211   */\n  jump(tag_128)\ntag_130:\n    /* \"#utility.yul\":7031:7217   */\n  pop\n  pop\n  jump\t// out\n    /* \"#utility.yul\":7223:7766   */\ntag_42:\n    /* \"#utility.yul\":7324:7326   */\n  0x1f\n    /* \"#utility.yul\":7319:7322   */\n  dup3\n    /* \"#utility.yul\":7316:7327   */\n  gt\n    /* \"#utility.yul\":7313:7759   */\n  iszero\n  tag_133\n  jumpi\n    /* \"#utility.yul\":7358:7396   */\n  tag_134\n    /* \"#utility.yul\":7390:7395   */\n  dup2\n    /* \"#utility.yul\":7358:7396   */\n  tag_31\n  jump\t// in\ntag_134:\n    /* \"#utility.yul\":7442:7471   */\n  tag_135\n    /* \"#utility.yul\":7460:7470   */\n  dup5\n    /* \"#utility.yul\":7442:7471   */\n  tag_32\n  jump\t// in\ntag_135:\n    /* \"#utility.yul\":7432:7440   */\n  dup2\n    /* \"#utility.yul\":7428:7472   */\n  add\n    /* \"#utility.yul\":7625:7627   */\n  0x20\n    /* \"#utility.yul\":7613:7623   */\n  dup6\n    /* \"#utility.yul\":7610:7628   */\n  lt\n    /* \"#utility.yul\":7607:7656   */\n  iszero\n  tag_136\n  jumpi\n    /* \"#utility.yul\":7646:7654   */\n  dup2\n    /* \"#utility.yul\":7631:7654   */\n  swap1\n  pop\n    /* \"#utility.yul\":7607:7656   */\ntag_136:\n    /* \"#utility.yul\":7669:7749   */\n  tag_137\n    /* \"#utility.yul\":7725:7747   */\n  tag_138\n    /* \"#utility.yul\":7743:7746   */\n  dup6\n    /* \"#utility.yul\":7725:7747   */\n  tag_32\n  jump\t// in\ntag_138:\n    /* \"#utility.yul\":7715:7723   */\n  dup4\n    /* \"#utility.yul\":7711:7748   */\n  add\n    /* \"#utility.yul\":7698:7709   */\n  dup3\n    /* \"#utility.yul\":7669:7749   */\n  tag_41\n  jump\t// in\ntag_137:\n    /* \"#utility.yul\":7328:7759   */\n  pop\n  pop\n    /* \"#utility.yul\":7313:7759   */\ntag_133:\n    /* \"#utility.yul\":7223:7766   */\n  pop\n  pop\n  pop\n  jump\t// out\n    /* \"#utility.yul\":7772:7889   */\ntag_43:\n    /* \"#utility.yul\":7826:7834   */\n  0x00\n    /* \"#utility.yul\":7876:7881   */\n  dup3\n    /* \"#utility.yul\":7870:7874   */\n  dup3\n    /* \"#utility.yul\":7866:7882   */\n  shr\n    /* \"#utility.yul\":7845:7882   */\n  swap1\n  pop\n    /* \"#utility.yul\":7772:7889   */\n  swap3\n  swap2\n  pop\n  pop\n  jump\t// out\n    /* \"#utility.yul\":7895:8064   */\ntag_44:\n    /* \"#utility.yul\":7939:7945   */\n  0x00\n    /* \"#utility.yul\":7972:8023   */\n  tag_141\n    /* \"#utility.yul\":8020:8021   */\n  0x00\n    /* \"#utility.yul\":8016:8022   */\n  not\n    /* \"#utility.yul\":8008:8013   */\n  dup5\n    /* \"#utility.yul\":8005:8006   */\n  0x08\n    /* \"#utility.yul\":8001:8014   */\n  mul\n    /* \"#utility.yul\":7972:8023   */\n  tag_43\n  jump\t// in\ntag_141:\n    /* \"#utility.yul\":7968:8024   */\n  not\n    /* \"#utility.yul\":8053:8057   */\n  dup1\n    /* \"#utility.yul\":8047:8051   */\n  dup4\n    /* \"#utility.yul\":8043:8058   */\n  and\n    /* \"#utility.yul\":8033:8058   */\n  swap2\n  pop\n    /* \"#utility.yul\":7946:8064   */\n  pop\n    /* \"#utility.yul\":7895:8064   */\n  swap3\n  swap2\n  pop\n  pop\n  jump\t// out\n    /* \"#utility.yul\":8069:8364   */\ntag_45:\n    /* \"#utility.yul\":8145:8149   */\n  0x00\n    /* \"#utility.yul\":8291:8320   */\n  tag_143\n    /* \"#utility.yul\":8316:8319   */\n  dup4\n    /* \"#utility.yul\":8310:8314   */\n  dup4\n    /* \"#utility.yul\":8291:8320   */\n  tag_44\n  jump\t// in\ntag_143:\n    /* \"#utility.yul\":8283:8320   */\n  swap2\n  pop\n    /* \"#utility.yul\":8353:8356   */\n  dup3\n    /* \"#utility.yul\":8350:8351   */\n  0x02\n    /* \"#utility.yul\":8346:8357   */\n  mul\n    /* \"#utility.yul\":8340:8344   */\n  dup3\n    /* \"#utility.yul\":8337:8358   */\n  or\n    /* \"#utility.yul\":8329:8358   */\n  swap1\n  pop\n    /* \"#utility.yul\":8069:8364   */\n  swap3\n  swap2\n  pop\n  pop\n  jump\t// out\n    /* \"#utility.yul\":8369:9764   */\ntag_7:\n    /* \"#utility.yul\":8486:8523   */\n  tag_145\n    /* \"#utility.yul\":8519:8522   */\n  dup3\n    /* \"#utility.yul\":8486:8523   */\n  tag_28\n  jump\t// in\ntag_145:\n    /* \"#utility.yul\":8588:8606   */\n  0xffffffffffffffff\n    /* \"#utility.yul\":8580:8586   */\n  dup2\n    /* \"#utility.yul\":8577:8607   */\n  gt\n    /* \"#utility.yul\":8574:8630   */\n  iszero\n  tag_146\n  jumpi\n    /* \"#utility.yul\":8610:8628   */\n  tag_147\n  tag_15\n  jump\t// in\ntag_147:\n    /* \"#utility.yul\":8574:8630   */\ntag_146:\n    /* \"#utility.yul\":8654:8692   */\n  tag_148\n    /* \"#utility.yul\":8686:8690   */\n  dup3\n    /* \"#utility.yul\":8680:8691   */\n  sload\n    /* \"#utility.yul\":8654:8692   */\n  tag_30\n  jump\t// in\ntag_148:\n    /* \"#utility.yul\":8739:8806   */\n  tag_149\n    /* \"#utility.yul\":8799:8805   */\n  dup3\n    /* \"#utility.yul\":8791:8797   */\n  dup3\n    /* \"#utility.yul\":8785:8789   */\n  dup6\n    /* \"#utility.yul\":8739:8806   */\n  tag_42\n  jump\t// in\ntag_149:\n    /* \"#utility.yul\":8833:8834   */\n  0x00\n    /* \"#utility.yul\":8857:8861   */\n  0x20\n    /* \"#utility.yul\":8844:8861   */\n  swap1\n  pop\n    /* \"#utility.yul\":8889:8891   */\n  0x1f\n    /* \"#utility.yul\":8881:8887   */\n  dup4\n    /* \"#utility.yul\":8878:8892   */\n  gt\n    /* \"#utility.yul\":8906:8907   */\n  0x01\n    /* \"#utility.yul\":8901:9519   */\n  dup2\n  eq\n  tag_151\n  jumpi\n    /* \"#utility.yul\":9563:9564   */\n  0x00\n    /* \"#utility.yul\":9580:9586   */\n  dup5\n    /* \"#utility.yul\":9577:9654   */\n  iszero\n  tag_152\n  jumpi\n    /* \"#utility.yul\":9629:9638   */\n  dup3\n    /* \"#utility.yul\":9624:9627   */\n  dup8\n    /* \"#utility.yul\":9620:9639   */\n  add\n    /* \"#utility.yul\":9614:9640   */\n  mload\n    /* \"#utility.yul\":9605:9640   */\n  swap1\n  pop\n    /* \"#utility.yul\":9577:9654   */\ntag_152:\n    /* \"#utility.yul\":9680:9747   */\n  tag_153\n    /* \"#utility.yul\":9740:9746   */\n  dup6\n    /* \"#utility.yul\":9733:9738   */\n  dup3\n    /* \"#utility.yul\":9680:9747   */\n  tag_45\n  jump\t// in\ntag_153:\n    /* \"#utility.yul\":9674:9678   */\n  dup7\n    /* \"#utility.yul\":9667:9748   */\n  sstore\n    /* \"#utility.yul\":9536:9758   */\n  pop\n    /* \"#utility.yul\":8871:9758   */\n  jump(tag_150)\n    /* \"#utility.yul\":8901:9519   */\ntag_151:\n    /* \"#utility.yul\":8953:8957   */\n  0x1f\n    /* \"#utility.yul\":8949:8958   */\n  not\n    /* \"#utility.yul\":8941:8947   */\n  dup5\n    /* \"#utility.yul\":8937:8959   */\n  and\n    /* \"#utility.yul\":8987:9024   */\n  tag_154\n    /* \"#utility.yul\":9019:9023   */\n  dup7\n    /* \"#utility.yul\":8987:9024   */\n  tag_31\n  jump\t// in\ntag_154:\n    /* \"#utility.yul\":9046:9047   */\n  0x00\n    /* \"#utility.yul\":9060:9268   */\ntag_155:\n    /* \"#utility.yul\":9074:9081   */\n  dup3\n    /* \"#utility.yul\":9071:9072   */\n  dup2\n    /* \"#utility.yul\":9068:9082   */\n  lt\n    /* \"#utility.yul\":9060:9268   */\n  iszero\n  tag_157\n  jumpi\n    /* \"#utility.yul\":9153:9162   */\n  dup5\n    /* \"#utility.yul\":9148:9151   */\n  dup10\n    /* \"#utility.yul\":9144:9163   */\n  add\n    /* \"#utility.yul\":9138:9164   */\n  mload\n    /* \"#utility.yul\":9130:9136   */\n  dup3\n    /* \"#utility.yul\":9123:9165   */\n  sstore\n    /* \"#utility.yul\":9204:9205   */\n  0x01\n    /* \"#utility.yul\":9196:9202   */\n  dup3\n    /* \"#utility.yul\":9192:9206   */\n  add\n    /* \"#utility.yul\":9182:9206   */\n  swap2\n  pop\n    /* \"#utility.yul\":9251:9253   */\n  0x20\n    /* \"#utility.yul\":9240:9249   */\n  dup6\n    /* \"#utility.yul\":9236:9254   */\n  add\n    /* \"#utility.yul\":9223:9254   */\n  swap5\n  pop\n    /* \"#utility.yul\":9097:9101   */\n  0x20\n    /* \"#utility.yul\":9094:9095   */\n  dup2\n    /* \"#utility.yul\":9090:9102   */\n  add\n    /* \"#utility.yul\":9085:9102   */\n  swap1\n  pop\n    /* \"#utility.yul\":9060:9268   */\n  jump(tag_155)\ntag_157:\n    /* \"#utility.yul\":9296:9302   */\n  dup7\n    /* \"#utility.yul\":9287:9294   */\n  dup4\n    /* \"#utility.yul\":9284:9303   */\n  lt\n    /* \"#utility.yul\":9281:9460   */\n  iszero\n  tag_158\n  jumpi\n    /* \"#utility.yul\":9354:9363   */\n  dup5\n    /* \"#utility.yul\":9349:9352   */\n  dup10\n    /* \"#utility.yul\":9345:9364   */\n  add\n    /* \"#utility.yul\":9339:9365   */\n  mload\n    /* \"#utility.yul\":9397:9445   */\n  tag_159\n    /* \"#utility.yul\":9439:9443   */\n  0x1f\n    /* \"#utility.yul\":9431:9437   */\n  dup10\n    /* \"#utility.yul\":9427:9444   */\n  and\n    /* \"#utility.yul\":9416:9425   */\n  dup3\n    /* \"#utility.yul\":9397:9445   */\n  tag_44\n  jump\t// in\ntag_159:\n    /* \"#utility.yul\":9389:9395   */\n  dup4\n    /* \"#utility.yul\":9382:9446   */\n  sstore\n    /* \"#utility.yul\":9304:9460   */\n  pop\n    /* \"#utility.yul\":9281:9460   */\ntag_158:\n    /* \"#utility.yul\":9506:9507   */\n  0x01\n    /* \"#utility.yul\":9502:9503   */\n  0x02\n    /* \"#utility.yul\":9494:9500   */\n  dup9\n    /* \"#utility.yul\":9490:9504   */\n  mul\n    /* \"#utility.yul\":9486:9508   */\n  add\n    /* \"#utility.yul\":9480:9484   */\n  dup9\n    /* \"#utility.yul\":9473:9509   */\n  sstore\n    /* \"#utility.yul\":8908:9519   */\n  pop\n  pop\n  pop\n    /* \"#utility.yul\":8871:9758   */\ntag_150:\n  pop\n    /* \"#utility.yul\":8461:9764   */\n  pop\n  pop\n  pop\n    /* \"#utility.yul\":8369:9764   */\n  pop\n  pop\n  jump\t// out\n    /* \"Project/MultiAgentBlockchain/english_auction.sol\":221:3253  contract Auction{... */\ntag_8:\n  dataSize(sub_0)\n  dup1\n  dataOffset(sub_0)\n  0x00\n  codecopy\n  0x00\n  return\nstop\n\nsub_0: assembly {\n        /* \"Project/MultiAgentBlockchain/english_auction.sol\":221:3253  contract Auction{... */\n      mstore(0x40, 0x80)\n      jumpi(tag_1, lt(calldatasize, 0x04))\n      shr(0xe0, calldataload(0x00))\n      dup1\n      0xbb0f9575\n      gt\n      tag_10\n      jumpi\n      dup1\n      0xbb0f9575\n      eq\n      tag_6\n      jumpi\n      dup1\n      0xc028df06\n      eq\n      tag_7\n      jumpi\n      dup1\n      0xfcc8f793\n      eq\n      tag_8\n      jumpi\n      dup1\n      0xfcfff16f\n      eq\n      tag_9\n      jumpi\n      jump(tag_1)\n    tag_10:\n      dup1\n      0x43d726d6\n      eq\n      tag_2\n      jumpi\n      dup1\n      0x47535d7b\n      eq\n      tag_3\n      jumpi\n      dup1\n      0x7cc3ae8c\n      eq\n      tag_4\n      jumpi\n      dup1\n      0x83229290\n      eq\n      tag_5\n      jumpi\n    tag_1:\n      0x00\n      dup1\n      revert\n        /* \"Project/MultiAgentBlockchain/english_auction.sol\":1621:1808  function close() public isOwner isOpened{... */\n    tag_2:\n      callvalue\n      dup1\n      iszero\n      tag_11\n      jumpi\n      0x00\n      dup1\n      revert\n    tag_11:\n      pop\n      tag_12\n      tag_13\n      jump\t// in\n    tag_12:\n      stop\n        /* \"Project/MultiAgentBlockchain/english_auction.sol\":1816:1911  function isOpen() public view isOpened returns (bool is_open) {... */\n    tag_3:\n      callvalue\n      dup1\n      iszero\n      tag_14\n      jumpi\n      0x00\n      dup1\n      revert\n    tag_14:\n      pop\n      tag_15\n      tag_16\n      jump\t// in\n    tag_15:\n      mload(0x40)\n      tag_17\n      swap2\n      swap1\n      tag_18\n      jump\t// in\n    tag_17:\n      mload(0x40)\n      dup1\n      swap2\n      sub\n      swap1\n      return\n        /* \"Project/MultiAgentBlockchain/english_auction.sol\":385:402  uint public endAt */\n    tag_4:\n      callvalue\n      dup1\n      iszero\n      tag_19\n      jumpi\n      0x00\n      dup1\n      revert\n    tag_19:\n      pop\n      tag_20\n      tag_21\n      jump\t// in\n    tag_20:\n      mload(0x40)\n      tag_22\n      swap2\n      swap1\n      tag_23\n      jump\t// in\n    tag_22:\n      mload(0x40)\n      dup1\n      swap2\n      sub\n      swap1\n      return\n        /* \"Project/MultiAgentBlockchain/english_auction.sol\":2507:2810  function retire_win() public payable {... */\n    tag_5:\n      tag_24\n      tag_25\n      jump\t// in\n    tag_24:\n      stop\n        /* \"Project/MultiAgentBlockchain/english_auction.sol\":2873:3248  function retire_funds() public payable {... */\n    tag_6:\n      tag_26\n      tag_27\n      jump\t// in\n    tag_26:\n      stop\n        /* \"Project/MultiAgentBlockchain/english_auction.sol\":2022:2489  function offer() public payable isOpened {... */\n    tag_7:\n      tag_28\n      tag_29\n      jump\t// in\n    tag_28:\n      stop\n        /* \"Project/MultiAgentBlockchain/english_auction.sol\":497:539  mapping(address => uint256) public bidders */\n    tag_8:\n      callvalue\n      dup1\n      iszero\n      tag_30\n      jumpi\n      0x00\n      dup1\n      revert\n    tag_30:\n      pop\n      tag_31\n      0x04\n      dup1\n      calldatasize\n      sub\n      dup2\n      add\n      swap1\n      tag_32\n      swap2\n      swap1\n      tag_33\n      jump\t// in\n    tag_32:\n      tag_34\n      jump\t// in\n    tag_31:\n      mload(0x40)\n      tag_35\n      swap2\n      swap1\n      tag_23\n      jump\t// in\n    tag_35:\n      mload(0x40)\n      dup1\n      swap2\n      sub\n      swap1\n      return\n        /* \"Project/MultiAgentBlockchain/english_auction.sol\":1451:1612  function open() public isOwner{... */\n    tag_9:\n      callvalue\n      dup1\n      iszero\n      tag_36\n      jumpi\n      0x00\n      dup1\n      revert\n    tag_36:\n      pop\n      tag_37\n      tag_38\n      jump\t// in\n    tag_37:\n      stop\n        /* \"Project/MultiAgentBlockchain/english_auction.sol\":1621:1808  function close() public isOwner isOpened{... */\n    tag_13:\n        /* \"Project/MultiAgentBlockchain/english_auction.sol\":892:902  msg.sender */\n      caller\n        /* \"Project/MultiAgentBlockchain/english_auction.sol\":883:902  owner == msg.sender */\n      0xffffffffffffffffffffffffffffffffffffffff\n      and\n        /* \"Project/MultiAgentBlockchain/english_auction.sol\":883:888  owner */\n      0x00\n      dup1\n      sload\n      swap1\n      0x0100\n      exp\n      swap1\n      div\n      0xffffffffffffffffffffffffffffffffffffffff\n      and\n        /* \"Project/MultiAgentBlockchain/english_auction.sol\":883:902  owner == msg.sender */\n      0xffffffffffffffffffffffffffffffffffffffff\n      and\n      eq\n        /* \"Project/MultiAgentBlockchain/english_auction.sol\":875:948  require(owner == msg.sender, \"Only the owner open/can close the auction\") */\n      tag_40\n      jumpi\n      mload(0x40)\n      0x08c379a000000000000000000000000000000000000000000000000000000000\n      dup2\n      mstore\n      0x04\n      add\n      tag_41\n      swap1\n      tag_42\n      jump\t// in\n    tag_41:\n      mload(0x40)\n      dup1\n      swap2\n      sub\n      swap1\n      revert\n    tag_40:\n        /* \"Project/MultiAgentBlockchain/english_auction.sol\":1023:1027  true */\n      0x01\n        /* \"Project/MultiAgentBlockchain/english_auction.sol\":1012:1027  is_open == true */\n      iszero\n      iszero\n        /* \"Project/MultiAgentBlockchain/english_auction.sol\":1012:1019  is_open */\n      0x06\n      0x00\n      swap1\n      sload\n      swap1\n      0x0100\n      exp\n      swap1\n      div\n      0xff\n      and\n        /* \"Project/MultiAgentBlockchain/english_auction.sol\":1012:1027  is_open == true */\n      iszero\n      iszero\n      eq\n        /* \"Project/MultiAgentBlockchain/english_auction.sol\":1004:1064  require(is_open == true, \"The auction have to opened first\") */\n      tag_44\n      jumpi\n      mload(0x40)\n      0x08c379a000000000000000000000000000000000000000000000000000000000\n      dup2\n      mstore\n      0x04\n      add\n      tag_45\n      swap1\n      tag_46\n      jump\t// in\n    tag_45:\n      mload(0x40)\n      dup1\n      swap2\n      sub\n      swap1\n      revert\n    tag_44:\n        /* \"Project/MultiAgentBlockchain/english_auction.sol\":1699:1704  endAt */\n      sload(0x03)\n        /* \"Project/MultiAgentBlockchain/english_auction.sol\":1680:1695  block.timestamp */\n      timestamp\n        /* \"Project/MultiAgentBlockchain/english_auction.sol\":1680:1704  block.timestamp >= endAt */\n      lt\n      iszero\n        /* \"Project/MultiAgentBlockchain/english_auction.sol\":1672:1718  require(block.timestamp >= endAt, \"not ended\") */\n      tag_48\n      jumpi\n      mload(0x40)\n      0x08c379a000000000000000000000000000000000000000000000000000000000\n      dup2\n      mstore\n      0x04\n      add\n      tag_49\n      swap1\n      tag_50\n      jump\t// in\n    tag_49:\n      mload(0x40)\n      dup1\n      swap2\n      sub\n      swap1\n      revert\n    tag_48:\n        /* \"Project/MultiAgentBlockchain/english_auction.sol\":1739:1744  false */\n      0x00\n        /* \"Project/MultiAgentBlockchain/english_auction.sol\":1729:1736  is_open */\n      0x06\n      0x00\n        /* \"Project/MultiAgentBlockchain/english_auction.sol\":1729:1744  is_open = false */\n      0x0100\n      exp\n      dup2\n      sload\n      dup2\n      0xff\n      mul\n      not\n      and\n      swap1\n      dup4\n      iszero\n      iszero\n      mul\n      or\n      swap1\n      sstore\n      pop\n        /* \"Project/MultiAgentBlockchain/english_auction.sol\":1760:1800  AuctionClosed(owner, winner, best_price) */\n      0xe810c871ce50ff674e2e5e2a570cf162a6ee85fe638d22afd8c00a57904f86e8\n        /* \"Project/MultiAgentBlockchain/english_auction.sol\":1774:1779  owner */\n      0x00\n      dup1\n      sload\n      swap1\n      0x0100\n      exp\n      swap1\n      div\n      0xffffffffffffffffffffffffffffffffffffffff\n      and\n        /* \"Project/MultiAgentBlockchain/english_auction.sol\":1781:1787  winner */\n      0x04\n      0x00\n      swap1\n      sload\n      swap1\n      0x0100\n      exp\n      swap1\n      div\n      0xffffffffffffffffffffffffffffffffffffffff\n      and\n        /* \"Project/MultiAgentBlockchain/english_auction.sol\":1789:1799  best_price */\n      sload(0x05)\n        /* \"Project/MultiAgentBlockchain/english_auction.sol\":1760:1800  AuctionClosed(owner, winner, best_price) */\n      mload(0x40)\n      tag_51\n      swap4\n      swap3\n      swap2\n      swap1\n      tag_52\n      jump\t// in\n    tag_51:\n      mload(0x40)\n      dup1\n      swap2\n      sub\n      swap1\n      log1\n        /* \"Project/MultiAgentBlockchain/english_auction.sol\":1621:1808  function close() public isOwner isOpened{... */\n      jump\t// out\n        /* \"Project/MultiAgentBlockchain/english_auction.sol\":1816:1911  function isOpen() public view isOpened returns (bool is_open) {... */\n    tag_16:\n        /* \"Project/MultiAgentBlockchain/english_auction.sol\":1864:1876  bool is_open */\n      0x00\n        /* \"Project/MultiAgentBlockchain/english_auction.sol\":1023:1027  true */\n      0x01\n        /* \"Project/MultiAgentBlockchain/english_auction.sol\":1012:1027  is_open == true */\n      iszero\n      iszero\n        /* \"Project/MultiAgentBlockchain/english_auction.sol\":1012:1019  is_open */\n      0x06\n      0x00\n      swap1\n      sload\n      swap1\n      0x0100\n      exp\n      swap1\n      div\n      0xff\n      and\n        /* \"Project/MultiAgentBlockchain/english_auction.sol\":1012:1027  is_open == true */\n      iszero\n      iszero\n      eq\n        /* \"Project/MultiAgentBlockchain/english_auction.sol\":1004:1064  require(is_open == true, \"The auction have to opened first\") */\n      tag_54\n      jumpi\n      mload(0x40)\n      0x08c379a000000000000000000000000000000000000000000000000000000000\n      dup2\n      mstore\n      0x04\n      add\n      tag_55\n      swap1\n      tag_46\n      jump\t// in\n    tag_55:\n      mload(0x40)\n      dup1\n      swap2\n      sub\n      swap1\n      revert\n    tag_54:\n        /* \"Project/MultiAgentBlockchain/english_auction.sol\":1816:1911  function isOpen() public view isOpened returns (bool is_open) {... */\n      swap1\n      jump\t// out\n        /* \"Project/MultiAgentBlockchain/english_auction.sol\":385:402  uint public endAt */\n    tag_21:\n      sload(0x03)\n      dup2\n      jump\t// out\n        /* \"Project/MultiAgentBlockchain/english_auction.sol\":2507:2810  function retire_win() public payable {... */\n    tag_25:\n        /* \"Project/MultiAgentBlockchain/english_auction.sol\":2577:2583  winner */\n      0x04\n      0x00\n      swap1\n      sload\n      swap1\n      0x0100\n      exp\n      swap1\n      div\n      0xffffffffffffffffffffffffffffffffffffffff\n      and\n        /* \"Project/MultiAgentBlockchain/english_auction.sol\":2563:2583  msg.sender == winner */\n      0xffffffffffffffffffffffffffffffffffffffff\n      and\n        /* \"Project/MultiAgentBlockchain/english_auction.sol\":2563:2573  msg.sender */\n      caller\n        /* \"Project/MultiAgentBlockchain/english_auction.sol\":2563:2583  msg.sender == winner */\n      0xffffffffffffffffffffffffffffffffffffffff\n      and\n      eq\n        /* \"Project/MultiAgentBlockchain/english_auction.sol\":2555:2640  require(msg.sender == winner, \"Solo il vincitore dell'asta puo' ritirare la vincita\") */\n      tag_58\n      jumpi\n      mload(0x40)\n      0x08c379a000000000000000000000000000000000000000000000000000000000\n      dup2\n      mstore\n      0x04\n      add\n      tag_59\n      swap1\n      tag_60\n      jump\t// in\n    tag_59:\n      mload(0x40)\n      dup1\n      swap2\n      sub\n      swap1\n      revert\n    tag_58:\n        /* \"Project/MultiAgentBlockchain/english_auction.sol\":2670:2675  false */\n      0x00\n        /* \"Project/MultiAgentBlockchain/english_auction.sol\":2659:2675  is_open == false */\n      iszero\n      iszero\n        /* \"Project/MultiAgentBlockchain/english_auction.sol\":2659:2666  is_open */\n      0x06\n      0x00\n      swap1\n      sload\n      swap1\n      0x0100\n      exp\n      swap1\n      div\n      0xff\n      and\n        /* \"Project/MultiAgentBlockchain/english_auction.sol\":2659:2675  is_open == false */\n      iszero\n      iszero\n      eq\n        /* \"Project/MultiAgentBlockchain/english_auction.sol\":2651:2707  require(is_open == false, \"L'asta non e' ancora chiusa\") */\n      tag_61\n      jumpi\n      mload(0x40)\n      0x08c379a000000000000000000000000000000000000000000000000000000000\n      dup2\n      mstore\n      0x04\n      add\n      tag_62\n      swap1\n      tag_63\n      jump\t// in\n    tag_62:\n      mload(0x40)\n      dup1\n      swap2\n      sub\n      swap1\n      revert\n    tag_61:\n        /* \"Project/MultiAgentBlockchain/english_auction.sol\":2723:2755  WinningWithdrawn(winner, object) */\n      0x5e8c64c7c4bf81541143e96785b6fe89c8c1c2e524aac8b02d7e09f899a3108e\n        /* \"Project/MultiAgentBlockchain/english_auction.sol\":2740:2746  winner */\n      0x04\n      0x00\n      swap1\n      sload\n      swap1\n      0x0100\n      exp\n      swap1\n      div\n      0xffffffffffffffffffffffffffffffffffffffff\n      and\n        /* \"Project/MultiAgentBlockchain/english_auction.sol\":2748:2754  object */\n      0x01\n        /* \"Project/MultiAgentBlockchain/english_auction.sol\":2723:2755  WinningWithdrawn(winner, object) */\n      mload(0x40)\n      tag_64\n      swap3\n      swap2\n      swap1\n      tag_65\n      jump\t// in\n    tag_64:\n      mload(0x40)\n      dup1\n      swap2\n      sub\n      swap1\n      log1\n        /* \"Project/MultiAgentBlockchain/english_auction.sol\":2776:2781  owner */\n      0x00\n      dup1\n      sload\n      swap1\n      0x0100\n      exp\n      swap1\n      div\n      0xffffffffffffffffffffffffffffffffffffffff\n      and\n        /* \"Project/MultiAgentBlockchain/english_auction.sol\":2776:2790  owner.transfer */\n      0xffffffffffffffffffffffffffffffffffffffff\n      and\n        /* \"Project/MultiAgentBlockchain/english_auction.sol\":2776:2802  owner.transfer(best_price) */\n      0x08fc\n        /* \"Project/MultiAgentBlockchain/english_auction.sol\":2791:2801  best_price */\n      sload(0x05)\n        /* \"Project/MultiAgentBlockchain/english_auction.sol\":2776:2802  owner.transfer(best_price) */\n      swap1\n      dup2\n      iszero\n      mul\n      swap1\n      mload(0x40)\n      0x00\n      mload(0x40)\n      dup1\n      dup4\n      sub\n      dup2\n      dup6\n      dup9\n      dup9\n      call\n      swap4\n      pop\n      pop\n      pop\n      pop\n      iszero\n      dup1\n      iszero\n      tag_67\n      jumpi\n      returndatasize\n      0x00\n      dup1\n      returndatacopy\n      revert(0x00, returndatasize)\n    tag_67:\n      pop\n        /* \"Project/MultiAgentBlockchain/english_auction.sol\":2507:2810  function retire_win() public payable {... */\n      jump\t// out\n        /* \"Project/MultiAgentBlockchain/english_auction.sol\":2873:3248  function retire_funds() public payable {... */\n    tag_27:\n        /* \"Project/MultiAgentBlockchain/english_auction.sol\":2945:2951  winner */\n      0x04\n      0x00\n      swap1\n      sload\n      swap1\n      0x0100\n      exp\n      swap1\n      div\n      0xffffffffffffffffffffffffffffffffffffffff\n      and\n        /* \"Project/MultiAgentBlockchain/english_auction.sol\":2931:2951  msg.sender != winner */\n      0xffffffffffffffffffffffffffffffffffffffff\n      and\n        /* \"Project/MultiAgentBlockchain/english_auction.sol\":2931:2941  msg.sender */\n      caller\n        /* \"Project/MultiAgentBlockchain/english_auction.sol\":2931:2951  msg.sender != winner */\n      0xffffffffffffffffffffffffffffffffffffffff\n      and\n      sub\n        /* \"Project/MultiAgentBlockchain/english_auction.sol\":2923:3004  require(msg.sender != winner, \"Il vincitore dell'asta non puo' ritirare i fondi\") */\n      tag_69\n      jumpi\n      mload(0x40)\n      0x08c379a000000000000000000000000000000000000000000000000000000000\n      dup2\n      mstore\n      0x04\n      add\n      tag_70\n      swap1\n      tag_71\n      jump\t// in\n    tag_70:\n      mload(0x40)\n      dup1\n      swap2\n      sub\n      swap1\n      revert\n    tag_69:\n        /* \"Project/MultiAgentBlockchain/english_auction.sol\":3034:3039  false */\n      0x00\n        /* \"Project/MultiAgentBlockchain/english_auction.sol\":3023:3039  is_open == false */\n      iszero\n      iszero\n        /* \"Project/MultiAgentBlockchain/english_auction.sol\":3023:3030  is_open */\n      0x06\n      0x00\n      swap1\n      sload\n      swap1\n      0x0100\n      exp\n      swap1\n      div\n      0xff\n      and\n        /* \"Project/MultiAgentBlockchain/english_auction.sol\":3023:3039  is_open == false */\n      iszero\n      iszero\n      eq\n        /* \"Project/MultiAgentBlockchain/english_auction.sol\":3015:3071  require(is_open == false, \"L'asta non e' ancora chiusa\") */\n      tag_72\n      jumpi\n      mload(0x40)\n      0x08c379a000000000000000000000000000000000000000000000000000000000\n      dup2\n      mstore\n      0x04\n      add\n      tag_73\n      swap1\n      tag_63\n      jump\t// in\n    tag_73:\n      mload(0x40)\n      dup1\n      swap2\n      sub\n      swap1\n      revert\n    tag_72:\n        /* \"Project/MultiAgentBlockchain/english_auction.sol\":3087:3134  FundsWithdrawn(msg.sender, bidders[msg.sender]) */\n      0xeaff4b37086828766ad3268786972c0cd24259d4c87a80f9d3963a3c3d999b0d\n        /* \"Project/MultiAgentBlockchain/english_auction.sol\":3102:3112  msg.sender */\n      caller\n        /* \"Project/MultiAgentBlockchain/english_auction.sol\":3114:3121  bidders */\n      0x09\n        /* \"Project/MultiAgentBlockchain/english_auction.sol\":3114:3133  bidders[msg.sender] */\n      0x00\n        /* \"Project/MultiAgentBlockchain/english_auction.sol\":3122:3132  msg.sender */\n      caller\n        /* \"Project/MultiAgentBlockchain/english_auction.sol\":3114:3133  bidders[msg.sender] */\n      0xffffffffffffffffffffffffffffffffffffffff\n      and\n      0xffffffffffffffffffffffffffffffffffffffff\n      and\n      dup2\n      mstore\n      0x20\n      add\n      swap1\n      dup2\n      mstore\n      0x20\n      add\n      0x00\n      keccak256\n      sload\n        /* \"Project/MultiAgentBlockchain/english_auction.sol\":3087:3134  FundsWithdrawn(msg.sender, bidders[msg.sender]) */\n      mload(0x40)\n      tag_74\n      swap3\n      swap2\n      swap1\n      tag_75\n      jump\t// in\n    tag_74:\n      mload(0x40)\n      dup1\n      swap2\n      sub\n      swap1\n      log1\n        /* \"Project/MultiAgentBlockchain/english_auction.sol\":3163:3173  msg.sender */\n      caller\n        /* \"Project/MultiAgentBlockchain/english_auction.sol\":3155:3183  payable(msg.sender).transfer */\n      0xffffffffffffffffffffffffffffffffffffffff\n      and\n        /* \"Project/MultiAgentBlockchain/english_auction.sol\":3155:3204  payable(msg.sender).transfer(bidders[msg.sender]) */\n      0x08fc\n        /* \"Project/MultiAgentBlockchain/english_auction.sol\":3184:3191  bidders */\n      0x09\n        /* \"Project/MultiAgentBlockchain/english_auction.sol\":3184:3203  bidders[msg.sender] */\n      0x00\n        /* \"Project/MultiAgentBlockchain/english_auction.sol\":3192:3202  msg.sender */\n      caller\n        /* \"Project/MultiAgentBlockchain/english_auction.sol\":3184:3203  bidders[msg.sender] */\n      0xffffffffffffffffffffffffffffffffffffffff\n      and\n      0xffffffffffffffffffffffffffffffffffffffff\n      and\n      dup2\n      mstore\n      0x20\n      add\n      swap1\n      dup2\n      mstore\n      0x20\n      add\n      0x00\n      keccak256\n      sload\n        /* \"Project/MultiAgentBlockchain/english_auction.sol\":3155:3204  payable(msg.sender).transfer(bidders[msg.sender]) */\n      swap1\n      dup2\n      iszero\n      mul\n      swap1\n      mload(0x40)\n      0x00\n      mload(0x40)\n      dup1\n      dup4\n      sub\n      dup2\n      dup6\n      dup9\n      dup9\n      call\n      swap4\n      pop\n      pop\n      pop\n      pop\n      iszero\n      dup1\n      iszero\n      tag_77\n      jumpi\n      returndatasize\n      0x00\n      dup1\n      returndatacopy\n      revert(0x00, returndatasize)\n    tag_77:\n      pop\n        /* \"Project/MultiAgentBlockchain/english_auction.sol\":3239:3240  0 */\n      0x00\n        /* \"Project/MultiAgentBlockchain/english_auction.sol\":3217:3224  bidders */\n      0x09\n        /* \"Project/MultiAgentBlockchain/english_auction.sol\":3217:3236  bidders[msg.sender] */\n      0x00\n        /* \"Project/MultiAgentBlockchain/english_auction.sol\":3225:3235  msg.sender */\n      caller\n        /* \"Project/MultiAgentBlockchain/english_auction.sol\":3217:3236  bidders[msg.sender] */\n      0xffffffffffffffffffffffffffffffffffffffff\n      and\n      0xffffffffffffffffffffffffffffffffffffffff\n      and\n      dup2\n      mstore\n      0x20\n      add\n      swap1\n      dup2\n      mstore\n      0x20\n      add\n      0x00\n      keccak256\n        /* \"Project/MultiAgentBlockchain/english_auction.sol\":3217:3240  bidders[msg.sender] = 0 */\n      dup2\n      swap1\n      sstore\n      pop\n        /* \"Project/MultiAgentBlockchain/english_auction.sol\":2873:3248  function retire_funds() public payable {... */\n      jump\t// out\n        /* \"Project/MultiAgentBlockchain/english_auction.sol\":2022:2489  function offer() public payable isOpened {... */\n    tag_29:\n        /* \"Project/MultiAgentBlockchain/english_auction.sol\":1023:1027  true */\n      0x01\n        /* \"Project/MultiAgentBlockchain/english_auction.sol\":1012:1027  is_open == true */\n      iszero\n      iszero\n        /* \"Project/MultiAgentBlockchain/english_auction.sol\":1012:1019  is_open */\n      0x06\n      0x00\n      swap1\n      sload\n      swap1\n      0x0100\n      exp\n      swap1\n      div\n      0xff\n      and\n        /* \"Project/MultiAgentBlockchain/english_auction.sol\":1012:1027  is_open == true */\n      iszero\n      iszero\n      eq\n        /* \"Project/MultiAgentBlockchain/english_auction.sol\":1004:1064  require(is_open == true, \"The auction have to opened first\") */\n      tag_79\n      jumpi\n      mload(0x40)\n      0x08c379a000000000000000000000000000000000000000000000000000000000\n      dup2\n      mstore\n      0x04\n      add\n      tag_80\n      swap1\n      tag_46\n      jump\t// in\n    tag_80:\n      mload(0x40)\n      dup1\n      swap2\n      sub\n      swap1\n      revert\n    tag_79:\n        /* \"Project/MultiAgentBlockchain/english_auction.sol\":2094:2104  best_price */\n      sload(0x05)\n        /* \"Project/MultiAgentBlockchain/english_auction.sol\":2082:2091  msg.value */\n      callvalue\n        /* \"Project/MultiAgentBlockchain/english_auction.sol\":2082:2104  msg.value < best_price */\n      lt\n        /* \"Project/MultiAgentBlockchain/english_auction.sol\":2074:2147  require(msg.value < best_price, \"L'offerta fatta non supera la migliore\") */\n      tag_82\n      jumpi\n      mload(0x40)\n      0x08c379a000000000000000000000000000000000000000000000000000000000\n      dup2\n      mstore\n      0x04\n      add\n      tag_83\n      swap1\n      tag_84\n      jump\t// in\n    tag_83:\n      mload(0x40)\n      dup1\n      swap2\n      sub\n      swap1\n      revert\n    tag_82:\n        /* \"Project/MultiAgentBlockchain/english_auction.sol\":2184:2189  endAt */\n      sload(0x03)\n        /* \"Project/MultiAgentBlockchain/english_auction.sol\":2166:2181  block.timestamp */\n      timestamp\n        /* \"Project/MultiAgentBlockchain/english_auction.sol\":2166:2189  block.timestamp < endAt */\n      lt\n        /* \"Project/MultiAgentBlockchain/english_auction.sol\":2158:2199  require(block.timestamp < endAt, \"ended\") */\n      tag_85\n      jumpi\n      mload(0x40)\n      0x08c379a000000000000000000000000000000000000000000000000000000000\n      dup2\n      mstore\n      0x04\n      add\n      tag_86\n      swap1\n      tag_87\n      jump\t// in\n    tag_86:\n      mload(0x40)\n      dup1\n      swap2\n      sub\n      swap1\n      revert\n    tag_85:\n        /* \"Project/MultiAgentBlockchain/english_auction.sol\":2215:2268  NewBid(\"New bid is proposed:\", msg.sender, msg.value) */\n      0x7a1ef295a7b3ead528a3d5dc5108df6fbe47739a34aa589a11433b98ce53c60e\n        /* \"Project/MultiAgentBlockchain/english_auction.sol\":2246:2256  msg.sender */\n      caller\n        /* \"Project/MultiAgentBlockchain/english_auction.sol\":2258:2267  msg.value */\n      callvalue\n        /* \"Project/MultiAgentBlockchain/english_auction.sol\":2215:2268  NewBid(\"New bid is proposed:\", msg.sender, msg.value) */\n      mload(0x40)\n      tag_88\n      swap3\n      swap2\n      swap1\n      tag_89\n      jump\t// in\n    tag_88:\n      mload(0x40)\n      dup1\n      swap2\n      sub\n      swap1\n      log1\n        /* \"Project/MultiAgentBlockchain/english_auction.sol\":2302:2311  msg.value */\n      callvalue\n        /* \"Project/MultiAgentBlockchain/english_auction.sol\":2289:2299  best_price */\n      0x05\n        /* \"Project/MultiAgentBlockchain/english_auction.sol\":2289:2311  best_price = msg.value */\n      dup2\n      swap1\n      sstore\n      pop\n        /* \"Project/MultiAgentBlockchain/english_auction.sol\":2331:2341  msg.sender */\n      caller\n        /* \"Project/MultiAgentBlockchain/english_auction.sol\":2322:2328  winner */\n      0x04\n      0x00\n        /* \"Project/MultiAgentBlockchain/english_auction.sol\":2322:2341  winner = msg.sender */\n      0x0100\n      exp\n      dup2\n      sload\n      dup2\n      0xffffffffffffffffffffffffffffffffffffffff\n      mul\n      not\n      and\n      swap1\n      dup4\n      0xffffffffffffffffffffffffffffffffffffffff\n      and\n      mul\n      or\n      swap1\n      sstore\n      pop\n        /* \"Project/MultiAgentBlockchain/english_auction.sol\":2384:2385  0 */\n      0x00\n        /* \"Project/MultiAgentBlockchain/english_auction.sol\":2365:2372  bidders */\n      0x09\n        /* \"Project/MultiAgentBlockchain/english_auction.sol\":2365:2380  bidders[winner] */\n      0x00\n        /* \"Project/MultiAgentBlockchain/english_auction.sol\":2373:2379  winner */\n      0x04\n      0x00\n      swap1\n      sload\n      swap1\n      0x0100\n      exp\n      swap1\n      div\n      0xffffffffffffffffffffffffffffffffffffffff\n      and\n        /* \"Project/MultiAgentBlockchain/english_auction.sol\":2365:2380  bidders[winner] */\n      0xffffffffffffffffffffffffffffffffffffffff\n      and\n      0xffffffffffffffffffffffffffffffffffffffff\n      and\n      dup2\n      mstore\n      0x20\n      add\n      swap1\n      dup2\n      mstore\n      0x20\n      add\n      0x00\n      keccak256\n      sload\n        /* \"Project/MultiAgentBlockchain/english_auction.sol\":2365:2385  bidders[winner] == 0 */\n      sub\n        /* \"Project/MultiAgentBlockchain/english_auction.sol\":2362:2431  if(bidders[winner] == 0){... */\n      tag_90\n      jumpi\n        /* \"Project/MultiAgentBlockchain/english_auction.sol\":2401:2406  users */\n      0x0a\n        /* \"Project/MultiAgentBlockchain/english_auction.sol\":2412:2418  winner */\n      0x04\n      0x00\n      swap1\n      sload\n      swap1\n      0x0100\n      exp\n      swap1\n      div\n      0xffffffffffffffffffffffffffffffffffffffff\n      and\n        /* \"Project/MultiAgentBlockchain/english_auction.sol\":2401:2419  users.push(winner) */\n      swap1\n      dup1\n      0x01\n      dup2\n      sload\n      add\n      dup1\n      dup3\n      sstore\n      dup1\n      swap2\n      pop\n      pop\n      0x01\n      swap1\n      sub\n      swap1\n      0x00\n      mstore\n      keccak256(0x00, 0x20)\n      add\n      0x00\n      swap1\n      swap2\n      swap1\n      swap2\n      swap1\n      swap2\n      0x0100\n      exp\n      dup2\n      sload\n      dup2\n      0xffffffffffffffffffffffffffffffffffffffff\n      mul\n      not\n      and\n      swap1\n      dup4\n      0xffffffffffffffffffffffffffffffffffffffff\n      and\n      mul\n      or\n      swap1\n      sstore\n      pop\n        /* \"Project/MultiAgentBlockchain/english_auction.sol\":2362:2431  if(bidders[winner] == 0){... */\n    tag_90:\n        /* \"Project/MultiAgentBlockchain/english_auction.sol\":2462:2471  msg.value */\n      callvalue\n        /* \"Project/MultiAgentBlockchain/english_auction.sol\":2443:2450  bidders */\n      0x09\n        /* \"Project/MultiAgentBlockchain/english_auction.sol\":2443:2458  bidders[winner] */\n      0x00\n        /* \"Project/MultiAgentBlockchain/english_auction.sol\":2451:2457  winner */\n      0x04\n      0x00\n      swap1\n      sload\n      swap1\n      0x0100\n      exp\n      swap1\n      div\n      0xffffffffffffffffffffffffffffffffffffffff\n      and\n        /* \"Project/MultiAgentBlockchain/english_auction.sol\":2443:2458  bidders[winner] */\n      0xffffffffffffffffffffffffffffffffffffffff\n      and\n      0xffffffffffffffffffffffffffffffffffffffff\n      and\n      dup2\n      mstore\n      0x20\n      add\n      swap1\n      dup2\n      mstore\n      0x20\n      add\n      0x00\n      keccak256\n      0x00\n        /* \"Project/MultiAgentBlockchain/english_auction.sol\":2443:2471  bidders[winner] += msg.value */\n      dup3\n      dup3\n      sload\n      tag_92\n      swap2\n      swap1\n      tag_93\n      jump\t// in\n    tag_92:\n      swap3\n      pop\n      pop\n      dup2\n      swap1\n      sstore\n      pop\n        /* \"Project/MultiAgentBlockchain/english_auction.sol\":2022:2489  function offer() public payable isOpened {... */\n      jump\t// out\n        /* \"Project/MultiAgentBlockchain/english_auction.sol\":497:539  mapping(address => uint256) public bidders */\n    tag_34:\n      mstore(0x20, 0x09)\n      dup1\n      0x00\n      mstore\n      keccak256(0x00, 0x40)\n      0x00\n      swap2\n      pop\n      swap1\n      pop\n      sload\n      dup2\n      jump\t// out\n        /* \"Project/MultiAgentBlockchain/english_auction.sol\":1451:1612  function open() public isOwner{... */\n    tag_38:\n        /* \"Project/MultiAgentBlockchain/english_auction.sol\":892:902  msg.sender */\n      caller\n        /* \"Project/MultiAgentBlockchain/english_auction.sol\":883:902  owner == msg.sender */\n      0xffffffffffffffffffffffffffffffffffffffff\n      and\n        /* \"Project/MultiAgentBlockchain/english_auction.sol\":883:888  owner */\n      0x00\n      dup1\n      sload\n      swap1\n      0x0100\n      exp\n      swap1\n      div\n      0xffffffffffffffffffffffffffffffffffffffff\n      and\n        /* \"Project/MultiAgentBlockchain/english_auction.sol\":883:902  owner == msg.sender */\n      0xffffffffffffffffffffffffffffffffffffffff\n      and\n      eq\n        /* \"Project/MultiAgentBlockchain/english_auction.sol\":875:948  require(owner == msg.sender, \"Only the owner open/can close the auction\") */\n      tag_95\n      jumpi\n      mload(0x40)\n      0x08c379a000000000000000000000000000000000000000000000000000000000\n      dup2\n      mstore\n      0x04\n      add\n      tag_96\n      swap1\n      tag_42\n      jump\t// in\n    tag_96:\n      mload(0x40)\n      dup1\n      swap2\n      sub\n      swap1\n      revert\n    tag_95:\n        /* \"Project/MultiAgentBlockchain/english_auction.sol\":1502:1506  true */\n      0x01\n        /* \"Project/MultiAgentBlockchain/english_auction.sol\":1492:1499  is_open */\n      0x06\n      0x00\n        /* \"Project/MultiAgentBlockchain/english_auction.sol\":1492:1506  is_open = true */\n      0x0100\n      exp\n      dup2\n      sload\n      dup2\n      0xff\n      mul\n      not\n      and\n      swap1\n      dup4\n      iszero\n      iszero\n      mul\n      or\n      swap1\n      sstore\n      pop\n        /* \"Project/MultiAgentBlockchain/english_auction.sol\":1522:1557  AuctionOpened(owner, object, price) */\n      0x6969a1bc7452d86873151bfd13167742e1951b4af640dfd8218b7eddd7ec6632\n        /* \"Project/MultiAgentBlockchain/english_auction.sol\":1536:1541  owner */\n      0x00\n      dup1\n      sload\n      swap1\n      0x0100\n      exp\n      swap1\n      div\n      0xffffffffffffffffffffffffffffffffffffffff\n      and\n        /* \"Project/MultiAgentBlockchain/english_auction.sol\":1543:1549  object */\n      0x01\n        /* \"Project/MultiAgentBlockchain/english_auction.sol\":1551:1556  price */\n      sload(0x02)\n        /* \"Project/MultiAgentBlockchain/english_auction.sol\":1522:1557  AuctionOpened(owner, object, price) */\n      mload(0x40)\n      tag_98\n      swap4\n      swap3\n      swap2\n      swap1\n      tag_99\n      jump\t// in\n    tag_98:\n      mload(0x40)\n      dup1\n      swap2\n      sub\n      swap1\n      log1\n        /* \"Project/MultiAgentBlockchain/english_auction.sol\":1594:1604  15 seconds */\n      0x0f\n        /* \"Project/MultiAgentBlockchain/english_auction.sol\":1576:1591  block.timestamp */\n      timestamp\n        /* \"Project/MultiAgentBlockchain/english_auction.sol\":1576:1604  block.timestamp + 15 seconds */\n      tag_100\n      swap2\n      swap1\n      tag_93\n      jump\t// in\n    tag_100:\n        /* \"Project/MultiAgentBlockchain/english_auction.sol\":1568:1573  endAt */\n      0x03\n        /* \"Project/MultiAgentBlockchain/english_auction.sol\":1568:1604  endAt = block.timestamp + 15 seconds */\n      dup2\n      swap1\n      sstore\n      pop\n        /* \"Project/MultiAgentBlockchain/english_auction.sol\":1451:1612  function open() public isOwner{... */\n      jump\t// out\n        /* \"#utility.yul\":7:97   */\n    tag_101:\n        /* \"#utility.yul\":41:48   */\n      0x00\n        /* \"#utility.yul\":84:89   */\n      dup2\n        /* \"#utility.yul\":77:90   */\n      iszero\n        /* \"#utility.yul\":70:91   */\n      iszero\n        /* \"#utility.yul\":59:91   */\n      swap1\n      pop\n        /* \"#utility.yul\":7:97   */\n      swap2\n      swap1\n      pop\n      jump\t// out\n        /* \"#utility.yul\":103:212   */\n    tag_102:\n        /* \"#utility.yul\":184:205   */\n      tag_145\n        /* \"#utility.yul\":199:204   */\n      dup2\n        /* \"#utility.yul\":184:205   */\n      tag_101\n      jump\t// in\n    tag_145:\n        /* \"#utility.yul\":179:182   */\n      dup3\n        /* \"#utility.yul\":172:206   */\n      mstore\n        /* \"#utility.yul\":103:212   */\n      pop\n      pop\n      jump\t// out\n        /* \"#utility.yul\":218:428   */\n    tag_18:\n        /* \"#utility.yul\":305:309   */\n      0x00\n        /* \"#utility.yul\":343:345   */\n      0x20\n        /* \"#utility.yul\":332:341   */\n      dup3\n        /* \"#utility.yul\":328:346   */\n      add\n        /* \"#utility.yul\":320:346   */\n      swap1\n      pop\n        /* \"#utility.yul\":356:421   */\n      tag_147\n        /* \"#utility.yul\":418:419   */\n      0x00\n        /* \"#utility.yul\":407:416   */\n      dup4\n        /* \"#utility.yul\":403:420   */\n      add\n        /* \"#utility.yul\":394:400   */\n      dup5\n        /* \"#utility.yul\":356:421   */\n      tag_102\n      jump\t// in\n    tag_147:\n        /* \"#utility.yul\":218:428   */\n      swap3\n      swap2\n      pop\n      pop\n      jump\t// out\n        /* \"#utility.yul\":434:511   */\n    tag_103:\n        /* \"#utility.yul\":471:478   */\n      0x00\n        /* \"#utility.yul\":500:505   */\n      dup2\n        /* \"#utility.yul\":489:505   */\n      swap1\n      pop\n        /* \"#utility.yul\":434:511   */\n      swap2\n      swap1\n      pop\n      jump\t// out\n        /* \"#utility.yul\":517:635   */\n    tag_104:\n        /* \"#utility.yul\":604:628   */\n      tag_150\n        /* \"#utility.yul\":622:627   */\n      dup2\n        /* \"#utility.yul\":604:628   */\n      tag_103\n      jump\t// in\n    tag_150:\n        /* \"#utility.yul\":599:602   */\n      dup3\n        /* \"#utility.yul\":592:629   */\n      mstore\n        /* \"#utility.yul\":517:635   */\n      pop\n      pop\n      jump\t// out\n        /* \"#utility.yul\":641:863   */\n    tag_23:\n        /* \"#utility.yul\":734:738   */\n      0x00\n        /* \"#utility.yul\":772:774   */\n      0x20\n        /* \"#utility.yul\":761:770   */\n      dup3\n        /* \"#utility.yul\":757:775   */\n      add\n        /* \"#utility.yul\":749:775   */\n      swap1\n      pop\n        /* \"#utility.yul\":785:856   */\n      tag_152\n        /* \"#utility.yul\":853:854   */\n      0x00\n        /* \"#utility.yul\":842:851   */\n      dup4\n        /* \"#utility.yul\":838:855   */\n      add\n        /* \"#utility.yul\":829:835   */\n      dup5\n        /* \"#utility.yul\":785:856   */\n      tag_104\n      jump\t// in\n    tag_152:\n        /* \"#utility.yul\":641:863   */\n      swap3\n      swap2\n      pop\n      pop\n      jump\t// out\n        /* \"#utility.yul\":950:1067   */\n    tag_106:\n        /* \"#utility.yul\":1059:1060   */\n      0x00\n        /* \"#utility.yul\":1056:1057   */\n      dup1\n        /* \"#utility.yul\":1049:1061   */\n      revert\n        /* \"#utility.yul\":1196:1322   */\n    tag_108:\n        /* \"#utility.yul\":1233:1240   */\n      0x00\n        /* \"#utility.yul\":1273:1315   */\n      0xffffffffffffffffffffffffffffffffffffffff\n        /* \"#utility.yul\":1266:1271   */\n      dup3\n        /* \"#utility.yul\":1262:1316   */\n      and\n        /* \"#utility.yul\":1251:1316   */\n      swap1\n      pop\n        /* \"#utility.yul\":1196:1322   */\n      swap2\n      swap1\n      pop\n      jump\t// out\n        /* \"#utility.yul\":1328:1424   */\n    tag_109:\n        /* \"#utility.yul\":1365:1372   */\n      0x00\n        /* \"#utility.yul\":1394:1418   */\n      tag_158\n        /* \"#utility.yul\":1412:1417   */\n      dup3\n        /* \"#utility.yul\":1394:1418   */\n      tag_108\n      jump\t// in\n    tag_158:\n        /* \"#utility.yul\":1383:1418   */\n      swap1\n      pop\n        /* \"#utility.yul\":1328:1424   */\n      swap2\n      swap1\n      pop\n      jump\t// out\n        /* \"#utility.yul\":1430:1552   */\n    tag_110:\n        /* \"#utility.yul\":1503:1527   */\n      tag_160\n        /* \"#utility.yul\":1521:1526   */\n      dup2\n        /* \"#utility.yul\":1503:1527   */\n      tag_109\n      jump\t// in\n    tag_160:\n        /* \"#utility.yul\":1496:1501   */\n      dup2\n        /* \"#utility.yul\":1493:1528   */\n      eq\n        /* \"#utility.yul\":1483:1546   */\n      tag_161\n      jumpi\n        /* \"#utility.yul\":1542:1543   */\n      0x00\n        /* \"#utility.yul\":1539:1540   */\n      dup1\n        /* \"#utility.yul\":1532:1544   */\n      revert\n        /* \"#utility.yul\":1483:1546   */\n    tag_161:\n        /* \"#utility.yul\":1430:1552   */\n      pop\n      jump\t// out\n        /* \"#utility.yul\":1558:1697   */\n    tag_111:\n        /* \"#utility.yul\":1604:1609   */\n      0x00\n        /* \"#utility.yul\":1642:1648   */\n      dup2\n        /* \"#utility.yul\":1629:1649   */\n      calldataload\n        /* \"#utility.yul\":1620:1649   */\n      swap1\n      pop\n        /* \"#utility.yul\":1658:1691   */\n      tag_163\n        /* \"#utility.yul\":1685:1690   */\n      dup2\n        /* \"#utility.yul\":1658:1691   */\n      tag_110\n      jump\t// in\n    tag_163:\n        /* \"#utility.yul\":1558:1697   */\n      swap3\n      swap2\n      pop\n      pop\n      jump\t// out\n        /* \"#utility.yul\":1703:2032   */\n    tag_33:\n        /* \"#utility.yul\":1762:1768   */\n      0x00\n        /* \"#utility.yul\":1811:1813   */\n      0x20\n        /* \"#utility.yul\":1799:1808   */\n      dup3\n        /* \"#utility.yul\":1790:1797   */\n      dup5\n        /* \"#utility.yul\":1786:1809   */\n      sub\n        /* \"#utility.yul\":1782:1814   */\n      slt\n        /* \"#utility.yul\":1779:1898   */\n      iszero\n      tag_165\n      jumpi\n        /* \"#utility.yul\":1817:1896   */\n      tag_166\n      tag_106\n      jump\t// in\n    tag_166:\n        /* \"#utility.yul\":1779:1898   */\n    tag_165:\n        /* \"#utility.yul\":1937:1938   */\n      0x00\n        /* \"#utility.yul\":1962:2015   */\n      tag_167\n        /* \"#utility.yul\":2007:2014   */\n      dup5\n        /* \"#utility.yul\":1998:2004   */\n      dup3\n        /* \"#utility.yul\":1987:1996   */\n      dup6\n        /* \"#utility.yul\":1983:2005   */\n      add\n        /* \"#utility.yul\":1962:2015   */\n      tag_111\n      jump\t// in\n    tag_167:\n        /* \"#utility.yul\":1952:2015   */\n      swap2\n      pop\n        /* \"#utility.yul\":1908:2025   */\n      pop\n        /* \"#utility.yul\":1703:2032   */\n      swap3\n      swap2\n      pop\n      pop\n      jump\t// out\n        /* \"#utility.yul\":2038:2207   */\n    tag_112:\n        /* \"#utility.yul\":2122:2133   */\n      0x00\n        /* \"#utility.yul\":2156:2162   */\n      dup3\n        /* \"#utility.yul\":2151:2154   */\n      dup3\n        /* \"#utility.yul\":2144:2163   */\n      mstore\n        /* \"#utility.yul\":2196:2200   */\n      0x20\n        /* \"#utility.yul\":2191:2194   */\n      dup3\n        /* \"#utility.yul\":2187:2201   */\n      add\n        /* \"#utility.yul\":2172:2201   */\n      swap1\n      pop\n        /* \"#utility.yul\":2038:2207   */\n      swap3\n      swap2\n      pop\n      pop\n      jump\t// out\n        /* \"#utility.yul\":2213:2441   */\n    tag_113:\n        /* \"#utility.yul\":2353:2387   */\n      0x4f6e6c7920746865206f776e6572206f70656e2f63616e20636c6f7365207468\n        /* \"#utility.yul\":2349:2350   */\n      0x00\n        /* \"#utility.yul\":2341:2347   */\n      dup3\n        /* \"#utility.yul\":2337:2351   */\n      add\n        /* \"#utility.yul\":2330:2388   */\n      mstore\n        /* \"#utility.yul\":2422:2433   */\n      0x652061756374696f6e0000000000000000000000000000000000000000000000\n        /* \"#utility.yul\":2417:2419   */\n      0x20\n        /* \"#utility.yul\":2409:2415   */\n      dup3\n        /* \"#utility.yul\":2405:2420   */\n      add\n        /* \"#utility.yul\":2398:2434   */\n      mstore\n        /* \"#utility.yul\":2213:2441   */\n      pop\n      jump\t// out\n        /* \"#utility.yul\":2447:2813   */\n    tag_114:\n        /* \"#utility.yul\":2589:2592   */\n      0x00\n        /* \"#utility.yul\":2610:2677   */\n      tag_171\n        /* \"#utility.yul\":2674:2676   */\n      0x29\n        /* \"#utility.yul\":2669:2672   */\n      dup4\n        /* \"#utility.yul\":2610:2677   */\n      tag_112\n      jump\t// in\n    tag_171:\n        /* \"#utility.yul\":2603:2677   */\n      swap2\n      pop\n        /* \"#utility.yul\":2686:2779   */\n      tag_172\n        /* \"#utility.yul\":2775:2778   */\n      dup3\n        /* \"#utility.yul\":2686:2779   */\n      tag_113\n      jump\t// in\n    tag_172:\n        /* \"#utility.yul\":2804:2806   */\n      0x40\n        /* \"#utility.yul\":2799:2802   */\n      dup3\n        /* \"#utility.yul\":2795:2807   */\n      add\n        /* \"#utility.yul\":2788:2807   */\n      swap1\n      pop\n        /* \"#utility.yul\":2447:2813   */\n      swap2\n      swap1\n      pop\n      jump\t// out\n        /* \"#utility.yul\":2819:3238   */\n    tag_42:\n        /* \"#utility.yul\":2985:2989   */\n      0x00\n        /* \"#utility.yul\":3023:3025   */\n      0x20\n        /* \"#utility.yul\":3012:3021   */\n      dup3\n        /* \"#utility.yul\":3008:3026   */\n      add\n        /* \"#utility.yul\":3000:3026   */\n      swap1\n      pop\n        /* \"#utility.yul\":3072:3081   */\n      dup2\n        /* \"#utility.yul\":3066:3070   */\n      dup2\n        /* \"#utility.yul\":3062:3082   */\n      sub\n        /* \"#utility.yul\":3058:3059   */\n      0x00\n        /* \"#utility.yul\":3047:3056   */\n      dup4\n        /* \"#utility.yul\":3043:3060   */\n      add\n        /* \"#utility.yul\":3036:3083   */\n      mstore\n        /* \"#utility.yul\":3100:3231   */\n      tag_174\n        /* \"#utility.yul\":3226:3230   */\n      dup2\n        /* \"#utility.yul\":3100:3231   */\n      tag_114\n      jump\t// in\n    tag_174:\n        /* \"#utility.yul\":3092:3231   */\n      swap1\n      pop\n        /* \"#utility.yul\":2819:3238   */\n      swap2\n      swap1\n      pop\n      jump\t// out\n        /* \"#utility.yul\":3244:3426   */\n    tag_115:\n        /* \"#utility.yul\":3384:3418   */\n      0x5468652061756374696f6e206861766520746f206f70656e6564206669727374\n        /* \"#utility.yul\":3380:3381   */\n      0x00\n        /* \"#utility.yul\":3372:3378   */\n      dup3\n        /* \"#utility.yul\":3368:3382   */\n      add\n        /* \"#utility.yul\":3361:3419   */\n      mstore\n        /* \"#utility.yul\":3244:3426   */\n      pop\n      jump\t// out\n        /* \"#utility.yul\":3432:3798   */\n    tag_116:\n        /* \"#utility.yul\":3574:3577   */\n      0x00\n        /* \"#utility.yul\":3595:3662   */\n      tag_177\n        /* \"#utility.yul\":3659:3661   */\n      0x20\n        /* \"#utility.yul\":3654:3657   */\n      dup4\n        /* \"#utility.yul\":3595:3662   */\n      tag_112\n      jump\t// in\n    tag_177:\n        /* \"#utility.yul\":3588:3662   */\n      swap2\n      pop\n        /* \"#utility.yul\":3671:3764   */\n      tag_178\n        /* \"#utility.yul\":3760:3763   */\n      dup3\n        /* \"#utility.yul\":3671:3764   */\n      tag_115\n      jump\t// in\n    tag_178:\n        /* \"#utility.yul\":3789:3791   */\n      0x20\n        /* \"#utility.yul\":3784:3787   */\n      dup3\n        /* \"#utility.yul\":3780:3792   */\n      add\n        /* \"#utility.yul\":3773:3792   */\n      swap1\n      pop\n        /* \"#utility.yul\":3432:3798   */\n      swap2\n      swap1\n      pop\n      jump\t// out\n        /* \"#utility.yul\":3804:4223   */\n    tag_46:\n        /* \"#utility.yul\":3970:3974   */\n      0x00\n        /* \"#utility.yul\":4008:4010   */\n      0x20\n        /* \"#utility.yul\":3997:4006   */\n      dup3\n        /* \"#utility.yul\":3993:4011   */\n      add\n        /* \"#utility.yul\":3985:4011   */\n      swap1\n      pop\n        /* \"#utility.yul\":4057:4066   */\n      dup2\n        /* \"#utility.yul\":4051:4055   */\n      dup2\n        /* \"#utility.yul\":4047:4067   */\n      sub\n        /* \"#utility.yul\":4043:4044   */\n      0x00\n        /* \"#utility.yul\":4032:4041   */\n      dup4\n        /* \"#utility.yul\":4028:4045   */\n      add\n        /* \"#utility.yul\":4021:4068   */\n      mstore\n        /* \"#utility.yul\":4085:4216   */\n      tag_180\n        /* \"#utility.yul\":4211:4215   */\n      dup2\n        /* \"#utility.yul\":4085:4216   */\n      tag_116\n      jump\t// in\n    tag_180:\n        /* \"#utility.yul\":4077:4216   */\n      swap1\n      pop\n        /* \"#utility.yul\":3804:4223   */\n      swap2\n      swap1\n      pop\n      jump\t// out\n        /* \"#utility.yul\":4229:4388   */\n    tag_117:\n        /* \"#utility.yul\":4369:4380   */\n      0x6e6f7420656e6465640000000000000000000000000000000000000000000000\n        /* \"#utility.yul\":4365:4366   */\n      0x00\n        /* \"#utility.yul\":4357:4363   */\n      dup3\n        /* \"#utility.yul\":4353:4367   */\n      add\n        /* \"#utility.yul\":4346:4381   */\n      mstore\n        /* \"#utility.yul\":4229:4388   */\n      pop\n      jump\t// out\n        /* \"#utility.yul\":4394:4759   */\n    tag_118:\n        /* \"#utility.yul\":4536:4539   */\n      0x00\n        /* \"#utility.yul\":4557:4623   */\n      tag_183\n        /* \"#utility.yul\":4621:4622   */\n      0x09\n        /* \"#utility.yul\":4616:4619   */\n      dup4\n        /* \"#utility.yul\":4557:4623   */\n      tag_112\n      jump\t// in\n    tag_183:\n        /* \"#utility.yul\":4550:4623   */\n      swap2\n      pop\n        /* \"#utility.yul\":4632:4725   */\n      tag_184\n        /* \"#utility.yul\":4721:4724   */\n      dup3\n        /* \"#utility.yul\":4632:4725   */\n      tag_117\n      jump\t// in\n    tag_184:\n        /* \"#utility.yul\":4750:4752   */\n      0x20\n        /* \"#utility.yul\":4745:4748   */\n      dup3\n        /* \"#utility.yul\":4741:4753   */\n      add\n        /* \"#utility.yul\":4734:4753   */\n      swap1\n      pop\n        /* \"#utility.yul\":4394:4759   */\n      swap2\n      swap1\n      pop\n      jump\t// out\n        /* \"#utility.yul\":4765:5184   */\n    tag_50:\n        /* \"#utility.yul\":4931:4935   */\n      0x00\n        /* \"#utility.yul\":4969:4971   */\n      0x20\n        /* \"#utility.yul\":4958:4967   */\n      dup3\n        /* \"#utility.yul\":4954:4972   */\n      add\n        /* \"#utility.yul\":4946:4972   */\n      swap1\n      pop\n        /* \"#utility.yul\":5018:5027   */\n      dup2\n        /* \"#utility.yul\":5012:5016   */\n      dup2\n        /* \"#utility.yul\":5008:5028   */\n      sub\n        /* \"#utility.yul\":5004:5005   */\n      0x00\n        /* \"#utility.yul\":4993:5002   */\n      dup4\n        /* \"#utility.yul\":4989:5006   */\n      add\n        /* \"#utility.yul\":4982:5029   */\n      mstore\n        /* \"#utility.yul\":5046:5177   */\n      tag_186\n        /* \"#utility.yul\":5172:5176   */\n      dup2\n        /* \"#utility.yul\":5046:5177   */\n      tag_118\n      jump\t// in\n    tag_186:\n        /* \"#utility.yul\":5038:5177   */\n      swap1\n      pop\n        /* \"#utility.yul\":4765:5184   */\n      swap2\n      swap1\n      pop\n      jump\t// out\n        /* \"#utility.yul\":5190:5250   */\n    tag_119:\n        /* \"#utility.yul\":5218:5221   */\n      0x00\n        /* \"#utility.yul\":5239:5244   */\n      dup2\n        /* \"#utility.yul\":5232:5244   */\n      swap1\n      pop\n        /* \"#utility.yul\":5190:5250   */\n      swap2\n      swap1\n      pop\n      jump\t// out\n        /* \"#utility.yul\":5256:5398   */\n    tag_120:\n        /* \"#utility.yul\":5306:5315   */\n      0x00\n        /* \"#utility.yul\":5339:5392   */\n      tag_189\n        /* \"#utility.yul\":5357:5391   */\n      tag_190\n        /* \"#utility.yul\":5366:5390   */\n      tag_191\n        /* \"#utility.yul\":5384:5389   */\n      dup5\n        /* \"#utility.yul\":5366:5390   */\n      tag_108\n      jump\t// in\n    tag_191:\n        /* \"#utility.yul\":5357:5391   */\n      tag_119\n      jump\t// in\n    tag_190:\n        /* \"#utility.yul\":5339:5392   */\n      tag_108\n      jump\t// in\n    tag_189:\n        /* \"#utility.yul\":5326:5392   */\n      swap1\n      pop\n        /* \"#utility.yul\":5256:5398   */\n      swap2\n      swap1\n      pop\n      jump\t// out\n        /* \"#utility.yul\":5404:5530   */\n    tag_121:\n        /* \"#utility.yul\":5454:5463   */\n      0x00\n        /* \"#utility.yul\":5487:5524   */\n      tag_193\n        /* \"#utility.yul\":5518:5523   */\n      dup3\n        /* \"#utility.yul\":5487:5524   */\n      tag_120\n      jump\t// in\n    tag_193:\n        /* \"#utility.yul\":5474:5524   */\n      swap1\n      pop\n        /* \"#utility.yul\":5404:5530   */\n      swap2\n      swap1\n      pop\n      jump\t// out\n        /* \"#utility.yul\":5536:5670   */\n    tag_122:\n        /* \"#utility.yul\":5594:5603   */\n      0x00\n        /* \"#utility.yul\":5627:5664   */\n      tag_195\n        /* \"#utility.yul\":5658:5663   */\n      dup3\n        /* \"#utility.yul\":5627:5664   */\n      tag_121\n      jump\t// in\n    tag_195:\n        /* \"#utility.yul\":5614:5664   */\n      swap1\n      pop\n        /* \"#utility.yul\":5536:5670   */\n      swap2\n      swap1\n      pop\n      jump\t// out\n        /* \"#utility.yul\":5676:5823   */\n    tag_123:\n        /* \"#utility.yul\":5771:5816   */\n      tag_197\n        /* \"#utility.yul\":5810:5815   */\n      dup2\n        /* \"#utility.yul\":5771:5816   */\n      tag_122\n      jump\t// in\n    tag_197:\n        /* \"#utility.yul\":5766:5769   */\n      dup3\n        /* \"#utility.yul\":5759:5817   */\n      mstore\n        /* \"#utility.yul\":5676:5823   */\n      pop\n      pop\n      jump\t// out\n        /* \"#utility.yul\":5829:5947   */\n    tag_124:\n        /* \"#utility.yul\":5916:5940   */\n      tag_199\n        /* \"#utility.yul\":5934:5939   */\n      dup2\n        /* \"#utility.yul\":5916:5940   */\n      tag_109\n      jump\t// in\n    tag_199:\n        /* \"#utility.yul\":5911:5914   */\n      dup3\n        /* \"#utility.yul\":5904:5941   */\n      mstore\n        /* \"#utility.yul\":5829:5947   */\n      pop\n      pop\n      jump\t// out\n        /* \"#utility.yul\":5953:6411   */\n    tag_52:\n        /* \"#utility.yul\":6110:6114   */\n      0x00\n        /* \"#utility.yul\":6148:6150   */\n      0x60\n        /* \"#utility.yul\":6137:6146   */\n      dup3\n        /* \"#utility.yul\":6133:6151   */\n      add\n        /* \"#utility.yul\":6125:6151   */\n      swap1\n      pop\n        /* \"#utility.yul\":6161:6240   */\n      tag_201\n        /* \"#utility.yul\":6237:6238   */\n      0x00\n        /* \"#utility.yul\":6226:6235   */\n      dup4\n        /* \"#utility.yul\":6222:6239   */\n      add\n        /* \"#utility.yul\":6213:6219   */\n      dup7\n        /* \"#utility.yul\":6161:6240   */\n      tag_123\n      jump\t// in\n    tag_201:\n        /* \"#utility.yul\":6250:6322   */\n      tag_202\n        /* \"#utility.yul\":6318:6320   */\n      0x20\n        /* \"#utility.yul\":6307:6316   */\n      dup4\n        /* \"#utility.yul\":6303:6321   */\n      add\n        /* \"#utility.yul\":6294:6300   */\n      dup6\n        /* \"#utility.yul\":6250:6322   */\n      tag_124\n      jump\t// in\n    tag_202:\n        /* \"#utility.yul\":6332:6404   */\n      tag_203\n        /* \"#utility.yul\":6400:6402   */\n      0x40\n        /* \"#utility.yul\":6389:6398   */\n      dup4\n        /* \"#utility.yul\":6385:6403   */\n      add\n        /* \"#utility.yul\":6376:6382   */\n      dup5\n        /* \"#utility.yul\":6332:6404   */\n      tag_104\n      jump\t// in\n    tag_203:\n        /* \"#utility.yul\":5953:6411   */\n      swap5\n      swap4\n      pop\n      pop\n      pop\n      pop\n      jump\t// out\n        /* \"#utility.yul\":6417:6656   */\n    tag_125:\n        /* \"#utility.yul\":6557:6591   */\n      0x536f6c6f20696c2076696e6369746f72652064656c6c27617374612070756f27\n        /* \"#utility.yul\":6553:6554   */\n      0x00\n        /* \"#utility.yul\":6545:6551   */\n      dup3\n        /* \"#utility.yul\":6541:6555   */\n      add\n        /* \"#utility.yul\":6534:6592   */\n      mstore\n        /* \"#utility.yul\":6626:6648   */\n      0x207269746972617265206c612076696e63697461000000000000000000000000\n        /* \"#utility.yul\":6621:6623   */\n      0x20\n        /* \"#utility.yul\":6613:6619   */\n      dup3\n        /* \"#utility.yul\":6609:6624   */\n      add\n        /* \"#utility.yul\":6602:6649   */\n      mstore\n        /* \"#utility.yul\":6417:6656   */\n      pop\n      jump\t// out\n        /* \"#utility.yul\":6662:7028   */\n    tag_126:\n        /* \"#utility.yul\":6804:6807   */\n      0x00\n        /* \"#utility.yul\":6825:6892   */\n      tag_206\n        /* \"#utility.yul\":6889:6891   */\n      0x34\n        /* \"#utility.yul\":6884:6887   */\n      dup4\n        /* \"#utility.yul\":6825:6892   */\n      tag_112\n      jump\t// in\n    tag_206:\n        /* \"#utility.yul\":6818:6892   */\n      swap2\n      pop\n        /* \"#utility.yul\":6901:6994   */\n      tag_207\n        /* \"#utility.yul\":6990:6993   */\n      dup3\n        /* \"#utility.yul\":6901:6994   */\n      tag_125\n      jump\t// in\n    tag_207:\n        /* \"#utility.yul\":7019:7021   */\n      0x40\n        /* \"#utility.yul\":7014:7017   */\n      dup3\n        /* \"#utility.yul\":7010:7022   */\n      add\n        /* \"#utility.yul\":7003:7022   */\n      swap1\n      pop\n        /* \"#utility.yul\":6662:7028   */\n      swap2\n      swap1\n      pop\n      jump\t// out\n        /* \"#utility.yul\":7034:7453   */\n    tag_60:\n        /* \"#utility.yul\":7200:7204   */\n      0x00\n        /* \"#utility.yul\":7238:7240   */\n      0x20\n        /* \"#utility.yul\":7227:7236   */\n      dup3\n        /* \"#utility.yul\":7223:7241   */\n      add\n        /* \"#utility.yul\":7215:7241   */\n      swap1\n      pop\n        /* \"#utility.yul\":7287:7296   */\n      dup2\n        /* \"#utility.yul\":7281:7285   */\n      dup2\n        /* \"#utility.yul\":7277:7297   */\n      sub\n        /* \"#utility.yul\":7273:7274   */\n      0x00\n        /* \"#utility.yul\":7262:7271   */\n      dup4\n        /* \"#utility.yul\":7258:7275   */\n      add\n        /* \"#utility.yul\":7251:7298   */\n      mstore\n        /* \"#utility.yul\":7315:7446   */\n      tag_209\n        /* \"#utility.yul\":7441:7445   */\n      dup2\n        /* \"#utility.yul\":7315:7446   */\n      tag_126\n      jump\t// in\n    tag_209:\n        /* \"#utility.yul\":7307:7446   */\n      swap1\n      pop\n        /* \"#utility.yul\":7034:7453   */\n      swap2\n      swap1\n      pop\n      jump\t// out\n        /* \"#utility.yul\":7459:7636   */\n    tag_127:\n        /* \"#utility.yul\":7599:7628   */\n      0x4c2761737461206e6f6e20652720616e636f7261206368697573610000000000\n        /* \"#utility.yul\":7595:7596   */\n      0x00\n        /* \"#utility.yul\":7587:7593   */\n      dup3\n        /* \"#utility.yul\":7583:7597   */\n      add\n        /* \"#utility.yul\":7576:7629   */\n      mstore\n        /* \"#utility.yul\":7459:7636   */\n      pop\n      jump\t// out\n        /* \"#utility.yul\":7642:8008   */\n    tag_128:\n        /* \"#utility.yul\":7784:7787   */\n      0x00\n        /* \"#utility.yul\":7805:7872   */\n      tag_212\n        /* \"#utility.yul\":7869:7871   */\n      0x1b\n        /* \"#utility.yul\":7864:7867   */\n      dup4\n        /* \"#utility.yul\":7805:7872   */\n      tag_112\n      jump\t// in\n    tag_212:\n        /* \"#utility.yul\":7798:7872   */\n      swap2\n      pop\n        /* \"#utility.yul\":7881:7974   */\n      tag_213\n        /* \"#utility.yul\":7970:7973   */\n      dup3\n        /* \"#utility.yul\":7881:7974   */\n      tag_127\n      jump\t// in\n    tag_213:\n        /* \"#utility.yul\":7999:8001   */\n      0x20\n        /* \"#utility.yul\":7994:7997   */\n      dup3\n        /* \"#utility.yul\":7990:8002   */\n      add\n        /* \"#utility.yul\":7983:8002   */\n      swap1\n      pop\n        /* \"#utility.yul\":7642:8008   */\n      swap2\n      swap1\n      pop\n      jump\t// out\n        /* \"#utility.yul\":8014:8433   */\n    tag_63:\n        /* \"#utility.yul\":8180:8184   */\n      0x00\n        /* \"#utility.yul\":8218:8220   */\n      0x20\n        /* \"#utility.yul\":8207:8216   */\n      dup3\n        /* \"#utility.yul\":8203:8221   */\n      add\n        /* \"#utility.yul\":8195:8221   */\n      swap1\n      pop\n        /* \"#utility.yul\":8267:8276   */\n      dup2\n        /* \"#utility.yul\":8261:8265   */\n      dup2\n        /* \"#utility.yul\":8257:8277   */\n      sub\n        /* \"#utility.yul\":8253:8254   */\n      0x00\n        /* \"#utility.yul\":8242:8251   */\n      dup4\n        /* \"#utility.yul\":8238:8255   */\n      add\n        /* \"#utility.yul\":8231:8278   */\n      mstore\n        /* \"#utility.yul\":8295:8426   */\n      tag_215\n        /* \"#utility.yul\":8421:8425   */\n      dup2\n        /* \"#utility.yul\":8295:8426   */\n      tag_128\n      jump\t// in\n    tag_215:\n        /* \"#utility.yul\":8287:8426   */\n      swap1\n      pop\n        /* \"#utility.yul\":8014:8433   */\n      swap2\n      swap1\n      pop\n      jump\t// out\n        /* \"#utility.yul\":8439:8619   */\n    tag_129:\n        /* \"#utility.yul\":8487:8564   */\n      0x4e487b7100000000000000000000000000000000000000000000000000000000\n        /* \"#utility.yul\":8484:8485   */\n      0x00\n        /* \"#utility.yul\":8477:8565   */\n      mstore\n        /* \"#utility.yul\":8584:8588   */\n      0x22\n        /* \"#utility.yul\":8581:8582   */\n      0x04\n        /* \"#utility.yul\":8574:8589   */\n      mstore\n        /* \"#utility.yul\":8608:8612   */\n      0x24\n        /* \"#utility.yul\":8605:8606   */\n      0x00\n        /* \"#utility.yul\":8598:8613   */\n      revert\n        /* \"#utility.yul\":8625:8945   */\n    tag_130:\n        /* \"#utility.yul\":8669:8675   */\n      0x00\n        /* \"#utility.yul\":8706:8707   */\n      0x02\n        /* \"#utility.yul\":8700:8704   */\n      dup3\n        /* \"#utility.yul\":8696:8708   */\n      div\n        /* \"#utility.yul\":8686:8708   */\n      swap1\n      pop\n        /* \"#utility.yul\":8753:8754   */\n      0x01\n        /* \"#utility.yul\":8747:8751   */\n      dup3\n        /* \"#utility.yul\":8743:8755   */\n      and\n        /* \"#utility.yul\":8774:8792   */\n      dup1\n        /* \"#utility.yul\":8764:8845   */\n      tag_218\n      jumpi\n        /* \"#utility.yul\":8830:8834   */\n      0x7f\n        /* \"#utility.yul\":8822:8828   */\n      dup3\n        /* \"#utility.yul\":8818:8835   */\n      and\n        /* \"#utility.yul\":8808:8835   */\n      swap2\n      pop\n        /* \"#utility.yul\":8764:8845   */\n    tag_218:\n        /* \"#utility.yul\":8892:8894   */\n      0x20\n        /* \"#utility.yul\":8884:8890   */\n      dup3\n        /* \"#utility.yul\":8881:8895   */\n      lt\n        /* \"#utility.yul\":8861:8879   */\n      dup2\n        /* \"#utility.yul\":8858:8896   */\n      sub\n        /* \"#utility.yul\":8855:8939   */\n      tag_219\n      jumpi\n        /* \"#utility.yul\":8911:8929   */\n      tag_220\n      tag_129\n      jump\t// in\n    tag_220:\n        /* \"#utility.yul\":8855:8939   */\n    tag_219:\n        /* \"#utility.yul\":8676:8945   */\n      pop\n        /* \"#utility.yul\":8625:8945   */\n      swap2\n      swap1\n      pop\n      jump\t// out\n        /* \"#utility.yul\":8951:9092   */\n    tag_131:\n        /* \"#utility.yul\":9000:9004   */\n      0x00\n        /* \"#utility.yul\":9023:9026   */\n      dup2\n        /* \"#utility.yul\":9015:9026   */\n      swap1\n      pop\n        /* \"#utility.yul\":9046:9049   */\n      dup2\n        /* \"#utility.yul\":9043:9044   */\n      0x00\n        /* \"#utility.yul\":9036:9050   */\n      mstore\n        /* \"#utility.yul\":9080:9084   */\n      0x20\n        /* \"#utility.yul\":9077:9078   */\n      0x00\n        /* \"#utility.yul\":9067:9085   */\n      keccak256\n        /* \"#utility.yul\":9059:9085   */\n      swap1\n      pop\n        /* \"#utility.yul\":8951:9092   */\n      swap2\n      swap1\n      pop\n      jump\t// out\n        /* \"#utility.yul\":9122:9953   */\n    tag_132:\n        /* \"#utility.yul\":9207:9210   */\n      0x00\n        /* \"#utility.yul\":9244:9249   */\n      dup2\n        /* \"#utility.yul\":9238:9250   */\n      sload\n        /* \"#utility.yul\":9273:9309   */\n      tag_223\n        /* \"#utility.yul\":9299:9308   */\n      dup2\n        /* \"#utility.yul\":9273:9309   */\n      tag_130\n      jump\t// in\n    tag_223:\n        /* \"#utility.yul\":9325:9396   */\n      tag_224\n        /* \"#utility.yul\":9389:9395   */\n      dup2\n        /* \"#utility.yul\":9384:9387   */\n      dup7\n        /* \"#utility.yul\":9325:9396   */\n      tag_112\n      jump\t// in\n    tag_224:\n        /* \"#utility.yul\":9318:9396   */\n      swap5\n      pop\n        /* \"#utility.yul\":9427:9428   */\n      0x01\n        /* \"#utility.yul\":9416:9425   */\n      dup3\n        /* \"#utility.yul\":9412:9429   */\n      and\n        /* \"#utility.yul\":9443:9444   */\n      0x00\n        /* \"#utility.yul\":9438:9602   */\n      dup2\n      eq\n      tag_226\n      jumpi\n        /* \"#utility.yul\":9616:9617   */\n      0x01\n        /* \"#utility.yul\":9611:9947   */\n      dup2\n      eq\n      tag_227\n      jumpi\n        /* \"#utility.yul\":9405:9947   */\n      jump(tag_225)\n        /* \"#utility.yul\":9438:9602   */\n    tag_226:\n        /* \"#utility.yul\":9522:9526   */\n      0xff\n        /* \"#utility.yul\":9518:9527   */\n      not\n        /* \"#utility.yul\":9507:9516   */\n      dup4\n        /* \"#utility.yul\":9503:9528   */\n      and\n        /* \"#utility.yul\":9498:9501   */\n      dup7\n        /* \"#utility.yul\":9491:9529   */\n      mstore\n        /* \"#utility.yul\":9582:9588   */\n      dup2\n        /* \"#utility.yul\":9575:9589   */\n      iszero\n        /* \"#utility.yul\":9568:9590   */\n      iszero\n        /* \"#utility.yul\":9562:9566   */\n      0x20\n        /* \"#utility.yul\":9558:9591   */\n      mul\n        /* \"#utility.yul\":9553:9556   */\n      dup7\n        /* \"#utility.yul\":9549:9592   */\n      add\n        /* \"#utility.yul\":9542:9592   */\n      swap4\n      pop\n        /* \"#utility.yul\":9438:9602   */\n      jump(tag_225)\n        /* \"#utility.yul\":9611:9947   */\n    tag_227:\n        /* \"#utility.yul\":9678:9716   */\n      tag_228\n        /* \"#utility.yul\":9710:9715   */\n      dup6\n        /* \"#utility.yul\":9678:9716   */\n      tag_131\n      jump\t// in\n    tag_228:\n        /* \"#utility.yul\":9738:9739   */\n      0x00\n        /* \"#utility.yul\":9752:9906   */\n    tag_229:\n        /* \"#utility.yul\":9766:9772   */\n      dup4\n        /* \"#utility.yul\":9763:9764   */\n      dup2\n        /* \"#utility.yul\":9760:9773   */\n      lt\n        /* \"#utility.yul\":9752:9906   */\n      iszero\n      tag_231\n      jumpi\n        /* \"#utility.yul\":9840:9847   */\n      dup2\n        /* \"#utility.yul\":9834:9848   */\n      sload\n        /* \"#utility.yul\":9830:9831   */\n      dup2\n        /* \"#utility.yul\":9825:9828   */\n      dup10\n        /* \"#utility.yul\":9821:9832   */\n      add\n        /* \"#utility.yul\":9814:9849   */\n      mstore\n        /* \"#utility.yul\":9890:9891   */\n      0x01\n        /* \"#utility.yul\":9881:9888   */\n      dup3\n        /* \"#utility.yul\":9877:9892   */\n      add\n        /* \"#utility.yul\":9866:9892   */\n      swap2\n      pop\n        /* \"#utility.yul\":9788:9792   */\n      0x20\n        /* \"#utility.yul\":9785:9786   */\n      dup2\n        /* \"#utility.yul\":9781:9793   */\n      add\n        /* \"#utility.yul\":9776:9793   */\n      swap1\n      pop\n        /* \"#utility.yul\":9752:9906   */\n      jump(tag_229)\n    tag_231:\n        /* \"#utility.yul\":9935:9936   */\n      dup1\n        /* \"#utility.yul\":9930:9933   */\n      dup9\n        /* \"#utility.yul\":9926:9937   */\n      add\n        /* \"#utility.yul\":9919:9937   */\n      swap6\n      pop\n        /* \"#utility.yul\":9618:9947   */\n      pop\n      pop\n        /* \"#utility.yul\":9405:9947   */\n    tag_225:\n      pop\n        /* \"#utility.yul\":9211:9953   */\n      pop\n      pop\n        /* \"#utility.yul\":9122:9953   */\n      swap3\n      swap2\n      pop\n      pop\n      jump\t// out\n        /* \"#utility.yul\":9959:10376   */\n    tag_65:\n        /* \"#utility.yul\":10097:10101   */\n      0x00\n        /* \"#utility.yul\":10135:10137   */\n      0x40\n        /* \"#utility.yul\":10124:10133   */\n      dup3\n        /* \"#utility.yul\":10120:10138   */\n      add\n        /* \"#utility.yul\":10112:10138   */\n      swap1\n      pop\n        /* \"#utility.yul\":10148:10219   */\n      tag_233\n        /* \"#utility.yul\":10216:10217   */\n      0x00\n        /* \"#utility.yul\":10205:10214   */\n      dup4\n        /* \"#utility.yul\":10201:10218   */\n      add\n        /* \"#utility.yul\":10192:10198   */\n      dup6\n        /* \"#utility.yul\":10148:10219   */\n      tag_124\n      jump\t// in\n    tag_233:\n        /* \"#utility.yul\":10266:10275   */\n      dup2\n        /* \"#utility.yul\":10260:10264   */\n      dup2\n        /* \"#utility.yul\":10256:10276   */\n      sub\n        /* \"#utility.yul\":10251:10253   */\n      0x20\n        /* \"#utility.yul\":10240:10249   */\n      dup4\n        /* \"#utility.yul\":10236:10254   */\n      add\n        /* \"#utility.yul\":10229:10277   */\n      mstore\n        /* \"#utility.yul\":10294:10369   */\n      tag_234\n        /* \"#utility.yul\":10364:10368   */\n      dup2\n        /* \"#utility.yul\":10355:10361   */\n      dup5\n        /* \"#utility.yul\":10294:10369   */\n      tag_132\n      jump\t// in\n    tag_234:\n        /* \"#utility.yul\":10286:10369   */\n      swap1\n      pop\n        /* \"#utility.yul\":9959:10376   */\n      swap4\n      swap3\n      pop\n      pop\n      pop\n      jump\t// out\n        /* \"#utility.yul\":10382:10617   */\n    tag_133:\n        /* \"#utility.yul\":10522:10556   */\n      0x496c2076696e6369746f72652064656c6c2761737461206e6f6e2070756f2720\n        /* \"#utility.yul\":10518:10519   */\n      0x00\n        /* \"#utility.yul\":10510:10516   */\n      dup3\n        /* \"#utility.yul\":10506:10520   */\n      add\n        /* \"#utility.yul\":10499:10557   */\n      mstore\n        /* \"#utility.yul\":10591:10609   */\n      0x7269746972617265206920666f6e646900000000000000000000000000000000\n        /* \"#utility.yul\":10586:10588   */\n      0x20\n        /* \"#utility.yul\":10578:10584   */\n      dup3\n        /* \"#utility.yul\":10574:10589   */\n      add\n        /* \"#utility.yul\":10567:10610   */\n      mstore\n        /* \"#utility.yul\":10382:10617   */\n      pop\n      jump\t// out\n        /* \"#utility.yul\":10623:10989   */\n    tag_134:\n        /* \"#utility.yul\":10765:10768   */\n      0x00\n        /* \"#utility.yul\":10786:10853   */\n      tag_237\n        /* \"#utility.yul\":10850:10852   */\n      0x30\n        /* \"#utility.yul\":10845:10848   */\n      dup4\n        /* \"#utility.yul\":10786:10853   */\n      tag_112\n      jump\t// in\n    tag_237:\n        /* \"#utility.yul\":10779:10853   */\n      swap2\n      pop\n        /* \"#utility.yul\":10862:10955   */\n      tag_238\n        /* \"#utility.yul\":10951:10954   */\n      dup3\n        /* \"#utility.yul\":10862:10955   */\n      tag_133\n      jump\t// in\n    tag_238:\n        /* \"#utility.yul\":10980:10982   */\n      0x40\n        /* \"#utility.yul\":10975:10978   */\n      dup3\n        /* \"#utility.yul\":10971:10983   */\n      add\n        /* \"#utility.yul\":10964:10983   */\n      swap1\n      pop\n        /* \"#utility.yul\":10623:10989   */\n      swap2\n      swap1\n      pop\n      jump\t// out\n        /* \"#utility.yul\":10995:11414   */\n    tag_71:\n        /* \"#utility.yul\":11161:11165   */\n      0x00\n        /* \"#utility.yul\":11199:11201   */\n      0x20\n        /* \"#utility.yul\":11188:11197   */\n      dup3\n        /* \"#utility.yul\":11184:11202   */\n      add\n        /* \"#utility.yul\":11176:11202   */\n      swap1\n      pop\n        /* \"#utility.yul\":11248:11257   */\n      dup2\n        /* \"#utility.yul\":11242:11246   */\n      dup2\n        /* \"#utility.yul\":11238:11258   */\n      sub\n        /* \"#utility.yul\":11234:11235   */\n      0x00\n        /* \"#utility.yul\":11223:11232   */\n      dup4\n        /* \"#utility.yul\":11219:11236   */\n      add\n        /* \"#utility.yul\":11212:11259   */\n      mstore\n        /* \"#utility.yul\":11276:11407   */\n      tag_240\n        /* \"#utility.yul\":11402:11406   */\n      dup2\n        /* \"#utility.yul\":11276:11407   */\n      tag_134\n      jump\t// in\n    tag_240:\n        /* \"#utility.yul\":11268:11407   */\n      swap1\n      pop\n        /* \"#utility.yul\":10995:11414   */\n      swap2\n      swap1\n      pop\n      jump\t// out\n        /* \"#utility.yul\":11420:11752   */\n    tag_75:\n        /* \"#utility.yul\":11541:11545   */\n      0x00\n        /* \"#utility.yul\":11579:11581   */\n      0x40\n        /* \"#utility.yul\":11568:11577   */\n      dup3\n        /* \"#utility.yul\":11564:11582   */\n      add\n        /* \"#utility.yul\":11556:11582   */\n      swap1\n      pop\n        /* \"#utility.yul\":11592:11663   */\n      tag_242\n        /* \"#utility.yul\":11660:11661   */\n      0x00\n        /* \"#utility.yul\":11649:11658   */\n      dup4\n        /* \"#utility.yul\":11645:11662   */\n      add\n        /* \"#utility.yul\":11636:11642   */\n      dup6\n        /* \"#utility.yul\":11592:11663   */\n      tag_124\n      jump\t// in\n    tag_242:\n        /* \"#utility.yul\":11673:11745   */\n      tag_243\n        /* \"#utility.yul\":11741:11743   */\n      0x20\n        /* \"#utility.yul\":11730:11739   */\n      dup4\n        /* \"#utility.yul\":11726:11744   */\n      add\n        /* \"#utility.yul\":11717:11723   */\n      dup5\n        /* \"#utility.yul\":11673:11745   */\n      tag_104\n      jump\t// in\n    tag_243:\n        /* \"#utility.yul\":11420:11752   */\n      swap4\n      swap3\n      pop\n      pop\n      pop\n      jump\t// out\n        /* \"#utility.yul\":11758:11983   */\n    tag_135:\n        /* \"#utility.yul\":11898:11932   */\n      0x4c276f666665727461206661747461206e6f6e20737570657261206c61206d69\n        /* \"#utility.yul\":11894:11895   */\n      0x00\n        /* \"#utility.yul\":11886:11892   */\n      dup3\n        /* \"#utility.yul\":11882:11896   */\n      add\n        /* \"#utility.yul\":11875:11933   */\n      mstore\n        /* \"#utility.yul\":11967:11975   */\n      0x676c696f72650000000000000000000000000000000000000000000000000000\n        /* \"#utility.yul\":11962:11964   */\n      0x20\n        /* \"#utility.yul\":11954:11960   */\n      dup3\n        /* \"#utility.yul\":11950:11965   */\n      add\n        /* \"#utility.yul\":11943:11976   */\n      mstore\n        /* \"#utility.yul\":11758:11983   */\n      pop\n      jump\t// out\n        /* \"#utility.yul\":11989:12355   */\n    tag_136:\n        /* \"#utility.yul\":12131:12134   */\n      0x00\n        /* \"#utility.yul\":12152:12219   */\n      tag_246\n        /* \"#utility.yul\":12216:12218   */\n      0x26\n        /* \"#utility.yul\":12211:12214   */\n      dup4\n        /* \"#utility.yul\":12152:12219   */\n      tag_112\n      jump\t// in\n    tag_246:\n        /* \"#utility.yul\":12145:12219   */\n      swap2\n      pop\n        /* \"#utility.yul\":12228:12321   */\n      tag_247\n        /* \"#utility.yul\":12317:12320   */\n      dup3\n        /* \"#utility.yul\":12228:12321   */\n      tag_135\n      jump\t// in\n    tag_247:\n        /* \"#utility.yul\":12346:12348   */\n      0x40\n        /* \"#utility.yul\":12341:12344   */\n      dup3\n        /* \"#utility.yul\":12337:12349   */\n      add\n        /* \"#utility.yul\":12330:12349   */\n      swap1\n      pop\n        /* \"#utility.yul\":11989:12355   */\n      swap2\n      swap1\n      pop\n      jump\t// out\n        /* \"#utility.yul\":12361:12780   */\n    tag_84:\n        /* \"#utility.yul\":12527:12531   */\n      0x00\n        /* \"#utility.yul\":12565:12567   */\n      0x20\n        /* \"#utility.yul\":12554:12563   */\n      dup3\n        /* \"#utility.yul\":12550:12568   */\n      add\n        /* \"#utility.yul\":12542:12568   */\n      swap1\n      pop\n        /* \"#utility.yul\":12614:12623   */\n      dup2\n        /* \"#utility.yul\":12608:12612   */\n      dup2\n        /* \"#utility.yul\":12604:12624   */\n      sub\n        /* \"#utility.yul\":12600:12601   */\n      0x00\n        /* \"#utility.yul\":12589:12598   */\n      dup4\n        /* \"#utility.yul\":12585:12602   */\n      add\n        /* \"#utility.yul\":12578:12625   */\n      mstore\n        /* \"#utility.yul\":12642:12773   */\n      tag_249\n        /* \"#utility.yul\":12768:12772   */\n      dup2\n        /* \"#utility.yul\":12642:12773   */\n      tag_136\n      jump\t// in\n    tag_249:\n        /* \"#utility.yul\":12634:12773   */\n      swap1\n      pop\n        /* \"#utility.yul\":12361:12780   */\n      swap2\n      swap1\n      pop\n      jump\t// out\n        /* \"#utility.yul\":12786:12941   */\n    tag_137:\n        /* \"#utility.yul\":12926:12933   */\n      0x656e646564000000000000000000000000000000000000000000000000000000\n        /* \"#utility.yul\":12922:12923   */\n      0x00\n        /* \"#utility.yul\":12914:12920   */\n      dup3\n        /* \"#utility.yul\":12910:12924   */\n      add\n        /* \"#utility.yul\":12903:12934   */\n      mstore\n        /* \"#utility.yul\":12786:12941   */\n      pop\n      jump\t// out\n        /* \"#utility.yul\":12947:13312   */\n    tag_138:\n        /* \"#utility.yul\":13089:13092   */\n      0x00\n        /* \"#utility.yul\":13110:13176   */\n      tag_252\n        /* \"#utility.yul\":13174:13175   */\n      0x05\n        /* \"#utility.yul\":13169:13172   */\n      dup4\n        /* \"#utility.yul\":13110:13176   */\n      tag_112\n      jump\t// in\n    tag_252:\n        /* \"#utility.yul\":13103:13176   */\n      swap2\n      pop\n        /* \"#utility.yul\":13185:13278   */\n      tag_253\n        /* \"#utility.yul\":13274:13277   */\n      dup3\n        /* \"#utility.yul\":13185:13278   */\n      tag_137\n      jump\t// in\n    tag_253:\n        /* \"#utility.yul\":13303:13305   */\n      0x20\n        /* \"#utility.yul\":13298:13301   */\n      dup3\n        /* \"#utility.yul\":13294:13306   */\n      add\n        /* \"#utility.yul\":13287:13306   */\n      swap1\n      pop\n        /* \"#utility.yul\":12947:13312   */\n      swap2\n      swap1\n      pop\n      jump\t// out\n        /* \"#utility.yul\":13318:13737   */\n    tag_87:\n        /* \"#utility.yul\":13484:13488   */\n      0x00\n        /* \"#utility.yul\":13522:13524   */\n      0x20\n        /* \"#utility.yul\":13511:13520   */\n      dup3\n        /* \"#utility.yul\":13507:13525   */\n      add\n        /* \"#utility.yul\":13499:13525   */\n      swap1\n      pop\n        /* \"#utility.yul\":13571:13580   */\n      dup2\n        /* \"#utility.yul\":13565:13569   */\n      dup2\n        /* \"#utility.yul\":13561:13581   */\n      sub\n        /* \"#utility.yul\":13557:13558   */\n      0x00\n        /* \"#utility.yul\":13546:13555   */\n      dup4\n        /* \"#utility.yul\":13542:13559   */\n      add\n        /* \"#utility.yul\":13535:13582   */\n      mstore\n        /* \"#utility.yul\":13599:13730   */\n      tag_255\n        /* \"#utility.yul\":13725:13729   */\n      dup2\n        /* \"#utility.yul\":13599:13730   */\n      tag_138\n      jump\t// in\n    tag_255:\n        /* \"#utility.yul\":13591:13730   */\n      swap1\n      pop\n        /* \"#utility.yul\":13318:13737   */\n      swap2\n      swap1\n      pop\n      jump\t// out\n        /* \"#utility.yul\":13743:13913   */\n    tag_139:\n        /* \"#utility.yul\":13883:13905   */\n      0x4e6577206269642069732070726f706f7365643a000000000000000000000000\n        /* \"#utility.yul\":13879:13880   */\n      0x00\n        /* \"#utility.yul\":13871:13877   */\n      dup3\n        /* \"#utility.yul\":13867:13881   */\n      add\n        /* \"#utility.yul\":13860:13906   */\n      mstore\n        /* \"#utility.yul\":13743:13913   */\n      pop\n      jump\t// out\n        /* \"#utility.yul\":13919:14285   */\n    tag_140:\n        /* \"#utility.yul\":14061:14064   */\n      0x00\n        /* \"#utility.yul\":14082:14149   */\n      tag_258\n        /* \"#utility.yul\":14146:14148   */\n      0x14\n        /* \"#utility.yul\":14141:14144   */\n      dup4\n        /* \"#utility.yul\":14082:14149   */\n      tag_112\n      jump\t// in\n    tag_258:\n        /* \"#utility.yul\":14075:14149   */\n      swap2\n      pop\n        /* \"#utility.yul\":14158:14251   */\n      tag_259\n        /* \"#utility.yul\":14247:14250   */\n      dup3\n        /* \"#utility.yul\":14158:14251   */\n      tag_139\n      jump\t// in\n    tag_259:\n        /* \"#utility.yul\":14276:14278   */\n      0x20\n        /* \"#utility.yul\":14271:14274   */\n      dup3\n        /* \"#utility.yul\":14267:14279   */\n      add\n        /* \"#utility.yul\":14260:14279   */\n      swap1\n      pop\n        /* \"#utility.yul\":13919:14285   */\n      swap2\n      swap1\n      pop\n      jump\t// out\n        /* \"#utility.yul\":14291:14930   */\n    tag_89:\n        /* \"#utility.yul\":14513:14517   */\n      0x00\n        /* \"#utility.yul\":14551:14553   */\n      0x60\n        /* \"#utility.yul\":14540:14549   */\n      dup3\n        /* \"#utility.yul\":14536:14554   */\n      add\n        /* \"#utility.yul\":14528:14554   */\n      swap1\n      pop\n        /* \"#utility.yul\":14600:14609   */\n      dup2\n        /* \"#utility.yul\":14594:14598   */\n      dup2\n        /* \"#utility.yul\":14590:14610   */\n      sub\n        /* \"#utility.yul\":14586:14587   */\n      0x00\n        /* \"#utility.yul\":14575:14584   */\n      dup4\n        /* \"#utility.yul\":14571:14588   */\n      add\n        /* \"#utility.yul\":14564:14611   */\n      mstore\n        /* \"#utility.yul\":14628:14759   */\n      tag_261\n        /* \"#utility.yul\":14754:14758   */\n      dup2\n        /* \"#utility.yul\":14628:14759   */\n      tag_140\n      jump\t// in\n    tag_261:\n        /* \"#utility.yul\":14620:14759   */\n      swap1\n      pop\n        /* \"#utility.yul\":14769:14841   */\n      tag_262\n        /* \"#utility.yul\":14837:14839   */\n      0x20\n        /* \"#utility.yul\":14826:14835   */\n      dup4\n        /* \"#utility.yul\":14822:14840   */\n      add\n        /* \"#utility.yul\":14813:14819   */\n      dup6\n        /* \"#utility.yul\":14769:14841   */\n      tag_124\n      jump\t// in\n    tag_262:\n        /* \"#utility.yul\":14851:14923   */\n      tag_263\n        /* \"#utility.yul\":14919:14921   */\n      0x40\n        /* \"#utility.yul\":14908:14917   */\n      dup4\n        /* \"#utility.yul\":14904:14922   */\n      add\n        /* \"#utility.yul\":14895:14901   */\n      dup5\n        /* \"#utility.yul\":14851:14923   */\n      tag_104\n      jump\t// in\n    tag_263:\n        /* \"#utility.yul\":14291:14930   */\n      swap4\n      swap3\n      pop\n      pop\n      pop\n      jump\t// out\n        /* \"#utility.yul\":14936:15116   */\n    tag_141:\n        /* \"#utility.yul\":14984:15061   */\n      0x4e487b7100000000000000000000000000000000000000000000000000000000\n        /* \"#utility.yul\":14981:14982   */\n      0x00\n        /* \"#utility.yul\":14974:15062   */\n      mstore\n        /* \"#utility.yul\":15081:15085   */\n      0x11\n        /* \"#utility.yul\":15078:15079   */\n      0x04\n        /* \"#utility.yul\":15071:15086   */\n      mstore\n        /* \"#utility.yul\":15105:15109   */\n      0x24\n        /* \"#utility.yul\":15102:15103   */\n      0x00\n        /* \"#utility.yul\":15095:15110   */\n      revert\n        /* \"#utility.yul\":15122:15313   */\n    tag_93:\n        /* \"#utility.yul\":15162:15165   */\n      0x00\n        /* \"#utility.yul\":15181:15201   */\n      tag_266\n        /* \"#utility.yul\":15199:15200   */\n      dup3\n        /* \"#utility.yul\":15181:15201   */\n      tag_103\n      jump\t// in\n    tag_266:\n        /* \"#utility.yul\":15176:15201   */\n      swap2\n      pop\n        /* \"#utility.yul\":15215:15235   */\n      tag_267\n        /* \"#utility.yul\":15233:15234   */\n      dup4\n        /* \"#utility.yul\":15215:15235   */\n      tag_103\n      jump\t// in\n    tag_267:\n        /* \"#utility.yul\":15210:15235   */\n      swap3\n      pop\n        /* \"#utility.yul\":15258:15259   */\n      dup3\n        /* \"#utility.yul\":15255:15256   */\n      dup3\n        /* \"#utility.yul\":15251:15260   */\n      add\n        /* \"#utility.yul\":15244:15260   */\n      swap1\n      pop\n        /* \"#utility.yul\":15279:15282   */\n      dup1\n        /* \"#utility.yul\":15276:15277   */\n      dup3\n        /* \"#utility.yul\":15273:15283   */\n      gt\n        /* \"#utility.yul\":15270:15306   */\n      iszero\n      tag_268\n      jumpi\n        /* \"#utility.yul\":15286:15304   */\n      tag_269\n      tag_141\n      jump\t// in\n    tag_269:\n        /* \"#utility.yul\":15270:15306   */\n    tag_268:\n        /* \"#utility.yul\":15122:15313   */\n      swap3\n      swap2\n      pop\n      pop\n      jump\t// out\n        /* \"#utility.yul\":15319:15862   */\n    tag_99:\n        /* \"#utility.yul\":15493:15497   */\n      0x00\n        /* \"#utility.yul\":15531:15533   */\n      0x60\n        /* \"#utility.yul\":15520:15529   */\n      dup3\n        /* \"#utility.yul\":15516:15534   */\n      add\n        /* \"#utility.yul\":15508:15534   */\n      swap1\n      pop\n        /* \"#utility.yul\":15544:15623   */\n      tag_271\n        /* \"#utility.yul\":15620:15621   */\n      0x00\n        /* \"#utility.yul\":15609:15618   */\n      dup4\n        /* \"#utility.yul\":15605:15622   */\n      add\n        /* \"#utility.yul\":15596:15602   */\n      dup7\n        /* \"#utility.yul\":15544:15623   */\n      tag_123\n      jump\t// in\n    tag_271:\n        /* \"#utility.yul\":15670:15679   */\n      dup2\n        /* \"#utility.yul\":15664:15668   */\n      dup2\n        /* \"#utility.yul\":15660:15680   */\n      sub\n        /* \"#utility.yul\":15655:15657   */\n      0x20\n        /* \"#utility.yul\":15644:15653   */\n      dup4\n        /* \"#utility.yul\":15640:15658   */\n      add\n        /* \"#utility.yul\":15633:15681   */\n      mstore\n        /* \"#utility.yul\":15698:15773   */\n      tag_272\n        /* \"#utility.yul\":15768:15772   */\n      dup2\n        /* \"#utility.yul\":15759:15765   */\n      dup6\n        /* \"#utility.yul\":15698:15773   */\n      tag_132\n      jump\t// in\n    tag_272:\n        /* \"#utility.yul\":15690:15773   */\n      swap1\n      pop\n        /* \"#utility.yul\":15783:15855   */\n      tag_273\n        /* \"#utility.yul\":15851:15853   */\n      0x40\n        /* \"#utility.yul\":15840:15849   */\n      dup4\n        /* \"#utility.yul\":15836:15854   */\n      add\n        /* \"#utility.yul\":15827:15833   */\n      dup5\n        /* \"#utility.yul\":15783:15855   */\n      tag_104\n      jump\t// in\n    tag_273:\n        /* \"#utility.yul\":15319:15862   */\n      swap5\n      swap4\n      pop\n      pop\n      pop\n      pop\n      jump\t// out\n\n    auxdata: 0xa2646970667358221220cb2a13ba6db0c0a54f1bfc3e4d801cf65b5f80f16d8f718f02d2e9bd682eb22d64736f6c63430008160033\n}\n",
				"bytecode": {
					"linkReferences": {},
					"object": "608060405234801562000010575f80fd5b50604051620019ee380380620019ee833981810160405281019062000036919062000326565b335f806101000a81548173ffffffffffffffffffffffffffffffffffffffff021916908373ffffffffffffffffffffffffffffffffffffffff1602179055508260019081620000869190620005cc565b50816002819055508060075f820151815f0155602082015181600101559050505f60045f6101000a81548173ffffffffffffffffffffffffffffffffffffffff021916908373ffffffffffffffffffffffffffffffffffffffff1602179055505f6005819055505f60065f6101000a81548160ff021916908315150217905550505050620006b0565b5f604051905090565b5f80fd5b5f80fd5b5f80fd5b5f80fd5b5f601f19601f8301169050919050565b7f4e487b71000000000000000000000000000000000000000000000000000000005f52604160045260245ffd5b620001708262000128565b810181811067ffffffffffffffff8211171562000192576200019162000138565b5b80604052505050565b5f620001a66200010f565b9050620001b4828262000165565b919050565b5f67ffffffffffffffff821115620001d657620001d562000138565b5b620001e18262000128565b9050602081019050919050565b5f5b838110156200020d578082015181840152602081019050620001f0565b5f8484015250505050565b5f6200022e6200022884620001b9565b6200019b565b9050828152602081018484840111156200024d576200024c62000124565b5b6200025a848285620001ee565b509392505050565b5f82601f83011262000279576200027862000120565b5b81516200028b84826020860162000218565b91505092915050565b5f819050919050565b620002a88162000294565b8114620002b3575f80fd5b50565b5f81519050620002c6816200029d565b92915050565b5f80fd5b5f60408284031215620002e857620002e7620002cc565b5b620002f460406200019b565b90505f6200030584828501620002b6565b5f8301525060206200031a84828501620002b6565b60208301525092915050565b5f805f6080848603121562000340576200033f62000118565b5b5f84015167ffffffffffffffff81111562000360576200035f6200011c565b5b6200036e8682870162000262565b93505060206200038186828701620002b6565b92505060406200039486828701620002d0565b9150509250925092565b5f81519050919050565b7f4e487b71000000000000000000000000000000000000000000000000000000005f52602260045260245ffd5b5f6002820490506001821680620003ed57607f821691505b602082108103620004035762000402620003a8565b5b50919050565b5f819050815f5260205f209050919050565b5f6020601f8301049050919050565b5f82821b905092915050565b5f60088302620004677fffffffffffffffffffffffffffffffffffffffffffffffffffffffffffffffff826200042a565b6200047386836200042a565b95508019841693508086168417925050509392505050565b5f819050919050565b5f620004b4620004ae620004a88462000294565b6200048b565b62000294565b9050919050565b5f819050919050565b620004cf8362000494565b620004e7620004de82620004bb565b84845462000436565b825550505050565b5f90565b620004fd620004ef565b6200050a818484620004c4565b505050565b5b818110156200053157620005255f82620004f3565b60018101905062000510565b5050565b601f82111562000580576200054a8162000409565b62000555846200041b565b8101602085101562000565578190505b6200057d62000574856200041b565b8301826200050f565b50505b505050565b5f82821c905092915050565b5f620005a25f198460080262000585565b1980831691505092915050565b5f620005bc838362000591565b9150826002028217905092915050565b620005d7826200039e565b67ffffffffffffffff811115620005f357620005f262000138565b5b620005ff8254620003d5565b6200060c82828562000535565b5f60209050601f83116001811462000642575f84156200062d578287015190505b620006398582620005af565b865550620006a8565b601f198416620006528662000409565b5f5b828110156200067b5784890151825560018201915060208501945060208101905062000654565b868310156200069b578489015162000697601f89168262000591565b8355505b6001600288020188555050505b505050505050565b61133080620006be5f395ff3fe60806040526004361061007a575f3560e01c8063bb0f95751161004d578063bb0f9575146100f2578063c028df06146100fc578063fcc8f79314610106578063fcfff16f146101425761007a565b806343d726d61461007e57806347535d7b146100945780637cc3ae8c146100be57806383229290146100e8575b5f80fd5b348015610089575f80fd5b50610092610158565b005b34801561009f575f80fd5b506100a8610317565b6040516100b59190610b3b565b60405180910390f35b3480156100c9575f80fd5b506100d2610370565b6040516100df9190610b6c565b60405180910390f35b6100f0610376565b005b6100fa61051b565b005b610104610739565b005b348015610111575f80fd5b5061012c60048036038101906101279190610be3565b6109f3565b6040516101399190610b6c565b60405180910390f35b34801561014d575f80fd5b50610156610a08565b005b3373ffffffffffffffffffffffffffffffffffffffff165f8054906101000a900473ffffffffffffffffffffffffffffffffffffffff1673ffffffffffffffffffffffffffffffffffffffff16146101e5576040517f08c379a00000000000000000000000000000000000000000000000000000000081526004016101dc90610c8e565b60405180910390fd5b6001151560065f9054906101000a900460ff1615151461023a576040517f08c379a000000000000000000000000000000000000000000000000000000000815260040161023190610cf6565b60405180910390fd5b60035442101561027f576040517f08c379a000000000000000000000000000000000000000000000000000000000815260040161027690610d5e565b60405180910390fd5b5f60065f6101000a81548160ff0219169083151502179055507fe810c871ce50ff674e2e5e2a570cf162a6ee85fe638d22afd8c00a57904f86e85f8054906101000a900473ffffffffffffffffffffffffffffffffffffffff1660045f9054906101000a900473ffffffffffffffffffffffffffffffffffffffff1660055460405161030d93929190610de6565b60405180910390a1565b5f6001151560065f9054906101000a900460ff1615151461036d576040517f08c379a000000000000000000000000000000000000000000000000000000000815260040161036490610cf6565b60405180910390fd5b90565b60035481565b60045f9054906101000a900473ffffffffffffffffffffffffffffffffffffffff1673ffffffffffffffffffffffffffffffffffffffff163373ffffffffffffffffffffffffffffffffffffffff1614610405576040517f08c379a00000000000000000000000000000000000000000000000000000000081526004016103fc90610e8b565b60405180910390fd5b5f151560065f9054906101000a900460ff16151514610459576040517f08c379a000000000000000000000000000000000000000000000000000000000815260040161045090610ef3565b60405180910390fd5b7f5e8c64c7c4bf81541143e96785b6fe89c8c1c2e524aac8b02d7e09f899a3108e60045f9054906101000a900473ffffffffffffffffffffffffffffffffffffffff1660016040516104ac929190611001565b60405180910390a15f8054906101000a900473ffffffffffffffffffffffffffffffffffffffff1673ffffffffffffffffffffffffffffffffffffffff166108fc60055490811502906040515f60405180830381858888f19350505050158015610518573d5f803e3d5ffd5b50565b60045f9054906101000a900473ffffffffffffffffffffffffffffffffffffffff1673ffffffffffffffffffffffffffffffffffffffff163373ffffffffffffffffffffffffffffffffffffffff16036105aa576040517f08c379a00000000000000000000000000000000000000000000000000000000081526004016105a19061109f565b60405180910390fd5b5f151560065f9054906101000a900460ff161515146105fe576040517f08c379a00000000000000000000000000000000000000000000000000000000081526004016105f590610ef3565b60405180910390fd5b7feaff4b37086828766ad3268786972c0cd24259d4c87a80f9d3963a3c3d999b0d3360095f3373ffffffffffffffffffffffffffffffffffffffff1673ffffffffffffffffffffffffffffffffffffffff1681526020019081526020015f205460405161066c9291906110bd565b60405180910390a13373ffffffffffffffffffffffffffffffffffffffff166108fc60095f3373ffffffffffffffffffffffffffffffffffffffff1673ffffffffffffffffffffffffffffffffffffffff1681526020019081526020015f205490811502906040515f60405180830381858888f193505050501580156106f4573d5f803e3d5ffd5b505f60095f3373ffffffffffffffffffffffffffffffffffffffff1673ffffffffffffffffffffffffffffffffffffffff1681526020019081526020015f2081905550565b6001151560065f9054906101000a900460ff1615151461078e576040517f08c379a000000000000000000000000000000000000000000000000000000000815260040161078590610cf6565b60405180910390fd5b60055434106107d2576040517f08c379a00000000000000000000000000000000000000000000000000000000081526004016107c990611154565b60405180910390fd5b6003544210610816576040517f08c379a000000000000000000000000000000000000000000000000000000000815260040161080d906111bc565b60405180910390fd5b7f7a1ef295a7b3ead528a3d5dc5108df6fbe47739a34aa589a11433b98ce53c60e3334604051610847929190611224565b60405180910390a1346005819055503360045f6101000a81548173ffffffffffffffffffffffffffffffffffffffff021916908373ffffffffffffffffffffffffffffffffffffffff1602179055505f60095f60045f9054906101000a900473ffffffffffffffffffffffffffffffffffffffff1673ffffffffffffffffffffffffffffffffffffffff1673ffffffffffffffffffffffffffffffffffffffff1681526020019081526020015f20540361097d57600a60045f9054906101000a900473ffffffffffffffffffffffffffffffffffffffff16908060018154018082558091505060019003905f5260205f20015f9091909190916101000a81548173ffffffffffffffffffffffffffffffffffffffff021916908373ffffffffffffffffffffffffffffffffffffffff1602179055505b3460095f60045f9054906101000a900473ffffffffffffffffffffffffffffffffffffffff1673ffffffffffffffffffffffffffffffffffffffff1673ffffffffffffffffffffffffffffffffffffffff1681526020019081526020015f205f8282546109ea919061128b565b92505081905550565b6009602052805f5260405f205f915090505481565b3373ffffffffffffffffffffffffffffffffffffffff165f8054906101000a900473ffffffffffffffffffffffffffffffffffffffff1673ffffffffffffffffffffffffffffffffffffffff1614610a95576040517f08c379a0000000000000000000000000000000000000000000000000000000008152600401610a8c90610c8e565b60405180910390fd5b600160065f6101000a81548160ff0219169083151502179055507f6969a1bc7452d86873151bfd13167742e1951b4af640dfd8218b7eddd7ec66325f8054906101000a900473ffffffffffffffffffffffffffffffffffffffff166001600254604051610b04939291906112be565b60405180910390a1600f42610b19919061128b565b600381905550565b5f8115159050919050565b610b3581610b21565b82525050565b5f602082019050610b4e5f830184610b2c565b92915050565b5f819050919050565b610b6681610b54565b82525050565b5f602082019050610b7f5f830184610b5d565b92915050565b5f80fd5b5f73ffffffffffffffffffffffffffffffffffffffff82169050919050565b5f610bb282610b89565b9050919050565b610bc281610ba8565b8114610bcc575f80fd5b50565b5f81359050610bdd81610bb9565b92915050565b5f60208284031215610bf857610bf7610b85565b5b5f610c0584828501610bcf565b91505092915050565b5f82825260208201905092915050565b7f4f6e6c7920746865206f776e6572206f70656e2f63616e20636c6f73652074685f8201527f652061756374696f6e0000000000000000000000000000000000000000000000602082015250565b5f610c78602983610c0e565b9150610c8382610c1e565b604082019050919050565b5f6020820190508181035f830152610ca581610c6c565b9050919050565b7f5468652061756374696f6e206861766520746f206f70656e65642066697273745f82015250565b5f610ce0602083610c0e565b9150610ceb82610cac565b602082019050919050565b5f6020820190508181035f830152610d0d81610cd4565b9050919050565b7f6e6f7420656e64656400000000000000000000000000000000000000000000005f82015250565b5f610d48600983610c0e565b9150610d5382610d14565b602082019050919050565b5f6020820190508181035f830152610d7581610d3c565b9050919050565b5f819050919050565b5f610d9f610d9a610d9584610b89565b610d7c565b610b89565b9050919050565b5f610db082610d85565b9050919050565b5f610dc182610da6565b9050919050565b610dd181610db7565b82525050565b610de081610ba8565b82525050565b5f606082019050610df95f830186610dc8565b610e066020830185610dd7565b610e136040830184610b5d565b949350505050565b7f536f6c6f20696c2076696e6369746f72652064656c6c27617374612070756f275f8201527f207269746972617265206c612076696e63697461000000000000000000000000602082015250565b5f610e75603483610c0e565b9150610e8082610e1b565b604082019050919050565b5f6020820190508181035f830152610ea281610e69565b9050919050565b7f4c2761737461206e6f6e20652720616e636f72612063686975736100000000005f82015250565b5f610edd601b83610c0e565b9150610ee882610ea9565b602082019050919050565b5f6020820190508181035f830152610f0a81610ed1565b9050919050565b7f4e487b71000000000000000000000000000000000000000000000000000000005f52602260045260245ffd5b5f6002820490506001821680610f5557607f821691505b602082108103610f6857610f67610f11565b5b50919050565b5f819050815f5260205f209050919050565b5f8154610f8c81610f3e565b610f968186610c0e565b9450600182165f8114610fb05760018114610fc657610ff8565b60ff198316865281151560200286019350610ff8565b610fcf85610f6e565b5f5b83811015610ff057815481890152600182019150602081019050610fd1565b808801955050505b50505092915050565b5f6040820190506110145f830185610dd7565b81810360208301526110268184610f80565b90509392505050565b7f496c2076696e6369746f72652064656c6c2761737461206e6f6e2070756f27205f8201527f7269746972617265206920666f6e646900000000000000000000000000000000602082015250565b5f611089603083610c0e565b91506110948261102f565b604082019050919050565b5f6020820190508181035f8301526110b68161107d565b9050919050565b5f6040820190506110d05f830185610dd7565b6110dd6020830184610b5d565b9392505050565b7f4c276f666665727461206661747461206e6f6e20737570657261206c61206d695f8201527f676c696f72650000000000000000000000000000000000000000000000000000602082015250565b5f61113e602683610c0e565b9150611149826110e4565b604082019050919050565b5f6020820190508181035f83015261116b81611132565b9050919050565b7f656e6465640000000000000000000000000000000000000000000000000000005f82015250565b5f6111a6600583610c0e565b91506111b182611172565b602082019050919050565b5f6020820190508181035f8301526111d38161119a565b9050919050565b7f4e6577206269642069732070726f706f7365643a0000000000000000000000005f82015250565b5f61120e601483610c0e565b9150611219826111da565b602082019050919050565b5f6060820190508181035f83015261123b81611202565b905061124a6020830185610dd7565b6112576040830184610b5d565b9392505050565b7f4e487b71000000000000000000000000000000000000000000000000000000005f52601160045260245ffd5b5f61129582610b54565b91506112a083610b54565b92508282019050808211156112b8576112b761125e565b5b92915050565b5f6060820190506112d15f830186610dc8565b81810360208301526112e38185610f80565b90506112f26040830184610b5d565b94935050505056fea2646970667358221220cb2a13ba6db0c0a54f1bfc3e4d801cf65b5f80f16d8f718f02d2e9bd682eb22d64736f6c63430008160033",
					"opcodes": "PUSH1 0x80 PUSH1 0x40 MSTORE CALLVALUE DUP1 ISZERO PUSH3 0x10 JUMPI PUSH0 DUP1 REVERT JUMPDEST POP PUSH1 0x40 MLOAD PUSH3 0x19EE CODESIZE SUB DUP1 PUSH3 0x19EE DUP4 CODECOPY DUP2 DUP2 ADD PUSH1 0x40 MSTORE DUP2 ADD SWAP1 PUSH3 0x36 SWAP2 SWAP1 PUSH3 0x326 JUMP JUMPDEST CALLER PUSH0 DUP1 PUSH2 0x100 EXP DUP2 SLOAD DUP2 PUSH20 0xFFFFFFFFFFFFFFFFFFFFFFFFFFFFFFFFFFFFFFFF MUL NOT AND SWAP1 DUP4 PUSH20 0xFFFFFFFFFFFFFFFFFFFFFFFFFFFFFFFFFFFFFFFF AND MUL OR SWAP1 SSTORE POP DUP3 PUSH1 0x1 SWAP1 DUP2 PUSH3 0x86 SWAP2 SWAP1 PUSH3 0x5CC JUMP JUMPDEST POP DUP2 PUSH1 0x2 DUP2 SWAP1 SSTORE POP DUP1 PUSH1 0x7 PUSH0 DUP3 ADD MLOAD DUP2 PUSH0 ADD SSTORE PUSH1 0x20 DUP3 ADD MLOAD DUP2 PUSH1 0x1 ADD SSTORE SWAP1 POP POP PUSH0 PUSH1 0x4 PUSH0 PUSH2 0x100 EXP DUP2 SLOAD DUP2 PUSH20 0xFFFFFFFFFFFFFFFFFFFFFFFFFFFFFFFFFFFFFFFF MUL NOT AND SWAP1 DUP4 PUSH20 0xFFFFFFFFFFFFFFFFFFFFFFFFFFFFFFFFFFFFFFFF AND MUL OR SWAP1 SSTORE POP PUSH0 PUSH1 0x5 DUP2 SWAP1 SSTORE POP PUSH0 PUSH1 0x6 PUSH0 PUSH2 0x100 EXP DUP2 SLOAD DUP2 PUSH1 0xFF MUL NOT AND SWAP1 DUP4 ISZERO ISZERO MUL OR SWAP1 SSTORE POP POP POP POP PUSH3 0x6B0 JUMP JUMPDEST PUSH0 PUSH1 0x40 MLOAD SWAP1 POP SWAP1 JUMP JUMPDEST PUSH0 DUP1 REVERT JUMPDEST PUSH0 DUP1 REVERT JUMPDEST PUSH0 DUP1 REVERT JUMPDEST PUSH0 DUP1 REVERT JUMPDEST PUSH0 PUSH1 0x1F NOT PUSH1 0x1F DUP4 ADD AND SWAP1 POP SWAP2 SWAP1 POP JUMP JUMPDEST PUSH32 0x4E487B7100000000000000000000000000000000000000000000000000000000 PUSH0 MSTORE PUSH1 0x41 PUSH1 0x4 MSTORE PUSH1 0x24 PUSH0 REVERT JUMPDEST PUSH3 0x170 DUP3 PUSH3 0x128 JUMP JUMPDEST DUP2 ADD DUP2 DUP2 LT PUSH8 0xFFFFFFFFFFFFFFFF DUP3 GT OR ISZERO PUSH3 0x192 JUMPI PUSH3 0x191 PUSH3 0x138 JUMP JUMPDEST JUMPDEST DUP1 PUSH1 0x40 MSTORE POP POP POP JUMP JUMPDEST PUSH0 PUSH3 0x1A6 PUSH3 0x10F JUMP JUMPDEST SWAP1 POP PUSH3 0x1B4 DUP3 DUP3 PUSH3 0x165 JUMP JUMPDEST SWAP2 SWAP1 POP JUMP JUMPDEST PUSH0 PUSH8 0xFFFFFFFFFFFFFFFF DUP3 GT ISZERO PUSH3 0x1D6 JUMPI PUSH3 0x1D5 PUSH3 0x138 JUMP JUMPDEST JUMPDEST PUSH3 0x1E1 DUP3 PUSH3 0x128 JUMP JUMPDEST SWAP1 POP PUSH1 0x20 DUP2 ADD SWAP1 POP SWAP2 SWAP1 POP JUMP JUMPDEST PUSH0 JUMPDEST DUP4 DUP2 LT ISZERO PUSH3 0x20D JUMPI DUP1 DUP3 ADD MLOAD DUP2 DUP5 ADD MSTORE PUSH1 0x20 DUP2 ADD SWAP1 POP PUSH3 0x1F0 JUMP JUMPDEST PUSH0 DUP5 DUP5 ADD MSTORE POP POP POP POP JUMP JUMPDEST PUSH0 PUSH3 0x22E PUSH3 0x228 DUP5 PUSH3 0x1B9 JUMP JUMPDEST PUSH3 0x19B JUMP JUMPDEST SWAP1 POP DUP3 DUP2 MSTORE PUSH1 0x20 DUP2 ADD DUP5 DUP5 DUP5 ADD GT ISZERO PUSH3 0x24D JUMPI PUSH3 0x24C PUSH3 0x124 JUMP JUMPDEST JUMPDEST PUSH3 0x25A DUP5 DUP3 DUP6 PUSH3 0x1EE JUMP JUMPDEST POP SWAP4 SWAP3 POP POP POP JUMP JUMPDEST PUSH0 DUP3 PUSH1 0x1F DUP4 ADD SLT PUSH3 0x279 JUMPI PUSH3 0x278 PUSH3 0x120 JUMP JUMPDEST JUMPDEST DUP2 MLOAD PUSH3 0x28B DUP5 DUP3 PUSH1 0x20 DUP7 ADD PUSH3 0x218 JUMP JUMPDEST SWAP2 POP POP SWAP3 SWAP2 POP POP JUMP JUMPDEST PUSH0 DUP2 SWAP1 POP SWAP2 SWAP1 POP JUMP JUMPDEST PUSH3 0x2A8 DUP2 PUSH3 0x294 JUMP JUMPDEST DUP2 EQ PUSH3 0x2B3 JUMPI PUSH0 DUP1 REVERT JUMPDEST POP JUMP JUMPDEST PUSH0 DUP2 MLOAD SWAP1 POP PUSH3 0x2C6 DUP2 PUSH3 0x29D JUMP JUMPDEST SWAP3 SWAP2 POP POP JUMP JUMPDEST PUSH0 DUP1 REVERT JUMPDEST PUSH0 PUSH1 0x40 DUP3 DUP5 SUB SLT ISZERO PUSH3 0x2E8 JUMPI PUSH3 0x2E7 PUSH3 0x2CC JUMP JUMPDEST JUMPDEST PUSH3 0x2F4 PUSH1 0x40 PUSH3 0x19B JUMP JUMPDEST SWAP1 POP PUSH0 PUSH3 0x305 DUP5 DUP3 DUP6 ADD PUSH3 0x2B6 JUMP JUMPDEST PUSH0 DUP4 ADD MSTORE POP PUSH1 0x20 PUSH3 0x31A DUP5 DUP3 DUP6 ADD PUSH3 0x2B6 JUMP JUMPDEST PUSH1 0x20 DUP4 ADD MSTORE POP SWAP3 SWAP2 POP POP JUMP JUMPDEST PUSH0 DUP1 PUSH0 PUSH1 0x80 DUP5 DUP7 SUB SLT ISZERO PUSH3 0x340 JUMPI PUSH3 0x33F PUSH3 0x118 JUMP JUMPDEST JUMPDEST PUSH0 DUP5 ADD MLOAD PUSH8 0xFFFFFFFFFFFFFFFF DUP2 GT ISZERO PUSH3 0x360 JUMPI PUSH3 0x35F PUSH3 0x11C JUMP JUMPDEST JUMPDEST PUSH3 0x36E DUP7 DUP3 DUP8 ADD PUSH3 0x262 JUMP JUMPDEST SWAP4 POP POP PUSH1 0x20 PUSH3 0x381 DUP7 DUP3 DUP8 ADD PUSH3 0x2B6 JUMP JUMPDEST SWAP3 POP POP PUSH1 0x40 PUSH3 0x394 DUP7 DUP3 DUP8 ADD PUSH3 0x2D0 JUMP JUMPDEST SWAP2 POP POP SWAP3 POP SWAP3 POP SWAP3 JUMP JUMPDEST PUSH0 DUP2 MLOAD SWAP1 POP SWAP2 SWAP1 POP JUMP JUMPDEST PUSH32 0x4E487B7100000000000000000000000000000000000000000000000000000000 PUSH0 MSTORE PUSH1 0x22 PUSH1 0x4 MSTORE PUSH1 0x24 PUSH0 REVERT JUMPDEST PUSH0 PUSH1 0x2 DUP3 DIV SWAP1 POP PUSH1 0x1 DUP3 AND DUP1 PUSH3 0x3ED JUMPI PUSH1 0x7F DUP3 AND SWAP2 POP JUMPDEST PUSH1 0x20 DUP3 LT DUP2 SUB PUSH3 0x403 JUMPI PUSH3 0x402 PUSH3 0x3A8 JUMP JUMPDEST JUMPDEST POP SWAP2 SWAP1 POP JUMP JUMPDEST PUSH0 DUP2 SWAP1 POP DUP2 PUSH0 MSTORE PUSH1 0x20 PUSH0 KECCAK256 SWAP1 POP SWAP2 SWAP1 POP JUMP JUMPDEST PUSH0 PUSH1 0x20 PUSH1 0x1F DUP4 ADD DIV SWAP1 POP SWAP2 SWAP1 POP JUMP JUMPDEST PUSH0 DUP3 DUP3 SHL SWAP1 POP SWAP3 SWAP2 POP POP JUMP JUMPDEST PUSH0 PUSH1 0x8 DUP4 MUL PUSH3 0x467 PUSH32 0xFFFFFFFFFFFFFFFFFFFFFFFFFFFFFFFFFFFFFFFFFFFFFFFFFFFFFFFFFFFFFFFF DUP3 PUSH3 0x42A JUMP JUMPDEST PUSH3 0x473 DUP7 DUP4 PUSH3 0x42A JUMP JUMPDEST SWAP6 POP DUP1 NOT DUP5 AND SWAP4 POP DUP1 DUP7 AND DUP5 OR SWAP3 POP POP POP SWAP4 SWAP3 POP POP POP JUMP JUMPDEST PUSH0 DUP2 SWAP1 POP SWAP2 SWAP1 POP JUMP JUMPDEST PUSH0 PUSH3 0x4B4 PUSH3 0x4AE PUSH3 0x4A8 DUP5 PUSH3 0x294 JUMP JUMPDEST PUSH3 0x48B JUMP JUMPDEST PUSH3 0x294 JUMP JUMPDEST SWAP1 POP SWAP2 SWAP1 POP JUMP JUMPDEST PUSH0 DUP2 SWAP1 POP SWAP2 SWAP1 POP JUMP JUMPDEST PUSH3 0x4CF DUP4 PUSH3 0x494 JUMP JUMPDEST PUSH3 0x4E7 PUSH3 0x4DE DUP3 PUSH3 0x4BB JUMP JUMPDEST DUP5 DUP5 SLOAD PUSH3 0x436 JUMP JUMPDEST DUP3 SSTORE POP POP POP POP JUMP JUMPDEST PUSH0 SWAP1 JUMP JUMPDEST PUSH3 0x4FD PUSH3 0x4EF JUMP JUMPDEST PUSH3 0x50A DUP2 DUP5 DUP5 PUSH3 0x4C4 JUMP JUMPDEST POP POP POP JUMP JUMPDEST JUMPDEST DUP2 DUP2 LT ISZERO PUSH3 0x531 JUMPI PUSH3 0x525 PUSH0 DUP3 PUSH3 0x4F3 JUMP JUMPDEST PUSH1 0x1 DUP2 ADD SWAP1 POP PUSH3 0x510 JUMP JUMPDEST POP POP JUMP JUMPDEST PUSH1 0x1F DUP3 GT ISZERO PUSH3 0x580 JUMPI PUSH3 0x54A DUP2 PUSH3 0x409 JUMP JUMPDEST PUSH3 0x555 DUP5 PUSH3 0x41B JUMP JUMPDEST DUP2 ADD PUSH1 0x20 DUP6 LT ISZERO PUSH3 0x565 JUMPI DUP2 SWAP1 POP JUMPDEST PUSH3 0x57D PUSH3 0x574 DUP6 PUSH3 0x41B JUMP JUMPDEST DUP4 ADD DUP3 PUSH3 0x50F JUMP JUMPDEST POP POP JUMPDEST POP POP POP JUMP JUMPDEST PUSH0 DUP3 DUP3 SHR SWAP1 POP SWAP3 SWAP2 POP POP JUMP JUMPDEST PUSH0 PUSH3 0x5A2 PUSH0 NOT DUP5 PUSH1 0x8 MUL PUSH3 0x585 JUMP JUMPDEST NOT DUP1 DUP4 AND SWAP2 POP POP SWAP3 SWAP2 POP POP JUMP JUMPDEST PUSH0 PUSH3 0x5BC DUP4 DUP4 PUSH3 0x591 JUMP JUMPDEST SWAP2 POP DUP3 PUSH1 0x2 MUL DUP3 OR SWAP1 POP SWAP3 SWAP2 POP POP JUMP JUMPDEST PUSH3 0x5D7 DUP3 PUSH3 0x39E JUMP JUMPDEST PUSH8 0xFFFFFFFFFFFFFFFF DUP2 GT ISZERO PUSH3 0x5F3 JUMPI PUSH3 0x5F2 PUSH3 0x138 JUMP JUMPDEST JUMPDEST PUSH3 0x5FF DUP3 SLOAD PUSH3 0x3D5 JUMP JUMPDEST PUSH3 0x60C DUP3 DUP3 DUP6 PUSH3 0x535 JUMP JUMPDEST PUSH0 PUSH1 0x20 SWAP1 POP PUSH1 0x1F DUP4 GT PUSH1 0x1 DUP2 EQ PUSH3 0x642 JUMPI PUSH0 DUP5 ISZERO PUSH3 0x62D JUMPI DUP3 DUP8 ADD MLOAD SWAP1 POP JUMPDEST PUSH3 0x639 DUP6 DUP3 PUSH3 0x5AF JUMP JUMPDEST DUP7 SSTORE POP PUSH3 0x6A8 JUMP JUMPDEST PUSH1 0x1F NOT DUP5 AND PUSH3 0x652 DUP7 PUSH3 0x409 JUMP JUMPDEST PUSH0 JUMPDEST DUP3 DUP2 LT ISZERO PUSH3 0x67B JUMPI DUP5 DUP10 ADD MLOAD DUP3 SSTORE PUSH1 0x1 DUP3 ADD SWAP2 POP PUSH1 0x20 DUP6 ADD SWAP5 POP PUSH1 0x20 DUP2 ADD SWAP1 POP PUSH3 0x654 JUMP JUMPDEST DUP7 DUP4 LT ISZERO PUSH3 0x69B JUMPI DUP5 DUP10 ADD MLOAD PUSH3 0x697 PUSH1 0x1F DUP10 AND DUP3 PUSH3 0x591 JUMP JUMPDEST DUP4 SSTORE POP JUMPDEST PUSH1 0x1 PUSH1 0x2 DUP9 MUL ADD DUP9 SSTORE POP POP POP JUMPDEST POP POP POP POP POP POP JUMP JUMPDEST PUSH2 0x1330 DUP1 PUSH3 0x6BE PUSH0 CODECOPY PUSH0 RETURN INVALID PUSH1 0x80 PUSH1 0x40 MSTORE PUSH1 0x4 CALLDATASIZE LT PUSH2 0x7A JUMPI PUSH0 CALLDATALOAD PUSH1 0xE0 SHR DUP1 PUSH4 0xBB0F9575 GT PUSH2 0x4D JUMPI DUP1 PUSH4 0xBB0F9575 EQ PUSH2 0xF2 JUMPI DUP1 PUSH4 0xC028DF06 EQ PUSH2 0xFC JUMPI DUP1 PUSH4 0xFCC8F793 EQ PUSH2 0x106 JUMPI DUP1 PUSH4 0xFCFFF16F EQ PUSH2 0x142 JUMPI PUSH2 0x7A JUMP JUMPDEST DUP1 PUSH4 0x43D726D6 EQ PUSH2 0x7E JUMPI DUP1 PUSH4 0x47535D7B EQ PUSH2 0x94 JUMPI DUP1 PUSH4 0x7CC3AE8C EQ PUSH2 0xBE JUMPI DUP1 PUSH4 0x83229290 EQ PUSH2 0xE8 JUMPI JUMPDEST PUSH0 DUP1 REVERT JUMPDEST CALLVALUE DUP1 ISZERO PUSH2 0x89 JUMPI PUSH0 DUP1 REVERT JUMPDEST POP PUSH2 0x92 PUSH2 0x158 JUMP JUMPDEST STOP JUMPDEST CALLVALUE DUP1 ISZERO PUSH2 0x9F JUMPI PUSH0 DUP1 REVERT JUMPDEST POP PUSH2 0xA8 PUSH2 0x317 JUMP JUMPDEST PUSH1 0x40 MLOAD PUSH2 0xB5 SWAP2 SWAP1 PUSH2 0xB3B JUMP JUMPDEST PUSH1 0x40 MLOAD DUP1 SWAP2 SUB SWAP1 RETURN JUMPDEST CALLVALUE DUP1 ISZERO PUSH2 0xC9 JUMPI PUSH0 DUP1 REVERT JUMPDEST POP PUSH2 0xD2 PUSH2 0x370 JUMP JUMPDEST PUSH1 0x40 MLOAD PUSH2 0xDF SWAP2 SWAP1 PUSH2 0xB6C JUMP JUMPDEST PUSH1 0x40 MLOAD DUP1 SWAP2 SUB SWAP1 RETURN JUMPDEST PUSH2 0xF0 PUSH2 0x376 JUMP JUMPDEST STOP JUMPDEST PUSH2 0xFA PUSH2 0x51B JUMP JUMPDEST STOP JUMPDEST PUSH2 0x104 PUSH2 0x739 JUMP JUMPDEST STOP JUMPDEST CALLVALUE DUP1 ISZERO PUSH2 0x111 JUMPI PUSH0 DUP1 REVERT JUMPDEST POP PUSH2 0x12C PUSH1 0x4 DUP1 CALLDATASIZE SUB DUP2 ADD SWAP1 PUSH2 0x127 SWAP2 SWAP1 PUSH2 0xBE3 JUMP JUMPDEST PUSH2 0x9F3 JUMP JUMPDEST PUSH1 0x40 MLOAD PUSH2 0x139 SWAP2 SWAP1 PUSH2 0xB6C JUMP JUMPDEST PUSH1 0x40 MLOAD DUP1 SWAP2 SUB SWAP1 RETURN JUMPDEST CALLVALUE DUP1 ISZERO PUSH2 0x14D JUMPI PUSH0 DUP1 REVERT JUMPDEST POP PUSH2 0x156 PUSH2 0xA08 JUMP JUMPDEST STOP JUMPDEST CALLER PUSH20 0xFFFFFFFFFFFFFFFFFFFFFFFFFFFFFFFFFFFFFFFF AND PUSH0 DUP1 SLOAD SWAP1 PUSH2 0x100 EXP SWAP1 DIV PUSH20 0xFFFFFFFFFFFFFFFFFFFFFFFFFFFFFFFFFFFFFFFF AND PUSH20 0xFFFFFFFFFFFFFFFFFFFFFFFFFFFFFFFFFFFFFFFF AND EQ PUSH2 0x1E5 JUMPI PUSH1 0x40 MLOAD PUSH32 0x8C379A000000000000000000000000000000000000000000000000000000000 DUP2 MSTORE PUSH1 0x4 ADD PUSH2 0x1DC SWAP1 PUSH2 0xC8E JUMP JUMPDEST PUSH1 0x40 MLOAD DUP1 SWAP2 SUB SWAP1 REVERT JUMPDEST PUSH1 0x1 ISZERO ISZERO PUSH1 0x6 PUSH0 SWAP1 SLOAD SWAP1 PUSH2 0x100 EXP SWAP1 DIV PUSH1 0xFF AND ISZERO ISZERO EQ PUSH2 0x23A JUMPI PUSH1 0x40 MLOAD PUSH32 0x8C379A000000000000000000000000000000000000000000000000000000000 DUP2 MSTORE PUSH1 0x4 ADD PUSH2 0x231 SWAP1 PUSH2 0xCF6 JUMP JUMPDEST PUSH1 0x40 MLOAD DUP1 SWAP2 SUB SWAP1 REVERT JUMPDEST PUSH1 0x3 SLOAD TIMESTAMP LT ISZERO PUSH2 0x27F JUMPI PUSH1 0x40 MLOAD PUSH32 0x8C379A000000000000000000000000000000000000000000000000000000000 DUP2 MSTORE PUSH1 0x4 ADD PUSH2 0x276 SWAP1 PUSH2 0xD5E JUMP JUMPDEST PUSH1 0x40 MLOAD DUP1 SWAP2 SUB SWAP1 REVERT JUMPDEST PUSH0 PUSH1 0x6 PUSH0 PUSH2 0x100 EXP DUP2 SLOAD DUP2 PUSH1 0xFF MUL NOT AND SWAP1 DUP4 ISZERO ISZERO MUL OR SWAP1 SSTORE POP PUSH32 0xE810C871CE50FF674E2E5E2A570CF162A6EE85FE638D22AFD8C00A57904F86E8 PUSH0 DUP1 SLOAD SWAP1 PUSH2 0x100 EXP SWAP1 DIV PUSH20 0xFFFFFFFFFFFFFFFFFFFFFFFFFFFFFFFFFFFFFFFF AND PUSH1 0x4 PUSH0 SWAP1 SLOAD SWAP1 PUSH2 0x100 EXP SWAP1 DIV PUSH20 0xFFFFFFFFFFFFFFFFFFFFFFFFFFFFFFFFFFFFFFFF AND PUSH1 0x5 SLOAD PUSH1 0x40 MLOAD PUSH2 0x30D SWAP4 SWAP3 SWAP2 SWAP1 PUSH2 0xDE6 JUMP JUMPDEST PUSH1 0x40 MLOAD DUP1 SWAP2 SUB SWAP1 LOG1 JUMP JUMPDEST PUSH0 PUSH1 0x1 ISZERO ISZERO PUSH1 0x6 PUSH0 SWAP1 SLOAD SWAP1 PUSH2 0x100 EXP SWAP1 DIV PUSH1 0xFF AND ISZERO ISZERO EQ PUSH2 0x36D JUMPI PUSH1 0x40 MLOAD PUSH32 0x8C379A000000000000000000000000000000000000000000000000000000000 DUP2 MSTORE PUSH1 0x4 ADD PUSH2 0x364 SWAP1 PUSH2 0xCF6 JUMP JUMPDEST PUSH1 0x40 MLOAD DUP1 SWAP2 SUB SWAP1 REVERT JUMPDEST SWAP1 JUMP JUMPDEST PUSH1 0x3 SLOAD DUP2 JUMP JUMPDEST PUSH1 0x4 PUSH0 SWAP1 SLOAD SWAP1 PUSH2 0x100 EXP SWAP1 DIV PUSH20 0xFFFFFFFFFFFFFFFFFFFFFFFFFFFFFFFFFFFFFFFF AND PUSH20 0xFFFFFFFFFFFFFFFFFFFFFFFFFFFFFFFFFFFFFFFF AND CALLER PUSH20 0xFFFFFFFFFFFFFFFFFFFFFFFFFFFFFFFFFFFFFFFF AND EQ PUSH2 0x405 JUMPI PUSH1 0x40 MLOAD PUSH32 0x8C379A000000000000000000000000000000000000000000000000000000000 DUP2 MSTORE PUSH1 0x4 ADD PUSH2 0x3FC SWAP1 PUSH2 0xE8B JUMP JUMPDEST PUSH1 0x40 MLOAD DUP1 SWAP2 SUB SWAP1 REVERT JUMPDEST PUSH0 ISZERO ISZERO PUSH1 0x6 PUSH0 SWAP1 SLOAD SWAP1 PUSH2 0x100 EXP SWAP1 DIV PUSH1 0xFF AND ISZERO ISZERO EQ PUSH2 0x459 JUMPI PUSH1 0x40 MLOAD PUSH32 0x8C379A000000000000000000000000000000000000000000000000000000000 DUP2 MSTORE PUSH1 0x4 ADD PUSH2 0x450 SWAP1 PUSH2 0xEF3 JUMP JUMPDEST PUSH1 0x40 MLOAD DUP1 SWAP2 SUB SWAP1 REVERT JUMPDEST PUSH32 0x5E8C64C7C4BF81541143E96785B6FE89C8C1C2E524AAC8B02D7E09F899A3108E PUSH1 0x4 PUSH0 SWAP1 SLOAD SWAP1 PUSH2 0x100 EXP SWAP1 DIV PUSH20 0xFFFFFFFFFFFFFFFFFFFFFFFFFFFFFFFFFFFFFFFF AND PUSH1 0x1 PUSH1 0x40 MLOAD PUSH2 0x4AC SWAP3 SWAP2 SWAP1 PUSH2 0x1001 JUMP JUMPDEST PUSH1 0x40 MLOAD DUP1 SWAP2 SUB SWAP1 LOG1 PUSH0 DUP1 SLOAD SWAP1 PUSH2 0x100 EXP SWAP1 DIV PUSH20 0xFFFFFFFFFFFFFFFFFFFFFFFFFFFFFFFFFFFFFFFF AND PUSH20 0xFFFFFFFFFFFFFFFFFFFFFFFFFFFFFFFFFFFFFFFF AND PUSH2 0x8FC PUSH1 0x5 SLOAD SWAP1 DUP2 ISZERO MUL SWAP1 PUSH1 0x40 MLOAD PUSH0 PUSH1 0x40 MLOAD DUP1 DUP4 SUB DUP2 DUP6 DUP9 DUP9 CALL SWAP4 POP POP POP POP ISZERO DUP1 ISZERO PUSH2 0x518 JUMPI RETURNDATASIZE PUSH0 DUP1 RETURNDATACOPY RETURNDATASIZE PUSH0 REVERT JUMPDEST POP JUMP JUMPDEST PUSH1 0x4 PUSH0 SWAP1 SLOAD SWAP1 PUSH2 0x100 EXP SWAP1 DIV PUSH20 0xFFFFFFFFFFFFFFFFFFFFFFFFFFFFFFFFFFFFFFFF AND PUSH20 0xFFFFFFFFFFFFFFFFFFFFFFFFFFFFFFFFFFFFFFFF AND CALLER PUSH20 0xFFFFFFFFFFFFFFFFFFFFFFFFFFFFFFFFFFFFFFFF AND SUB PUSH2 0x5AA JUMPI PUSH1 0x40 MLOAD PUSH32 0x8C379A000000000000000000000000000000000000000000000000000000000 DUP2 MSTORE PUSH1 0x4 ADD PUSH2 0x5A1 SWAP1 PUSH2 0x109F JUMP JUMPDEST PUSH1 0x40 MLOAD DUP1 SWAP2 SUB SWAP1 REVERT JUMPDEST PUSH0 ISZERO ISZERO PUSH1 0x6 PUSH0 SWAP1 SLOAD SWAP1 PUSH2 0x100 EXP SWAP1 DIV PUSH1 0xFF AND ISZERO ISZERO EQ PUSH2 0x5FE JUMPI PUSH1 0x40 MLOAD PUSH32 0x8C379A000000000000000000000000000000000000000000000000000000000 DUP2 MSTORE PUSH1 0x4 ADD PUSH2 0x5F5 SWAP1 PUSH2 0xEF3 JUMP JUMPDEST PUSH1 0x40 MLOAD DUP1 SWAP2 SUB SWAP1 REVERT JUMPDEST PUSH32 0xEAFF4B37086828766AD3268786972C0CD24259D4C87A80F9D3963A3C3D999B0D CALLER PUSH1 0x9 PUSH0 CALLER PUSH20 0xFFFFFFFFFFFFFFFFFFFFFFFFFFFFFFFFFFFFFFFF AND PUSH20 0xFFFFFFFFFFFFFFFFFFFFFFFFFFFFFFFFFFFFFFFF AND DUP2 MSTORE PUSH1 0x20 ADD SWAP1 DUP2 MSTORE PUSH1 0x20 ADD PUSH0 KECCAK256 SLOAD PUSH1 0x40 MLOAD PUSH2 0x66C SWAP3 SWAP2 SWAP1 PUSH2 0x10BD JUMP JUMPDEST PUSH1 0x40 MLOAD DUP1 SWAP2 SUB SWAP1 LOG1 CALLER PUSH20 0xFFFFFFFFFFFFFFFFFFFFFFFFFFFFFFFFFFFFFFFF AND PUSH2 0x8FC PUSH1 0x9 PUSH0 CALLER PUSH20 0xFFFFFFFFFFFFFFFFFFFFFFFFFFFFFFFFFFFFFFFF AND PUSH20 0xFFFFFFFFFFFFFFFFFFFFFFFFFFFFFFFFFFFFFFFF AND DUP2 MSTORE PUSH1 0x20 ADD SWAP1 DUP2 MSTORE PUSH1 0x20 ADD PUSH0 KECCAK256 SLOAD SWAP1 DUP2 ISZERO MUL SWAP1 PUSH1 0x40 MLOAD PUSH0 PUSH1 0x40 MLOAD DUP1 DUP4 SUB DUP2 DUP6 DUP9 DUP9 CALL SWAP4 POP POP POP POP ISZERO DUP1 ISZERO PUSH2 0x6F4 JUMPI RETURNDATASIZE PUSH0 DUP1 RETURNDATACOPY RETURNDATASIZE PUSH0 REVERT JUMPDEST POP PUSH0 PUSH1 0x9 PUSH0 CALLER PUSH20 0xFFFFFFFFFFFFFFFFFFFFFFFFFFFFFFFFFFFFFFFF AND PUSH20 0xFFFFFFFFFFFFFFFFFFFFFFFFFFFFFFFFFFFFFFFF AND DUP2 MSTORE PUSH1 0x20 ADD SWAP1 DUP2 MSTORE PUSH1 0x20 ADD PUSH0 KECCAK256 DUP2 SWAP1 SSTORE POP JUMP JUMPDEST PUSH1 0x1 ISZERO ISZERO PUSH1 0x6 PUSH0 SWAP1 SLOAD SWAP1 PUSH2 0x100 EXP SWAP1 DIV PUSH1 0xFF AND ISZERO ISZERO EQ PUSH2 0x78E JUMPI PUSH1 0x40 MLOAD PUSH32 0x8C379A000000000000000000000000000000000000000000000000000000000 DUP2 MSTORE PUSH1 0x4 ADD PUSH2 0x785 SWAP1 PUSH2 0xCF6 JUMP JUMPDEST PUSH1 0x40 MLOAD DUP1 SWAP2 SUB SWAP1 REVERT JUMPDEST PUSH1 0x5 SLOAD CALLVALUE LT PUSH2 0x7D2 JUMPI PUSH1 0x40 MLOAD PUSH32 0x8C379A000000000000000000000000000000000000000000000000000000000 DUP2 MSTORE PUSH1 0x4 ADD PUSH2 0x7C9 SWAP1 PUSH2 0x1154 JUMP JUMPDEST PUSH1 0x40 MLOAD DUP1 SWAP2 SUB SWAP1 REVERT JUMPDEST PUSH1 0x3 SLOAD TIMESTAMP LT PUSH2 0x816 JUMPI PUSH1 0x40 MLOAD PUSH32 0x8C379A000000000000000000000000000000000000000000000000000000000 DUP2 MSTORE PUSH1 0x4 ADD PUSH2 0x80D SWAP1 PUSH2 0x11BC JUMP JUMPDEST PUSH1 0x40 MLOAD DUP1 SWAP2 SUB SWAP1 REVERT JUMPDEST PUSH32 0x7A1EF295A7B3EAD528A3D5DC5108DF6FBE47739A34AA589A11433B98CE53C60E CALLER CALLVALUE PUSH1 0x40 MLOAD PUSH2 0x847 SWAP3 SWAP2 SWAP1 PUSH2 0x1224 JUMP JUMPDEST PUSH1 0x40 MLOAD DUP1 SWAP2 SUB SWAP1 LOG1 CALLVALUE PUSH1 0x5 DUP2 SWAP1 SSTORE POP CALLER PUSH1 0x4 PUSH0 PUSH2 0x100 EXP DUP2 SLOAD DUP2 PUSH20 0xFFFFFFFFFFFFFFFFFFFFFFFFFFFFFFFFFFFFFFFF MUL NOT AND SWAP1 DUP4 PUSH20 0xFFFFFFFFFFFFFFFFFFFFFFFFFFFFFFFFFFFFFFFF AND MUL OR SWAP1 SSTORE POP PUSH0 PUSH1 0x9 PUSH0 PUSH1 0x4 PUSH0 SWAP1 SLOAD SWAP1 PUSH2 0x100 EXP SWAP1 DIV PUSH20 0xFFFFFFFFFFFFFFFFFFFFFFFFFFFFFFFFFFFFFFFF AND PUSH20 0xFFFFFFFFFFFFFFFFFFFFFFFFFFFFFFFFFFFFFFFF AND PUSH20 0xFFFFFFFFFFFFFFFFFFFFFFFFFFFFFFFFFFFFFFFF AND DUP2 MSTORE PUSH1 0x20 ADD SWAP1 DUP2 MSTORE PUSH1 0x20 ADD PUSH0 KECCAK256 SLOAD SUB PUSH2 0x97D JUMPI PUSH1 0xA PUSH1 0x4 PUSH0 SWAP1 SLOAD SWAP1 PUSH2 0x100 EXP SWAP1 DIV PUSH20 0xFFFFFFFFFFFFFFFFFFFFFFFFFFFFFFFFFFFFFFFF AND SWAP1 DUP1 PUSH1 0x1 DUP2 SLOAD ADD DUP1 DUP3 SSTORE DUP1 SWAP2 POP POP PUSH1 0x1 SWAP1 SUB SWAP1 PUSH0 MSTORE PUSH1 0x20 PUSH0 KECCAK256 ADD PUSH0 SWAP1 SWAP2 SWAP1 SWAP2 SWAP1 SWAP2 PUSH2 0x100 EXP DUP2 SLOAD DUP2 PUSH20 0xFFFFFFFFFFFFFFFFFFFFFFFFFFFFFFFFFFFFFFFF MUL NOT AND SWAP1 DUP4 PUSH20 0xFFFFFFFFFFFFFFFFFFFFFFFFFFFFFFFFFFFFFFFF AND MUL OR SWAP1 SSTORE POP JUMPDEST CALLVALUE PUSH1 0x9 PUSH0 PUSH1 0x4 PUSH0 SWAP1 SLOAD SWAP1 PUSH2 0x100 EXP SWAP1 DIV PUSH20 0xFFFFFFFFFFFFFFFFFFFFFFFFFFFFFFFFFFFFFFFF AND PUSH20 0xFFFFFFFFFFFFFFFFFFFFFFFFFFFFFFFFFFFFFFFF AND PUSH20 0xFFFFFFFFFFFFFFFFFFFFFFFFFFFFFFFFFFFFFFFF AND DUP2 MSTORE PUSH1 0x20 ADD SWAP1 DUP2 MSTORE PUSH1 0x20 ADD PUSH0 KECCAK256 PUSH0 DUP3 DUP3 SLOAD PUSH2 0x9EA SWAP2 SWAP1 PUSH2 0x128B JUMP JUMPDEST SWAP3 POP POP DUP2 SWAP1 SSTORE POP JUMP JUMPDEST PUSH1 0x9 PUSH1 0x20 MSTORE DUP1 PUSH0 MSTORE PUSH1 0x40 PUSH0 KECCAK256 PUSH0 SWAP2 POP SWAP1 POP SLOAD DUP2 JUMP JUMPDEST CALLER PUSH20 0xFFFFFFFFFFFFFFFFFFFFFFFFFFFFFFFFFFFFFFFF AND PUSH0 DUP1 SLOAD SWAP1 PUSH2 0x100 EXP SWAP1 DIV PUSH20 0xFFFFFFFFFFFFFFFFFFFFFFFFFFFFFFFFFFFFFFFF AND PUSH20 0xFFFFFFFFFFFFFFFFFFFFFFFFFFFFFFFFFFFFFFFF AND EQ PUSH2 0xA95 JUMPI PUSH1 0x40 MLOAD PUSH32 0x8C379A000000000000000000000000000000000000000000000000000000000 DUP2 MSTORE PUSH1 0x4 ADD PUSH2 0xA8C SWAP1 PUSH2 0xC8E JUMP JUMPDEST PUSH1 0x40 MLOAD DUP1 SWAP2 SUB SWAP1 REVERT JUMPDEST PUSH1 0x1 PUSH1 0x6 PUSH0 PUSH2 0x100 EXP DUP2 SLOAD DUP2 PUSH1 0xFF MUL NOT AND SWAP1 DUP4 ISZERO ISZERO MUL OR SWAP1 SSTORE POP PUSH32 0x6969A1BC7452D86873151BFD13167742E1951B4AF640DFD8218B7EDDD7EC6632 PUSH0 DUP1 SLOAD SWAP1 PUSH2 0x100 EXP SWAP1 DIV PUSH20 0xFFFFFFFFFFFFFFFFFFFFFFFFFFFFFFFFFFFFFFFF AND PUSH1 0x1 PUSH1 0x2 SLOAD PUSH1 0x40 MLOAD PUSH2 0xB04 SWAP4 SWAP3 SWAP2 SWAP1 PUSH2 0x12BE JUMP JUMPDEST PUSH1 0x40 MLOAD DUP1 SWAP2 SUB SWAP1 LOG1 PUSH1 0xF TIMESTAMP PUSH2 0xB19 SWAP2 SWAP1 PUSH2 0x128B JUMP JUMPDEST PUSH1 0x3 DUP2 SWAP1 SSTORE POP JUMP JUMPDEST PUSH0 DUP2 ISZERO ISZERO SWAP1 POP SWAP2 SWAP1 POP JUMP JUMPDEST PUSH2 0xB35 DUP2 PUSH2 0xB21 JUMP JUMPDEST DUP3 MSTORE POP POP JUMP JUMPDEST PUSH0 PUSH1 0x20 DUP3 ADD SWAP1 POP PUSH2 0xB4E PUSH0 DUP4 ADD DUP5 PUSH2 0xB2C JUMP JUMPDEST SWAP3 SWAP2 POP POP JUMP JUMPDEST PUSH0 DUP2 SWAP1 POP SWAP2 SWAP1 POP JUMP JUMPDEST PUSH2 0xB66 DUP2 PUSH2 0xB54 JUMP JUMPDEST DUP3 MSTORE POP POP JUMP JUMPDEST PUSH0 PUSH1 0x20 DUP3 ADD SWAP1 POP PUSH2 0xB7F PUSH0 DUP4 ADD DUP5 PUSH2 0xB5D JUMP JUMPDEST SWAP3 SWAP2 POP POP JUMP JUMPDEST PUSH0 DUP1 REVERT JUMPDEST PUSH0 PUSH20 0xFFFFFFFFFFFFFFFFFFFFFFFFFFFFFFFFFFFFFFFF DUP3 AND SWAP1 POP SWAP2 SWAP1 POP JUMP JUMPDEST PUSH0 PUSH2 0xBB2 DUP3 PUSH2 0xB89 JUMP JUMPDEST SWAP1 POP SWAP2 SWAP1 POP JUMP JUMPDEST PUSH2 0xBC2 DUP2 PUSH2 0xBA8 JUMP JUMPDEST DUP2 EQ PUSH2 0xBCC JUMPI PUSH0 DUP1 REVERT JUMPDEST POP JUMP JUMPDEST PUSH0 DUP2 CALLDATALOAD SWAP1 POP PUSH2 0xBDD DUP2 PUSH2 0xBB9 JUMP JUMPDEST SWAP3 SWAP2 POP POP JUMP JUMPDEST PUSH0 PUSH1 0x20 DUP3 DUP5 SUB SLT ISZERO PUSH2 0xBF8 JUMPI PUSH2 0xBF7 PUSH2 0xB85 JUMP JUMPDEST JUMPDEST PUSH0 PUSH2 0xC05 DUP5 DUP3 DUP6 ADD PUSH2 0xBCF JUMP JUMPDEST SWAP2 POP POP SWAP3 SWAP2 POP POP JUMP JUMPDEST PUSH0 DUP3 DUP3 MSTORE PUSH1 0x20 DUP3 ADD SWAP1 POP SWAP3 SWAP2 POP POP JUMP JUMPDEST PUSH32 0x4F6E6C7920746865206F776E6572206F70656E2F63616E20636C6F7365207468 PUSH0 DUP3 ADD MSTORE PUSH32 0x652061756374696F6E0000000000000000000000000000000000000000000000 PUSH1 0x20 DUP3 ADD MSTORE POP JUMP JUMPDEST PUSH0 PUSH2 0xC78 PUSH1 0x29 DUP4 PUSH2 0xC0E JUMP JUMPDEST SWAP2 POP PUSH2 0xC83 DUP3 PUSH2 0xC1E JUMP JUMPDEST PUSH1 0x40 DUP3 ADD SWAP1 POP SWAP2 SWAP1 POP JUMP JUMPDEST PUSH0 PUSH1 0x20 DUP3 ADD SWAP1 POP DUP2 DUP2 SUB PUSH0 DUP4 ADD MSTORE PUSH2 0xCA5 DUP2 PUSH2 0xC6C JUMP JUMPDEST SWAP1 POP SWAP2 SWAP1 POP JUMP JUMPDEST PUSH32 0x5468652061756374696F6E206861766520746F206F70656E6564206669727374 PUSH0 DUP3 ADD MSTORE POP JUMP JUMPDEST PUSH0 PUSH2 0xCE0 PUSH1 0x20 DUP4 PUSH2 0xC0E JUMP JUMPDEST SWAP2 POP PUSH2 0xCEB DUP3 PUSH2 0xCAC JUMP JUMPDEST PUSH1 0x20 DUP3 ADD SWAP1 POP SWAP2 SWAP1 POP JUMP JUMPDEST PUSH0 PUSH1 0x20 DUP3 ADD SWAP1 POP DUP2 DUP2 SUB PUSH0 DUP4 ADD MSTORE PUSH2 0xD0D DUP2 PUSH2 0xCD4 JUMP JUMPDEST SWAP1 POP SWAP2 SWAP1 POP JUMP JUMPDEST PUSH32 0x6E6F7420656E6465640000000000000000000000000000000000000000000000 PUSH0 DUP3 ADD MSTORE POP JUMP JUMPDEST PUSH0 PUSH2 0xD48 PUSH1 0x9 DUP4 PUSH2 0xC0E JUMP JUMPDEST SWAP2 POP PUSH2 0xD53 DUP3 PUSH2 0xD14 JUMP JUMPDEST PUSH1 0x20 DUP3 ADD SWAP1 POP SWAP2 SWAP1 POP JUMP JUMPDEST PUSH0 PUSH1 0x20 DUP3 ADD SWAP1 POP DUP2 DUP2 SUB PUSH0 DUP4 ADD MSTORE PUSH2 0xD75 DUP2 PUSH2 0xD3C JUMP JUMPDEST SWAP1 POP SWAP2 SWAP1 POP JUMP JUMPDEST PUSH0 DUP2 SWAP1 POP SWAP2 SWAP1 POP JUMP JUMPDEST PUSH0 PUSH2 0xD9F PUSH2 0xD9A PUSH2 0xD95 DUP5 PUSH2 0xB89 JUMP JUMPDEST PUSH2 0xD7C JUMP JUMPDEST PUSH2 0xB89 JUMP JUMPDEST SWAP1 POP SWAP2 SWAP1 POP JUMP JUMPDEST PUSH0 PUSH2 0xDB0 DUP3 PUSH2 0xD85 JUMP JUMPDEST SWAP1 POP SWAP2 SWAP1 POP JUMP JUMPDEST PUSH0 PUSH2 0xDC1 DUP3 PUSH2 0xDA6 JUMP JUMPDEST SWAP1 POP SWAP2 SWAP1 POP JUMP JUMPDEST PUSH2 0xDD1 DUP2 PUSH2 0xDB7 JUMP JUMPDEST DUP3 MSTORE POP POP JUMP JUMPDEST PUSH2 0xDE0 DUP2 PUSH2 0xBA8 JUMP JUMPDEST DUP3 MSTORE POP POP JUMP JUMPDEST PUSH0 PUSH1 0x60 DUP3 ADD SWAP1 POP PUSH2 0xDF9 PUSH0 DUP4 ADD DUP7 PUSH2 0xDC8 JUMP JUMPDEST PUSH2 0xE06 PUSH1 0x20 DUP4 ADD DUP6 PUSH2 0xDD7 JUMP JUMPDEST PUSH2 0xE13 PUSH1 0x40 DUP4 ADD DUP5 PUSH2 0xB5D JUMP JUMPDEST SWAP5 SWAP4 POP POP POP POP JUMP JUMPDEST PUSH32 0x536F6C6F20696C2076696E6369746F72652064656C6C27617374612070756F27 PUSH0 DUP3 ADD MSTORE PUSH32 0x207269746972617265206C612076696E63697461000000000000000000000000 PUSH1 0x20 DUP3 ADD MSTORE POP JUMP JUMPDEST PUSH0 PUSH2 0xE75 PUSH1 0x34 DUP4 PUSH2 0xC0E JUMP JUMPDEST SWAP2 POP PUSH2 0xE80 DUP3 PUSH2 0xE1B JUMP JUMPDEST PUSH1 0x40 DUP3 ADD SWAP1 POP SWAP2 SWAP1 POP JUMP JUMPDEST PUSH0 PUSH1 0x20 DUP3 ADD SWAP1 POP DUP2 DUP2 SUB PUSH0 DUP4 ADD MSTORE PUSH2 0xEA2 DUP2 PUSH2 0xE69 JUMP JUMPDEST SWAP1 POP SWAP2 SWAP1 POP JUMP JUMPDEST PUSH32 0x4C2761737461206E6F6E20652720616E636F7261206368697573610000000000 PUSH0 DUP3 ADD MSTORE POP JUMP JUMPDEST PUSH0 PUSH2 0xEDD PUSH1 0x1B DUP4 PUSH2 0xC0E JUMP JUMPDEST SWAP2 POP PUSH2 0xEE8 DUP3 PUSH2 0xEA9 JUMP JUMPDEST PUSH1 0x20 DUP3 ADD SWAP1 POP SWAP2 SWAP1 POP JUMP JUMPDEST PUSH0 PUSH1 0x20 DUP3 ADD SWAP1 POP DUP2 DUP2 SUB PUSH0 DUP4 ADD MSTORE PUSH2 0xF0A DUP2 PUSH2 0xED1 JUMP JUMPDEST SWAP1 POP SWAP2 SWAP1 POP JUMP JUMPDEST PUSH32 0x4E487B7100000000000000000000000000000000000000000000000000000000 PUSH0 MSTORE PUSH1 0x22 PUSH1 0x4 MSTORE PUSH1 0x24 PUSH0 REVERT JUMPDEST PUSH0 PUSH1 0x2 DUP3 DIV SWAP1 POP PUSH1 0x1 DUP3 AND DUP1 PUSH2 0xF55 JUMPI PUSH1 0x7F DUP3 AND SWAP2 POP JUMPDEST PUSH1 0x20 DUP3 LT DUP2 SUB PUSH2 0xF68 JUMPI PUSH2 0xF67 PUSH2 0xF11 JUMP JUMPDEST JUMPDEST POP SWAP2 SWAP1 POP JUMP JUMPDEST PUSH0 DUP2 SWAP1 POP DUP2 PUSH0 MSTORE PUSH1 0x20 PUSH0 KECCAK256 SWAP1 POP SWAP2 SWAP1 POP JUMP JUMPDEST PUSH0 DUP2 SLOAD PUSH2 0xF8C DUP2 PUSH2 0xF3E JUMP JUMPDEST PUSH2 0xF96 DUP2 DUP7 PUSH2 0xC0E JUMP JUMPDEST SWAP5 POP PUSH1 0x1 DUP3 AND PUSH0 DUP2 EQ PUSH2 0xFB0 JUMPI PUSH1 0x1 DUP2 EQ PUSH2 0xFC6 JUMPI PUSH2 0xFF8 JUMP JUMPDEST PUSH1 0xFF NOT DUP4 AND DUP7 MSTORE DUP2 ISZERO ISZERO PUSH1 0x20 MUL DUP7 ADD SWAP4 POP PUSH2 0xFF8 JUMP JUMPDEST PUSH2 0xFCF DUP6 PUSH2 0xF6E JUMP JUMPDEST PUSH0 JUMPDEST DUP4 DUP2 LT ISZERO PUSH2 0xFF0 JUMPI DUP2 SLOAD DUP2 DUP10 ADD MSTORE PUSH1 0x1 DUP3 ADD SWAP2 POP PUSH1 0x20 DUP2 ADD SWAP1 POP PUSH2 0xFD1 JUMP JUMPDEST DUP1 DUP9 ADD SWAP6 POP POP POP JUMPDEST POP POP POP SWAP3 SWAP2 POP POP JUMP JUMPDEST PUSH0 PUSH1 0x40 DUP3 ADD SWAP1 POP PUSH2 0x1014 PUSH0 DUP4 ADD DUP6 PUSH2 0xDD7 JUMP JUMPDEST DUP2 DUP2 SUB PUSH1 0x20 DUP4 ADD MSTORE PUSH2 0x1026 DUP2 DUP5 PUSH2 0xF80 JUMP JUMPDEST SWAP1 POP SWAP4 SWAP3 POP POP POP JUMP JUMPDEST PUSH32 0x496C2076696E6369746F72652064656C6C2761737461206E6F6E2070756F2720 PUSH0 DUP3 ADD MSTORE PUSH32 0x7269746972617265206920666F6E646900000000000000000000000000000000 PUSH1 0x20 DUP3 ADD MSTORE POP JUMP JUMPDEST PUSH0 PUSH2 0x1089 PUSH1 0x30 DUP4 PUSH2 0xC0E JUMP JUMPDEST SWAP2 POP PUSH2 0x1094 DUP3 PUSH2 0x102F JUMP JUMPDEST PUSH1 0x40 DUP3 ADD SWAP1 POP SWAP2 SWAP1 POP JUMP JUMPDEST PUSH0 PUSH1 0x20 DUP3 ADD SWAP1 POP DUP2 DUP2 SUB PUSH0 DUP4 ADD MSTORE PUSH2 0x10B6 DUP2 PUSH2 0x107D JUMP JUMPDEST SWAP1 POP SWAP2 SWAP1 POP JUMP JUMPDEST PUSH0 PUSH1 0x40 DUP3 ADD SWAP1 POP PUSH2 0x10D0 PUSH0 DUP4 ADD DUP6 PUSH2 0xDD7 JUMP JUMPDEST PUSH2 0x10DD PUSH1 0x20 DUP4 ADD DUP5 PUSH2 0xB5D JUMP JUMPDEST SWAP4 SWAP3 POP POP POP JUMP JUMPDEST PUSH32 0x4C276F666665727461206661747461206E6F6E20737570657261206C61206D69 PUSH0 DUP3 ADD MSTORE PUSH32 0x676C696F72650000000000000000000000000000000000000000000000000000 PUSH1 0x20 DUP3 ADD MSTORE POP JUMP JUMPDEST PUSH0 PUSH2 0x113E PUSH1 0x26 DUP4 PUSH2 0xC0E JUMP JUMPDEST SWAP2 POP PUSH2 0x1149 DUP3 PUSH2 0x10E4 JUMP JUMPDEST PUSH1 0x40 DUP3 ADD SWAP1 POP SWAP2 SWAP1 POP JUMP JUMPDEST PUSH0 PUSH1 0x20 DUP3 ADD SWAP1 POP DUP2 DUP2 SUB PUSH0 DUP4 ADD MSTORE PUSH2 0x116B DUP2 PUSH2 0x1132 JUMP JUMPDEST SWAP1 POP SWAP2 SWAP1 POP JUMP JUMPDEST PUSH32 0x656E646564000000000000000000000000000000000000000000000000000000 PUSH0 DUP3 ADD MSTORE POP JUMP JUMPDEST PUSH0 PUSH2 0x11A6 PUSH1 0x5 DUP4 PUSH2 0xC0E JUMP JUMPDEST SWAP2 POP PUSH2 0x11B1 DUP3 PUSH2 0x1172 JUMP JUMPDEST PUSH1 0x20 DUP3 ADD SWAP1 POP SWAP2 SWAP1 POP JUMP JUMPDEST PUSH0 PUSH1 0x20 DUP3 ADD SWAP1 POP DUP2 DUP2 SUB PUSH0 DUP4 ADD MSTORE PUSH2 0x11D3 DUP2 PUSH2 0x119A JUMP JUMPDEST SWAP1 POP SWAP2 SWAP1 POP JUMP JUMPDEST PUSH32 0x4E6577206269642069732070726F706F7365643A000000000000000000000000 PUSH0 DUP3 ADD MSTORE POP JUMP JUMPDEST PUSH0 PUSH2 0x120E PUSH1 0x14 DUP4 PUSH2 0xC0E JUMP JUMPDEST SWAP2 POP PUSH2 0x1219 DUP3 PUSH2 0x11DA JUMP JUMPDEST PUSH1 0x20 DUP3 ADD SWAP1 POP SWAP2 SWAP1 POP JUMP JUMPDEST PUSH0 PUSH1 0x60 DUP3 ADD SWAP1 POP DUP2 DUP2 SUB PUSH0 DUP4 ADD MSTORE PUSH2 0x123B DUP2 PUSH2 0x1202 JUMP JUMPDEST SWAP1 POP PUSH2 0x124A PUSH1 0x20 DUP4 ADD DUP6 PUSH2 0xDD7 JUMP JUMPDEST PUSH2 0x1257 PUSH1 0x40 DUP4 ADD DUP5 PUSH2 0xB5D JUMP JUMPDEST SWAP4 SWAP3 POP POP POP JUMP JUMPDEST PUSH32 0x4E487B7100000000000000000000000000000000000000000000000000000000 PUSH0 MSTORE PUSH1 0x11 PUSH1 0x4 MSTORE PUSH1 0x24 PUSH0 REVERT JUMPDEST PUSH0 PUSH2 0x1295 DUP3 PUSH2 0xB54 JUMP JUMPDEST SWAP2 POP PUSH2 0x12A0 DUP4 PUSH2 0xB54 JUMP JUMPDEST SWAP3 POP DUP3 DUP3 ADD SWAP1 POP DUP1 DUP3 GT ISZERO PUSH2 0x12B8 JUMPI PUSH2 0x12B7 PUSH2 0x125E JUMP JUMPDEST JUMPDEST SWAP3 SWAP2 POP POP JUMP JUMPDEST PUSH0 PUSH1 0x60 DUP3 ADD SWAP1 POP PUSH2 0x12D1 PUSH0 DUP4 ADD DUP7 PUSH2 0xDC8 JUMP JUMPDEST DUP2 DUP2 SUB PUSH1 0x20 DUP4 ADD MSTORE PUSH2 0x12E3 DUP2 DUP6 PUSH2 0xF80 JUMP JUMPDEST SWAP1 POP PUSH2 0x12F2 PUSH1 0x40 DUP4 ADD DUP5 PUSH2 0xB5D JUMP JUMPDEST SWAP5 SWAP4 POP POP POP POP JUMP INVALID LOG2 PUSH5 0x6970667358 0x22 SLT KECCAK256 0xCB 0x2A SGT 0xBA PUSH14 0xB0C0A54F1BFC3E4D801CF65B5F80 CALL PUSH14 0x8F718F02D2E9BD682EB22D64736F PUSH13 0x63430008160033000000000000 "
				},
				"gasEstimates": {
					"creation": {
						"codeDepositCost": "982400",
						"executionCost": "infinite",
						"totalCost": "infinite"
					},
					"external": {
						"bidders(address)": "2846",
						"close()": "infinite",
						"endAt()": "2470",
						"isOpen()": "2622",
						"offer()": "6839",
						"open()": "infinite",
						"retire_funds()": "infinite",
						"retire_win()": "infinite"
					}
				},
				"methodIdentifiers": {
					"bidders(address)": "fcc8f793",
					"close()": "43d726d6",
					"endAt()": "7cc3ae8c",
					"isOpen()": "47535d7b",
					"offer()": "c028df06",
					"open()": "fcfff16f",
					"retire_funds()": "bb0f9575",
					"retire_win()": "83229290"
				}
			},
			"storageLayout": {
				"storage": [
					{
						"astId": 8,
						"contract": "Project/MultiAgentBlockchain/english_auction.sol:Auction",
						"label": "owner",
						"offset": 0,
						"slot": "0",
						"type": "t_address_payable"
					},
					{
						"astId": 10,
						"contract": "Project/MultiAgentBlockchain/english_auction.sol:Auction",
						"label": "object",
						"offset": 0,
						"slot": "1",
						"type": "t_string_storage"
					},
					{
						"astId": 12,
						"contract": "Project/MultiAgentBlockchain/english_auction.sol:Auction",
						"label": "price",
						"offset": 0,
						"slot": "2",
						"type": "t_uint256"
					},
					{
						"astId": 14,
						"contract": "Project/MultiAgentBlockchain/english_auction.sol:Auction",
						"label": "endAt",
						"offset": 0,
						"slot": "3",
						"type": "t_uint256"
					},
					{
						"astId": 16,
						"contract": "Project/MultiAgentBlockchain/english_auction.sol:Auction",
						"label": "winner",
						"offset": 0,
						"slot": "4",
						"type": "t_address"
					},
					{
						"astId": 18,
						"contract": "Project/MultiAgentBlockchain/english_auction.sol:Auction",
						"label": "best_price",
						"offset": 0,
						"slot": "5",
						"type": "t_uint256"
					},
					{
						"astId": 20,
						"contract": "Project/MultiAgentBlockchain/english_auction.sol:Auction",
						"label": "is_open",
						"offset": 0,
						"slot": "6",
						"type": "t_bool"
					},
					{
						"astId": 23,
						"contract": "Project/MultiAgentBlockchain/english_auction.sol:Auction",
						"label": "pos",
						"offset": 0,
						"slot": "7",
						"type": "t_struct(Positions)6_storage"
					},
					{
						"astId": 27,
						"contract": "Project/MultiAgentBlockchain/english_auction.sol:Auction",
						"label": "bidders",
						"offset": 0,
						"slot": "9",
						"type": "t_mapping(t_address,t_uint256)"
					},
					{
						"astId": 30,
						"contract": "Project/MultiAgentBlockchain/english_auction.sol:Auction",
						"label": "users",
						"offset": 0,
						"slot": "10",
						"type": "t_array(t_address)dyn_storage"
					}
				],
				"types": {
					"t_address": {
						"encoding": "inplace",
						"label": "address",
						"numberOfBytes": "20"
					},
					"t_address_payable": {
						"encoding": "inplace",
						"label": "address payable",
						"numberOfBytes": "20"
					},
					"t_array(t_address)dyn_storage": {
						"base": "t_address",
						"encoding": "dynamic_array",
						"label": "address[]",
						"numberOfBytes": "32"
					},
					"t_bool": {
						"encoding": "inplace",
						"label": "bool",
						"numberOfBytes": "1"
					},
					"t_mapping(t_address,t_uint256)": {
						"encoding": "mapping",
						"key": "t_address",
						"label": "mapping(address => uint256)",
						"numberOfBytes": "32",
						"value": "t_uint256"
					},
					"t_string_storage": {
						"encoding": "bytes",
						"label": "string",
						"numberOfBytes": "32"
					},
					"t_struct(Positions)6_storage": {
						"encoding": "inplace",
						"label": "struct Auction.Positions",
						"members": [
							{
								"astId": 3,
								"contract": "Project/MultiAgentBlockchain/english_auction.sol:Auction",
								"label": "x",
								"offset": 0,
								"slot": "0",
								"type": "t_uint256"
							},
							{
								"astId": 5,
								"contract": "Project/MultiAgentBlockchain/english_auction.sol:Auction",
								"label": "y",
								"offset": 0,
								"slot": "1",
								"type": "t_uint256"
							}
						],
						"numberOfBytes": "64"
					},
					"t_uint256": {
						"encoding": "inplace",
						"label": "uint256",
						"numberOfBytes": "32"
					}
				}
			},
			"userdoc": {
				"kind": "user",
				"methods": {},
				"version": 1
			}
		}
	}
}