{
	"Project/MultiAgentBlockchain/auction.sol": {
		"Auction": {
			"abi": [
				{
					"inputs": [
						{
							"internalType": "string",
							"name": "_obj",
							"type": "string"
						},
						{
							"internalType": "uint256",
							"name": "_price",
							"type": "uint256"
						}
					],
					"stateMutability": "nonpayable",
					"type": "constructor"
				},
				{
					"anonymous": false,
					"inputs": [
						{
							"indexed": false,
							"internalType": "address",
							"name": "_owner",
							"type": "address"
						},
						{
							"indexed": false,
							"internalType": "address",
							"name": "_winner",
							"type": "address"
						},
						{
							"indexed": false,
							"internalType": "uint256",
							"name": "_winningBid",
							"type": "uint256"
						}
					],
					"name": "AuctionClosed",
					"type": "event"
				},
				{
					"anonymous": false,
					"inputs": [
						{
							"indexed": false,
							"internalType": "address",
							"name": "_owner",
							"type": "address"
						},
						{
							"indexed": false,
							"internalType": "string",
							"name": "_object",
							"type": "string"
						},
						{
							"indexed": false,
							"internalType": "uint256",
							"name": "_initialPrice",
							"type": "uint256"
						}
					],
					"name": "AuctionOpened",
					"type": "event"
				},
				{
					"anonymous": false,
					"inputs": [
						{
							"indexed": false,
							"internalType": "address",
							"name": "_withdrawer",
							"type": "address"
						},
						{
							"indexed": false,
							"internalType": "uint256",
							"name": "amount",
							"type": "uint256"
						}
					],
					"name": "FundsWithdrawn",
					"type": "event"
				},
				{
					"anonymous": false,
					"inputs": [
						{
							"indexed": false,
							"internalType": "string",
							"name": "_text",
							"type": "string"
						},
						{
							"indexed": false,
							"internalType": "address",
							"name": "_bidder",
							"type": "address"
						},
						{
							"indexed": false,
							"internalType": "uint256",
							"name": "_bidAmount",
							"type": "uint256"
						}
					],
					"name": "NewBid",
					"type": "event"
				},
				{
					"anonymous": false,
					"inputs": [
						{
							"indexed": false,
							"internalType": "address",
							"name": "_winner",
							"type": "address"
						},
						{
							"indexed": false,
							"internalType": "string",
							"name": "_object",
							"type": "string"
						}
					],
					"name": "WinningWithdrawn",
					"type": "event"
				},
				{
					"inputs": [
						{
							"internalType": "address",
							"name": "",
							"type": "address"
						}
					],
					"name": "bidders",
					"outputs": [
						{
							"internalType": "uint256",
							"name": "",
							"type": "uint256"
						}
					],
					"stateMutability": "view",
					"type": "function"
				},
				{
					"inputs": [],
					"name": "close",
					"outputs": [],
					"stateMutability": "nonpayable",
					"type": "function"
				},
				{
					"inputs": [],
					"name": "endAt",
					"outputs": [
						{
							"internalType": "uint256",
							"name": "",
							"type": "uint256"
						}
					],
					"stateMutability": "view",
					"type": "function"
				},
				{
					"inputs": [],
					"name": "getWinner",
					"outputs": [
						{
							"internalType": "address",
							"name": "user",
							"type": "address"
						}
					],
					"stateMutability": "view",
					"type": "function"
				},
				{
					"inputs": [],
					"name": "isOpen",
					"outputs": [
						{
							"internalType": "bool",
							"name": "status",
							"type": "bool"
						}
					],
					"stateMutability": "view",
					"type": "function"
				},
				{
					"inputs": [],
					"name": "offer",
					"outputs": [],
					"stateMutability": "payable",
					"type": "function"
				},
				{
					"inputs": [],
					"name": "open",
					"outputs": [],
					"stateMutability": "nonpayable",
					"type": "function"
				},
				{
					"inputs": [],
					"name": "retireFunds",
					"outputs": [],
					"stateMutability": "payable",
					"type": "function"
				},
				{
					"inputs": [],
					"name": "retireWin",
					"outputs": [],
					"stateMutability": "payable",
					"type": "function"
				}
			],
			"devdoc": {
				"kind": "dev",
				"methods": {},
				"version": 1
			},
			"evm": {
				"assembly": "    /* \"Project/MultiAgentBlockchain/auction.sol\":221:3352  contract Auction{... */\n  mstore(0x40, 0x80)\n    /* \"Project/MultiAgentBlockchain/auction.sol\":478:542  uint[10] userPositions = [57, 89, 23, 68, 5, 94, 17, 36, 46, 73] */\n  mload(0x40)\n  dup1\n  0x0140\n  add\n  0x40\n  mstore\n  dup1\n    /* \"Project/MultiAgentBlockchain/auction.sol\":504:506  57 */\n  0x39\n    /* \"Project/MultiAgentBlockchain/auction.sol\":478:542  uint[10] userPositions = [57, 89, 23, 68, 5, 94, 17, 36, 46, 73] */\n  0xff\n  and\n  dup2\n  mstore\n  0x20\n  add\n    /* \"Project/MultiAgentBlockchain/auction.sol\":508:510  89 */\n  0x59\n    /* \"Project/MultiAgentBlockchain/auction.sol\":478:542  uint[10] userPositions = [57, 89, 23, 68, 5, 94, 17, 36, 46, 73] */\n  0xff\n  and\n  dup2\n  mstore\n  0x20\n  add\n    /* \"Project/MultiAgentBlockchain/auction.sol\":512:514  23 */\n  0x17\n    /* \"Project/MultiAgentBlockchain/auction.sol\":478:542  uint[10] userPositions = [57, 89, 23, 68, 5, 94, 17, 36, 46, 73] */\n  0xff\n  and\n  dup2\n  mstore\n  0x20\n  add\n    /* \"Project/MultiAgentBlockchain/auction.sol\":516:518  68 */\n  0x44\n    /* \"Project/MultiAgentBlockchain/auction.sol\":478:542  uint[10] userPositions = [57, 89, 23, 68, 5, 94, 17, 36, 46, 73] */\n  0xff\n  and\n  dup2\n  mstore\n  0x20\n  add\n    /* \"Project/MultiAgentBlockchain/auction.sol\":520:521  5 */\n  0x05\n    /* \"Project/MultiAgentBlockchain/auction.sol\":478:542  uint[10] userPositions = [57, 89, 23, 68, 5, 94, 17, 36, 46, 73] */\n  0xff\n  and\n  dup2\n  mstore\n  0x20\n  add\n    /* \"Project/MultiAgentBlockchain/auction.sol\":523:525  94 */\n  0x5e\n    /* \"Project/MultiAgentBlockchain/auction.sol\":478:542  uint[10] userPositions = [57, 89, 23, 68, 5, 94, 17, 36, 46, 73] */\n  0xff\n  and\n  dup2\n  mstore\n  0x20\n  add\n    /* \"Project/MultiAgentBlockchain/auction.sol\":527:529  17 */\n  0x11\n    /* \"Project/MultiAgentBlockchain/auction.sol\":478:542  uint[10] userPositions = [57, 89, 23, 68, 5, 94, 17, 36, 46, 73] */\n  0xff\n  and\n  dup2\n  mstore\n  0x20\n  add\n    /* \"Project/MultiAgentBlockchain/auction.sol\":531:533  36 */\n  0x24\n    /* \"Project/MultiAgentBlockchain/auction.sol\":478:542  uint[10] userPositions = [57, 89, 23, 68, 5, 94, 17, 36, 46, 73] */\n  0xff\n  and\n  dup2\n  mstore\n  0x20\n  add\n    /* \"Project/MultiAgentBlockchain/auction.sol\":535:537  46 */\n  0x2e\n    /* \"Project/MultiAgentBlockchain/auction.sol\":478:542  uint[10] userPositions = [57, 89, 23, 68, 5, 94, 17, 36, 46, 73] */\n  0xff\n  and\n  dup2\n  mstore\n  0x20\n  add\n    /* \"Project/MultiAgentBlockchain/auction.sol\":539:541  73 */\n  0x49\n    /* \"Project/MultiAgentBlockchain/auction.sol\":478:542  uint[10] userPositions = [57, 89, 23, 68, 5, 94, 17, 36, 46, 73] */\n  0xff\n  and\n  dup2\n  mstore\n  pop\n  0x09\n  swap1\n  0x0a\n  tag_1\n  swap3\n  swap2\n  swap1\n  tag_2\n  jump\t// in\ntag_1:\n  pop\n    /* \"Project/MultiAgentBlockchain/auction.sol\":551:774  constructor(string memory _obj, uint256 _price){... */\n  callvalue\n  dup1\n  iszero\n  tag_3\n  jumpi\n  0x00\n  dup1\n  revert\ntag_3:\n  pop\n  mload(0x40)\n  sub(codesize, bytecodeSize)\n  dup1\n  bytecodeSize\n  dup4\n  codecopy\n  dup2\n  dup2\n  add\n  0x40\n  mstore\n  dup2\n  add\n  swap1\n  tag_4\n  swap2\n  swap1\n  tag_5\n  jump\t// in\ntag_4:\n    /* \"Project/MultiAgentBlockchain/auction.sol\":625:635  msg.sender */\n  caller\n    /* \"Project/MultiAgentBlockchain/auction.sol\":609:614  owner */\n  0x00\n  dup1\n    /* \"Project/MultiAgentBlockchain/auction.sol\":609:636  owner = payable(msg.sender) */\n  0x0100\n  exp\n  dup2\n  sload\n  dup2\n  0xffffffffffffffffffffffffffffffffffffffff\n  mul\n  not\n  and\n  swap1\n  dup4\n  0xffffffffffffffffffffffffffffffffffffffff\n  and\n  mul\n  or\n  swap1\n  sstore\n  pop\n    /* \"Project/MultiAgentBlockchain/auction.sol\":656:660  _obj */\n  dup2\n    /* \"Project/MultiAgentBlockchain/auction.sol\":647:653  object */\n  0x01\n    /* \"Project/MultiAgentBlockchain/auction.sol\":647:660  object = _obj */\n  swap1\n  dup2\n  tag_8\n  swap2\n  swap1\n  tag_9\n  jump\t// in\ntag_8:\n  pop\n    /* \"Project/MultiAgentBlockchain/auction.sol\":679:685  _price */\n  dup1\n    /* \"Project/MultiAgentBlockchain/auction.sol\":671:676  price */\n  0x02\n    /* \"Project/MultiAgentBlockchain/auction.sol\":671:685  price = _price */\n  dup2\n  swap1\n  sstore\n  pop\n    /* \"Project/MultiAgentBlockchain/auction.sol\":713:714  0 */\n  0x00\n    /* \"Project/MultiAgentBlockchain/auction.sol\":696:702  winner */\n  0x04\n  0x00\n    /* \"Project/MultiAgentBlockchain/auction.sol\":696:715  winner = address(0) */\n  0x0100\n  exp\n  dup2\n  sload\n  dup2\n  0xffffffffffffffffffffffffffffffffffffffff\n  mul\n  not\n  and\n  swap1\n  dup4\n  0xffffffffffffffffffffffffffffffffffffffff\n  and\n  mul\n  or\n  swap1\n  sstore\n  pop\n    /* \"Project/MultiAgentBlockchain/auction.sol\":739:740  0 */\n  0x00\n    /* \"Project/MultiAgentBlockchain/auction.sol\":726:736  best_price */\n  0x05\n    /* \"Project/MultiAgentBlockchain/auction.sol\":726:740  best_price = 0 */\n  dup2\n  swap1\n  sstore\n  pop\n    /* \"Project/MultiAgentBlockchain/auction.sol\":761:766  false */\n  0x00\n    /* \"Project/MultiAgentBlockchain/auction.sol\":751:758  is_open */\n  0x06\n  0x00\n    /* \"Project/MultiAgentBlockchain/auction.sol\":751:766  is_open = false */\n  0x0100\n  exp\n  dup2\n  sload\n  dup2\n  0xff\n  mul\n  not\n  and\n  swap1\n  dup4\n  iszero\n  iszero\n  mul\n  or\n  swap1\n  sstore\n  pop\n    /* \"Project/MultiAgentBlockchain/auction.sol\":551:774  constructor(string memory _obj, uint256 _price){... */\n  pop\n  pop\n    /* \"Project/MultiAgentBlockchain/auction.sol\":221:3352  contract Auction{... */\n  jump(tag_10)\ntag_2:\n  dup3\n  0x0a\n  dup2\n  add\n  swap3\n  dup3\n  iszero\n  tag_11\n  jumpi\n  swap2\n  0x20\n  mul\n  dup3\n  add\ntag_12:\n  dup3\n  dup2\n  gt\n  iszero\n  tag_13\n  jumpi\n  dup3\n  mload\n  dup3\n  swap1\n  0xff\n  and\n  swap1\n  sstore\n  swap2\n  0x20\n  add\n  swap2\n  swap1\n  0x01\n  add\n  swap1\n  jump(tag_12)\ntag_13:\ntag_11:\n  pop\n  swap1\n  pop\n  tag_14\n  swap2\n  swap1\n  tag_15\n  jump\t// in\ntag_14:\n  pop\n  swap1\n  jump\t// out\ntag_15:\ntag_16:\n  dup1\n  dup3\n  gt\n  iszero\n  tag_17\n  jumpi\n  0x00\n  dup2\n  0x00\n  swap1\n  sstore\n  pop\n  0x01\n  add\n  jump(tag_16)\ntag_17:\n  pop\n  swap1\n  jump\t// out\n    /* \"#utility.yul\":7:82   */\ntag_18:\n    /* \"#utility.yul\":40:46   */\n  0x00\n    /* \"#utility.yul\":73:75   */\n  0x40\n    /* \"#utility.yul\":67:76   */\n  mload\n    /* \"#utility.yul\":57:76   */\n  swap1\n  pop\n    /* \"#utility.yul\":7:82   */\n  swap1\n  jump\t// out\n    /* \"#utility.yul\":88:205   */\ntag_19:\n    /* \"#utility.yul\":197:198   */\n  0x00\n    /* \"#utility.yul\":194:195   */\n  dup1\n    /* \"#utility.yul\":187:199   */\n  revert\n    /* \"#utility.yul\":211:328   */\ntag_20:\n    /* \"#utility.yul\":320:321   */\n  0x00\n    /* \"#utility.yul\":317:318   */\n  dup1\n    /* \"#utility.yul\":310:322   */\n  revert\n    /* \"#utility.yul\":334:451   */\ntag_21:\n    /* \"#utility.yul\":443:444   */\n  0x00\n    /* \"#utility.yul\":440:441   */\n  dup1\n    /* \"#utility.yul\":433:445   */\n  revert\n    /* \"#utility.yul\":457:574   */\ntag_22:\n    /* \"#utility.yul\":566:567   */\n  0x00\n    /* \"#utility.yul\":563:564   */\n  dup1\n    /* \"#utility.yul\":556:568   */\n  revert\n    /* \"#utility.yul\":580:682   */\ntag_23:\n    /* \"#utility.yul\":621:627   */\n  0x00\n    /* \"#utility.yul\":672:674   */\n  0x1f\n    /* \"#utility.yul\":668:675   */\n  not\n    /* \"#utility.yul\":663:665   */\n  0x1f\n    /* \"#utility.yul\":656:661   */\n  dup4\n    /* \"#utility.yul\":652:666   */\n  add\n    /* \"#utility.yul\":648:676   */\n  and\n    /* \"#utility.yul\":638:676   */\n  swap1\n  pop\n    /* \"#utility.yul\":580:682   */\n  swap2\n  swap1\n  pop\n  jump\t// out\n    /* \"#utility.yul\":688:868   */\ntag_24:\n    /* \"#utility.yul\":736:813   */\n  0x4e487b7100000000000000000000000000000000000000000000000000000000\n    /* \"#utility.yul\":733:734   */\n  0x00\n    /* \"#utility.yul\":726:814   */\n  mstore\n    /* \"#utility.yul\":833:837   */\n  0x41\n    /* \"#utility.yul\":830:831   */\n  0x04\n    /* \"#utility.yul\":823:838   */\n  mstore\n    /* \"#utility.yul\":857:861   */\n  0x24\n    /* \"#utility.yul\":854:855   */\n  0x00\n    /* \"#utility.yul\":847:862   */\n  revert\n    /* \"#utility.yul\":874:1155   */\ntag_25:\n    /* \"#utility.yul\":957:984   */\n  tag_61\n    /* \"#utility.yul\":979:983   */\n  dup3\n    /* \"#utility.yul\":957:984   */\n  tag_23\n  jump\t// in\ntag_61:\n    /* \"#utility.yul\":949:955   */\n  dup2\n    /* \"#utility.yul\":945:985   */\n  add\n    /* \"#utility.yul\":1087:1093   */\n  dup2\n    /* \"#utility.yul\":1075:1085   */\n  dup2\n    /* \"#utility.yul\":1072:1094   */\n  lt\n    /* \"#utility.yul\":1051:1069   */\n  0xffffffffffffffff\n    /* \"#utility.yul\":1039:1049   */\n  dup3\n    /* \"#utility.yul\":1036:1070   */\n  gt\n    /* \"#utility.yul\":1033:1095   */\n  or\n    /* \"#utility.yul\":1030:1118   */\n  iszero\n  tag_62\n  jumpi\n    /* \"#utility.yul\":1098:1116   */\n  tag_63\n  tag_24\n  jump\t// in\ntag_63:\n    /* \"#utility.yul\":1030:1118   */\ntag_62:\n    /* \"#utility.yul\":1138:1148   */\n  dup1\n    /* \"#utility.yul\":1134:1136   */\n  0x40\n    /* \"#utility.yul\":1127:1149   */\n  mstore\n    /* \"#utility.yul\":917:1155   */\n  pop\n    /* \"#utility.yul\":874:1155   */\n  pop\n  pop\n  jump\t// out\n    /* \"#utility.yul\":1161:1290   */\ntag_26:\n    /* \"#utility.yul\":1195:1201   */\n  0x00\n    /* \"#utility.yul\":1222:1242   */\n  tag_65\n  tag_18\n  jump\t// in\ntag_65:\n    /* \"#utility.yul\":1212:1242   */\n  swap1\n  pop\n    /* \"#utility.yul\":1251:1284   */\n  tag_66\n    /* \"#utility.yul\":1279:1283   */\n  dup3\n    /* \"#utility.yul\":1271:1277   */\n  dup3\n    /* \"#utility.yul\":1251:1284   */\n  tag_25\n  jump\t// in\ntag_66:\n    /* \"#utility.yul\":1161:1290   */\n  swap2\n  swap1\n  pop\n  jump\t// out\n    /* \"#utility.yul\":1296:1604   */\ntag_27:\n    /* \"#utility.yul\":1358:1362   */\n  0x00\n    /* \"#utility.yul\":1448:1466   */\n  0xffffffffffffffff\n    /* \"#utility.yul\":1440:1446   */\n  dup3\n    /* \"#utility.yul\":1437:1467   */\n  gt\n    /* \"#utility.yul\":1434:1490   */\n  iszero\n  tag_68\n  jumpi\n    /* \"#utility.yul\":1470:1488   */\n  tag_69\n  tag_24\n  jump\t// in\ntag_69:\n    /* \"#utility.yul\":1434:1490   */\ntag_68:\n    /* \"#utility.yul\":1508:1537   */\n  tag_70\n    /* \"#utility.yul\":1530:1536   */\n  dup3\n    /* \"#utility.yul\":1508:1537   */\n  tag_23\n  jump\t// in\ntag_70:\n    /* \"#utility.yul\":1500:1537   */\n  swap1\n  pop\n    /* \"#utility.yul\":1592:1596   */\n  0x20\n    /* \"#utility.yul\":1586:1590   */\n  dup2\n    /* \"#utility.yul\":1582:1597   */\n  add\n    /* \"#utility.yul\":1574:1597   */\n  swap1\n  pop\n    /* \"#utility.yul\":1296:1604   */\n  swap2\n  swap1\n  pop\n  jump\t// out\n    /* \"#utility.yul\":1610:1856   */\ntag_28:\n    /* \"#utility.yul\":1691:1692   */\n  0x00\n    /* \"#utility.yul\":1701:1814   */\ntag_72:\n    /* \"#utility.yul\":1715:1721   */\n  dup4\n    /* \"#utility.yul\":1712:1713   */\n  dup2\n    /* \"#utility.yul\":1709:1722   */\n  lt\n    /* \"#utility.yul\":1701:1814   */\n  iszero\n  tag_74\n  jumpi\n    /* \"#utility.yul\":1800:1801   */\n  dup1\n    /* \"#utility.yul\":1795:1798   */\n  dup3\n    /* \"#utility.yul\":1791:1802   */\n  add\n    /* \"#utility.yul\":1785:1803   */\n  mload\n    /* \"#utility.yul\":1781:1782   */\n  dup2\n    /* \"#utility.yul\":1776:1779   */\n  dup5\n    /* \"#utility.yul\":1772:1783   */\n  add\n    /* \"#utility.yul\":1765:1804   */\n  mstore\n    /* \"#utility.yul\":1737:1739   */\n  0x20\n    /* \"#utility.yul\":1734:1735   */\n  dup2\n    /* \"#utility.yul\":1730:1740   */\n  add\n    /* \"#utility.yul\":1725:1740   */\n  swap1\n  pop\n    /* \"#utility.yul\":1701:1814   */\n  jump(tag_72)\ntag_74:\n    /* \"#utility.yul\":1848:1849   */\n  0x00\n    /* \"#utility.yul\":1839:1845   */\n  dup5\n    /* \"#utility.yul\":1834:1837   */\n  dup5\n    /* \"#utility.yul\":1830:1846   */\n  add\n    /* \"#utility.yul\":1823:1850   */\n  mstore\n    /* \"#utility.yul\":1672:1856   */\n  pop\n    /* \"#utility.yul\":1610:1856   */\n  pop\n  pop\n  pop\n  jump\t// out\n    /* \"#utility.yul\":1862:2296   */\ntag_29:\n    /* \"#utility.yul\":1951:1956   */\n  0x00\n    /* \"#utility.yul\":1976:2042   */\n  tag_76\n    /* \"#utility.yul\":1992:2041   */\n  tag_77\n    /* \"#utility.yul\":2034:2040   */\n  dup5\n    /* \"#utility.yul\":1992:2041   */\n  tag_27\n  jump\t// in\ntag_77:\n    /* \"#utility.yul\":1976:2042   */\n  tag_26\n  jump\t// in\ntag_76:\n    /* \"#utility.yul\":1967:2042   */\n  swap1\n  pop\n    /* \"#utility.yul\":2065:2071   */\n  dup3\n    /* \"#utility.yul\":2058:2063   */\n  dup2\n    /* \"#utility.yul\":2051:2072   */\n  mstore\n    /* \"#utility.yul\":2103:2107   */\n  0x20\n    /* \"#utility.yul\":2096:2101   */\n  dup2\n    /* \"#utility.yul\":2092:2108   */\n  add\n    /* \"#utility.yul\":2141:2144   */\n  dup5\n    /* \"#utility.yul\":2132:2138   */\n  dup5\n    /* \"#utility.yul\":2127:2130   */\n  dup5\n    /* \"#utility.yul\":2123:2139   */\n  add\n    /* \"#utility.yul\":2120:2145   */\n  gt\n    /* \"#utility.yul\":2117:2229   */\n  iszero\n  tag_78\n  jumpi\n    /* \"#utility.yul\":2148:2227   */\n  tag_79\n  tag_22\n  jump\t// in\ntag_79:\n    /* \"#utility.yul\":2117:2229   */\ntag_78:\n    /* \"#utility.yul\":2238:2290   */\n  tag_80\n    /* \"#utility.yul\":2283:2289   */\n  dup5\n    /* \"#utility.yul\":2278:2281   */\n  dup3\n    /* \"#utility.yul\":2273:2276   */\n  dup6\n    /* \"#utility.yul\":2238:2290   */\n  tag_28\n  jump\t// in\ntag_80:\n    /* \"#utility.yul\":1957:2296   */\n  pop\n    /* \"#utility.yul\":1862:2296   */\n  swap4\n  swap3\n  pop\n  pop\n  pop\n  jump\t// out\n    /* \"#utility.yul\":2316:2671   */\ntag_30:\n    /* \"#utility.yul\":2383:2388   */\n  0x00\n    /* \"#utility.yul\":2432:2435   */\n  dup3\n    /* \"#utility.yul\":2425:2429   */\n  0x1f\n    /* \"#utility.yul\":2417:2423   */\n  dup4\n    /* \"#utility.yul\":2413:2430   */\n  add\n    /* \"#utility.yul\":2409:2436   */\n  slt\n    /* \"#utility.yul\":2399:2521   */\n  tag_82\n  jumpi\n    /* \"#utility.yul\":2440:2519   */\n  tag_83\n  tag_21\n  jump\t// in\ntag_83:\n    /* \"#utility.yul\":2399:2521   */\ntag_82:\n    /* \"#utility.yul\":2550:2556   */\n  dup2\n    /* \"#utility.yul\":2544:2557   */\n  mload\n    /* \"#utility.yul\":2575:2665   */\n  tag_84\n    /* \"#utility.yul\":2661:2664   */\n  dup5\n    /* \"#utility.yul\":2653:2659   */\n  dup3\n    /* \"#utility.yul\":2646:2650   */\n  0x20\n    /* \"#utility.yul\":2638:2644   */\n  dup7\n    /* \"#utility.yul\":2634:2651   */\n  add\n    /* \"#utility.yul\":2575:2665   */\n  tag_29\n  jump\t// in\ntag_84:\n    /* \"#utility.yul\":2566:2665   */\n  swap2\n  pop\n    /* \"#utility.yul\":2389:2671   */\n  pop\n    /* \"#utility.yul\":2316:2671   */\n  swap3\n  swap2\n  pop\n  pop\n  jump\t// out\n    /* \"#utility.yul\":2677:2754   */\ntag_31:\n    /* \"#utility.yul\":2714:2721   */\n  0x00\n    /* \"#utility.yul\":2743:2748   */\n  dup2\n    /* \"#utility.yul\":2732:2748   */\n  swap1\n  pop\n    /* \"#utility.yul\":2677:2754   */\n  swap2\n  swap1\n  pop\n  jump\t// out\n    /* \"#utility.yul\":2760:2882   */\ntag_32:\n    /* \"#utility.yul\":2833:2857   */\n  tag_87\n    /* \"#utility.yul\":2851:2856   */\n  dup2\n    /* \"#utility.yul\":2833:2857   */\n  tag_31\n  jump\t// in\ntag_87:\n    /* \"#utility.yul\":2826:2831   */\n  dup2\n    /* \"#utility.yul\":2823:2858   */\n  eq\n    /* \"#utility.yul\":2813:2876   */\n  tag_88\n  jumpi\n    /* \"#utility.yul\":2872:2873   */\n  0x00\n    /* \"#utility.yul\":2869:2870   */\n  dup1\n    /* \"#utility.yul\":2862:2874   */\n  revert\n    /* \"#utility.yul\":2813:2876   */\ntag_88:\n    /* \"#utility.yul\":2760:2882   */\n  pop\n  jump\t// out\n    /* \"#utility.yul\":2888:3031   */\ntag_33:\n    /* \"#utility.yul\":2945:2950   */\n  0x00\n    /* \"#utility.yul\":2976:2982   */\n  dup2\n    /* \"#utility.yul\":2970:2983   */\n  mload\n    /* \"#utility.yul\":2961:2983   */\n  swap1\n  pop\n    /* \"#utility.yul\":2992:3025   */\n  tag_90\n    /* \"#utility.yul\":3019:3024   */\n  dup2\n    /* \"#utility.yul\":2992:3025   */\n  tag_32\n  jump\t// in\ntag_90:\n    /* \"#utility.yul\":2888:3031   */\n  swap3\n  swap2\n  pop\n  pop\n  jump\t// out\n    /* \"#utility.yul\":3037:3717   */\ntag_5:\n    /* \"#utility.yul\":3126:3132   */\n  0x00\n    /* \"#utility.yul\":3134:3140   */\n  dup1\n    /* \"#utility.yul\":3183:3185   */\n  0x40\n    /* \"#utility.yul\":3171:3180   */\n  dup4\n    /* \"#utility.yul\":3162:3169   */\n  dup6\n    /* \"#utility.yul\":3158:3181   */\n  sub\n    /* \"#utility.yul\":3154:3186   */\n  slt\n    /* \"#utility.yul\":3151:3270   */\n  iszero\n  tag_92\n  jumpi\n    /* \"#utility.yul\":3189:3268   */\n  tag_93\n  tag_19\n  jump\t// in\ntag_93:\n    /* \"#utility.yul\":3151:3270   */\ntag_92:\n    /* \"#utility.yul\":3330:3331   */\n  0x00\n    /* \"#utility.yul\":3319:3328   */\n  dup4\n    /* \"#utility.yul\":3315:3332   */\n  add\n    /* \"#utility.yul\":3309:3333   */\n  mload\n    /* \"#utility.yul\":3360:3378   */\n  0xffffffffffffffff\n    /* \"#utility.yul\":3352:3358   */\n  dup2\n    /* \"#utility.yul\":3349:3379   */\n  gt\n    /* \"#utility.yul\":3346:3463   */\n  iszero\n  tag_94\n  jumpi\n    /* \"#utility.yul\":3382:3461   */\n  tag_95\n  tag_20\n  jump\t// in\ntag_95:\n    /* \"#utility.yul\":3346:3463   */\ntag_94:\n    /* \"#utility.yul\":3487:3561   */\n  tag_96\n    /* \"#utility.yul\":3553:3560   */\n  dup6\n    /* \"#utility.yul\":3544:3550   */\n  dup3\n    /* \"#utility.yul\":3533:3542   */\n  dup7\n    /* \"#utility.yul\":3529:3551   */\n  add\n    /* \"#utility.yul\":3487:3561   */\n  tag_30\n  jump\t// in\ntag_96:\n    /* \"#utility.yul\":3477:3561   */\n  swap3\n  pop\n    /* \"#utility.yul\":3280:3571   */\n  pop\n    /* \"#utility.yul\":3610:3612   */\n  0x20\n    /* \"#utility.yul\":3636:3700   */\n  tag_97\n    /* \"#utility.yul\":3692:3699   */\n  dup6\n    /* \"#utility.yul\":3683:3689   */\n  dup3\n    /* \"#utility.yul\":3672:3681   */\n  dup7\n    /* \"#utility.yul\":3668:3690   */\n  add\n    /* \"#utility.yul\":3636:3700   */\n  tag_33\n  jump\t// in\ntag_97:\n    /* \"#utility.yul\":3626:3700   */\n  swap2\n  pop\n    /* \"#utility.yul\":3581:3710   */\n  pop\n    /* \"#utility.yul\":3037:3717   */\n  swap3\n  pop\n  swap3\n  swap1\n  pop\n  jump\t// out\n    /* \"#utility.yul\":3723:3822   */\ntag_34:\n    /* \"#utility.yul\":3775:3781   */\n  0x00\n    /* \"#utility.yul\":3809:3814   */\n  dup2\n    /* \"#utility.yul\":3803:3815   */\n  mload\n    /* \"#utility.yul\":3793:3815   */\n  swap1\n  pop\n    /* \"#utility.yul\":3723:3822   */\n  swap2\n  swap1\n  pop\n  jump\t// out\n    /* \"#utility.yul\":3828:4008   */\ntag_35:\n    /* \"#utility.yul\":3876:3953   */\n  0x4e487b7100000000000000000000000000000000000000000000000000000000\n    /* \"#utility.yul\":3873:3874   */\n  0x00\n    /* \"#utility.yul\":3866:3954   */\n  mstore\n    /* \"#utility.yul\":3973:3977   */\n  0x22\n    /* \"#utility.yul\":3970:3971   */\n  0x04\n    /* \"#utility.yul\":3963:3978   */\n  mstore\n    /* \"#utility.yul\":3997:4001   */\n  0x24\n    /* \"#utility.yul\":3994:3995   */\n  0x00\n    /* \"#utility.yul\":3987:4002   */\n  revert\n    /* \"#utility.yul\":4014:4334   */\ntag_36:\n    /* \"#utility.yul\":4058:4064   */\n  0x00\n    /* \"#utility.yul\":4095:4096   */\n  0x02\n    /* \"#utility.yul\":4089:4093   */\n  dup3\n    /* \"#utility.yul\":4085:4097   */\n  div\n    /* \"#utility.yul\":4075:4097   */\n  swap1\n  pop\n    /* \"#utility.yul\":4142:4143   */\n  0x01\n    /* \"#utility.yul\":4136:4140   */\n  dup3\n    /* \"#utility.yul\":4132:4144   */\n  and\n    /* \"#utility.yul\":4163:4181   */\n  dup1\n    /* \"#utility.yul\":4153:4234   */\n  tag_101\n  jumpi\n    /* \"#utility.yul\":4219:4223   */\n  0x7f\n    /* \"#utility.yul\":4211:4217   */\n  dup3\n    /* \"#utility.yul\":4207:4224   */\n  and\n    /* \"#utility.yul\":4197:4224   */\n  swap2\n  pop\n    /* \"#utility.yul\":4153:4234   */\ntag_101:\n    /* \"#utility.yul\":4281:4283   */\n  0x20\n    /* \"#utility.yul\":4273:4279   */\n  dup3\n    /* \"#utility.yul\":4270:4284   */\n  lt\n    /* \"#utility.yul\":4250:4268   */\n  dup2\n    /* \"#utility.yul\":4247:4285   */\n  sub\n    /* \"#utility.yul\":4244:4328   */\n  tag_102\n  jumpi\n    /* \"#utility.yul\":4300:4318   */\n  tag_103\n  tag_35\n  jump\t// in\ntag_103:\n    /* \"#utility.yul\":4244:4328   */\ntag_102:\n    /* \"#utility.yul\":4065:4334   */\n  pop\n    /* \"#utility.yul\":4014:4334   */\n  swap2\n  swap1\n  pop\n  jump\t// out\n    /* \"#utility.yul\":4340:4481   */\ntag_37:\n    /* \"#utility.yul\":4389:4393   */\n  0x00\n    /* \"#utility.yul\":4412:4415   */\n  dup2\n    /* \"#utility.yul\":4404:4415   */\n  swap1\n  pop\n    /* \"#utility.yul\":4435:4438   */\n  dup2\n    /* \"#utility.yul\":4432:4433   */\n  0x00\n    /* \"#utility.yul\":4425:4439   */\n  mstore\n    /* \"#utility.yul\":4469:4473   */\n  0x20\n    /* \"#utility.yul\":4466:4467   */\n  0x00\n    /* \"#utility.yul\":4456:4474   */\n  keccak256\n    /* \"#utility.yul\":4448:4474   */\n  swap1\n  pop\n    /* \"#utility.yul\":4340:4481   */\n  swap2\n  swap1\n  pop\n  jump\t// out\n    /* \"#utility.yul\":4487:4580   */\ntag_38:\n    /* \"#utility.yul\":4524:4530   */\n  0x00\n    /* \"#utility.yul\":4571:4573   */\n  0x20\n    /* \"#utility.yul\":4566:4568   */\n  0x1f\n    /* \"#utility.yul\":4559:4564   */\n  dup4\n    /* \"#utility.yul\":4555:4569   */\n  add\n    /* \"#utility.yul\":4551:4574   */\n  div\n    /* \"#utility.yul\":4541:4574   */\n  swap1\n  pop\n    /* \"#utility.yul\":4487:4580   */\n  swap2\n  swap1\n  pop\n  jump\t// out\n    /* \"#utility.yul\":4586:4693   */\ntag_39:\n    /* \"#utility.yul\":4630:4638   */\n  0x00\n    /* \"#utility.yul\":4680:4685   */\n  dup3\n    /* \"#utility.yul\":4674:4678   */\n  dup3\n    /* \"#utility.yul\":4670:4686   */\n  shl\n    /* \"#utility.yul\":4649:4686   */\n  swap1\n  pop\n    /* \"#utility.yul\":4586:4693   */\n  swap3\n  swap2\n  pop\n  pop\n  jump\t// out\n    /* \"#utility.yul\":4699:5092   */\ntag_40:\n    /* \"#utility.yul\":4768:4774   */\n  0x00\n    /* \"#utility.yul\":4818:4819   */\n  0x08\n    /* \"#utility.yul\":4806:4816   */\n  dup4\n    /* \"#utility.yul\":4802:4820   */\n  mul\n    /* \"#utility.yul\":4841:4938   */\n  tag_108\n    /* \"#utility.yul\":4871:4937   */\n  0xffffffffffffffffffffffffffffffffffffffffffffffffffffffffffffffff\n    /* \"#utility.yul\":4860:4869   */\n  dup3\n    /* \"#utility.yul\":4841:4938   */\n  tag_39\n  jump\t// in\ntag_108:\n    /* \"#utility.yul\":4959:4998   */\n  tag_109\n    /* \"#utility.yul\":4989:4997   */\n  dup7\n    /* \"#utility.yul\":4978:4987   */\n  dup4\n    /* \"#utility.yul\":4959:4998   */\n  tag_39\n  jump\t// in\ntag_109:\n    /* \"#utility.yul\":4947:4998   */\n  swap6\n  pop\n    /* \"#utility.yul\":5031:5035   */\n  dup1\n    /* \"#utility.yul\":5027:5036   */\n  not\n    /* \"#utility.yul\":5020:5025   */\n  dup5\n    /* \"#utility.yul\":5016:5037   */\n  and\n    /* \"#utility.yul\":5007:5037   */\n  swap4\n  pop\n    /* \"#utility.yul\":5080:5084   */\n  dup1\n    /* \"#utility.yul\":5070:5078   */\n  dup7\n    /* \"#utility.yul\":5066:5085   */\n  and\n    /* \"#utility.yul\":5059:5064   */\n  dup5\n    /* \"#utility.yul\":5056:5086   */\n  or\n    /* \"#utility.yul\":5046:5086   */\n  swap3\n  pop\n    /* \"#utility.yul\":4775:5092   */\n  pop\n  pop\n    /* \"#utility.yul\":4699:5092   */\n  swap4\n  swap3\n  pop\n  pop\n  pop\n  jump\t// out\n    /* \"#utility.yul\":5098:5158   */\ntag_41:\n    /* \"#utility.yul\":5126:5129   */\n  0x00\n    /* \"#utility.yul\":5147:5152   */\n  dup2\n    /* \"#utility.yul\":5140:5152   */\n  swap1\n  pop\n    /* \"#utility.yul\":5098:5158   */\n  swap2\n  swap1\n  pop\n  jump\t// out\n    /* \"#utility.yul\":5164:5306   */\ntag_42:\n    /* \"#utility.yul\":5214:5223   */\n  0x00\n    /* \"#utility.yul\":5247:5300   */\n  tag_112\n    /* \"#utility.yul\":5265:5299   */\n  tag_113\n    /* \"#utility.yul\":5274:5298   */\n  tag_114\n    /* \"#utility.yul\":5292:5297   */\n  dup5\n    /* \"#utility.yul\":5274:5298   */\n  tag_31\n  jump\t// in\ntag_114:\n    /* \"#utility.yul\":5265:5299   */\n  tag_41\n  jump\t// in\ntag_113:\n    /* \"#utility.yul\":5247:5300   */\n  tag_31\n  jump\t// in\ntag_112:\n    /* \"#utility.yul\":5234:5300   */\n  swap1\n  pop\n    /* \"#utility.yul\":5164:5306   */\n  swap2\n  swap1\n  pop\n  jump\t// out\n    /* \"#utility.yul\":5312:5387   */\ntag_43:\n    /* \"#utility.yul\":5355:5358   */\n  0x00\n    /* \"#utility.yul\":5376:5381   */\n  dup2\n    /* \"#utility.yul\":5369:5381   */\n  swap1\n  pop\n    /* \"#utility.yul\":5312:5387   */\n  swap2\n  swap1\n  pop\n  jump\t// out\n    /* \"#utility.yul\":5393:5662   */\ntag_44:\n    /* \"#utility.yul\":5503:5542   */\n  tag_117\n    /* \"#utility.yul\":5534:5541   */\n  dup4\n    /* \"#utility.yul\":5503:5542   */\n  tag_42\n  jump\t// in\ntag_117:\n    /* \"#utility.yul\":5564:5655   */\n  tag_118\n    /* \"#utility.yul\":5613:5654   */\n  tag_119\n    /* \"#utility.yul\":5637:5653   */\n  dup3\n    /* \"#utility.yul\":5613:5654   */\n  tag_43\n  jump\t// in\ntag_119:\n    /* \"#utility.yul\":5605:5611   */\n  dup5\n    /* \"#utility.yul\":5598:5602   */\n  dup5\n    /* \"#utility.yul\":5592:5603   */\n  sload\n    /* \"#utility.yul\":5564:5655   */\n  tag_40\n  jump\t// in\ntag_118:\n    /* \"#utility.yul\":5558:5562   */\n  dup3\n    /* \"#utility.yul\":5551:5656   */\n  sstore\n    /* \"#utility.yul\":5469:5662   */\n  pop\n    /* \"#utility.yul\":5393:5662   */\n  pop\n  pop\n  pop\n  jump\t// out\n    /* \"#utility.yul\":5668:5741   */\ntag_45:\n    /* \"#utility.yul\":5713:5716   */\n  0x00\n    /* \"#utility.yul\":5668:5741   */\n  swap1\n  jump\t// out\n    /* \"#utility.yul\":5747:5936   */\ntag_46:\n    /* \"#utility.yul\":5824:5856   */\n  tag_122\n  tag_45\n  jump\t// in\ntag_122:\n    /* \"#utility.yul\":5865:5930   */\n  tag_123\n    /* \"#utility.yul\":5923:5929   */\n  dup2\n    /* \"#utility.yul\":5915:5921   */\n  dup5\n    /* \"#utility.yul\":5909:5913   */\n  dup5\n    /* \"#utility.yul\":5865:5930   */\n  tag_44\n  jump\t// in\ntag_123:\n    /* \"#utility.yul\":5800:5936   */\n  pop\n    /* \"#utility.yul\":5747:5936   */\n  pop\n  pop\n  jump\t// out\n    /* \"#utility.yul\":5942:6128   */\ntag_47:\n    /* \"#utility.yul\":6002:6122   */\ntag_125:\n    /* \"#utility.yul\":6019:6022   */\n  dup2\n    /* \"#utility.yul\":6012:6017   */\n  dup2\n    /* \"#utility.yul\":6009:6023   */\n  lt\n    /* \"#utility.yul\":6002:6122   */\n  iszero\n  tag_127\n  jumpi\n    /* \"#utility.yul\":6073:6112   */\n  tag_128\n    /* \"#utility.yul\":6110:6111   */\n  0x00\n    /* \"#utility.yul\":6103:6108   */\n  dup3\n    /* \"#utility.yul\":6073:6112   */\n  tag_46\n  jump\t// in\ntag_128:\n    /* \"#utility.yul\":6046:6047   */\n  0x01\n    /* \"#utility.yul\":6039:6044   */\n  dup2\n    /* \"#utility.yul\":6035:6048   */\n  add\n    /* \"#utility.yul\":6026:6048   */\n  swap1\n  pop\n    /* \"#utility.yul\":6002:6122   */\n  jump(tag_125)\ntag_127:\n    /* \"#utility.yul\":5942:6128   */\n  pop\n  pop\n  jump\t// out\n    /* \"#utility.yul\":6134:6677   */\ntag_48:\n    /* \"#utility.yul\":6235:6237   */\n  0x1f\n    /* \"#utility.yul\":6230:6233   */\n  dup3\n    /* \"#utility.yul\":6227:6238   */\n  gt\n    /* \"#utility.yul\":6224:6670   */\n  iszero\n  tag_130\n  jumpi\n    /* \"#utility.yul\":6269:6307   */\n  tag_131\n    /* \"#utility.yul\":6301:6306   */\n  dup2\n    /* \"#utility.yul\":6269:6307   */\n  tag_37\n  jump\t// in\ntag_131:\n    /* \"#utility.yul\":6353:6382   */\n  tag_132\n    /* \"#utility.yul\":6371:6381   */\n  dup5\n    /* \"#utility.yul\":6353:6382   */\n  tag_38\n  jump\t// in\ntag_132:\n    /* \"#utility.yul\":6343:6351   */\n  dup2\n    /* \"#utility.yul\":6339:6383   */\n  add\n    /* \"#utility.yul\":6536:6538   */\n  0x20\n    /* \"#utility.yul\":6524:6534   */\n  dup6\n    /* \"#utility.yul\":6521:6539   */\n  lt\n    /* \"#utility.yul\":6518:6567   */\n  iszero\n  tag_133\n  jumpi\n    /* \"#utility.yul\":6557:6565   */\n  dup2\n    /* \"#utility.yul\":6542:6565   */\n  swap1\n  pop\n    /* \"#utility.yul\":6518:6567   */\ntag_133:\n    /* \"#utility.yul\":6580:6660   */\n  tag_134\n    /* \"#utility.yul\":6636:6658   */\n  tag_135\n    /* \"#utility.yul\":6654:6657   */\n  dup6\n    /* \"#utility.yul\":6636:6658   */\n  tag_38\n  jump\t// in\ntag_135:\n    /* \"#utility.yul\":6626:6634   */\n  dup4\n    /* \"#utility.yul\":6622:6659   */\n  add\n    /* \"#utility.yul\":6609:6620   */\n  dup3\n    /* \"#utility.yul\":6580:6660   */\n  tag_47\n  jump\t// in\ntag_134:\n    /* \"#utility.yul\":6239:6670   */\n  pop\n  pop\n    /* \"#utility.yul\":6224:6670   */\ntag_130:\n    /* \"#utility.yul\":6134:6677   */\n  pop\n  pop\n  pop\n  jump\t// out\n    /* \"#utility.yul\":6683:6800   */\ntag_49:\n    /* \"#utility.yul\":6737:6745   */\n  0x00\n    /* \"#utility.yul\":6787:6792   */\n  dup3\n    /* \"#utility.yul\":6781:6785   */\n  dup3\n    /* \"#utility.yul\":6777:6793   */\n  shr\n    /* \"#utility.yul\":6756:6793   */\n  swap1\n  pop\n    /* \"#utility.yul\":6683:6800   */\n  swap3\n  swap2\n  pop\n  pop\n  jump\t// out\n    /* \"#utility.yul\":6806:6975   */\ntag_50:\n    /* \"#utility.yul\":6850:6856   */\n  0x00\n    /* \"#utility.yul\":6883:6934   */\n  tag_138\n    /* \"#utility.yul\":6931:6932   */\n  0x00\n    /* \"#utility.yul\":6927:6933   */\n  not\n    /* \"#utility.yul\":6919:6924   */\n  dup5\n    /* \"#utility.yul\":6916:6917   */\n  0x08\n    /* \"#utility.yul\":6912:6925   */\n  mul\n    /* \"#utility.yul\":6883:6934   */\n  tag_49\n  jump\t// in\ntag_138:\n    /* \"#utility.yul\":6879:6935   */\n  not\n    /* \"#utility.yul\":6964:6968   */\n  dup1\n    /* \"#utility.yul\":6958:6962   */\n  dup4\n    /* \"#utility.yul\":6954:6969   */\n  and\n    /* \"#utility.yul\":6944:6969   */\n  swap2\n  pop\n    /* \"#utility.yul\":6857:6975   */\n  pop\n    /* \"#utility.yul\":6806:6975   */\n  swap3\n  swap2\n  pop\n  pop\n  jump\t// out\n    /* \"#utility.yul\":6980:7275   */\ntag_51:\n    /* \"#utility.yul\":7056:7060   */\n  0x00\n    /* \"#utility.yul\":7202:7231   */\n  tag_140\n    /* \"#utility.yul\":7227:7230   */\n  dup4\n    /* \"#utility.yul\":7221:7225   */\n  dup4\n    /* \"#utility.yul\":7202:7231   */\n  tag_50\n  jump\t// in\ntag_140:\n    /* \"#utility.yul\":7194:7231   */\n  swap2\n  pop\n    /* \"#utility.yul\":7264:7267   */\n  dup3\n    /* \"#utility.yul\":7261:7262   */\n  0x02\n    /* \"#utility.yul\":7257:7268   */\n  mul\n    /* \"#utility.yul\":7251:7255   */\n  dup3\n    /* \"#utility.yul\":7248:7269   */\n  or\n    /* \"#utility.yul\":7240:7269   */\n  swap1\n  pop\n    /* \"#utility.yul\":6980:7275   */\n  swap3\n  swap2\n  pop\n  pop\n  jump\t// out\n    /* \"#utility.yul\":7280:8675   */\ntag_9:\n    /* \"#utility.yul\":7397:7434   */\n  tag_142\n    /* \"#utility.yul\":7430:7433   */\n  dup3\n    /* \"#utility.yul\":7397:7434   */\n  tag_34\n  jump\t// in\ntag_142:\n    /* \"#utility.yul\":7499:7517   */\n  0xffffffffffffffff\n    /* \"#utility.yul\":7491:7497   */\n  dup2\n    /* \"#utility.yul\":7488:7518   */\n  gt\n    /* \"#utility.yul\":7485:7541   */\n  iszero\n  tag_143\n  jumpi\n    /* \"#utility.yul\":7521:7539   */\n  tag_144\n  tag_24\n  jump\t// in\ntag_144:\n    /* \"#utility.yul\":7485:7541   */\ntag_143:\n    /* \"#utility.yul\":7565:7603   */\n  tag_145\n    /* \"#utility.yul\":7597:7601   */\n  dup3\n    /* \"#utility.yul\":7591:7602   */\n  sload\n    /* \"#utility.yul\":7565:7603   */\n  tag_36\n  jump\t// in\ntag_145:\n    /* \"#utility.yul\":7650:7717   */\n  tag_146\n    /* \"#utility.yul\":7710:7716   */\n  dup3\n    /* \"#utility.yul\":7702:7708   */\n  dup3\n    /* \"#utility.yul\":7696:7700   */\n  dup6\n    /* \"#utility.yul\":7650:7717   */\n  tag_48\n  jump\t// in\ntag_146:\n    /* \"#utility.yul\":7744:7745   */\n  0x00\n    /* \"#utility.yul\":7768:7772   */\n  0x20\n    /* \"#utility.yul\":7755:7772   */\n  swap1\n  pop\n    /* \"#utility.yul\":7800:7802   */\n  0x1f\n    /* \"#utility.yul\":7792:7798   */\n  dup4\n    /* \"#utility.yul\":7789:7803   */\n  gt\n    /* \"#utility.yul\":7817:7818   */\n  0x01\n    /* \"#utility.yul\":7812:8430   */\n  dup2\n  eq\n  tag_148\n  jumpi\n    /* \"#utility.yul\":8474:8475   */\n  0x00\n    /* \"#utility.yul\":8491:8497   */\n  dup5\n    /* \"#utility.yul\":8488:8565   */\n  iszero\n  tag_149\n  jumpi\n    /* \"#utility.yul\":8540:8549   */\n  dup3\n    /* \"#utility.yul\":8535:8538   */\n  dup8\n    /* \"#utility.yul\":8531:8550   */\n  add\n    /* \"#utility.yul\":8525:8551   */\n  mload\n    /* \"#utility.yul\":8516:8551   */\n  swap1\n  pop\n    /* \"#utility.yul\":8488:8565   */\ntag_149:\n    /* \"#utility.yul\":8591:8658   */\n  tag_150\n    /* \"#utility.yul\":8651:8657   */\n  dup6\n    /* \"#utility.yul\":8644:8649   */\n  dup3\n    /* \"#utility.yul\":8591:8658   */\n  tag_51\n  jump\t// in\ntag_150:\n    /* \"#utility.yul\":8585:8589   */\n  dup7\n    /* \"#utility.yul\":8578:8659   */\n  sstore\n    /* \"#utility.yul\":8447:8669   */\n  pop\n    /* \"#utility.yul\":7782:8669   */\n  jump(tag_147)\n    /* \"#utility.yul\":7812:8430   */\ntag_148:\n    /* \"#utility.yul\":7864:7868   */\n  0x1f\n    /* \"#utility.yul\":7860:7869   */\n  not\n    /* \"#utility.yul\":7852:7858   */\n  dup5\n    /* \"#utility.yul\":7848:7870   */\n  and\n    /* \"#utility.yul\":7898:7935   */\n  tag_151\n    /* \"#utility.yul\":7930:7934   */\n  dup7\n    /* \"#utility.yul\":7898:7935   */\n  tag_37\n  jump\t// in\ntag_151:\n    /* \"#utility.yul\":7957:7958   */\n  0x00\n    /* \"#utility.yul\":7971:8179   */\ntag_152:\n    /* \"#utility.yul\":7985:7992   */\n  dup3\n    /* \"#utility.yul\":7982:7983   */\n  dup2\n    /* \"#utility.yul\":7979:7993   */\n  lt\n    /* \"#utility.yul\":7971:8179   */\n  iszero\n  tag_154\n  jumpi\n    /* \"#utility.yul\":8064:8073   */\n  dup5\n    /* \"#utility.yul\":8059:8062   */\n  dup10\n    /* \"#utility.yul\":8055:8074   */\n  add\n    /* \"#utility.yul\":8049:8075   */\n  mload\n    /* \"#utility.yul\":8041:8047   */\n  dup3\n    /* \"#utility.yul\":8034:8076   */\n  sstore\n    /* \"#utility.yul\":8115:8116   */\n  0x01\n    /* \"#utility.yul\":8107:8113   */\n  dup3\n    /* \"#utility.yul\":8103:8117   */\n  add\n    /* \"#utility.yul\":8093:8117   */\n  swap2\n  pop\n    /* \"#utility.yul\":8162:8164   */\n  0x20\n    /* \"#utility.yul\":8151:8160   */\n  dup6\n    /* \"#utility.yul\":8147:8165   */\n  add\n    /* \"#utility.yul\":8134:8165   */\n  swap5\n  pop\n    /* \"#utility.yul\":8008:8012   */\n  0x20\n    /* \"#utility.yul\":8005:8006   */\n  dup2\n    /* \"#utility.yul\":8001:8013   */\n  add\n    /* \"#utility.yul\":7996:8013   */\n  swap1\n  pop\n    /* \"#utility.yul\":7971:8179   */\n  jump(tag_152)\ntag_154:\n    /* \"#utility.yul\":8207:8213   */\n  dup7\n    /* \"#utility.yul\":8198:8205   */\n  dup4\n    /* \"#utility.yul\":8195:8214   */\n  lt\n    /* \"#utility.yul\":8192:8371   */\n  iszero\n  tag_155\n  jumpi\n    /* \"#utility.yul\":8265:8274   */\n  dup5\n    /* \"#utility.yul\":8260:8263   */\n  dup10\n    /* \"#utility.yul\":8256:8275   */\n  add\n    /* \"#utility.yul\":8250:8276   */\n  mload\n    /* \"#utility.yul\":8308:8356   */\n  tag_156\n    /* \"#utility.yul\":8350:8354   */\n  0x1f\n    /* \"#utility.yul\":8342:8348   */\n  dup10\n    /* \"#utility.yul\":8338:8355   */\n  and\n    /* \"#utility.yul\":8327:8336   */\n  dup3\n    /* \"#utility.yul\":8308:8356   */\n  tag_50\n  jump\t// in\ntag_156:\n    /* \"#utility.yul\":8300:8306   */\n  dup4\n    /* \"#utility.yul\":8293:8357   */\n  sstore\n    /* \"#utility.yul\":8215:8371   */\n  pop\n    /* \"#utility.yul\":8192:8371   */\ntag_155:\n    /* \"#utility.yul\":8417:8418   */\n  0x01\n    /* \"#utility.yul\":8413:8414   */\n  0x02\n    /* \"#utility.yul\":8405:8411   */\n  dup9\n    /* \"#utility.yul\":8401:8415   */\n  mul\n    /* \"#utility.yul\":8397:8419   */\n  add\n    /* \"#utility.yul\":8391:8395   */\n  dup9\n    /* \"#utility.yul\":8384:8420   */\n  sstore\n    /* \"#utility.yul\":7819:8430   */\n  pop\n  pop\n  pop\n    /* \"#utility.yul\":7782:8669   */\ntag_147:\n  pop\n    /* \"#utility.yul\":7372:8675   */\n  pop\n  pop\n  pop\n    /* \"#utility.yul\":7280:8675   */\n  pop\n  pop\n  jump\t// out\n    /* \"Project/MultiAgentBlockchain/auction.sol\":221:3352  contract Auction{... */\ntag_10:\n  dataSize(sub_0)\n  dup1\n  dataOffset(sub_0)\n  0x00\n  codecopy\n  0x00\n  return\nstop\n\nsub_0: assembly {\n        /* \"Project/MultiAgentBlockchain/auction.sol\":221:3352  contract Auction{... */\n      mstore(0x40, 0x80)\n      jumpi(tag_1, lt(calldatasize, 0x04))\n      shr(0xe0, calldataload(0x00))\n      dup1\n      0x8e7ea5b2\n      gt\n      tag_11\n      jumpi\n      dup1\n      0x8e7ea5b2\n      eq\n      tag_6\n      jumpi\n      dup1\n      0x9ba33eb5\n      eq\n      tag_7\n      jumpi\n      dup1\n      0xc028df06\n      eq\n      tag_8\n      jumpi\n      dup1\n      0xfcc8f793\n      eq\n      tag_9\n      jumpi\n      dup1\n      0xfcfff16f\n      eq\n      tag_10\n      jumpi\n      jump(tag_1)\n    tag_11:\n      dup1\n      0x43d726d6\n      eq\n      tag_2\n      jumpi\n      dup1\n      0x47535d7b\n      eq\n      tag_3\n      jumpi\n      dup1\n      0x4df1deb7\n      eq\n      tag_4\n      jumpi\n      dup1\n      0x7cc3ae8c\n      eq\n      tag_5\n      jumpi\n    tag_1:\n      0x00\n      dup1\n      revert\n        /* \"Project/MultiAgentBlockchain/auction.sol\":1558:1745  function close() public isOwner isOpened{... */\n    tag_2:\n      callvalue\n      dup1\n      iszero\n      tag_12\n      jumpi\n      0x00\n      dup1\n      revert\n    tag_12:\n      pop\n      tag_13\n      tag_14\n      jump\t// in\n    tag_13:\n      stop\n        /* \"Project/MultiAgentBlockchain/auction.sol\":1753:1847  function isOpen() public view isOpened returns (bool status) {... */\n    tag_3:\n      callvalue\n      dup1\n      iszero\n      tag_15\n      jumpi\n      0x00\n      dup1\n      revert\n    tag_15:\n      pop\n      tag_16\n      tag_17\n      jump\t// in\n    tag_16:\n      mload(0x40)\n      tag_18\n      swap2\n      swap1\n      tag_19\n      jump\t// in\n    tag_18:\n      mload(0x40)\n      dup1\n      swap2\n      sub\n      swap1\n      return\n        /* \"Project/MultiAgentBlockchain/auction.sol\":2608:2910  function retireWin() public payable {... */\n    tag_4:\n      tag_20\n      tag_21\n      jump\t// in\n    tag_20:\n      stop\n        /* \"Project/MultiAgentBlockchain/auction.sol\":315:332  uint public endAt */\n    tag_5:\n      callvalue\n      dup1\n      iszero\n      tag_22\n      jumpi\n      0x00\n      dup1\n      revert\n    tag_22:\n      pop\n      tag_23\n      tag_24\n      jump\t// in\n    tag_23:\n      mload(0x40)\n      tag_25\n      swap2\n      swap1\n      tag_26\n      jump\t// in\n    tag_25:\n      mload(0x40)\n      dup1\n      swap2\n      sub\n      swap1\n      return\n        /* \"Project/MultiAgentBlockchain/auction.sol\":2433:2590  function getWinner() public view returns (address user) {... */\n    tag_6:\n      callvalue\n      dup1\n      iszero\n      tag_27\n      jumpi\n      0x00\n      dup1\n      revert\n    tag_27:\n      pop\n      tag_28\n      tag_29\n      jump\t// in\n    tag_28:\n      mload(0x40)\n      tag_30\n      swap2\n      swap1\n      tag_31\n      jump\t// in\n    tag_30:\n      mload(0x40)\n      dup1\n      swap2\n      sub\n      swap1\n      return\n        /* \"Project/MultiAgentBlockchain/auction.sol\":2973:3347  function retireFunds() public payable {... */\n    tag_7:\n      tag_32\n      tag_33\n      jump\t// in\n    tag_32:\n      stop\n        /* \"Project/MultiAgentBlockchain/auction.sol\":1958:2425  function offer() public payable isOpened {... */\n    tag_8:\n      tag_34\n      tag_35\n      jump\t// in\n    tag_34:\n      stop\n        /* \"Project/MultiAgentBlockchain/auction.sol\":407:449  mapping(address => uint256) public bidders */\n    tag_9:\n      callvalue\n      dup1\n      iszero\n      tag_36\n      jumpi\n      0x00\n      dup1\n      revert\n    tag_36:\n      pop\n      tag_37\n      0x04\n      dup1\n      calldatasize\n      sub\n      dup2\n      add\n      swap1\n      tag_38\n      swap2\n      swap1\n      tag_39\n      jump\t// in\n    tag_38:\n      tag_40\n      jump\t// in\n    tag_37:\n      mload(0x40)\n      tag_41\n      swap2\n      swap1\n      tag_26\n      jump\t// in\n    tag_41:\n      mload(0x40)\n      dup1\n      swap2\n      sub\n      swap1\n      return\n        /* \"Project/MultiAgentBlockchain/auction.sol\":1388:1549  function open() public isOwner{... */\n    tag_10:\n      callvalue\n      dup1\n      iszero\n      tag_42\n      jumpi\n      0x00\n      dup1\n      revert\n    tag_42:\n      pop\n      tag_43\n      tag_44\n      jump\t// in\n    tag_43:\n      stop\n        /* \"Project/MultiAgentBlockchain/auction.sol\":1558:1745  function close() public isOwner isOpened{... */\n    tag_14:\n        /* \"Project/MultiAgentBlockchain/auction.sol\":829:839  msg.sender */\n      caller\n        /* \"Project/MultiAgentBlockchain/auction.sol\":820:839  owner == msg.sender */\n      0xffffffffffffffffffffffffffffffffffffffff\n      and\n        /* \"Project/MultiAgentBlockchain/auction.sol\":820:825  owner */\n      0x00\n      dup1\n      sload\n      swap1\n      0x0100\n      exp\n      swap1\n      div\n      0xffffffffffffffffffffffffffffffffffffffff\n      and\n        /* \"Project/MultiAgentBlockchain/auction.sol\":820:839  owner == msg.sender */\n      0xffffffffffffffffffffffffffffffffffffffff\n      and\n      eq\n        /* \"Project/MultiAgentBlockchain/auction.sol\":812:885  require(owner == msg.sender, \"Only the owner open/can close the auction\") */\n      tag_46\n      jumpi\n      mload(0x40)\n      0x08c379a000000000000000000000000000000000000000000000000000000000\n      dup2\n      mstore\n      0x04\n      add\n      tag_47\n      swap1\n      tag_48\n      jump\t// in\n    tag_47:\n      mload(0x40)\n      dup1\n      swap2\n      sub\n      swap1\n      revert\n    tag_46:\n        /* \"Project/MultiAgentBlockchain/auction.sol\":960:964  true */\n      0x01\n        /* \"Project/MultiAgentBlockchain/auction.sol\":949:964  is_open == true */\n      iszero\n      iszero\n        /* \"Project/MultiAgentBlockchain/auction.sol\":949:956  is_open */\n      0x06\n      0x00\n      swap1\n      sload\n      swap1\n      0x0100\n      exp\n      swap1\n      div\n      0xff\n      and\n        /* \"Project/MultiAgentBlockchain/auction.sol\":949:964  is_open == true */\n      iszero\n      iszero\n      eq\n        /* \"Project/MultiAgentBlockchain/auction.sol\":941:1001  require(is_open == true, \"The auction have to opened first\") */\n      tag_50\n      jumpi\n      mload(0x40)\n      0x08c379a000000000000000000000000000000000000000000000000000000000\n      dup2\n      mstore\n      0x04\n      add\n      tag_51\n      swap1\n      tag_52\n      jump\t// in\n    tag_51:\n      mload(0x40)\n      dup1\n      swap2\n      sub\n      swap1\n      revert\n    tag_50:\n        /* \"Project/MultiAgentBlockchain/auction.sol\":1636:1641  endAt */\n      sload(0x03)\n        /* \"Project/MultiAgentBlockchain/auction.sol\":1617:1632  block.timestamp */\n      timestamp\n        /* \"Project/MultiAgentBlockchain/auction.sol\":1617:1641  block.timestamp >= endAt */\n      lt\n      iszero\n        /* \"Project/MultiAgentBlockchain/auction.sol\":1609:1655  require(block.timestamp >= endAt, \"not ended\") */\n      tag_54\n      jumpi\n      mload(0x40)\n      0x08c379a000000000000000000000000000000000000000000000000000000000\n      dup2\n      mstore\n      0x04\n      add\n      tag_55\n      swap1\n      tag_56\n      jump\t// in\n    tag_55:\n      mload(0x40)\n      dup1\n      swap2\n      sub\n      swap1\n      revert\n    tag_54:\n        /* \"Project/MultiAgentBlockchain/auction.sol\":1676:1681  false */\n      0x00\n        /* \"Project/MultiAgentBlockchain/auction.sol\":1666:1673  is_open */\n      0x06\n      0x00\n        /* \"Project/MultiAgentBlockchain/auction.sol\":1666:1681  is_open = false */\n      0x0100\n      exp\n      dup2\n      sload\n      dup2\n      0xff\n      mul\n      not\n      and\n      swap1\n      dup4\n      iszero\n      iszero\n      mul\n      or\n      swap1\n      sstore\n      pop\n        /* \"Project/MultiAgentBlockchain/auction.sol\":1697:1737  AuctionClosed(owner, winner, best_price) */\n      0xe810c871ce50ff674e2e5e2a570cf162a6ee85fe638d22afd8c00a57904f86e8\n        /* \"Project/MultiAgentBlockchain/auction.sol\":1711:1716  owner */\n      0x00\n      dup1\n      sload\n      swap1\n      0x0100\n      exp\n      swap1\n      div\n      0xffffffffffffffffffffffffffffffffffffffff\n      and\n        /* \"Project/MultiAgentBlockchain/auction.sol\":1718:1724  winner */\n      0x04\n      0x00\n      swap1\n      sload\n      swap1\n      0x0100\n      exp\n      swap1\n      div\n      0xffffffffffffffffffffffffffffffffffffffff\n      and\n        /* \"Project/MultiAgentBlockchain/auction.sol\":1726:1736  best_price */\n      sload(0x05)\n        /* \"Project/MultiAgentBlockchain/auction.sol\":1697:1737  AuctionClosed(owner, winner, best_price) */\n      mload(0x40)\n      tag_57\n      swap4\n      swap3\n      swap2\n      swap1\n      tag_58\n      jump\t// in\n    tag_57:\n      mload(0x40)\n      dup1\n      swap2\n      sub\n      swap1\n      log1\n        /* \"Project/MultiAgentBlockchain/auction.sol\":1558:1745  function close() public isOwner isOpened{... */\n      jump\t// out\n        /* \"Project/MultiAgentBlockchain/auction.sol\":1753:1847  function isOpen() public view isOpened returns (bool status) {... */\n    tag_17:\n        /* \"Project/MultiAgentBlockchain/auction.sol\":1801:1812  bool status */\n      0x00\n        /* \"Project/MultiAgentBlockchain/auction.sol\":960:964  true */\n      0x01\n        /* \"Project/MultiAgentBlockchain/auction.sol\":949:964  is_open == true */\n      iszero\n      iszero\n        /* \"Project/MultiAgentBlockchain/auction.sol\":949:956  is_open */\n      0x06\n      0x00\n      swap1\n      sload\n      swap1\n      0x0100\n      exp\n      swap1\n      div\n      0xff\n      and\n        /* \"Project/MultiAgentBlockchain/auction.sol\":949:964  is_open == true */\n      iszero\n      iszero\n      eq\n        /* \"Project/MultiAgentBlockchain/auction.sol\":941:1001  require(is_open == true, \"The auction have to opened first\") */\n      tag_60\n      jumpi\n      mload(0x40)\n      0x08c379a000000000000000000000000000000000000000000000000000000000\n      dup2\n      mstore\n      0x04\n      add\n      tag_61\n      swap1\n      tag_52\n      jump\t// in\n    tag_61:\n      mload(0x40)\n      dup1\n      swap2\n      sub\n      swap1\n      revert\n    tag_60:\n        /* \"Project/MultiAgentBlockchain/auction.sol\":1832:1839  is_open */\n      0x06\n      0x00\n      swap1\n      sload\n      swap1\n      0x0100\n      exp\n      swap1\n      div\n      0xff\n      and\n        /* \"Project/MultiAgentBlockchain/auction.sol\":1825:1839  return is_open */\n      swap1\n      pop\n        /* \"Project/MultiAgentBlockchain/auction.sol\":1753:1847  function isOpen() public view isOpened returns (bool status) {... */\n      swap1\n      jump\t// out\n        /* \"Project/MultiAgentBlockchain/auction.sol\":2608:2910  function retireWin() public payable {... */\n    tag_21:\n        /* \"Project/MultiAgentBlockchain/auction.sol\":2677:2683  winner */\n      0x04\n      0x00\n      swap1\n      sload\n      swap1\n      0x0100\n      exp\n      swap1\n      div\n      0xffffffffffffffffffffffffffffffffffffffff\n      and\n        /* \"Project/MultiAgentBlockchain/auction.sol\":2663:2683  msg.sender == winner */\n      0xffffffffffffffffffffffffffffffffffffffff\n      and\n        /* \"Project/MultiAgentBlockchain/auction.sol\":2663:2673  msg.sender */\n      caller\n        /* \"Project/MultiAgentBlockchain/auction.sol\":2663:2683  msg.sender == winner */\n      0xffffffffffffffffffffffffffffffffffffffff\n      and\n      eq\n        /* \"Project/MultiAgentBlockchain/auction.sol\":2655:2740  require(msg.sender == winner, \"Solo il vincitore dell'asta puo' ritirare la vincita\") */\n      tag_64\n      jumpi\n      mload(0x40)\n      0x08c379a000000000000000000000000000000000000000000000000000000000\n      dup2\n      mstore\n      0x04\n      add\n      tag_65\n      swap1\n      tag_66\n      jump\t// in\n    tag_65:\n      mload(0x40)\n      dup1\n      swap2\n      sub\n      swap1\n      revert\n    tag_64:\n        /* \"Project/MultiAgentBlockchain/auction.sol\":2770:2775  false */\n      0x00\n        /* \"Project/MultiAgentBlockchain/auction.sol\":2759:2775  is_open == false */\n      iszero\n      iszero\n        /* \"Project/MultiAgentBlockchain/auction.sol\":2759:2766  is_open */\n      0x06\n      0x00\n      swap1\n      sload\n      swap1\n      0x0100\n      exp\n      swap1\n      div\n      0xff\n      and\n        /* \"Project/MultiAgentBlockchain/auction.sol\":2759:2775  is_open == false */\n      iszero\n      iszero\n      eq\n        /* \"Project/MultiAgentBlockchain/auction.sol\":2751:2807  require(is_open == false, \"The auction is still opened\") */\n      tag_67\n      jumpi\n      mload(0x40)\n      0x08c379a000000000000000000000000000000000000000000000000000000000\n      dup2\n      mstore\n      0x04\n      add\n      tag_68\n      swap1\n      tag_69\n      jump\t// in\n    tag_68:\n      mload(0x40)\n      dup1\n      swap2\n      sub\n      swap1\n      revert\n    tag_67:\n        /* \"Project/MultiAgentBlockchain/auction.sol\":2823:2855  WinningWithdrawn(winner, object) */\n      0x5e8c64c7c4bf81541143e96785b6fe89c8c1c2e524aac8b02d7e09f899a3108e\n        /* \"Project/MultiAgentBlockchain/auction.sol\":2840:2846  winner */\n      0x04\n      0x00\n      swap1\n      sload\n      swap1\n      0x0100\n      exp\n      swap1\n      div\n      0xffffffffffffffffffffffffffffffffffffffff\n      and\n        /* \"Project/MultiAgentBlockchain/auction.sol\":2848:2854  object */\n      0x01\n        /* \"Project/MultiAgentBlockchain/auction.sol\":2823:2855  WinningWithdrawn(winner, object) */\n      mload(0x40)\n      tag_70\n      swap3\n      swap2\n      swap1\n      tag_71\n      jump\t// in\n    tag_70:\n      mload(0x40)\n      dup1\n      swap2\n      sub\n      swap1\n      log1\n        /* \"Project/MultiAgentBlockchain/auction.sol\":2876:2881  owner */\n      0x00\n      dup1\n      sload\n      swap1\n      0x0100\n      exp\n      swap1\n      div\n      0xffffffffffffffffffffffffffffffffffffffff\n      and\n        /* \"Project/MultiAgentBlockchain/auction.sol\":2876:2890  owner.transfer */\n      0xffffffffffffffffffffffffffffffffffffffff\n      and\n        /* \"Project/MultiAgentBlockchain/auction.sol\":2876:2902  owner.transfer(best_price) */\n      0x08fc\n        /* \"Project/MultiAgentBlockchain/auction.sol\":2891:2901  best_price */\n      sload(0x05)\n        /* \"Project/MultiAgentBlockchain/auction.sol\":2876:2902  owner.transfer(best_price) */\n      swap1\n      dup2\n      iszero\n      mul\n      swap1\n      mload(0x40)\n      0x00\n      mload(0x40)\n      dup1\n      dup4\n      sub\n      dup2\n      dup6\n      dup9\n      dup9\n      call\n      swap4\n      pop\n      pop\n      pop\n      pop\n      iszero\n      dup1\n      iszero\n      tag_73\n      jumpi\n      returndatasize\n      0x00\n      dup1\n      returndatacopy\n      revert(0x00, returndatasize)\n    tag_73:\n      pop\n        /* \"Project/MultiAgentBlockchain/auction.sol\":2608:2910  function retireWin() public payable {... */\n      jump\t// out\n        /* \"Project/MultiAgentBlockchain/auction.sol\":315:332  uint public endAt */\n    tag_24:\n      sload(0x03)\n      dup2\n      jump\t// out\n        /* \"Project/MultiAgentBlockchain/auction.sol\":2433:2590  function getWinner() public view returns (address user) {... */\n    tag_29:\n        /* \"Project/MultiAgentBlockchain/auction.sol\":2475:2487  address user */\n      0x00\n        /* \"Project/MultiAgentBlockchain/auction.sol\":2519:2524  false */\n      dup1\n        /* \"Project/MultiAgentBlockchain/auction.sol\":2508:2524  is_open == false */\n      iszero\n      iszero\n        /* \"Project/MultiAgentBlockchain/auction.sol\":2508:2515  is_open */\n      0x06\n      0x00\n      swap1\n      sload\n      swap1\n      0x0100\n      exp\n      swap1\n      div\n      0xff\n      and\n        /* \"Project/MultiAgentBlockchain/auction.sol\":2508:2524  is_open == false */\n      iszero\n      iszero\n      eq\n        /* \"Project/MultiAgentBlockchain/auction.sol\":2500:2556  require(is_open == false, \"The auction is still opened\") */\n      tag_75\n      jumpi\n      mload(0x40)\n      0x08c379a000000000000000000000000000000000000000000000000000000000\n      dup2\n      mstore\n      0x04\n      add\n      tag_76\n      swap1\n      tag_69\n      jump\t// in\n    tag_76:\n      mload(0x40)\n      dup1\n      swap2\n      sub\n      swap1\n      revert\n    tag_75:\n        /* \"Project/MultiAgentBlockchain/auction.sol\":2574:2580  winner */\n      0x04\n      0x00\n      swap1\n      sload\n      swap1\n      0x0100\n      exp\n      swap1\n      div\n      0xffffffffffffffffffffffffffffffffffffffff\n      and\n        /* \"Project/MultiAgentBlockchain/auction.sol\":2567:2580  return winner */\n      swap1\n      pop\n        /* \"Project/MultiAgentBlockchain/auction.sol\":2433:2590  function getWinner() public view returns (address user) {... */\n      swap1\n      jump\t// out\n        /* \"Project/MultiAgentBlockchain/auction.sol\":2973:3347  function retireFunds() public payable {... */\n    tag_33:\n        /* \"Project/MultiAgentBlockchain/auction.sol\":3044:3050  winner */\n      0x04\n      0x00\n      swap1\n      sload\n      swap1\n      0x0100\n      exp\n      swap1\n      div\n      0xffffffffffffffffffffffffffffffffffffffff\n      and\n        /* \"Project/MultiAgentBlockchain/auction.sol\":3030:3050  msg.sender != winner */\n      0xffffffffffffffffffffffffffffffffffffffff\n      and\n        /* \"Project/MultiAgentBlockchain/auction.sol\":3030:3040  msg.sender */\n      caller\n        /* \"Project/MultiAgentBlockchain/auction.sol\":3030:3050  msg.sender != winner */\n      0xffffffffffffffffffffffffffffffffffffffff\n      and\n      sub\n        /* \"Project/MultiAgentBlockchain/auction.sol\":3022:3103  require(msg.sender != winner, \"Il vincitore dell'asta non puo' ritirare i fondi\") */\n      tag_78\n      jumpi\n      mload(0x40)\n      0x08c379a000000000000000000000000000000000000000000000000000000000\n      dup2\n      mstore\n      0x04\n      add\n      tag_79\n      swap1\n      tag_80\n      jump\t// in\n    tag_79:\n      mload(0x40)\n      dup1\n      swap2\n      sub\n      swap1\n      revert\n    tag_78:\n        /* \"Project/MultiAgentBlockchain/auction.sol\":3133:3138  false */\n      0x00\n        /* \"Project/MultiAgentBlockchain/auction.sol\":3122:3138  is_open == false */\n      iszero\n      iszero\n        /* \"Project/MultiAgentBlockchain/auction.sol\":3122:3129  is_open */\n      0x06\n      0x00\n      swap1\n      sload\n      swap1\n      0x0100\n      exp\n      swap1\n      div\n      0xff\n      and\n        /* \"Project/MultiAgentBlockchain/auction.sol\":3122:3138  is_open == false */\n      iszero\n      iszero\n      eq\n        /* \"Project/MultiAgentBlockchain/auction.sol\":3114:3170  require(is_open == false, \"The auction is still opened\") */\n      tag_81\n      jumpi\n      mload(0x40)\n      0x08c379a000000000000000000000000000000000000000000000000000000000\n      dup2\n      mstore\n      0x04\n      add\n      tag_82\n      swap1\n      tag_69\n      jump\t// in\n    tag_82:\n      mload(0x40)\n      dup1\n      swap2\n      sub\n      swap1\n      revert\n    tag_81:\n        /* \"Project/MultiAgentBlockchain/auction.sol\":3186:3233  FundsWithdrawn(msg.sender, bidders[msg.sender]) */\n      0xeaff4b37086828766ad3268786972c0cd24259d4c87a80f9d3963a3c3d999b0d\n        /* \"Project/MultiAgentBlockchain/auction.sol\":3201:3211  msg.sender */\n      caller\n        /* \"Project/MultiAgentBlockchain/auction.sol\":3213:3220  bidders */\n      0x07\n        /* \"Project/MultiAgentBlockchain/auction.sol\":3213:3232  bidders[msg.sender] */\n      0x00\n        /* \"Project/MultiAgentBlockchain/auction.sol\":3221:3231  msg.sender */\n      caller\n        /* \"Project/MultiAgentBlockchain/auction.sol\":3213:3232  bidders[msg.sender] */\n      0xffffffffffffffffffffffffffffffffffffffff\n      and\n      0xffffffffffffffffffffffffffffffffffffffff\n      and\n      dup2\n      mstore\n      0x20\n      add\n      swap1\n      dup2\n      mstore\n      0x20\n      add\n      0x00\n      keccak256\n      sload\n        /* \"Project/MultiAgentBlockchain/auction.sol\":3186:3233  FundsWithdrawn(msg.sender, bidders[msg.sender]) */\n      mload(0x40)\n      tag_83\n      swap3\n      swap2\n      swap1\n      tag_84\n      jump\t// in\n    tag_83:\n      mload(0x40)\n      dup1\n      swap2\n      sub\n      swap1\n      log1\n        /* \"Project/MultiAgentBlockchain/auction.sol\":3262:3272  msg.sender */\n      caller\n        /* \"Project/MultiAgentBlockchain/auction.sol\":3254:3282  payable(msg.sender).transfer */\n      0xffffffffffffffffffffffffffffffffffffffff\n      and\n        /* \"Project/MultiAgentBlockchain/auction.sol\":3254:3303  payable(msg.sender).transfer(bidders[msg.sender]) */\n      0x08fc\n        /* \"Project/MultiAgentBlockchain/auction.sol\":3283:3290  bidders */\n      0x07\n        /* \"Project/MultiAgentBlockchain/auction.sol\":3283:3302  bidders[msg.sender] */\n      0x00\n        /* \"Project/MultiAgentBlockchain/auction.sol\":3291:3301  msg.sender */\n      caller\n        /* \"Project/MultiAgentBlockchain/auction.sol\":3283:3302  bidders[msg.sender] */\n      0xffffffffffffffffffffffffffffffffffffffff\n      and\n      0xffffffffffffffffffffffffffffffffffffffff\n      and\n      dup2\n      mstore\n      0x20\n      add\n      swap1\n      dup2\n      mstore\n      0x20\n      add\n      0x00\n      keccak256\n      sload\n        /* \"Project/MultiAgentBlockchain/auction.sol\":3254:3303  payable(msg.sender).transfer(bidders[msg.sender]) */\n      swap1\n      dup2\n      iszero\n      mul\n      swap1\n      mload(0x40)\n      0x00\n      mload(0x40)\n      dup1\n      dup4\n      sub\n      dup2\n      dup6\n      dup9\n      dup9\n      call\n      swap4\n      pop\n      pop\n      pop\n      pop\n      iszero\n      dup1\n      iszero\n      tag_86\n      jumpi\n      returndatasize\n      0x00\n      dup1\n      returndatacopy\n      revert(0x00, returndatasize)\n    tag_86:\n      pop\n        /* \"Project/MultiAgentBlockchain/auction.sol\":3338:3339  0 */\n      0x00\n        /* \"Project/MultiAgentBlockchain/auction.sol\":3316:3323  bidders */\n      0x07\n        /* \"Project/MultiAgentBlockchain/auction.sol\":3316:3335  bidders[msg.sender] */\n      0x00\n        /* \"Project/MultiAgentBlockchain/auction.sol\":3324:3334  msg.sender */\n      caller\n        /* \"Project/MultiAgentBlockchain/auction.sol\":3316:3335  bidders[msg.sender] */\n      0xffffffffffffffffffffffffffffffffffffffff\n      and\n      0xffffffffffffffffffffffffffffffffffffffff\n      and\n      dup2\n      mstore\n      0x20\n      add\n      swap1\n      dup2\n      mstore\n      0x20\n      add\n      0x00\n      keccak256\n        /* \"Project/MultiAgentBlockchain/auction.sol\":3316:3339  bidders[msg.sender] = 0 */\n      dup2\n      swap1\n      sstore\n      pop\n        /* \"Project/MultiAgentBlockchain/auction.sol\":2973:3347  function retireFunds() public payable {... */\n      jump\t// out\n        /* \"Project/MultiAgentBlockchain/auction.sol\":1958:2425  function offer() public payable isOpened {... */\n    tag_35:\n        /* \"Project/MultiAgentBlockchain/auction.sol\":960:964  true */\n      0x01\n        /* \"Project/MultiAgentBlockchain/auction.sol\":949:964  is_open == true */\n      iszero\n      iszero\n        /* \"Project/MultiAgentBlockchain/auction.sol\":949:956  is_open */\n      0x06\n      0x00\n      swap1\n      sload\n      swap1\n      0x0100\n      exp\n      swap1\n      div\n      0xff\n      and\n        /* \"Project/MultiAgentBlockchain/auction.sol\":949:964  is_open == true */\n      iszero\n      iszero\n      eq\n        /* \"Project/MultiAgentBlockchain/auction.sol\":941:1001  require(is_open == true, \"The auction have to opened first\") */\n      tag_88\n      jumpi\n      mload(0x40)\n      0x08c379a000000000000000000000000000000000000000000000000000000000\n      dup2\n      mstore\n      0x04\n      add\n      tag_89\n      swap1\n      tag_52\n      jump\t// in\n    tag_89:\n      mload(0x40)\n      dup1\n      swap2\n      sub\n      swap1\n      revert\n    tag_88:\n        /* \"Project/MultiAgentBlockchain/auction.sol\":2030:2040  best_price */\n      sload(0x05)\n        /* \"Project/MultiAgentBlockchain/auction.sol\":2018:2027  msg.value */\n      callvalue\n        /* \"Project/MultiAgentBlockchain/auction.sol\":2018:2040  msg.value < best_price */\n      lt\n        /* \"Project/MultiAgentBlockchain/auction.sol\":2010:2083  require(msg.value < best_price, \"L'offerta fatta non supera la migliore\") */\n      tag_91\n      jumpi\n      mload(0x40)\n      0x08c379a000000000000000000000000000000000000000000000000000000000\n      dup2\n      mstore\n      0x04\n      add\n      tag_92\n      swap1\n      tag_93\n      jump\t// in\n    tag_92:\n      mload(0x40)\n      dup1\n      swap2\n      sub\n      swap1\n      revert\n    tag_91:\n        /* \"Project/MultiAgentBlockchain/auction.sol\":2120:2125  endAt */\n      sload(0x03)\n        /* \"Project/MultiAgentBlockchain/auction.sol\":2102:2117  block.timestamp */\n      timestamp\n        /* \"Project/MultiAgentBlockchain/auction.sol\":2102:2125  block.timestamp < endAt */\n      lt\n        /* \"Project/MultiAgentBlockchain/auction.sol\":2094:2135  require(block.timestamp < endAt, \"ended\") */\n      tag_94\n      jumpi\n      mload(0x40)\n      0x08c379a000000000000000000000000000000000000000000000000000000000\n      dup2\n      mstore\n      0x04\n      add\n      tag_95\n      swap1\n      tag_96\n      jump\t// in\n    tag_95:\n      mload(0x40)\n      dup1\n      swap2\n      sub\n      swap1\n      revert\n    tag_94:\n        /* \"Project/MultiAgentBlockchain/auction.sol\":2151:2204  NewBid(\"New bid is proposed:\", msg.sender, msg.value) */\n      0x7a1ef295a7b3ead528a3d5dc5108df6fbe47739a34aa589a11433b98ce53c60e\n        /* \"Project/MultiAgentBlockchain/auction.sol\":2182:2192  msg.sender */\n      caller\n        /* \"Project/MultiAgentBlockchain/auction.sol\":2194:2203  msg.value */\n      callvalue\n        /* \"Project/MultiAgentBlockchain/auction.sol\":2151:2204  NewBid(\"New bid is proposed:\", msg.sender, msg.value) */\n      mload(0x40)\n      tag_97\n      swap3\n      swap2\n      swap1\n      tag_98\n      jump\t// in\n    tag_97:\n      mload(0x40)\n      dup1\n      swap2\n      sub\n      swap1\n      log1\n        /* \"Project/MultiAgentBlockchain/auction.sol\":2238:2247  msg.value */\n      callvalue\n        /* \"Project/MultiAgentBlockchain/auction.sol\":2225:2235  best_price */\n      0x05\n        /* \"Project/MultiAgentBlockchain/auction.sol\":2225:2247  best_price = msg.value */\n      dup2\n      swap1\n      sstore\n      pop\n        /* \"Project/MultiAgentBlockchain/auction.sol\":2267:2277  msg.sender */\n      caller\n        /* \"Project/MultiAgentBlockchain/auction.sol\":2258:2264  winner */\n      0x04\n      0x00\n        /* \"Project/MultiAgentBlockchain/auction.sol\":2258:2277  winner = msg.sender */\n      0x0100\n      exp\n      dup2\n      sload\n      dup2\n      0xffffffffffffffffffffffffffffffffffffffff\n      mul\n      not\n      and\n      swap1\n      dup4\n      0xffffffffffffffffffffffffffffffffffffffff\n      and\n      mul\n      or\n      swap1\n      sstore\n      pop\n        /* \"Project/MultiAgentBlockchain/auction.sol\":2320:2321  0 */\n      0x00\n        /* \"Project/MultiAgentBlockchain/auction.sol\":2301:2308  bidders */\n      0x07\n        /* \"Project/MultiAgentBlockchain/auction.sol\":2301:2316  bidders[winner] */\n      0x00\n        /* \"Project/MultiAgentBlockchain/auction.sol\":2309:2315  winner */\n      0x04\n      0x00\n      swap1\n      sload\n      swap1\n      0x0100\n      exp\n      swap1\n      div\n      0xffffffffffffffffffffffffffffffffffffffff\n      and\n        /* \"Project/MultiAgentBlockchain/auction.sol\":2301:2316  bidders[winner] */\n      0xffffffffffffffffffffffffffffffffffffffff\n      and\n      0xffffffffffffffffffffffffffffffffffffffff\n      and\n      dup2\n      mstore\n      0x20\n      add\n      swap1\n      dup2\n      mstore\n      0x20\n      add\n      0x00\n      keccak256\n      sload\n        /* \"Project/MultiAgentBlockchain/auction.sol\":2301:2321  bidders[winner] == 0 */\n      sub\n        /* \"Project/MultiAgentBlockchain/auction.sol\":2298:2367  if(bidders[winner] == 0){... */\n      tag_99\n      jumpi\n        /* \"Project/MultiAgentBlockchain/auction.sol\":2337:2342  users */\n      0x08\n        /* \"Project/MultiAgentBlockchain/auction.sol\":2348:2354  winner */\n      0x04\n      0x00\n      swap1\n      sload\n      swap1\n      0x0100\n      exp\n      swap1\n      div\n      0xffffffffffffffffffffffffffffffffffffffff\n      and\n        /* \"Project/MultiAgentBlockchain/auction.sol\":2337:2355  users.push(winner) */\n      swap1\n      dup1\n      0x01\n      dup2\n      sload\n      add\n      dup1\n      dup3\n      sstore\n      dup1\n      swap2\n      pop\n      pop\n      0x01\n      swap1\n      sub\n      swap1\n      0x00\n      mstore\n      keccak256(0x00, 0x20)\n      add\n      0x00\n      swap1\n      swap2\n      swap1\n      swap2\n      swap1\n      swap2\n      0x0100\n      exp\n      dup2\n      sload\n      dup2\n      0xffffffffffffffffffffffffffffffffffffffff\n      mul\n      not\n      and\n      swap1\n      dup4\n      0xffffffffffffffffffffffffffffffffffffffff\n      and\n      mul\n      or\n      swap1\n      sstore\n      pop\n        /* \"Project/MultiAgentBlockchain/auction.sol\":2298:2367  if(bidders[winner] == 0){... */\n    tag_99:\n        /* \"Project/MultiAgentBlockchain/auction.sol\":2398:2407  msg.value */\n      callvalue\n        /* \"Project/MultiAgentBlockchain/auction.sol\":2379:2386  bidders */\n      0x07\n        /* \"Project/MultiAgentBlockchain/auction.sol\":2379:2394  bidders[winner] */\n      0x00\n        /* \"Project/MultiAgentBlockchain/auction.sol\":2387:2393  winner */\n      0x04\n      0x00\n      swap1\n      sload\n      swap1\n      0x0100\n      exp\n      swap1\n      div\n      0xffffffffffffffffffffffffffffffffffffffff\n      and\n        /* \"Project/MultiAgentBlockchain/auction.sol\":2379:2394  bidders[winner] */\n      0xffffffffffffffffffffffffffffffffffffffff\n      and\n      0xffffffffffffffffffffffffffffffffffffffff\n      and\n      dup2\n      mstore\n      0x20\n      add\n      swap1\n      dup2\n      mstore\n      0x20\n      add\n      0x00\n      keccak256\n      0x00\n        /* \"Project/MultiAgentBlockchain/auction.sol\":2379:2407  bidders[winner] += msg.value */\n      dup3\n      dup3\n      sload\n      tag_101\n      swap2\n      swap1\n      tag_102\n      jump\t// in\n    tag_101:\n      swap3\n      pop\n      pop\n      dup2\n      swap1\n      sstore\n      pop\n        /* \"Project/MultiAgentBlockchain/auction.sol\":1958:2425  function offer() public payable isOpened {... */\n      jump\t// out\n        /* \"Project/MultiAgentBlockchain/auction.sol\":407:449  mapping(address => uint256) public bidders */\n    tag_40:\n      mstore(0x20, 0x07)\n      dup1\n      0x00\n      mstore\n      keccak256(0x00, 0x40)\n      0x00\n      swap2\n      pop\n      swap1\n      pop\n      sload\n      dup2\n      jump\t// out\n        /* \"Project/MultiAgentBlockchain/auction.sol\":1388:1549  function open() public isOwner{... */\n    tag_44:\n        /* \"Project/MultiAgentBlockchain/auction.sol\":829:839  msg.sender */\n      caller\n        /* \"Project/MultiAgentBlockchain/auction.sol\":820:839  owner == msg.sender */\n      0xffffffffffffffffffffffffffffffffffffffff\n      and\n        /* \"Project/MultiAgentBlockchain/auction.sol\":820:825  owner */\n      0x00\n      dup1\n      sload\n      swap1\n      0x0100\n      exp\n      swap1\n      div\n      0xffffffffffffffffffffffffffffffffffffffff\n      and\n        /* \"Project/MultiAgentBlockchain/auction.sol\":820:839  owner == msg.sender */\n      0xffffffffffffffffffffffffffffffffffffffff\n      and\n      eq\n        /* \"Project/MultiAgentBlockchain/auction.sol\":812:885  require(owner == msg.sender, \"Only the owner open/can close the auction\") */\n      tag_104\n      jumpi\n      mload(0x40)\n      0x08c379a000000000000000000000000000000000000000000000000000000000\n      dup2\n      mstore\n      0x04\n      add\n      tag_105\n      swap1\n      tag_48\n      jump\t// in\n    tag_105:\n      mload(0x40)\n      dup1\n      swap2\n      sub\n      swap1\n      revert\n    tag_104:\n        /* \"Project/MultiAgentBlockchain/auction.sol\":1439:1443  true */\n      0x01\n        /* \"Project/MultiAgentBlockchain/auction.sol\":1429:1436  is_open */\n      0x06\n      0x00\n        /* \"Project/MultiAgentBlockchain/auction.sol\":1429:1443  is_open = true */\n      0x0100\n      exp\n      dup2\n      sload\n      dup2\n      0xff\n      mul\n      not\n      and\n      swap1\n      dup4\n      iszero\n      iszero\n      mul\n      or\n      swap1\n      sstore\n      pop\n        /* \"Project/MultiAgentBlockchain/auction.sol\":1459:1494  AuctionOpened(owner, object, price) */\n      0x6969a1bc7452d86873151bfd13167742e1951b4af640dfd8218b7eddd7ec6632\n        /* \"Project/MultiAgentBlockchain/auction.sol\":1473:1478  owner */\n      0x00\n      dup1\n      sload\n      swap1\n      0x0100\n      exp\n      swap1\n      div\n      0xffffffffffffffffffffffffffffffffffffffff\n      and\n        /* \"Project/MultiAgentBlockchain/auction.sol\":1480:1486  object */\n      0x01\n        /* \"Project/MultiAgentBlockchain/auction.sol\":1488:1493  price */\n      sload(0x02)\n        /* \"Project/MultiAgentBlockchain/auction.sol\":1459:1494  AuctionOpened(owner, object, price) */\n      mload(0x40)\n      tag_107\n      swap4\n      swap3\n      swap2\n      swap1\n      tag_108\n      jump\t// in\n    tag_107:\n      mload(0x40)\n      dup1\n      swap2\n      sub\n      swap1\n      log1\n        /* \"Project/MultiAgentBlockchain/auction.sol\":1531:1541  15 seconds */\n      0x0f\n        /* \"Project/MultiAgentBlockchain/auction.sol\":1513:1528  block.timestamp */\n      timestamp\n        /* \"Project/MultiAgentBlockchain/auction.sol\":1513:1541  block.timestamp + 15 seconds */\n      tag_109\n      swap2\n      swap1\n      tag_102\n      jump\t// in\n    tag_109:\n        /* \"Project/MultiAgentBlockchain/auction.sol\":1505:1510  endAt */\n      0x03\n        /* \"Project/MultiAgentBlockchain/auction.sol\":1505:1541  endAt = block.timestamp + 15 seconds */\n      dup2\n      swap1\n      sstore\n      pop\n        /* \"Project/MultiAgentBlockchain/auction.sol\":1388:1549  function open() public isOwner{... */\n      jump\t// out\n        /* \"#utility.yul\":7:97   */\n    tag_110:\n        /* \"#utility.yul\":41:48   */\n      0x00\n        /* \"#utility.yul\":84:89   */\n      dup2\n        /* \"#utility.yul\":77:90   */\n      iszero\n        /* \"#utility.yul\":70:91   */\n      iszero\n        /* \"#utility.yul\":59:91   */\n      swap1\n      pop\n        /* \"#utility.yul\":7:97   */\n      swap2\n      swap1\n      pop\n      jump\t// out\n        /* \"#utility.yul\":103:212   */\n    tag_111:\n        /* \"#utility.yul\":184:205   */\n      tag_154\n        /* \"#utility.yul\":199:204   */\n      dup2\n        /* \"#utility.yul\":184:205   */\n      tag_110\n      jump\t// in\n    tag_154:\n        /* \"#utility.yul\":179:182   */\n      dup3\n        /* \"#utility.yul\":172:206   */\n      mstore\n        /* \"#utility.yul\":103:212   */\n      pop\n      pop\n      jump\t// out\n        /* \"#utility.yul\":218:428   */\n    tag_19:\n        /* \"#utility.yul\":305:309   */\n      0x00\n        /* \"#utility.yul\":343:345   */\n      0x20\n        /* \"#utility.yul\":332:341   */\n      dup3\n        /* \"#utility.yul\":328:346   */\n      add\n        /* \"#utility.yul\":320:346   */\n      swap1\n      pop\n        /* \"#utility.yul\":356:421   */\n      tag_156\n        /* \"#utility.yul\":418:419   */\n      0x00\n        /* \"#utility.yul\":407:416   */\n      dup4\n        /* \"#utility.yul\":403:420   */\n      add\n        /* \"#utility.yul\":394:400   */\n      dup5\n        /* \"#utility.yul\":356:421   */\n      tag_111\n      jump\t// in\n    tag_156:\n        /* \"#utility.yul\":218:428   */\n      swap3\n      swap2\n      pop\n      pop\n      jump\t// out\n        /* \"#utility.yul\":434:511   */\n    tag_112:\n        /* \"#utility.yul\":471:478   */\n      0x00\n        /* \"#utility.yul\":500:505   */\n      dup2\n        /* \"#utility.yul\":489:505   */\n      swap1\n      pop\n        /* \"#utility.yul\":434:511   */\n      swap2\n      swap1\n      pop\n      jump\t// out\n        /* \"#utility.yul\":517:635   */\n    tag_113:\n        /* \"#utility.yul\":604:628   */\n      tag_159\n        /* \"#utility.yul\":622:627   */\n      dup2\n        /* \"#utility.yul\":604:628   */\n      tag_112\n      jump\t// in\n    tag_159:\n        /* \"#utility.yul\":599:602   */\n      dup3\n        /* \"#utility.yul\":592:629   */\n      mstore\n        /* \"#utility.yul\":517:635   */\n      pop\n      pop\n      jump\t// out\n        /* \"#utility.yul\":641:863   */\n    tag_26:\n        /* \"#utility.yul\":734:738   */\n      0x00\n        /* \"#utility.yul\":772:774   */\n      0x20\n        /* \"#utility.yul\":761:770   */\n      dup3\n        /* \"#utility.yul\":757:775   */\n      add\n        /* \"#utility.yul\":749:775   */\n      swap1\n      pop\n        /* \"#utility.yul\":785:856   */\n      tag_161\n        /* \"#utility.yul\":853:854   */\n      0x00\n        /* \"#utility.yul\":842:851   */\n      dup4\n        /* \"#utility.yul\":838:855   */\n      add\n        /* \"#utility.yul\":829:835   */\n      dup5\n        /* \"#utility.yul\":785:856   */\n      tag_113\n      jump\t// in\n    tag_161:\n        /* \"#utility.yul\":641:863   */\n      swap3\n      swap2\n      pop\n      pop\n      jump\t// out\n        /* \"#utility.yul\":869:995   */\n    tag_114:\n        /* \"#utility.yul\":906:913   */\n      0x00\n        /* \"#utility.yul\":946:988   */\n      0xffffffffffffffffffffffffffffffffffffffff\n        /* \"#utility.yul\":939:944   */\n      dup3\n        /* \"#utility.yul\":935:989   */\n      and\n        /* \"#utility.yul\":924:989   */\n      swap1\n      pop\n        /* \"#utility.yul\":869:995   */\n      swap2\n      swap1\n      pop\n      jump\t// out\n        /* \"#utility.yul\":1001:1097   */\n    tag_115:\n        /* \"#utility.yul\":1038:1045   */\n      0x00\n        /* \"#utility.yul\":1067:1091   */\n      tag_164\n        /* \"#utility.yul\":1085:1090   */\n      dup3\n        /* \"#utility.yul\":1067:1091   */\n      tag_114\n      jump\t// in\n    tag_164:\n        /* \"#utility.yul\":1056:1091   */\n      swap1\n      pop\n        /* \"#utility.yul\":1001:1097   */\n      swap2\n      swap1\n      pop\n      jump\t// out\n        /* \"#utility.yul\":1103:1221   */\n    tag_116:\n        /* \"#utility.yul\":1190:1214   */\n      tag_166\n        /* \"#utility.yul\":1208:1213   */\n      dup2\n        /* \"#utility.yul\":1190:1214   */\n      tag_115\n      jump\t// in\n    tag_166:\n        /* \"#utility.yul\":1185:1188   */\n      dup3\n        /* \"#utility.yul\":1178:1215   */\n      mstore\n        /* \"#utility.yul\":1103:1221   */\n      pop\n      pop\n      jump\t// out\n        /* \"#utility.yul\":1227:1449   */\n    tag_31:\n        /* \"#utility.yul\":1320:1324   */\n      0x00\n        /* \"#utility.yul\":1358:1360   */\n      0x20\n        /* \"#utility.yul\":1347:1356   */\n      dup3\n        /* \"#utility.yul\":1343:1361   */\n      add\n        /* \"#utility.yul\":1335:1361   */\n      swap1\n      pop\n        /* \"#utility.yul\":1371:1442   */\n      tag_168\n        /* \"#utility.yul\":1439:1440   */\n      0x00\n        /* \"#utility.yul\":1428:1437   */\n      dup4\n        /* \"#utility.yul\":1424:1441   */\n      add\n        /* \"#utility.yul\":1415:1421   */\n      dup5\n        /* \"#utility.yul\":1371:1442   */\n      tag_116\n      jump\t// in\n    tag_168:\n        /* \"#utility.yul\":1227:1449   */\n      swap3\n      swap2\n      pop\n      pop\n      jump\t// out\n        /* \"#utility.yul\":1536:1653   */\n    tag_118:\n        /* \"#utility.yul\":1645:1646   */\n      0x00\n        /* \"#utility.yul\":1642:1643   */\n      dup1\n        /* \"#utility.yul\":1635:1647   */\n      revert\n        /* \"#utility.yul\":1782:1904   */\n    tag_120:\n        /* \"#utility.yul\":1855:1879   */\n      tag_173\n        /* \"#utility.yul\":1873:1878   */\n      dup2\n        /* \"#utility.yul\":1855:1879   */\n      tag_115\n      jump\t// in\n    tag_173:\n        /* \"#utility.yul\":1848:1853   */\n      dup2\n        /* \"#utility.yul\":1845:1880   */\n      eq\n        /* \"#utility.yul\":1835:1898   */\n      tag_174\n      jumpi\n        /* \"#utility.yul\":1894:1895   */\n      0x00\n        /* \"#utility.yul\":1891:1892   */\n      dup1\n        /* \"#utility.yul\":1884:1896   */\n      revert\n        /* \"#utility.yul\":1835:1898   */\n    tag_174:\n        /* \"#utility.yul\":1782:1904   */\n      pop\n      jump\t// out\n        /* \"#utility.yul\":1910:2049   */\n    tag_121:\n        /* \"#utility.yul\":1956:1961   */\n      0x00\n        /* \"#utility.yul\":1994:2000   */\n      dup2\n        /* \"#utility.yul\":1981:2001   */\n      calldataload\n        /* \"#utility.yul\":1972:2001   */\n      swap1\n      pop\n        /* \"#utility.yul\":2010:2043   */\n      tag_176\n        /* \"#utility.yul\":2037:2042   */\n      dup2\n        /* \"#utility.yul\":2010:2043   */\n      tag_120\n      jump\t// in\n    tag_176:\n        /* \"#utility.yul\":1910:2049   */\n      swap3\n      swap2\n      pop\n      pop\n      jump\t// out\n        /* \"#utility.yul\":2055:2384   */\n    tag_39:\n        /* \"#utility.yul\":2114:2120   */\n      0x00\n        /* \"#utility.yul\":2163:2165   */\n      0x20\n        /* \"#utility.yul\":2151:2160   */\n      dup3\n        /* \"#utility.yul\":2142:2149   */\n      dup5\n        /* \"#utility.yul\":2138:2161   */\n      sub\n        /* \"#utility.yul\":2134:2166   */\n      slt\n        /* \"#utility.yul\":2131:2250   */\n      iszero\n      tag_178\n      jumpi\n        /* \"#utility.yul\":2169:2248   */\n      tag_179\n      tag_118\n      jump\t// in\n    tag_179:\n        /* \"#utility.yul\":2131:2250   */\n    tag_178:\n        /* \"#utility.yul\":2289:2290   */\n      0x00\n        /* \"#utility.yul\":2314:2367   */\n      tag_180\n        /* \"#utility.yul\":2359:2366   */\n      dup5\n        /* \"#utility.yul\":2350:2356   */\n      dup3\n        /* \"#utility.yul\":2339:2348   */\n      dup6\n        /* \"#utility.yul\":2335:2357   */\n      add\n        /* \"#utility.yul\":2314:2367   */\n      tag_121\n      jump\t// in\n    tag_180:\n        /* \"#utility.yul\":2304:2367   */\n      swap2\n      pop\n        /* \"#utility.yul\":2260:2377   */\n      pop\n        /* \"#utility.yul\":2055:2384   */\n      swap3\n      swap2\n      pop\n      pop\n      jump\t// out\n        /* \"#utility.yul\":2390:2559   */\n    tag_122:\n        /* \"#utility.yul\":2474:2485   */\n      0x00\n        /* \"#utility.yul\":2508:2514   */\n      dup3\n        /* \"#utility.yul\":2503:2506   */\n      dup3\n        /* \"#utility.yul\":2496:2515   */\n      mstore\n        /* \"#utility.yul\":2548:2552   */\n      0x20\n        /* \"#utility.yul\":2543:2546   */\n      dup3\n        /* \"#utility.yul\":2539:2553   */\n      add\n        /* \"#utility.yul\":2524:2553   */\n      swap1\n      pop\n        /* \"#utility.yul\":2390:2559   */\n      swap3\n      swap2\n      pop\n      pop\n      jump\t// out\n        /* \"#utility.yul\":2565:2793   */\n    tag_123:\n        /* \"#utility.yul\":2705:2739   */\n      0x4f6e6c7920746865206f776e6572206f70656e2f63616e20636c6f7365207468\n        /* \"#utility.yul\":2701:2702   */\n      0x00\n        /* \"#utility.yul\":2693:2699   */\n      dup3\n        /* \"#utility.yul\":2689:2703   */\n      add\n        /* \"#utility.yul\":2682:2740   */\n      mstore\n        /* \"#utility.yul\":2774:2785   */\n      0x652061756374696f6e0000000000000000000000000000000000000000000000\n        /* \"#utility.yul\":2769:2771   */\n      0x20\n        /* \"#utility.yul\":2761:2767   */\n      dup3\n        /* \"#utility.yul\":2757:2772   */\n      add\n        /* \"#utility.yul\":2750:2786   */\n      mstore\n        /* \"#utility.yul\":2565:2793   */\n      pop\n      jump\t// out\n        /* \"#utility.yul\":2799:3165   */\n    tag_124:\n        /* \"#utility.yul\":2941:2944   */\n      0x00\n        /* \"#utility.yul\":2962:3029   */\n      tag_184\n        /* \"#utility.yul\":3026:3028   */\n      0x29\n        /* \"#utility.yul\":3021:3024   */\n      dup4\n        /* \"#utility.yul\":2962:3029   */\n      tag_122\n      jump\t// in\n    tag_184:\n        /* \"#utility.yul\":2955:3029   */\n      swap2\n      pop\n        /* \"#utility.yul\":3038:3131   */\n      tag_185\n        /* \"#utility.yul\":3127:3130   */\n      dup3\n        /* \"#utility.yul\":3038:3131   */\n      tag_123\n      jump\t// in\n    tag_185:\n        /* \"#utility.yul\":3156:3158   */\n      0x40\n        /* \"#utility.yul\":3151:3154   */\n      dup3\n        /* \"#utility.yul\":3147:3159   */\n      add\n        /* \"#utility.yul\":3140:3159   */\n      swap1\n      pop\n        /* \"#utility.yul\":2799:3165   */\n      swap2\n      swap1\n      pop\n      jump\t// out\n        /* \"#utility.yul\":3171:3590   */\n    tag_48:\n        /* \"#utility.yul\":3337:3341   */\n      0x00\n        /* \"#utility.yul\":3375:3377   */\n      0x20\n        /* \"#utility.yul\":3364:3373   */\n      dup3\n        /* \"#utility.yul\":3360:3378   */\n      add\n        /* \"#utility.yul\":3352:3378   */\n      swap1\n      pop\n        /* \"#utility.yul\":3424:3433   */\n      dup2\n        /* \"#utility.yul\":3418:3422   */\n      dup2\n        /* \"#utility.yul\":3414:3434   */\n      sub\n        /* \"#utility.yul\":3410:3411   */\n      0x00\n        /* \"#utility.yul\":3399:3408   */\n      dup4\n        /* \"#utility.yul\":3395:3412   */\n      add\n        /* \"#utility.yul\":3388:3435   */\n      mstore\n        /* \"#utility.yul\":3452:3583   */\n      tag_187\n        /* \"#utility.yul\":3578:3582   */\n      dup2\n        /* \"#utility.yul\":3452:3583   */\n      tag_124\n      jump\t// in\n    tag_187:\n        /* \"#utility.yul\":3444:3583   */\n      swap1\n      pop\n        /* \"#utility.yul\":3171:3590   */\n      swap2\n      swap1\n      pop\n      jump\t// out\n        /* \"#utility.yul\":3596:3778   */\n    tag_125:\n        /* \"#utility.yul\":3736:3770   */\n      0x5468652061756374696f6e206861766520746f206f70656e6564206669727374\n        /* \"#utility.yul\":3732:3733   */\n      0x00\n        /* \"#utility.yul\":3724:3730   */\n      dup3\n        /* \"#utility.yul\":3720:3734   */\n      add\n        /* \"#utility.yul\":3713:3771   */\n      mstore\n        /* \"#utility.yul\":3596:3778   */\n      pop\n      jump\t// out\n        /* \"#utility.yul\":3784:4150   */\n    tag_126:\n        /* \"#utility.yul\":3926:3929   */\n      0x00\n        /* \"#utility.yul\":3947:4014   */\n      tag_190\n        /* \"#utility.yul\":4011:4013   */\n      0x20\n        /* \"#utility.yul\":4006:4009   */\n      dup4\n        /* \"#utility.yul\":3947:4014   */\n      tag_122\n      jump\t// in\n    tag_190:\n        /* \"#utility.yul\":3940:4014   */\n      swap2\n      pop\n        /* \"#utility.yul\":4023:4116   */\n      tag_191\n        /* \"#utility.yul\":4112:4115   */\n      dup3\n        /* \"#utility.yul\":4023:4116   */\n      tag_125\n      jump\t// in\n    tag_191:\n        /* \"#utility.yul\":4141:4143   */\n      0x20\n        /* \"#utility.yul\":4136:4139   */\n      dup3\n        /* \"#utility.yul\":4132:4144   */\n      add\n        /* \"#utility.yul\":4125:4144   */\n      swap1\n      pop\n        /* \"#utility.yul\":3784:4150   */\n      swap2\n      swap1\n      pop\n      jump\t// out\n        /* \"#utility.yul\":4156:4575   */\n    tag_52:\n        /* \"#utility.yul\":4322:4326   */\n      0x00\n        /* \"#utility.yul\":4360:4362   */\n      0x20\n        /* \"#utility.yul\":4349:4358   */\n      dup3\n        /* \"#utility.yul\":4345:4363   */\n      add\n        /* \"#utility.yul\":4337:4363   */\n      swap1\n      pop\n        /* \"#utility.yul\":4409:4418   */\n      dup2\n        /* \"#utility.yul\":4403:4407   */\n      dup2\n        /* \"#utility.yul\":4399:4419   */\n      sub\n        /* \"#utility.yul\":4395:4396   */\n      0x00\n        /* \"#utility.yul\":4384:4393   */\n      dup4\n        /* \"#utility.yul\":4380:4397   */\n      add\n        /* \"#utility.yul\":4373:4420   */\n      mstore\n        /* \"#utility.yul\":4437:4568   */\n      tag_193\n        /* \"#utility.yul\":4563:4567   */\n      dup2\n        /* \"#utility.yul\":4437:4568   */\n      tag_126\n      jump\t// in\n    tag_193:\n        /* \"#utility.yul\":4429:4568   */\n      swap1\n      pop\n        /* \"#utility.yul\":4156:4575   */\n      swap2\n      swap1\n      pop\n      jump\t// out\n        /* \"#utility.yul\":4581:4740   */\n    tag_127:\n        /* \"#utility.yul\":4721:4732   */\n      0x6e6f7420656e6465640000000000000000000000000000000000000000000000\n        /* \"#utility.yul\":4717:4718   */\n      0x00\n        /* \"#utility.yul\":4709:4715   */\n      dup3\n        /* \"#utility.yul\":4705:4719   */\n      add\n        /* \"#utility.yul\":4698:4733   */\n      mstore\n        /* \"#utility.yul\":4581:4740   */\n      pop\n      jump\t// out\n        /* \"#utility.yul\":4746:5111   */\n    tag_128:\n        /* \"#utility.yul\":4888:4891   */\n      0x00\n        /* \"#utility.yul\":4909:4975   */\n      tag_196\n        /* \"#utility.yul\":4973:4974   */\n      0x09\n        /* \"#utility.yul\":4968:4971   */\n      dup4\n        /* \"#utility.yul\":4909:4975   */\n      tag_122\n      jump\t// in\n    tag_196:\n        /* \"#utility.yul\":4902:4975   */\n      swap2\n      pop\n        /* \"#utility.yul\":4984:5077   */\n      tag_197\n        /* \"#utility.yul\":5073:5076   */\n      dup3\n        /* \"#utility.yul\":4984:5077   */\n      tag_127\n      jump\t// in\n    tag_197:\n        /* \"#utility.yul\":5102:5104   */\n      0x20\n        /* \"#utility.yul\":5097:5100   */\n      dup3\n        /* \"#utility.yul\":5093:5105   */\n      add\n        /* \"#utility.yul\":5086:5105   */\n      swap1\n      pop\n        /* \"#utility.yul\":4746:5111   */\n      swap2\n      swap1\n      pop\n      jump\t// out\n        /* \"#utility.yul\":5117:5536   */\n    tag_56:\n        /* \"#utility.yul\":5283:5287   */\n      0x00\n        /* \"#utility.yul\":5321:5323   */\n      0x20\n        /* \"#utility.yul\":5310:5319   */\n      dup3\n        /* \"#utility.yul\":5306:5324   */\n      add\n        /* \"#utility.yul\":5298:5324   */\n      swap1\n      pop\n        /* \"#utility.yul\":5370:5379   */\n      dup2\n        /* \"#utility.yul\":5364:5368   */\n      dup2\n        /* \"#utility.yul\":5360:5380   */\n      sub\n        /* \"#utility.yul\":5356:5357   */\n      0x00\n        /* \"#utility.yul\":5345:5354   */\n      dup4\n        /* \"#utility.yul\":5341:5358   */\n      add\n        /* \"#utility.yul\":5334:5381   */\n      mstore\n        /* \"#utility.yul\":5398:5529   */\n      tag_199\n        /* \"#utility.yul\":5524:5528   */\n      dup2\n        /* \"#utility.yul\":5398:5529   */\n      tag_128\n      jump\t// in\n    tag_199:\n        /* \"#utility.yul\":5390:5529   */\n      swap1\n      pop\n        /* \"#utility.yul\":5117:5536   */\n      swap2\n      swap1\n      pop\n      jump\t// out\n        /* \"#utility.yul\":5542:5602   */\n    tag_129:\n        /* \"#utility.yul\":5570:5573   */\n      0x00\n        /* \"#utility.yul\":5591:5596   */\n      dup2\n        /* \"#utility.yul\":5584:5596   */\n      swap1\n      pop\n        /* \"#utility.yul\":5542:5602   */\n      swap2\n      swap1\n      pop\n      jump\t// out\n        /* \"#utility.yul\":5608:5750   */\n    tag_130:\n        /* \"#utility.yul\":5658:5667   */\n      0x00\n        /* \"#utility.yul\":5691:5744   */\n      tag_202\n        /* \"#utility.yul\":5709:5743   */\n      tag_203\n        /* \"#utility.yul\":5718:5742   */\n      tag_204\n        /* \"#utility.yul\":5736:5741   */\n      dup5\n        /* \"#utility.yul\":5718:5742   */\n      tag_114\n      jump\t// in\n    tag_204:\n        /* \"#utility.yul\":5709:5743   */\n      tag_129\n      jump\t// in\n    tag_203:\n        /* \"#utility.yul\":5691:5744   */\n      tag_114\n      jump\t// in\n    tag_202:\n        /* \"#utility.yul\":5678:5744   */\n      swap1\n      pop\n        /* \"#utility.yul\":5608:5750   */\n      swap2\n      swap1\n      pop\n      jump\t// out\n        /* \"#utility.yul\":5756:5882   */\n    tag_131:\n        /* \"#utility.yul\":5806:5815   */\n      0x00\n        /* \"#utility.yul\":5839:5876   */\n      tag_206\n        /* \"#utility.yul\":5870:5875   */\n      dup3\n        /* \"#utility.yul\":5839:5876   */\n      tag_130\n      jump\t// in\n    tag_206:\n        /* \"#utility.yul\":5826:5876   */\n      swap1\n      pop\n        /* \"#utility.yul\":5756:5882   */\n      swap2\n      swap1\n      pop\n      jump\t// out\n        /* \"#utility.yul\":5888:6022   */\n    tag_132:\n        /* \"#utility.yul\":5946:5955   */\n      0x00\n        /* \"#utility.yul\":5979:6016   */\n      tag_208\n        /* \"#utility.yul\":6010:6015   */\n      dup3\n        /* \"#utility.yul\":5979:6016   */\n      tag_131\n      jump\t// in\n    tag_208:\n        /* \"#utility.yul\":5966:6016   */\n      swap1\n      pop\n        /* \"#utility.yul\":5888:6022   */\n      swap2\n      swap1\n      pop\n      jump\t// out\n        /* \"#utility.yul\":6028:6175   */\n    tag_133:\n        /* \"#utility.yul\":6123:6168   */\n      tag_210\n        /* \"#utility.yul\":6162:6167   */\n      dup2\n        /* \"#utility.yul\":6123:6168   */\n      tag_132\n      jump\t// in\n    tag_210:\n        /* \"#utility.yul\":6118:6121   */\n      dup3\n        /* \"#utility.yul\":6111:6169   */\n      mstore\n        /* \"#utility.yul\":6028:6175   */\n      pop\n      pop\n      jump\t// out\n        /* \"#utility.yul\":6181:6639   */\n    tag_58:\n        /* \"#utility.yul\":6338:6342   */\n      0x00\n        /* \"#utility.yul\":6376:6378   */\n      0x60\n        /* \"#utility.yul\":6365:6374   */\n      dup3\n        /* \"#utility.yul\":6361:6379   */\n      add\n        /* \"#utility.yul\":6353:6379   */\n      swap1\n      pop\n        /* \"#utility.yul\":6389:6468   */\n      tag_212\n        /* \"#utility.yul\":6465:6466   */\n      0x00\n        /* \"#utility.yul\":6454:6463   */\n      dup4\n        /* \"#utility.yul\":6450:6467   */\n      add\n        /* \"#utility.yul\":6441:6447   */\n      dup7\n        /* \"#utility.yul\":6389:6468   */\n      tag_133\n      jump\t// in\n    tag_212:\n        /* \"#utility.yul\":6478:6550   */\n      tag_213\n        /* \"#utility.yul\":6546:6548   */\n      0x20\n        /* \"#utility.yul\":6535:6544   */\n      dup4\n        /* \"#utility.yul\":6531:6549   */\n      add\n        /* \"#utility.yul\":6522:6528   */\n      dup6\n        /* \"#utility.yul\":6478:6550   */\n      tag_116\n      jump\t// in\n    tag_213:\n        /* \"#utility.yul\":6560:6632   */\n      tag_214\n        /* \"#utility.yul\":6628:6630   */\n      0x40\n        /* \"#utility.yul\":6617:6626   */\n      dup4\n        /* \"#utility.yul\":6613:6631   */\n      add\n        /* \"#utility.yul\":6604:6610   */\n      dup5\n        /* \"#utility.yul\":6560:6632   */\n      tag_113\n      jump\t// in\n    tag_214:\n        /* \"#utility.yul\":6181:6639   */\n      swap5\n      swap4\n      pop\n      pop\n      pop\n      pop\n      jump\t// out\n        /* \"#utility.yul\":6645:6884   */\n    tag_134:\n        /* \"#utility.yul\":6785:6819   */\n      0x536f6c6f20696c2076696e6369746f72652064656c6c27617374612070756f27\n        /* \"#utility.yul\":6781:6782   */\n      0x00\n        /* \"#utility.yul\":6773:6779   */\n      dup3\n        /* \"#utility.yul\":6769:6783   */\n      add\n        /* \"#utility.yul\":6762:6820   */\n      mstore\n        /* \"#utility.yul\":6854:6876   */\n      0x207269746972617265206c612076696e63697461000000000000000000000000\n        /* \"#utility.yul\":6849:6851   */\n      0x20\n        /* \"#utility.yul\":6841:6847   */\n      dup3\n        /* \"#utility.yul\":6837:6852   */\n      add\n        /* \"#utility.yul\":6830:6877   */\n      mstore\n        /* \"#utility.yul\":6645:6884   */\n      pop\n      jump\t// out\n        /* \"#utility.yul\":6890:7256   */\n    tag_135:\n        /* \"#utility.yul\":7032:7035   */\n      0x00\n        /* \"#utility.yul\":7053:7120   */\n      tag_217\n        /* \"#utility.yul\":7117:7119   */\n      0x34\n        /* \"#utility.yul\":7112:7115   */\n      dup4\n        /* \"#utility.yul\":7053:7120   */\n      tag_122\n      jump\t// in\n    tag_217:\n        /* \"#utility.yul\":7046:7120   */\n      swap2\n      pop\n        /* \"#utility.yul\":7129:7222   */\n      tag_218\n        /* \"#utility.yul\":7218:7221   */\n      dup3\n        /* \"#utility.yul\":7129:7222   */\n      tag_134\n      jump\t// in\n    tag_218:\n        /* \"#utility.yul\":7247:7249   */\n      0x40\n        /* \"#utility.yul\":7242:7245   */\n      dup3\n        /* \"#utility.yul\":7238:7250   */\n      add\n        /* \"#utility.yul\":7231:7250   */\n      swap1\n      pop\n        /* \"#utility.yul\":6890:7256   */\n      swap2\n      swap1\n      pop\n      jump\t// out\n        /* \"#utility.yul\":7262:7681   */\n    tag_66:\n        /* \"#utility.yul\":7428:7432   */\n      0x00\n        /* \"#utility.yul\":7466:7468   */\n      0x20\n        /* \"#utility.yul\":7455:7464   */\n      dup3\n        /* \"#utility.yul\":7451:7469   */\n      add\n        /* \"#utility.yul\":7443:7469   */\n      swap1\n      pop\n        /* \"#utility.yul\":7515:7524   */\n      dup2\n        /* \"#utility.yul\":7509:7513   */\n      dup2\n        /* \"#utility.yul\":7505:7525   */\n      sub\n        /* \"#utility.yul\":7501:7502   */\n      0x00\n        /* \"#utility.yul\":7490:7499   */\n      dup4\n        /* \"#utility.yul\":7486:7503   */\n      add\n        /* \"#utility.yul\":7479:7526   */\n      mstore\n        /* \"#utility.yul\":7543:7674   */\n      tag_220\n        /* \"#utility.yul\":7669:7673   */\n      dup2\n        /* \"#utility.yul\":7543:7674   */\n      tag_135\n      jump\t// in\n    tag_220:\n        /* \"#utility.yul\":7535:7674   */\n      swap1\n      pop\n        /* \"#utility.yul\":7262:7681   */\n      swap2\n      swap1\n      pop\n      jump\t// out\n        /* \"#utility.yul\":7687:7864   */\n    tag_136:\n        /* \"#utility.yul\":7827:7856   */\n      0x5468652061756374696f6e206973207374696c6c206f70656e65640000000000\n        /* \"#utility.yul\":7823:7824   */\n      0x00\n        /* \"#utility.yul\":7815:7821   */\n      dup3\n        /* \"#utility.yul\":7811:7825   */\n      add\n        /* \"#utility.yul\":7804:7857   */\n      mstore\n        /* \"#utility.yul\":7687:7864   */\n      pop\n      jump\t// out\n        /* \"#utility.yul\":7870:8236   */\n    tag_137:\n        /* \"#utility.yul\":8012:8015   */\n      0x00\n        /* \"#utility.yul\":8033:8100   */\n      tag_223\n        /* \"#utility.yul\":8097:8099   */\n      0x1b\n        /* \"#utility.yul\":8092:8095   */\n      dup4\n        /* \"#utility.yul\":8033:8100   */\n      tag_122\n      jump\t// in\n    tag_223:\n        /* \"#utility.yul\":8026:8100   */\n      swap2\n      pop\n        /* \"#utility.yul\":8109:8202   */\n      tag_224\n        /* \"#utility.yul\":8198:8201   */\n      dup3\n        /* \"#utility.yul\":8109:8202   */\n      tag_136\n      jump\t// in\n    tag_224:\n        /* \"#utility.yul\":8227:8229   */\n      0x20\n        /* \"#utility.yul\":8222:8225   */\n      dup3\n        /* \"#utility.yul\":8218:8230   */\n      add\n        /* \"#utility.yul\":8211:8230   */\n      swap1\n      pop\n        /* \"#utility.yul\":7870:8236   */\n      swap2\n      swap1\n      pop\n      jump\t// out\n        /* \"#utility.yul\":8242:8661   */\n    tag_69:\n        /* \"#utility.yul\":8408:8412   */\n      0x00\n        /* \"#utility.yul\":8446:8448   */\n      0x20\n        /* \"#utility.yul\":8435:8444   */\n      dup3\n        /* \"#utility.yul\":8431:8449   */\n      add\n        /* \"#utility.yul\":8423:8449   */\n      swap1\n      pop\n        /* \"#utility.yul\":8495:8504   */\n      dup2\n        /* \"#utility.yul\":8489:8493   */\n      dup2\n        /* \"#utility.yul\":8485:8505   */\n      sub\n        /* \"#utility.yul\":8481:8482   */\n      0x00\n        /* \"#utility.yul\":8470:8479   */\n      dup4\n        /* \"#utility.yul\":8466:8483   */\n      add\n        /* \"#utility.yul\":8459:8506   */\n      mstore\n        /* \"#utility.yul\":8523:8654   */\n      tag_226\n        /* \"#utility.yul\":8649:8653   */\n      dup2\n        /* \"#utility.yul\":8523:8654   */\n      tag_137\n      jump\t// in\n    tag_226:\n        /* \"#utility.yul\":8515:8654   */\n      swap1\n      pop\n        /* \"#utility.yul\":8242:8661   */\n      swap2\n      swap1\n      pop\n      jump\t// out\n        /* \"#utility.yul\":8667:8847   */\n    tag_138:\n        /* \"#utility.yul\":8715:8792   */\n      0x4e487b7100000000000000000000000000000000000000000000000000000000\n        /* \"#utility.yul\":8712:8713   */\n      0x00\n        /* \"#utility.yul\":8705:8793   */\n      mstore\n        /* \"#utility.yul\":8812:8816   */\n      0x22\n        /* \"#utility.yul\":8809:8810   */\n      0x04\n        /* \"#utility.yul\":8802:8817   */\n      mstore\n        /* \"#utility.yul\":8836:8840   */\n      0x24\n        /* \"#utility.yul\":8833:8834   */\n      0x00\n        /* \"#utility.yul\":8826:8841   */\n      revert\n        /* \"#utility.yul\":8853:9173   */\n    tag_139:\n        /* \"#utility.yul\":8897:8903   */\n      0x00\n        /* \"#utility.yul\":8934:8935   */\n      0x02\n        /* \"#utility.yul\":8928:8932   */\n      dup3\n        /* \"#utility.yul\":8924:8936   */\n      div\n        /* \"#utility.yul\":8914:8936   */\n      swap1\n      pop\n        /* \"#utility.yul\":8981:8982   */\n      0x01\n        /* \"#utility.yul\":8975:8979   */\n      dup3\n        /* \"#utility.yul\":8971:8983   */\n      and\n        /* \"#utility.yul\":9002:9020   */\n      dup1\n        /* \"#utility.yul\":8992:9073   */\n      tag_229\n      jumpi\n        /* \"#utility.yul\":9058:9062   */\n      0x7f\n        /* \"#utility.yul\":9050:9056   */\n      dup3\n        /* \"#utility.yul\":9046:9063   */\n      and\n        /* \"#utility.yul\":9036:9063   */\n      swap2\n      pop\n        /* \"#utility.yul\":8992:9073   */\n    tag_229:\n        /* \"#utility.yul\":9120:9122   */\n      0x20\n        /* \"#utility.yul\":9112:9118   */\n      dup3\n        /* \"#utility.yul\":9109:9123   */\n      lt\n        /* \"#utility.yul\":9089:9107   */\n      dup2\n        /* \"#utility.yul\":9086:9124   */\n      sub\n        /* \"#utility.yul\":9083:9167   */\n      tag_230\n      jumpi\n        /* \"#utility.yul\":9139:9157   */\n      tag_231\n      tag_138\n      jump\t// in\n    tag_231:\n        /* \"#utility.yul\":9083:9167   */\n    tag_230:\n        /* \"#utility.yul\":8904:9173   */\n      pop\n        /* \"#utility.yul\":8853:9173   */\n      swap2\n      swap1\n      pop\n      jump\t// out\n        /* \"#utility.yul\":9179:9320   */\n    tag_140:\n        /* \"#utility.yul\":9228:9232   */\n      0x00\n        /* \"#utility.yul\":9251:9254   */\n      dup2\n        /* \"#utility.yul\":9243:9254   */\n      swap1\n      pop\n        /* \"#utility.yul\":9274:9277   */\n      dup2\n        /* \"#utility.yul\":9271:9272   */\n      0x00\n        /* \"#utility.yul\":9264:9278   */\n      mstore\n        /* \"#utility.yul\":9308:9312   */\n      0x20\n        /* \"#utility.yul\":9305:9306   */\n      0x00\n        /* \"#utility.yul\":9295:9313   */\n      keccak256\n        /* \"#utility.yul\":9287:9313   */\n      swap1\n      pop\n        /* \"#utility.yul\":9179:9320   */\n      swap2\n      swap1\n      pop\n      jump\t// out\n        /* \"#utility.yul\":9350:10181   */\n    tag_141:\n        /* \"#utility.yul\":9435:9438   */\n      0x00\n        /* \"#utility.yul\":9472:9477   */\n      dup2\n        /* \"#utility.yul\":9466:9478   */\n      sload\n        /* \"#utility.yul\":9501:9537   */\n      tag_234\n        /* \"#utility.yul\":9527:9536   */\n      dup2\n        /* \"#utility.yul\":9501:9537   */\n      tag_139\n      jump\t// in\n    tag_234:\n        /* \"#utility.yul\":9553:9624   */\n      tag_235\n        /* \"#utility.yul\":9617:9623   */\n      dup2\n        /* \"#utility.yul\":9612:9615   */\n      dup7\n        /* \"#utility.yul\":9553:9624   */\n      tag_122\n      jump\t// in\n    tag_235:\n        /* \"#utility.yul\":9546:9624   */\n      swap5\n      pop\n        /* \"#utility.yul\":9655:9656   */\n      0x01\n        /* \"#utility.yul\":9644:9653   */\n      dup3\n        /* \"#utility.yul\":9640:9657   */\n      and\n        /* \"#utility.yul\":9671:9672   */\n      0x00\n        /* \"#utility.yul\":9666:9830   */\n      dup2\n      eq\n      tag_237\n      jumpi\n        /* \"#utility.yul\":9844:9845   */\n      0x01\n        /* \"#utility.yul\":9839:10175   */\n      dup2\n      eq\n      tag_238\n      jumpi\n        /* \"#utility.yul\":9633:10175   */\n      jump(tag_236)\n        /* \"#utility.yul\":9666:9830   */\n    tag_237:\n        /* \"#utility.yul\":9750:9754   */\n      0xff\n        /* \"#utility.yul\":9746:9755   */\n      not\n        /* \"#utility.yul\":9735:9744   */\n      dup4\n        /* \"#utility.yul\":9731:9756   */\n      and\n        /* \"#utility.yul\":9726:9729   */\n      dup7\n        /* \"#utility.yul\":9719:9757   */\n      mstore\n        /* \"#utility.yul\":9810:9816   */\n      dup2\n        /* \"#utility.yul\":9803:9817   */\n      iszero\n        /* \"#utility.yul\":9796:9818   */\n      iszero\n        /* \"#utility.yul\":9790:9794   */\n      0x20\n        /* \"#utility.yul\":9786:9819   */\n      mul\n        /* \"#utility.yul\":9781:9784   */\n      dup7\n        /* \"#utility.yul\":9777:9820   */\n      add\n        /* \"#utility.yul\":9770:9820   */\n      swap4\n      pop\n        /* \"#utility.yul\":9666:9830   */\n      jump(tag_236)\n        /* \"#utility.yul\":9839:10175   */\n    tag_238:\n        /* \"#utility.yul\":9906:9944   */\n      tag_239\n        /* \"#utility.yul\":9938:9943   */\n      dup6\n        /* \"#utility.yul\":9906:9944   */\n      tag_140\n      jump\t// in\n    tag_239:\n        /* \"#utility.yul\":9966:9967   */\n      0x00\n        /* \"#utility.yul\":9980:10134   */\n    tag_240:\n        /* \"#utility.yul\":9994:10000   */\n      dup4\n        /* \"#utility.yul\":9991:9992   */\n      dup2\n        /* \"#utility.yul\":9988:10001   */\n      lt\n        /* \"#utility.yul\":9980:10134   */\n      iszero\n      tag_242\n      jumpi\n        /* \"#utility.yul\":10068:10075   */\n      dup2\n        /* \"#utility.yul\":10062:10076   */\n      sload\n        /* \"#utility.yul\":10058:10059   */\n      dup2\n        /* \"#utility.yul\":10053:10056   */\n      dup10\n        /* \"#utility.yul\":10049:10060   */\n      add\n        /* \"#utility.yul\":10042:10077   */\n      mstore\n        /* \"#utility.yul\":10118:10119   */\n      0x01\n        /* \"#utility.yul\":10109:10116   */\n      dup3\n        /* \"#utility.yul\":10105:10120   */\n      add\n        /* \"#utility.yul\":10094:10120   */\n      swap2\n      pop\n        /* \"#utility.yul\":10016:10020   */\n      0x20\n        /* \"#utility.yul\":10013:10014   */\n      dup2\n        /* \"#utility.yul\":10009:10021   */\n      add\n        /* \"#utility.yul\":10004:10021   */\n      swap1\n      pop\n        /* \"#utility.yul\":9980:10134   */\n      jump(tag_240)\n    tag_242:\n        /* \"#utility.yul\":10163:10164   */\n      dup1\n        /* \"#utility.yul\":10158:10161   */\n      dup9\n        /* \"#utility.yul\":10154:10165   */\n      add\n        /* \"#utility.yul\":10147:10165   */\n      swap6\n      pop\n        /* \"#utility.yul\":9846:10175   */\n      pop\n      pop\n        /* \"#utility.yul\":9633:10175   */\n    tag_236:\n      pop\n        /* \"#utility.yul\":9439:10181   */\n      pop\n      pop\n        /* \"#utility.yul\":9350:10181   */\n      swap3\n      swap2\n      pop\n      pop\n      jump\t// out\n        /* \"#utility.yul\":10187:10604   */\n    tag_71:\n        /* \"#utility.yul\":10325:10329   */\n      0x00\n        /* \"#utility.yul\":10363:10365   */\n      0x40\n        /* \"#utility.yul\":10352:10361   */\n      dup3\n        /* \"#utility.yul\":10348:10366   */\n      add\n        /* \"#utility.yul\":10340:10366   */\n      swap1\n      pop\n        /* \"#utility.yul\":10376:10447   */\n      tag_244\n        /* \"#utility.yul\":10444:10445   */\n      0x00\n        /* \"#utility.yul\":10433:10442   */\n      dup4\n        /* \"#utility.yul\":10429:10446   */\n      add\n        /* \"#utility.yul\":10420:10426   */\n      dup6\n        /* \"#utility.yul\":10376:10447   */\n      tag_116\n      jump\t// in\n    tag_244:\n        /* \"#utility.yul\":10494:10503   */\n      dup2\n        /* \"#utility.yul\":10488:10492   */\n      dup2\n        /* \"#utility.yul\":10484:10504   */\n      sub\n        /* \"#utility.yul\":10479:10481   */\n      0x20\n        /* \"#utility.yul\":10468:10477   */\n      dup4\n        /* \"#utility.yul\":10464:10482   */\n      add\n        /* \"#utility.yul\":10457:10505   */\n      mstore\n        /* \"#utility.yul\":10522:10597   */\n      tag_245\n        /* \"#utility.yul\":10592:10596   */\n      dup2\n        /* \"#utility.yul\":10583:10589   */\n      dup5\n        /* \"#utility.yul\":10522:10597   */\n      tag_141\n      jump\t// in\n    tag_245:\n        /* \"#utility.yul\":10514:10597   */\n      swap1\n      pop\n        /* \"#utility.yul\":10187:10604   */\n      swap4\n      swap3\n      pop\n      pop\n      pop\n      jump\t// out\n        /* \"#utility.yul\":10610:10845   */\n    tag_142:\n        /* \"#utility.yul\":10750:10784   */\n      0x496c2076696e6369746f72652064656c6c2761737461206e6f6e2070756f2720\n        /* \"#utility.yul\":10746:10747   */\n      0x00\n        /* \"#utility.yul\":10738:10744   */\n      dup3\n        /* \"#utility.yul\":10734:10748   */\n      add\n        /* \"#utility.yul\":10727:10785   */\n      mstore\n        /* \"#utility.yul\":10819:10837   */\n      0x7269746972617265206920666f6e646900000000000000000000000000000000\n        /* \"#utility.yul\":10814:10816   */\n      0x20\n        /* \"#utility.yul\":10806:10812   */\n      dup3\n        /* \"#utility.yul\":10802:10817   */\n      add\n        /* \"#utility.yul\":10795:10838   */\n      mstore\n        /* \"#utility.yul\":10610:10845   */\n      pop\n      jump\t// out\n        /* \"#utility.yul\":10851:11217   */\n    tag_143:\n        /* \"#utility.yul\":10993:10996   */\n      0x00\n        /* \"#utility.yul\":11014:11081   */\n      tag_248\n        /* \"#utility.yul\":11078:11080   */\n      0x30\n        /* \"#utility.yul\":11073:11076   */\n      dup4\n        /* \"#utility.yul\":11014:11081   */\n      tag_122\n      jump\t// in\n    tag_248:\n        /* \"#utility.yul\":11007:11081   */\n      swap2\n      pop\n        /* \"#utility.yul\":11090:11183   */\n      tag_249\n        /* \"#utility.yul\":11179:11182   */\n      dup3\n        /* \"#utility.yul\":11090:11183   */\n      tag_142\n      jump\t// in\n    tag_249:\n        /* \"#utility.yul\":11208:11210   */\n      0x40\n        /* \"#utility.yul\":11203:11206   */\n      dup3\n        /* \"#utility.yul\":11199:11211   */\n      add\n        /* \"#utility.yul\":11192:11211   */\n      swap1\n      pop\n        /* \"#utility.yul\":10851:11217   */\n      swap2\n      swap1\n      pop\n      jump\t// out\n        /* \"#utility.yul\":11223:11642   */\n    tag_80:\n        /* \"#utility.yul\":11389:11393   */\n      0x00\n        /* \"#utility.yul\":11427:11429   */\n      0x20\n        /* \"#utility.yul\":11416:11425   */\n      dup3\n        /* \"#utility.yul\":11412:11430   */\n      add\n        /* \"#utility.yul\":11404:11430   */\n      swap1\n      pop\n        /* \"#utility.yul\":11476:11485   */\n      dup2\n        /* \"#utility.yul\":11470:11474   */\n      dup2\n        /* \"#utility.yul\":11466:11486   */\n      sub\n        /* \"#utility.yul\":11462:11463   */\n      0x00\n        /* \"#utility.yul\":11451:11460   */\n      dup4\n        /* \"#utility.yul\":11447:11464   */\n      add\n        /* \"#utility.yul\":11440:11487   */\n      mstore\n        /* \"#utility.yul\":11504:11635   */\n      tag_251\n        /* \"#utility.yul\":11630:11634   */\n      dup2\n        /* \"#utility.yul\":11504:11635   */\n      tag_143\n      jump\t// in\n    tag_251:\n        /* \"#utility.yul\":11496:11635   */\n      swap1\n      pop\n        /* \"#utility.yul\":11223:11642   */\n      swap2\n      swap1\n      pop\n      jump\t// out\n        /* \"#utility.yul\":11648:11980   */\n    tag_84:\n        /* \"#utility.yul\":11769:11773   */\n      0x00\n        /* \"#utility.yul\":11807:11809   */\n      0x40\n        /* \"#utility.yul\":11796:11805   */\n      dup3\n        /* \"#utility.yul\":11792:11810   */\n      add\n        /* \"#utility.yul\":11784:11810   */\n      swap1\n      pop\n        /* \"#utility.yul\":11820:11891   */\n      tag_253\n        /* \"#utility.yul\":11888:11889   */\n      0x00\n        /* \"#utility.yul\":11877:11886   */\n      dup4\n        /* \"#utility.yul\":11873:11890   */\n      add\n        /* \"#utility.yul\":11864:11870   */\n      dup6\n        /* \"#utility.yul\":11820:11891   */\n      tag_116\n      jump\t// in\n    tag_253:\n        /* \"#utility.yul\":11901:11973   */\n      tag_254\n        /* \"#utility.yul\":11969:11971   */\n      0x20\n        /* \"#utility.yul\":11958:11967   */\n      dup4\n        /* \"#utility.yul\":11954:11972   */\n      add\n        /* \"#utility.yul\":11945:11951   */\n      dup5\n        /* \"#utility.yul\":11901:11973   */\n      tag_113\n      jump\t// in\n    tag_254:\n        /* \"#utility.yul\":11648:11980   */\n      swap4\n      swap3\n      pop\n      pop\n      pop\n      jump\t// out\n        /* \"#utility.yul\":11986:12211   */\n    tag_144:\n        /* \"#utility.yul\":12126:12160   */\n      0x4c276f666665727461206661747461206e6f6e20737570657261206c61206d69\n        /* \"#utility.yul\":12122:12123   */\n      0x00\n        /* \"#utility.yul\":12114:12120   */\n      dup3\n        /* \"#utility.yul\":12110:12124   */\n      add\n        /* \"#utility.yul\":12103:12161   */\n      mstore\n        /* \"#utility.yul\":12195:12203   */\n      0x676c696f72650000000000000000000000000000000000000000000000000000\n        /* \"#utility.yul\":12190:12192   */\n      0x20\n        /* \"#utility.yul\":12182:12188   */\n      dup3\n        /* \"#utility.yul\":12178:12193   */\n      add\n        /* \"#utility.yul\":12171:12204   */\n      mstore\n        /* \"#utility.yul\":11986:12211   */\n      pop\n      jump\t// out\n        /* \"#utility.yul\":12217:12583   */\n    tag_145:\n        /* \"#utility.yul\":12359:12362   */\n      0x00\n        /* \"#utility.yul\":12380:12447   */\n      tag_257\n        /* \"#utility.yul\":12444:12446   */\n      0x26\n        /* \"#utility.yul\":12439:12442   */\n      dup4\n        /* \"#utility.yul\":12380:12447   */\n      tag_122\n      jump\t// in\n    tag_257:\n        /* \"#utility.yul\":12373:12447   */\n      swap2\n      pop\n        /* \"#utility.yul\":12456:12549   */\n      tag_258\n        /* \"#utility.yul\":12545:12548   */\n      dup3\n        /* \"#utility.yul\":12456:12549   */\n      tag_144\n      jump\t// in\n    tag_258:\n        /* \"#utility.yul\":12574:12576   */\n      0x40\n        /* \"#utility.yul\":12569:12572   */\n      dup3\n        /* \"#utility.yul\":12565:12577   */\n      add\n        /* \"#utility.yul\":12558:12577   */\n      swap1\n      pop\n        /* \"#utility.yul\":12217:12583   */\n      swap2\n      swap1\n      pop\n      jump\t// out\n        /* \"#utility.yul\":12589:13008   */\n    tag_93:\n        /* \"#utility.yul\":12755:12759   */\n      0x00\n        /* \"#utility.yul\":12793:12795   */\n      0x20\n        /* \"#utility.yul\":12782:12791   */\n      dup3\n        /* \"#utility.yul\":12778:12796   */\n      add\n        /* \"#utility.yul\":12770:12796   */\n      swap1\n      pop\n        /* \"#utility.yul\":12842:12851   */\n      dup2\n        /* \"#utility.yul\":12836:12840   */\n      dup2\n        /* \"#utility.yul\":12832:12852   */\n      sub\n        /* \"#utility.yul\":12828:12829   */\n      0x00\n        /* \"#utility.yul\":12817:12826   */\n      dup4\n        /* \"#utility.yul\":12813:12830   */\n      add\n        /* \"#utility.yul\":12806:12853   */\n      mstore\n        /* \"#utility.yul\":12870:13001   */\n      tag_260\n        /* \"#utility.yul\":12996:13000   */\n      dup2\n        /* \"#utility.yul\":12870:13001   */\n      tag_145\n      jump\t// in\n    tag_260:\n        /* \"#utility.yul\":12862:13001   */\n      swap1\n      pop\n        /* \"#utility.yul\":12589:13008   */\n      swap2\n      swap1\n      pop\n      jump\t// out\n        /* \"#utility.yul\":13014:13169   */\n    tag_146:\n        /* \"#utility.yul\":13154:13161   */\n      0x656e646564000000000000000000000000000000000000000000000000000000\n        /* \"#utility.yul\":13150:13151   */\n      0x00\n        /* \"#utility.yul\":13142:13148   */\n      dup3\n        /* \"#utility.yul\":13138:13152   */\n      add\n        /* \"#utility.yul\":13131:13162   */\n      mstore\n        /* \"#utility.yul\":13014:13169   */\n      pop\n      jump\t// out\n        /* \"#utility.yul\":13175:13540   */\n    tag_147:\n        /* \"#utility.yul\":13317:13320   */\n      0x00\n        /* \"#utility.yul\":13338:13404   */\n      tag_263\n        /* \"#utility.yul\":13402:13403   */\n      0x05\n        /* \"#utility.yul\":13397:13400   */\n      dup4\n        /* \"#utility.yul\":13338:13404   */\n      tag_122\n      jump\t// in\n    tag_263:\n        /* \"#utility.yul\":13331:13404   */\n      swap2\n      pop\n        /* \"#utility.yul\":13413:13506   */\n      tag_264\n        /* \"#utility.yul\":13502:13505   */\n      dup3\n        /* \"#utility.yul\":13413:13506   */\n      tag_146\n      jump\t// in\n    tag_264:\n        /* \"#utility.yul\":13531:13533   */\n      0x20\n        /* \"#utility.yul\":13526:13529   */\n      dup3\n        /* \"#utility.yul\":13522:13534   */\n      add\n        /* \"#utility.yul\":13515:13534   */\n      swap1\n      pop\n        /* \"#utility.yul\":13175:13540   */\n      swap2\n      swap1\n      pop\n      jump\t// out\n        /* \"#utility.yul\":13546:13965   */\n    tag_96:\n        /* \"#utility.yul\":13712:13716   */\n      0x00\n        /* \"#utility.yul\":13750:13752   */\n      0x20\n        /* \"#utility.yul\":13739:13748   */\n      dup3\n        /* \"#utility.yul\":13735:13753   */\n      add\n        /* \"#utility.yul\":13727:13753   */\n      swap1\n      pop\n        /* \"#utility.yul\":13799:13808   */\n      dup2\n        /* \"#utility.yul\":13793:13797   */\n      dup2\n        /* \"#utility.yul\":13789:13809   */\n      sub\n        /* \"#utility.yul\":13785:13786   */\n      0x00\n        /* \"#utility.yul\":13774:13783   */\n      dup4\n        /* \"#utility.yul\":13770:13787   */\n      add\n        /* \"#utility.yul\":13763:13810   */\n      mstore\n        /* \"#utility.yul\":13827:13958   */\n      tag_266\n        /* \"#utility.yul\":13953:13957   */\n      dup2\n        /* \"#utility.yul\":13827:13958   */\n      tag_147\n      jump\t// in\n    tag_266:\n        /* \"#utility.yul\":13819:13958   */\n      swap1\n      pop\n        /* \"#utility.yul\":13546:13965   */\n      swap2\n      swap1\n      pop\n      jump\t// out\n        /* \"#utility.yul\":13971:14141   */\n    tag_148:\n        /* \"#utility.yul\":14111:14133   */\n      0x4e6577206269642069732070726f706f7365643a000000000000000000000000\n        /* \"#utility.yul\":14107:14108   */\n      0x00\n        /* \"#utility.yul\":14099:14105   */\n      dup3\n        /* \"#utility.yul\":14095:14109   */\n      add\n        /* \"#utility.yul\":14088:14134   */\n      mstore\n        /* \"#utility.yul\":13971:14141   */\n      pop\n      jump\t// out\n        /* \"#utility.yul\":14147:14513   */\n    tag_149:\n        /* \"#utility.yul\":14289:14292   */\n      0x00\n        /* \"#utility.yul\":14310:14377   */\n      tag_269\n        /* \"#utility.yul\":14374:14376   */\n      0x14\n        /* \"#utility.yul\":14369:14372   */\n      dup4\n        /* \"#utility.yul\":14310:14377   */\n      tag_122\n      jump\t// in\n    tag_269:\n        /* \"#utility.yul\":14303:14377   */\n      swap2\n      pop\n        /* \"#utility.yul\":14386:14479   */\n      tag_270\n        /* \"#utility.yul\":14475:14478   */\n      dup3\n        /* \"#utility.yul\":14386:14479   */\n      tag_148\n      jump\t// in\n    tag_270:\n        /* \"#utility.yul\":14504:14506   */\n      0x20\n        /* \"#utility.yul\":14499:14502   */\n      dup3\n        /* \"#utility.yul\":14495:14507   */\n      add\n        /* \"#utility.yul\":14488:14507   */\n      swap1\n      pop\n        /* \"#utility.yul\":14147:14513   */\n      swap2\n      swap1\n      pop\n      jump\t// out\n        /* \"#utility.yul\":14519:15158   */\n    tag_98:\n        /* \"#utility.yul\":14741:14745   */\n      0x00\n        /* \"#utility.yul\":14779:14781   */\n      0x60\n        /* \"#utility.yul\":14768:14777   */\n      dup3\n        /* \"#utility.yul\":14764:14782   */\n      add\n        /* \"#utility.yul\":14756:14782   */\n      swap1\n      pop\n        /* \"#utility.yul\":14828:14837   */\n      dup2\n        /* \"#utility.yul\":14822:14826   */\n      dup2\n        /* \"#utility.yul\":14818:14838   */\n      sub\n        /* \"#utility.yul\":14814:14815   */\n      0x00\n        /* \"#utility.yul\":14803:14812   */\n      dup4\n        /* \"#utility.yul\":14799:14816   */\n      add\n        /* \"#utility.yul\":14792:14839   */\n      mstore\n        /* \"#utility.yul\":14856:14987   */\n      tag_272\n        /* \"#utility.yul\":14982:14986   */\n      dup2\n        /* \"#utility.yul\":14856:14987   */\n      tag_149\n      jump\t// in\n    tag_272:\n        /* \"#utility.yul\":14848:14987   */\n      swap1\n      pop\n        /* \"#utility.yul\":14997:15069   */\n      tag_273\n        /* \"#utility.yul\":15065:15067   */\n      0x20\n        /* \"#utility.yul\":15054:15063   */\n      dup4\n        /* \"#utility.yul\":15050:15068   */\n      add\n        /* \"#utility.yul\":15041:15047   */\n      dup6\n        /* \"#utility.yul\":14997:15069   */\n      tag_116\n      jump\t// in\n    tag_273:\n        /* \"#utility.yul\":15079:15151   */\n      tag_274\n        /* \"#utility.yul\":15147:15149   */\n      0x40\n        /* \"#utility.yul\":15136:15145   */\n      dup4\n        /* \"#utility.yul\":15132:15150   */\n      add\n        /* \"#utility.yul\":15123:15129   */\n      dup5\n        /* \"#utility.yul\":15079:15151   */\n      tag_113\n      jump\t// in\n    tag_274:\n        /* \"#utility.yul\":14519:15158   */\n      swap4\n      swap3\n      pop\n      pop\n      pop\n      jump\t// out\n        /* \"#utility.yul\":15164:15344   */\n    tag_150:\n        /* \"#utility.yul\":15212:15289   */\n      0x4e487b7100000000000000000000000000000000000000000000000000000000\n        /* \"#utility.yul\":15209:15210   */\n      0x00\n        /* \"#utility.yul\":15202:15290   */\n      mstore\n        /* \"#utility.yul\":15309:15313   */\n      0x11\n        /* \"#utility.yul\":15306:15307   */\n      0x04\n        /* \"#utility.yul\":15299:15314   */\n      mstore\n        /* \"#utility.yul\":15333:15337   */\n      0x24\n        /* \"#utility.yul\":15330:15331   */\n      0x00\n        /* \"#utility.yul\":15323:15338   */\n      revert\n        /* \"#utility.yul\":15350:15541   */\n    tag_102:\n        /* \"#utility.yul\":15390:15393   */\n      0x00\n        /* \"#utility.yul\":15409:15429   */\n      tag_277\n        /* \"#utility.yul\":15427:15428   */\n      dup3\n        /* \"#utility.yul\":15409:15429   */\n      tag_112\n      jump\t// in\n    tag_277:\n        /* \"#utility.yul\":15404:15429   */\n      swap2\n      pop\n        /* \"#utility.yul\":15443:15463   */\n      tag_278\n        /* \"#utility.yul\":15461:15462   */\n      dup4\n        /* \"#utility.yul\":15443:15463   */\n      tag_112\n      jump\t// in\n    tag_278:\n        /* \"#utility.yul\":15438:15463   */\n      swap3\n      pop\n        /* \"#utility.yul\":15486:15487   */\n      dup3\n        /* \"#utility.yul\":15483:15484   */\n      dup3\n        /* \"#utility.yul\":15479:15488   */\n      add\n        /* \"#utility.yul\":15472:15488   */\n      swap1\n      pop\n        /* \"#utility.yul\":15507:15510   */\n      dup1\n        /* \"#utility.yul\":15504:15505   */\n      dup3\n        /* \"#utility.yul\":15501:15511   */\n      gt\n        /* \"#utility.yul\":15498:15534   */\n      iszero\n      tag_279\n      jumpi\n        /* \"#utility.yul\":15514:15532   */\n      tag_280\n      tag_150\n      jump\t// in\n    tag_280:\n        /* \"#utility.yul\":15498:15534   */\n    tag_279:\n        /* \"#utility.yul\":15350:15541   */\n      swap3\n      swap2\n      pop\n      pop\n      jump\t// out\n        /* \"#utility.yul\":15547:16090   */\n    tag_108:\n        /* \"#utility.yul\":15721:15725   */\n      0x00\n        /* \"#utility.yul\":15759:15761   */\n      0x60\n        /* \"#utility.yul\":15748:15757   */\n      dup3\n        /* \"#utility.yul\":15744:15762   */\n      add\n        /* \"#utility.yul\":15736:15762   */\n      swap1\n      pop\n        /* \"#utility.yul\":15772:15851   */\n      tag_282\n        /* \"#utility.yul\":15848:15849   */\n      0x00\n        /* \"#utility.yul\":15837:15846   */\n      dup4\n        /* \"#utility.yul\":15833:15850   */\n      add\n        /* \"#utility.yul\":15824:15830   */\n      dup7\n        /* \"#utility.yul\":15772:15851   */\n      tag_133\n      jump\t// in\n    tag_282:\n        /* \"#utility.yul\":15898:15907   */\n      dup2\n        /* \"#utility.yul\":15892:15896   */\n      dup2\n        /* \"#utility.yul\":15888:15908   */\n      sub\n        /* \"#utility.yul\":15883:15885   */\n      0x20\n        /* \"#utility.yul\":15872:15881   */\n      dup4\n        /* \"#utility.yul\":15868:15886   */\n      add\n        /* \"#utility.yul\":15861:15909   */\n      mstore\n        /* \"#utility.yul\":15926:16001   */\n      tag_283\n        /* \"#utility.yul\":15996:16000   */\n      dup2\n        /* \"#utility.yul\":15987:15993   */\n      dup6\n        /* \"#utility.yul\":15926:16001   */\n      tag_141\n      jump\t// in\n    tag_283:\n        /* \"#utility.yul\":15918:16001   */\n      swap1\n      pop\n        /* \"#utility.yul\":16011:16083   */\n      tag_284\n        /* \"#utility.yul\":16079:16081   */\n      0x40\n        /* \"#utility.yul\":16068:16077   */\n      dup4\n        /* \"#utility.yul\":16064:16082   */\n      add\n        /* \"#utility.yul\":16055:16061   */\n      dup5\n        /* \"#utility.yul\":16011:16083   */\n      tag_113\n      jump\t// in\n    tag_284:\n        /* \"#utility.yul\":15547:16090   */\n      swap5\n      swap4\n      pop\n      pop\n      pop\n      pop\n      jump\t// out\n\n    auxdata: 0xa26469706673582212207bceca3a722f886996cc3622915fcc1cfccc09f5f83741661510aea2b7762a1b64736f6c63430008130033\n}\n",
				"bytecode": {
					"linkReferences": {},
					"object": "6080604052604051806101400160405280603960ff168152602001605960ff168152602001601760ff168152602001604460ff168152602001600560ff168152602001605e60ff168152602001601160ff168152602001602460ff168152602001602e60ff168152602001604960ff16815250600990600a620000849291906200017e565b503480156200009257600080fd5b5060405162001be738038062001be78339818101604052810190620000b89190620003b5565b336000806101000a81548173ffffffffffffffffffffffffffffffffffffffff021916908373ffffffffffffffffffffffffffffffffffffffff16021790555081600190816200010991906200065c565b50806002819055506000600460006101000a81548173ffffffffffffffffffffffffffffffffffffffff021916908373ffffffffffffffffffffffffffffffffffffffff16021790555060006005819055506000600660006101000a81548160ff021916908315150217905550505062000743565b82600a8101928215620001b5579160200282015b82811115620001b4578251829060ff1690559160200191906001019062000192565b5b509050620001c49190620001c8565b5090565b5b80821115620001e3576000816000905550600101620001c9565b5090565b6000604051905090565b600080fd5b600080fd5b600080fd5b600080fd5b6000601f19601f8301169050919050565b7f4e487b7100000000000000000000000000000000000000000000000000000000600052604160045260246000fd5b620002508262000205565b810181811067ffffffffffffffff8211171562000272576200027162000216565b5b80604052505050565b600062000287620001e7565b905062000295828262000245565b919050565b600067ffffffffffffffff821115620002b857620002b762000216565b5b620002c38262000205565b9050602081019050919050565b60005b83811015620002f0578082015181840152602081019050620002d3565b60008484015250505050565b6000620003136200030d846200029a565b6200027b565b90508281526020810184848401111562000332576200033162000200565b5b6200033f848285620002d0565b509392505050565b600082601f8301126200035f576200035e620001fb565b5b815162000371848260208601620002fc565b91505092915050565b6000819050919050565b6200038f816200037a565b81146200039b57600080fd5b50565b600081519050620003af8162000384565b92915050565b60008060408385031215620003cf57620003ce620001f1565b5b600083015167ffffffffffffffff811115620003f057620003ef620001f6565b5b620003fe8582860162000347565b925050602062000411858286016200039e565b9150509250929050565b600081519050919050565b7f4e487b7100000000000000000000000000000000000000000000000000000000600052602260045260246000fd5b600060028204905060018216806200046e57607f821691505b60208210810362000484576200048362000426565b5b50919050565b60008190508160005260206000209050919050565b60006020601f8301049050919050565b600082821b905092915050565b600060088302620004ee7fffffffffffffffffffffffffffffffffffffffffffffffffffffffffffffffff82620004af565b620004fa8683620004af565b95508019841693508086168417925050509392505050565b6000819050919050565b60006200053d6200053762000531846200037a565b62000512565b6200037a565b9050919050565b6000819050919050565b62000559836200051c565b62000571620005688262000544565b848454620004bc565b825550505050565b600090565b6200058862000579565b620005958184846200054e565b505050565b5b81811015620005bd57620005b16000826200057e565b6001810190506200059b565b5050565b601f8211156200060c57620005d6816200048a565b620005e1846200049f565b81016020851015620005f1578190505b6200060962000600856200049f565b8301826200059a565b50505b505050565b600082821c905092915050565b6000620006316000198460080262000611565b1980831691505092915050565b60006200064c83836200061e565b9150826002028217905092915050565b62000667826200041b565b67ffffffffffffffff81111562000683576200068262000216565b5b6200068f825462000455565b6200069c828285620005c1565b600060209050601f831160018114620006d45760008415620006bf578287015190505b620006cb85826200063e565b8655506200073b565b601f198416620006e4866200048a565b60005b828110156200070e57848901518255600182019150602085019450602081019050620006e7565b868310156200072e57848901516200072a601f8916826200061e565b8355505b6001600288020188555050505b505050505050565b61149480620007536000396000f3fe6080604052600436106100865760003560e01c80638e7ea5b2116100595780638e7ea5b2146101025780639ba33eb51461012d578063c028df0614610137578063fcc8f79314610141578063fcfff16f1461017e57610086565b806343d726d61461008b57806347535d7b146100a25780634df1deb7146100cd5780637cc3ae8c146100d7575b600080fd5b34801561009757600080fd5b506100a0610195565b005b3480156100ae57600080fd5b506100b761035a565b6040516100c49190610c3b565b60405180910390f35b6100d56103c7565b005b3480156100e357600080fd5b506100ec610574565b6040516100f99190610c6f565b60405180910390f35b34801561010e57600080fd5b5061011761057a565b6040516101249190610ccb565b60405180910390f35b6101356105f9565b005b61013f610824565b005b34801561014d57600080fd5b5061016860048036038101906101639190610d17565b610aec565b6040516101759190610c6f565b60405180910390f35b34801561018a57600080fd5b50610193610b04565b005b3373ffffffffffffffffffffffffffffffffffffffff1660008054906101000a900473ffffffffffffffffffffffffffffffffffffffff1673ffffffffffffffffffffffffffffffffffffffff1614610223576040517f08c379a000000000000000000000000000000000000000000000000000000000815260040161021a90610dc7565b60405180910390fd5b60011515600660009054906101000a900460ff16151514610279576040517f08c379a000000000000000000000000000000000000000000000000000000000815260040161027090610e33565b60405180910390fd5b6003544210156102be576040517f08c379a00000000000000000000000000000000000000000000000000000000081526004016102b590610e9f565b60405180910390fd5b6000600660006101000a81548160ff0219169083151502179055507fe810c871ce50ff674e2e5e2a570cf162a6ee85fe638d22afd8c00a57904f86e860008054906101000a900473ffffffffffffffffffffffffffffffffffffffff16600460009054906101000a900473ffffffffffffffffffffffffffffffffffffffff1660055460405161035093929190610f1e565b60405180910390a1565b600060011515600660009054906101000a900460ff161515146103b2576040517f08c379a00000000000000000000000000000000000000000000000000000000081526004016103a990610e33565b60405180910390fd5b600660009054906101000a900460ff16905090565b600460009054906101000a900473ffffffffffffffffffffffffffffffffffffffff1673ffffffffffffffffffffffffffffffffffffffff163373ffffffffffffffffffffffffffffffffffffffff1614610457576040517f08c379a000000000000000000000000000000000000000000000000000000000815260040161044e90610fc7565b60405180910390fd5b60001515600660009054906101000a900460ff161515146104ad576040517f08c379a00000000000000000000000000000000000000000000000000000000081526004016104a490611033565b60405180910390fd5b7f5e8c64c7c4bf81541143e96785b6fe89c8c1c2e524aac8b02d7e09f899a3108e600460009054906101000a900473ffffffffffffffffffffffffffffffffffffffff16600160405161050192919061114c565b60405180910390a160008054906101000a900473ffffffffffffffffffffffffffffffffffffffff1673ffffffffffffffffffffffffffffffffffffffff166108fc6005549081150290604051600060405180830381858888f19350505050158015610571573d6000803e3d6000fd5b50565b60035481565b6000801515600660009054906101000a900460ff161515146105d1576040517f08c379a00000000000000000000000000000000000000000000000000000000081526004016105c890611033565b60405180910390fd5b600460009054906101000a900473ffffffffffffffffffffffffffffffffffffffff16905090565b600460009054906101000a900473ffffffffffffffffffffffffffffffffffffffff1673ffffffffffffffffffffffffffffffffffffffff163373ffffffffffffffffffffffffffffffffffffffff1603610689576040517f08c379a0000000000000000000000000000000000000000000000000000000008152600401610680906111ee565b60405180910390fd5b60001515600660009054906101000a900460ff161515146106df576040517f08c379a00000000000000000000000000000000000000000000000000000000081526004016106d690611033565b60405180910390fd5b7feaff4b37086828766ad3268786972c0cd24259d4c87a80f9d3963a3c3d999b0d33600760003373ffffffffffffffffffffffffffffffffffffffff1673ffffffffffffffffffffffffffffffffffffffff1681526020019081526020016000205460405161074f92919061120e565b60405180910390a13373ffffffffffffffffffffffffffffffffffffffff166108fc600760003373ffffffffffffffffffffffffffffffffffffffff1673ffffffffffffffffffffffffffffffffffffffff168152602001908152602001600020549081150290604051600060405180830381858888f193505050501580156107dc573d6000803e3d6000fd5b506000600760003373ffffffffffffffffffffffffffffffffffffffff1673ffffffffffffffffffffffffffffffffffffffff16815260200190815260200160002081905550565b60011515600660009054906101000a900460ff1615151461087a576040517f08c379a000000000000000000000000000000000000000000000000000000000815260040161087190610e33565b60405180910390fd5b60055434106108be576040517f08c379a00000000000000000000000000000000000000000000000000000000081526004016108b5906112a9565b60405180910390fd5b6003544210610902576040517f08c379a00000000000000000000000000000000000000000000000000000000081526004016108f990611315565b60405180910390fd5b7f7a1ef295a7b3ead528a3d5dc5108df6fbe47739a34aa589a11433b98ce53c60e3334604051610933929190611381565b60405180910390a13460058190555033600460006101000a81548173ffffffffffffffffffffffffffffffffffffffff021916908373ffffffffffffffffffffffffffffffffffffffff160217905550600060076000600460009054906101000a900473ffffffffffffffffffffffffffffffffffffffff1673ffffffffffffffffffffffffffffffffffffffff1673ffffffffffffffffffffffffffffffffffffffff1681526020019081526020016000205403610a72576008600460009054906101000a900473ffffffffffffffffffffffffffffffffffffffff169080600181540180825580915050600190039060005260206000200160009091909190916101000a81548173ffffffffffffffffffffffffffffffffffffffff021916908373ffffffffffffffffffffffffffffffffffffffff1602179055505b3460076000600460009054906101000a900473ffffffffffffffffffffffffffffffffffffffff1673ffffffffffffffffffffffffffffffffffffffff1673ffffffffffffffffffffffffffffffffffffffff1681526020019081526020016000206000828254610ae391906113ec565b92505081905550565b60076020528060005260406000206000915090505481565b3373ffffffffffffffffffffffffffffffffffffffff1660008054906101000a900473ffffffffffffffffffffffffffffffffffffffff1673ffffffffffffffffffffffffffffffffffffffff1614610b92576040517f08c379a0000000000000000000000000000000000000000000000000000000008152600401610b8990610dc7565b60405180910390fd5b6001600660006101000a81548160ff0219169083151502179055507f6969a1bc7452d86873151bfd13167742e1951b4af640dfd8218b7eddd7ec663260008054906101000a900473ffffffffffffffffffffffffffffffffffffffff166001600254604051610c0393929190611420565b60405180910390a1600f42610c1891906113ec565b600381905550565b60008115159050919050565b610c3581610c20565b82525050565b6000602082019050610c506000830184610c2c565b92915050565b6000819050919050565b610c6981610c56565b82525050565b6000602082019050610c846000830184610c60565b92915050565b600073ffffffffffffffffffffffffffffffffffffffff82169050919050565b6000610cb582610c8a565b9050919050565b610cc581610caa565b82525050565b6000602082019050610ce06000830184610cbc565b92915050565b600080fd5b610cf481610caa565b8114610cff57600080fd5b50565b600081359050610d1181610ceb565b92915050565b600060208284031215610d2d57610d2c610ce6565b5b6000610d3b84828501610d02565b91505092915050565b600082825260208201905092915050565b7f4f6e6c7920746865206f776e6572206f70656e2f63616e20636c6f736520746860008201527f652061756374696f6e0000000000000000000000000000000000000000000000602082015250565b6000610db1602983610d44565b9150610dbc82610d55565b604082019050919050565b60006020820190508181036000830152610de081610da4565b9050919050565b7f5468652061756374696f6e206861766520746f206f70656e6564206669727374600082015250565b6000610e1d602083610d44565b9150610e2882610de7565b602082019050919050565b60006020820190508181036000830152610e4c81610e10565b9050919050565b7f6e6f7420656e6465640000000000000000000000000000000000000000000000600082015250565b6000610e89600983610d44565b9150610e9482610e53565b602082019050919050565b60006020820190508181036000830152610eb881610e7c565b9050919050565b6000819050919050565b6000610ee4610edf610eda84610c8a565b610ebf565b610c8a565b9050919050565b6000610ef682610ec9565b9050919050565b6000610f0882610eeb565b9050919050565b610f1881610efd565b82525050565b6000606082019050610f336000830186610f0f565b610f406020830185610cbc565b610f4d6040830184610c60565b949350505050565b7f536f6c6f20696c2076696e6369746f72652064656c6c27617374612070756f2760008201527f207269746972617265206c612076696e63697461000000000000000000000000602082015250565b6000610fb1603483610d44565b9150610fbc82610f55565b604082019050919050565b60006020820190508181036000830152610fe081610fa4565b9050919050565b7f5468652061756374696f6e206973207374696c6c206f70656e65640000000000600082015250565b600061101d601b83610d44565b915061102882610fe7565b602082019050919050565b6000602082019050818103600083015261104c81611010565b9050919050565b7f4e487b7100000000000000000000000000000000000000000000000000000000600052602260045260246000fd5b6000600282049050600182168061109a57607f821691505b6020821081036110ad576110ac611053565b5b50919050565b60008190508160005260206000209050919050565b600081546110d581611082565b6110df8186610d44565b945060018216600081146110fa576001811461111057611143565b60ff198316865281151560200286019350611143565b611119856110b3565b60005b8381101561113b5781548189015260018201915060208101905061111c565b808801955050505b50505092915050565b60006040820190506111616000830185610cbc565b818103602083015261117381846110c8565b90509392505050565b7f496c2076696e6369746f72652064656c6c2761737461206e6f6e2070756f272060008201527f7269746972617265206920666f6e646900000000000000000000000000000000602082015250565b60006111d8603083610d44565b91506111e38261117c565b604082019050919050565b60006020820190508181036000830152611207816111cb565b9050919050565b60006040820190506112236000830185610cbc565b6112306020830184610c60565b9392505050565b7f4c276f666665727461206661747461206e6f6e20737570657261206c61206d6960008201527f676c696f72650000000000000000000000000000000000000000000000000000602082015250565b6000611293602683610d44565b915061129e82611237565b604082019050919050565b600060208201905081810360008301526112c281611286565b9050919050565b7f656e646564000000000000000000000000000000000000000000000000000000600082015250565b60006112ff600583610d44565b915061130a826112c9565b602082019050919050565b6000602082019050818103600083015261132e816112f2565b9050919050565b7f4e6577206269642069732070726f706f7365643a000000000000000000000000600082015250565b600061136b601483610d44565b915061137682611335565b602082019050919050565b6000606082019050818103600083015261139a8161135e565b90506113a96020830185610cbc565b6113b66040830184610c60565b9392505050565b7f4e487b7100000000000000000000000000000000000000000000000000000000600052601160045260246000fd5b60006113f782610c56565b915061140283610c56565b925082820190508082111561141a576114196113bd565b5b92915050565b60006060820190506114356000830186610f0f565b818103602083015261144781856110c8565b90506114566040830184610c60565b94935050505056fea26469706673582212207bceca3a722f886996cc3622915fcc1cfccc09f5f83741661510aea2b7762a1b64736f6c63430008130033",
					"opcodes": "PUSH1 0x80 PUSH1 0x40 MSTORE PUSH1 0x40 MLOAD DUP1 PUSH2 0x140 ADD PUSH1 0x40 MSTORE DUP1 PUSH1 0x39 PUSH1 0xFF AND DUP2 MSTORE PUSH1 0x20 ADD PUSH1 0x59 PUSH1 0xFF AND DUP2 MSTORE PUSH1 0x20 ADD PUSH1 0x17 PUSH1 0xFF AND DUP2 MSTORE PUSH1 0x20 ADD PUSH1 0x44 PUSH1 0xFF AND DUP2 MSTORE PUSH1 0x20 ADD PUSH1 0x5 PUSH1 0xFF AND DUP2 MSTORE PUSH1 0x20 ADD PUSH1 0x5E PUSH1 0xFF AND DUP2 MSTORE PUSH1 0x20 ADD PUSH1 0x11 PUSH1 0xFF AND DUP2 MSTORE PUSH1 0x20 ADD PUSH1 0x24 PUSH1 0xFF AND DUP2 MSTORE PUSH1 0x20 ADD PUSH1 0x2E PUSH1 0xFF AND DUP2 MSTORE PUSH1 0x20 ADD PUSH1 0x49 PUSH1 0xFF AND DUP2 MSTORE POP PUSH1 0x9 SWAP1 PUSH1 0xA PUSH3 0x84 SWAP3 SWAP2 SWAP1 PUSH3 0x17E JUMP JUMPDEST POP CALLVALUE DUP1 ISZERO PUSH3 0x92 JUMPI PUSH1 0x0 DUP1 REVERT JUMPDEST POP PUSH1 0x40 MLOAD PUSH3 0x1BE7 CODESIZE SUB DUP1 PUSH3 0x1BE7 DUP4 CODECOPY DUP2 DUP2 ADD PUSH1 0x40 MSTORE DUP2 ADD SWAP1 PUSH3 0xB8 SWAP2 SWAP1 PUSH3 0x3B5 JUMP JUMPDEST CALLER PUSH1 0x0 DUP1 PUSH2 0x100 EXP DUP2 SLOAD DUP2 PUSH20 0xFFFFFFFFFFFFFFFFFFFFFFFFFFFFFFFFFFFFFFFF MUL NOT AND SWAP1 DUP4 PUSH20 0xFFFFFFFFFFFFFFFFFFFFFFFFFFFFFFFFFFFFFFFF AND MUL OR SWAP1 SSTORE POP DUP2 PUSH1 0x1 SWAP1 DUP2 PUSH3 0x109 SWAP2 SWAP1 PUSH3 0x65C JUMP JUMPDEST POP DUP1 PUSH1 0x2 DUP2 SWAP1 SSTORE POP PUSH1 0x0 PUSH1 0x4 PUSH1 0x0 PUSH2 0x100 EXP DUP2 SLOAD DUP2 PUSH20 0xFFFFFFFFFFFFFFFFFFFFFFFFFFFFFFFFFFFFFFFF MUL NOT AND SWAP1 DUP4 PUSH20 0xFFFFFFFFFFFFFFFFFFFFFFFFFFFFFFFFFFFFFFFF AND MUL OR SWAP1 SSTORE POP PUSH1 0x0 PUSH1 0x5 DUP2 SWAP1 SSTORE POP PUSH1 0x0 PUSH1 0x6 PUSH1 0x0 PUSH2 0x100 EXP DUP2 SLOAD DUP2 PUSH1 0xFF MUL NOT AND SWAP1 DUP4 ISZERO ISZERO MUL OR SWAP1 SSTORE POP POP POP PUSH3 0x743 JUMP JUMPDEST DUP3 PUSH1 0xA DUP2 ADD SWAP3 DUP3 ISZERO PUSH3 0x1B5 JUMPI SWAP2 PUSH1 0x20 MUL DUP3 ADD JUMPDEST DUP3 DUP2 GT ISZERO PUSH3 0x1B4 JUMPI DUP3 MLOAD DUP3 SWAP1 PUSH1 0xFF AND SWAP1 SSTORE SWAP2 PUSH1 0x20 ADD SWAP2 SWAP1 PUSH1 0x1 ADD SWAP1 PUSH3 0x192 JUMP JUMPDEST JUMPDEST POP SWAP1 POP PUSH3 0x1C4 SWAP2 SWAP1 PUSH3 0x1C8 JUMP JUMPDEST POP SWAP1 JUMP JUMPDEST JUMPDEST DUP1 DUP3 GT ISZERO PUSH3 0x1E3 JUMPI PUSH1 0x0 DUP2 PUSH1 0x0 SWAP1 SSTORE POP PUSH1 0x1 ADD PUSH3 0x1C9 JUMP JUMPDEST POP SWAP1 JUMP JUMPDEST PUSH1 0x0 PUSH1 0x40 MLOAD SWAP1 POP SWAP1 JUMP JUMPDEST PUSH1 0x0 DUP1 REVERT JUMPDEST PUSH1 0x0 DUP1 REVERT JUMPDEST PUSH1 0x0 DUP1 REVERT JUMPDEST PUSH1 0x0 DUP1 REVERT JUMPDEST PUSH1 0x0 PUSH1 0x1F NOT PUSH1 0x1F DUP4 ADD AND SWAP1 POP SWAP2 SWAP1 POP JUMP JUMPDEST PUSH32 0x4E487B7100000000000000000000000000000000000000000000000000000000 PUSH1 0x0 MSTORE PUSH1 0x41 PUSH1 0x4 MSTORE PUSH1 0x24 PUSH1 0x0 REVERT JUMPDEST PUSH3 0x250 DUP3 PUSH3 0x205 JUMP JUMPDEST DUP2 ADD DUP2 DUP2 LT PUSH8 0xFFFFFFFFFFFFFFFF DUP3 GT OR ISZERO PUSH3 0x272 JUMPI PUSH3 0x271 PUSH3 0x216 JUMP JUMPDEST JUMPDEST DUP1 PUSH1 0x40 MSTORE POP POP POP JUMP JUMPDEST PUSH1 0x0 PUSH3 0x287 PUSH3 0x1E7 JUMP JUMPDEST SWAP1 POP PUSH3 0x295 DUP3 DUP3 PUSH3 0x245 JUMP JUMPDEST SWAP2 SWAP1 POP JUMP JUMPDEST PUSH1 0x0 PUSH8 0xFFFFFFFFFFFFFFFF DUP3 GT ISZERO PUSH3 0x2B8 JUMPI PUSH3 0x2B7 PUSH3 0x216 JUMP JUMPDEST JUMPDEST PUSH3 0x2C3 DUP3 PUSH3 0x205 JUMP JUMPDEST SWAP1 POP PUSH1 0x20 DUP2 ADD SWAP1 POP SWAP2 SWAP1 POP JUMP JUMPDEST PUSH1 0x0 JUMPDEST DUP4 DUP2 LT ISZERO PUSH3 0x2F0 JUMPI DUP1 DUP3 ADD MLOAD DUP2 DUP5 ADD MSTORE PUSH1 0x20 DUP2 ADD SWAP1 POP PUSH3 0x2D3 JUMP JUMPDEST PUSH1 0x0 DUP5 DUP5 ADD MSTORE POP POP POP POP JUMP JUMPDEST PUSH1 0x0 PUSH3 0x313 PUSH3 0x30D DUP5 PUSH3 0x29A JUMP JUMPDEST PUSH3 0x27B JUMP JUMPDEST SWAP1 POP DUP3 DUP2 MSTORE PUSH1 0x20 DUP2 ADD DUP5 DUP5 DUP5 ADD GT ISZERO PUSH3 0x332 JUMPI PUSH3 0x331 PUSH3 0x200 JUMP JUMPDEST JUMPDEST PUSH3 0x33F DUP5 DUP3 DUP6 PUSH3 0x2D0 JUMP JUMPDEST POP SWAP4 SWAP3 POP POP POP JUMP JUMPDEST PUSH1 0x0 DUP3 PUSH1 0x1F DUP4 ADD SLT PUSH3 0x35F JUMPI PUSH3 0x35E PUSH3 0x1FB JUMP JUMPDEST JUMPDEST DUP2 MLOAD PUSH3 0x371 DUP5 DUP3 PUSH1 0x20 DUP7 ADD PUSH3 0x2FC JUMP JUMPDEST SWAP2 POP POP SWAP3 SWAP2 POP POP JUMP JUMPDEST PUSH1 0x0 DUP2 SWAP1 POP SWAP2 SWAP1 POP JUMP JUMPDEST PUSH3 0x38F DUP2 PUSH3 0x37A JUMP JUMPDEST DUP2 EQ PUSH3 0x39B JUMPI PUSH1 0x0 DUP1 REVERT JUMPDEST POP JUMP JUMPDEST PUSH1 0x0 DUP2 MLOAD SWAP1 POP PUSH3 0x3AF DUP2 PUSH3 0x384 JUMP JUMPDEST SWAP3 SWAP2 POP POP JUMP JUMPDEST PUSH1 0x0 DUP1 PUSH1 0x40 DUP4 DUP6 SUB SLT ISZERO PUSH3 0x3CF JUMPI PUSH3 0x3CE PUSH3 0x1F1 JUMP JUMPDEST JUMPDEST PUSH1 0x0 DUP4 ADD MLOAD PUSH8 0xFFFFFFFFFFFFFFFF DUP2 GT ISZERO PUSH3 0x3F0 JUMPI PUSH3 0x3EF PUSH3 0x1F6 JUMP JUMPDEST JUMPDEST PUSH3 0x3FE DUP6 DUP3 DUP7 ADD PUSH3 0x347 JUMP JUMPDEST SWAP3 POP POP PUSH1 0x20 PUSH3 0x411 DUP6 DUP3 DUP7 ADD PUSH3 0x39E JUMP JUMPDEST SWAP2 POP POP SWAP3 POP SWAP3 SWAP1 POP JUMP JUMPDEST PUSH1 0x0 DUP2 MLOAD SWAP1 POP SWAP2 SWAP1 POP JUMP JUMPDEST PUSH32 0x4E487B7100000000000000000000000000000000000000000000000000000000 PUSH1 0x0 MSTORE PUSH1 0x22 PUSH1 0x4 MSTORE PUSH1 0x24 PUSH1 0x0 REVERT JUMPDEST PUSH1 0x0 PUSH1 0x2 DUP3 DIV SWAP1 POP PUSH1 0x1 DUP3 AND DUP1 PUSH3 0x46E JUMPI PUSH1 0x7F DUP3 AND SWAP2 POP JUMPDEST PUSH1 0x20 DUP3 LT DUP2 SUB PUSH3 0x484 JUMPI PUSH3 0x483 PUSH3 0x426 JUMP JUMPDEST JUMPDEST POP SWAP2 SWAP1 POP JUMP JUMPDEST PUSH1 0x0 DUP2 SWAP1 POP DUP2 PUSH1 0x0 MSTORE PUSH1 0x20 PUSH1 0x0 KECCAK256 SWAP1 POP SWAP2 SWAP1 POP JUMP JUMPDEST PUSH1 0x0 PUSH1 0x20 PUSH1 0x1F DUP4 ADD DIV SWAP1 POP SWAP2 SWAP1 POP JUMP JUMPDEST PUSH1 0x0 DUP3 DUP3 SHL SWAP1 POP SWAP3 SWAP2 POP POP JUMP JUMPDEST PUSH1 0x0 PUSH1 0x8 DUP4 MUL PUSH3 0x4EE PUSH32 0xFFFFFFFFFFFFFFFFFFFFFFFFFFFFFFFFFFFFFFFFFFFFFFFFFFFFFFFFFFFFFFFF DUP3 PUSH3 0x4AF JUMP JUMPDEST PUSH3 0x4FA DUP7 DUP4 PUSH3 0x4AF JUMP JUMPDEST SWAP6 POP DUP1 NOT DUP5 AND SWAP4 POP DUP1 DUP7 AND DUP5 OR SWAP3 POP POP POP SWAP4 SWAP3 POP POP POP JUMP JUMPDEST PUSH1 0x0 DUP2 SWAP1 POP SWAP2 SWAP1 POP JUMP JUMPDEST PUSH1 0x0 PUSH3 0x53D PUSH3 0x537 PUSH3 0x531 DUP5 PUSH3 0x37A JUMP JUMPDEST PUSH3 0x512 JUMP JUMPDEST PUSH3 0x37A JUMP JUMPDEST SWAP1 POP SWAP2 SWAP1 POP JUMP JUMPDEST PUSH1 0x0 DUP2 SWAP1 POP SWAP2 SWAP1 POP JUMP JUMPDEST PUSH3 0x559 DUP4 PUSH3 0x51C JUMP JUMPDEST PUSH3 0x571 PUSH3 0x568 DUP3 PUSH3 0x544 JUMP JUMPDEST DUP5 DUP5 SLOAD PUSH3 0x4BC JUMP JUMPDEST DUP3 SSTORE POP POP POP POP JUMP JUMPDEST PUSH1 0x0 SWAP1 JUMP JUMPDEST PUSH3 0x588 PUSH3 0x579 JUMP JUMPDEST PUSH3 0x595 DUP2 DUP5 DUP5 PUSH3 0x54E JUMP JUMPDEST POP POP POP JUMP JUMPDEST JUMPDEST DUP2 DUP2 LT ISZERO PUSH3 0x5BD JUMPI PUSH3 0x5B1 PUSH1 0x0 DUP3 PUSH3 0x57E JUMP JUMPDEST PUSH1 0x1 DUP2 ADD SWAP1 POP PUSH3 0x59B JUMP JUMPDEST POP POP JUMP JUMPDEST PUSH1 0x1F DUP3 GT ISZERO PUSH3 0x60C JUMPI PUSH3 0x5D6 DUP2 PUSH3 0x48A JUMP JUMPDEST PUSH3 0x5E1 DUP5 PUSH3 0x49F JUMP JUMPDEST DUP2 ADD PUSH1 0x20 DUP6 LT ISZERO PUSH3 0x5F1 JUMPI DUP2 SWAP1 POP JUMPDEST PUSH3 0x609 PUSH3 0x600 DUP6 PUSH3 0x49F JUMP JUMPDEST DUP4 ADD DUP3 PUSH3 0x59A JUMP JUMPDEST POP POP JUMPDEST POP POP POP JUMP JUMPDEST PUSH1 0x0 DUP3 DUP3 SHR SWAP1 POP SWAP3 SWAP2 POP POP JUMP JUMPDEST PUSH1 0x0 PUSH3 0x631 PUSH1 0x0 NOT DUP5 PUSH1 0x8 MUL PUSH3 0x611 JUMP JUMPDEST NOT DUP1 DUP4 AND SWAP2 POP POP SWAP3 SWAP2 POP POP JUMP JUMPDEST PUSH1 0x0 PUSH3 0x64C DUP4 DUP4 PUSH3 0x61E JUMP JUMPDEST SWAP2 POP DUP3 PUSH1 0x2 MUL DUP3 OR SWAP1 POP SWAP3 SWAP2 POP POP JUMP JUMPDEST PUSH3 0x667 DUP3 PUSH3 0x41B JUMP JUMPDEST PUSH8 0xFFFFFFFFFFFFFFFF DUP2 GT ISZERO PUSH3 0x683 JUMPI PUSH3 0x682 PUSH3 0x216 JUMP JUMPDEST JUMPDEST PUSH3 0x68F DUP3 SLOAD PUSH3 0x455 JUMP JUMPDEST PUSH3 0x69C DUP3 DUP3 DUP6 PUSH3 0x5C1 JUMP JUMPDEST PUSH1 0x0 PUSH1 0x20 SWAP1 POP PUSH1 0x1F DUP4 GT PUSH1 0x1 DUP2 EQ PUSH3 0x6D4 JUMPI PUSH1 0x0 DUP5 ISZERO PUSH3 0x6BF JUMPI DUP3 DUP8 ADD MLOAD SWAP1 POP JUMPDEST PUSH3 0x6CB DUP6 DUP3 PUSH3 0x63E JUMP JUMPDEST DUP7 SSTORE POP PUSH3 0x73B JUMP JUMPDEST PUSH1 0x1F NOT DUP5 AND PUSH3 0x6E4 DUP7 PUSH3 0x48A JUMP JUMPDEST PUSH1 0x0 JUMPDEST DUP3 DUP2 LT ISZERO PUSH3 0x70E JUMPI DUP5 DUP10 ADD MLOAD DUP3 SSTORE PUSH1 0x1 DUP3 ADD SWAP2 POP PUSH1 0x20 DUP6 ADD SWAP5 POP PUSH1 0x20 DUP2 ADD SWAP1 POP PUSH3 0x6E7 JUMP JUMPDEST DUP7 DUP4 LT ISZERO PUSH3 0x72E JUMPI DUP5 DUP10 ADD MLOAD PUSH3 0x72A PUSH1 0x1F DUP10 AND DUP3 PUSH3 0x61E JUMP JUMPDEST DUP4 SSTORE POP JUMPDEST PUSH1 0x1 PUSH1 0x2 DUP9 MUL ADD DUP9 SSTORE POP POP POP JUMPDEST POP POP POP POP POP POP JUMP JUMPDEST PUSH2 0x1494 DUP1 PUSH3 0x753 PUSH1 0x0 CODECOPY PUSH1 0x0 RETURN INVALID PUSH1 0x80 PUSH1 0x40 MSTORE PUSH1 0x4 CALLDATASIZE LT PUSH2 0x86 JUMPI PUSH1 0x0 CALLDATALOAD PUSH1 0xE0 SHR DUP1 PUSH4 0x8E7EA5B2 GT PUSH2 0x59 JUMPI DUP1 PUSH4 0x8E7EA5B2 EQ PUSH2 0x102 JUMPI DUP1 PUSH4 0x9BA33EB5 EQ PUSH2 0x12D JUMPI DUP1 PUSH4 0xC028DF06 EQ PUSH2 0x137 JUMPI DUP1 PUSH4 0xFCC8F793 EQ PUSH2 0x141 JUMPI DUP1 PUSH4 0xFCFFF16F EQ PUSH2 0x17E JUMPI PUSH2 0x86 JUMP JUMPDEST DUP1 PUSH4 0x43D726D6 EQ PUSH2 0x8B JUMPI DUP1 PUSH4 0x47535D7B EQ PUSH2 0xA2 JUMPI DUP1 PUSH4 0x4DF1DEB7 EQ PUSH2 0xCD JUMPI DUP1 PUSH4 0x7CC3AE8C EQ PUSH2 0xD7 JUMPI JUMPDEST PUSH1 0x0 DUP1 REVERT JUMPDEST CALLVALUE DUP1 ISZERO PUSH2 0x97 JUMPI PUSH1 0x0 DUP1 REVERT JUMPDEST POP PUSH2 0xA0 PUSH2 0x195 JUMP JUMPDEST STOP JUMPDEST CALLVALUE DUP1 ISZERO PUSH2 0xAE JUMPI PUSH1 0x0 DUP1 REVERT JUMPDEST POP PUSH2 0xB7 PUSH2 0x35A JUMP JUMPDEST PUSH1 0x40 MLOAD PUSH2 0xC4 SWAP2 SWAP1 PUSH2 0xC3B JUMP JUMPDEST PUSH1 0x40 MLOAD DUP1 SWAP2 SUB SWAP1 RETURN JUMPDEST PUSH2 0xD5 PUSH2 0x3C7 JUMP JUMPDEST STOP JUMPDEST CALLVALUE DUP1 ISZERO PUSH2 0xE3 JUMPI PUSH1 0x0 DUP1 REVERT JUMPDEST POP PUSH2 0xEC PUSH2 0x574 JUMP JUMPDEST PUSH1 0x40 MLOAD PUSH2 0xF9 SWAP2 SWAP1 PUSH2 0xC6F JUMP JUMPDEST PUSH1 0x40 MLOAD DUP1 SWAP2 SUB SWAP1 RETURN JUMPDEST CALLVALUE DUP1 ISZERO PUSH2 0x10E JUMPI PUSH1 0x0 DUP1 REVERT JUMPDEST POP PUSH2 0x117 PUSH2 0x57A JUMP JUMPDEST PUSH1 0x40 MLOAD PUSH2 0x124 SWAP2 SWAP1 PUSH2 0xCCB JUMP JUMPDEST PUSH1 0x40 MLOAD DUP1 SWAP2 SUB SWAP1 RETURN JUMPDEST PUSH2 0x135 PUSH2 0x5F9 JUMP JUMPDEST STOP JUMPDEST PUSH2 0x13F PUSH2 0x824 JUMP JUMPDEST STOP JUMPDEST CALLVALUE DUP1 ISZERO PUSH2 0x14D JUMPI PUSH1 0x0 DUP1 REVERT JUMPDEST POP PUSH2 0x168 PUSH1 0x4 DUP1 CALLDATASIZE SUB DUP2 ADD SWAP1 PUSH2 0x163 SWAP2 SWAP1 PUSH2 0xD17 JUMP JUMPDEST PUSH2 0xAEC JUMP JUMPDEST PUSH1 0x40 MLOAD PUSH2 0x175 SWAP2 SWAP1 PUSH2 0xC6F JUMP JUMPDEST PUSH1 0x40 MLOAD DUP1 SWAP2 SUB SWAP1 RETURN JUMPDEST CALLVALUE DUP1 ISZERO PUSH2 0x18A JUMPI PUSH1 0x0 DUP1 REVERT JUMPDEST POP PUSH2 0x193 PUSH2 0xB04 JUMP JUMPDEST STOP JUMPDEST CALLER PUSH20 0xFFFFFFFFFFFFFFFFFFFFFFFFFFFFFFFFFFFFFFFF AND PUSH1 0x0 DUP1 SLOAD SWAP1 PUSH2 0x100 EXP SWAP1 DIV PUSH20 0xFFFFFFFFFFFFFFFFFFFFFFFFFFFFFFFFFFFFFFFF AND PUSH20 0xFFFFFFFFFFFFFFFFFFFFFFFFFFFFFFFFFFFFFFFF AND EQ PUSH2 0x223 JUMPI PUSH1 0x40 MLOAD PUSH32 0x8C379A000000000000000000000000000000000000000000000000000000000 DUP2 MSTORE PUSH1 0x4 ADD PUSH2 0x21A SWAP1 PUSH2 0xDC7 JUMP JUMPDEST PUSH1 0x40 MLOAD DUP1 SWAP2 SUB SWAP1 REVERT JUMPDEST PUSH1 0x1 ISZERO ISZERO PUSH1 0x6 PUSH1 0x0 SWAP1 SLOAD SWAP1 PUSH2 0x100 EXP SWAP1 DIV PUSH1 0xFF AND ISZERO ISZERO EQ PUSH2 0x279 JUMPI PUSH1 0x40 MLOAD PUSH32 0x8C379A000000000000000000000000000000000000000000000000000000000 DUP2 MSTORE PUSH1 0x4 ADD PUSH2 0x270 SWAP1 PUSH2 0xE33 JUMP JUMPDEST PUSH1 0x40 MLOAD DUP1 SWAP2 SUB SWAP1 REVERT JUMPDEST PUSH1 0x3 SLOAD TIMESTAMP LT ISZERO PUSH2 0x2BE JUMPI PUSH1 0x40 MLOAD PUSH32 0x8C379A000000000000000000000000000000000000000000000000000000000 DUP2 MSTORE PUSH1 0x4 ADD PUSH2 0x2B5 SWAP1 PUSH2 0xE9F JUMP JUMPDEST PUSH1 0x40 MLOAD DUP1 SWAP2 SUB SWAP1 REVERT JUMPDEST PUSH1 0x0 PUSH1 0x6 PUSH1 0x0 PUSH2 0x100 EXP DUP2 SLOAD DUP2 PUSH1 0xFF MUL NOT AND SWAP1 DUP4 ISZERO ISZERO MUL OR SWAP1 SSTORE POP PUSH32 0xE810C871CE50FF674E2E5E2A570CF162A6EE85FE638D22AFD8C00A57904F86E8 PUSH1 0x0 DUP1 SLOAD SWAP1 PUSH2 0x100 EXP SWAP1 DIV PUSH20 0xFFFFFFFFFFFFFFFFFFFFFFFFFFFFFFFFFFFFFFFF AND PUSH1 0x4 PUSH1 0x0 SWAP1 SLOAD SWAP1 PUSH2 0x100 EXP SWAP1 DIV PUSH20 0xFFFFFFFFFFFFFFFFFFFFFFFFFFFFFFFFFFFFFFFF AND PUSH1 0x5 SLOAD PUSH1 0x40 MLOAD PUSH2 0x350 SWAP4 SWAP3 SWAP2 SWAP1 PUSH2 0xF1E JUMP JUMPDEST PUSH1 0x40 MLOAD DUP1 SWAP2 SUB SWAP1 LOG1 JUMP JUMPDEST PUSH1 0x0 PUSH1 0x1 ISZERO ISZERO PUSH1 0x6 PUSH1 0x0 SWAP1 SLOAD SWAP1 PUSH2 0x100 EXP SWAP1 DIV PUSH1 0xFF AND ISZERO ISZERO EQ PUSH2 0x3B2 JUMPI PUSH1 0x40 MLOAD PUSH32 0x8C379A000000000000000000000000000000000000000000000000000000000 DUP2 MSTORE PUSH1 0x4 ADD PUSH2 0x3A9 SWAP1 PUSH2 0xE33 JUMP JUMPDEST PUSH1 0x40 MLOAD DUP1 SWAP2 SUB SWAP1 REVERT JUMPDEST PUSH1 0x6 PUSH1 0x0 SWAP1 SLOAD SWAP1 PUSH2 0x100 EXP SWAP1 DIV PUSH1 0xFF AND SWAP1 POP SWAP1 JUMP JUMPDEST PUSH1 0x4 PUSH1 0x0 SWAP1 SLOAD SWAP1 PUSH2 0x100 EXP SWAP1 DIV PUSH20 0xFFFFFFFFFFFFFFFFFFFFFFFFFFFFFFFFFFFFFFFF AND PUSH20 0xFFFFFFFFFFFFFFFFFFFFFFFFFFFFFFFFFFFFFFFF AND CALLER PUSH20 0xFFFFFFFFFFFFFFFFFFFFFFFFFFFFFFFFFFFFFFFF AND EQ PUSH2 0x457 JUMPI PUSH1 0x40 MLOAD PUSH32 0x8C379A000000000000000000000000000000000000000000000000000000000 DUP2 MSTORE PUSH1 0x4 ADD PUSH2 0x44E SWAP1 PUSH2 0xFC7 JUMP JUMPDEST PUSH1 0x40 MLOAD DUP1 SWAP2 SUB SWAP1 REVERT JUMPDEST PUSH1 0x0 ISZERO ISZERO PUSH1 0x6 PUSH1 0x0 SWAP1 SLOAD SWAP1 PUSH2 0x100 EXP SWAP1 DIV PUSH1 0xFF AND ISZERO ISZERO EQ PUSH2 0x4AD JUMPI PUSH1 0x40 MLOAD PUSH32 0x8C379A000000000000000000000000000000000000000000000000000000000 DUP2 MSTORE PUSH1 0x4 ADD PUSH2 0x4A4 SWAP1 PUSH2 0x1033 JUMP JUMPDEST PUSH1 0x40 MLOAD DUP1 SWAP2 SUB SWAP1 REVERT JUMPDEST PUSH32 0x5E8C64C7C4BF81541143E96785B6FE89C8C1C2E524AAC8B02D7E09F899A3108E PUSH1 0x4 PUSH1 0x0 SWAP1 SLOAD SWAP1 PUSH2 0x100 EXP SWAP1 DIV PUSH20 0xFFFFFFFFFFFFFFFFFFFFFFFFFFFFFFFFFFFFFFFF AND PUSH1 0x1 PUSH1 0x40 MLOAD PUSH2 0x501 SWAP3 SWAP2 SWAP1 PUSH2 0x114C JUMP JUMPDEST PUSH1 0x40 MLOAD DUP1 SWAP2 SUB SWAP1 LOG1 PUSH1 0x0 DUP1 SLOAD SWAP1 PUSH2 0x100 EXP SWAP1 DIV PUSH20 0xFFFFFFFFFFFFFFFFFFFFFFFFFFFFFFFFFFFFFFFF AND PUSH20 0xFFFFFFFFFFFFFFFFFFFFFFFFFFFFFFFFFFFFFFFF AND PUSH2 0x8FC PUSH1 0x5 SLOAD SWAP1 DUP2 ISZERO MUL SWAP1 PUSH1 0x40 MLOAD PUSH1 0x0 PUSH1 0x40 MLOAD DUP1 DUP4 SUB DUP2 DUP6 DUP9 DUP9 CALL SWAP4 POP POP POP POP ISZERO DUP1 ISZERO PUSH2 0x571 JUMPI RETURNDATASIZE PUSH1 0x0 DUP1 RETURNDATACOPY RETURNDATASIZE PUSH1 0x0 REVERT JUMPDEST POP JUMP JUMPDEST PUSH1 0x3 SLOAD DUP2 JUMP JUMPDEST PUSH1 0x0 DUP1 ISZERO ISZERO PUSH1 0x6 PUSH1 0x0 SWAP1 SLOAD SWAP1 PUSH2 0x100 EXP SWAP1 DIV PUSH1 0xFF AND ISZERO ISZERO EQ PUSH2 0x5D1 JUMPI PUSH1 0x40 MLOAD PUSH32 0x8C379A000000000000000000000000000000000000000000000000000000000 DUP2 MSTORE PUSH1 0x4 ADD PUSH2 0x5C8 SWAP1 PUSH2 0x1033 JUMP JUMPDEST PUSH1 0x40 MLOAD DUP1 SWAP2 SUB SWAP1 REVERT JUMPDEST PUSH1 0x4 PUSH1 0x0 SWAP1 SLOAD SWAP1 PUSH2 0x100 EXP SWAP1 DIV PUSH20 0xFFFFFFFFFFFFFFFFFFFFFFFFFFFFFFFFFFFFFFFF AND SWAP1 POP SWAP1 JUMP JUMPDEST PUSH1 0x4 PUSH1 0x0 SWAP1 SLOAD SWAP1 PUSH2 0x100 EXP SWAP1 DIV PUSH20 0xFFFFFFFFFFFFFFFFFFFFFFFFFFFFFFFFFFFFFFFF AND PUSH20 0xFFFFFFFFFFFFFFFFFFFFFFFFFFFFFFFFFFFFFFFF AND CALLER PUSH20 0xFFFFFFFFFFFFFFFFFFFFFFFFFFFFFFFFFFFFFFFF AND SUB PUSH2 0x689 JUMPI PUSH1 0x40 MLOAD PUSH32 0x8C379A000000000000000000000000000000000000000000000000000000000 DUP2 MSTORE PUSH1 0x4 ADD PUSH2 0x680 SWAP1 PUSH2 0x11EE JUMP JUMPDEST PUSH1 0x40 MLOAD DUP1 SWAP2 SUB SWAP1 REVERT JUMPDEST PUSH1 0x0 ISZERO ISZERO PUSH1 0x6 PUSH1 0x0 SWAP1 SLOAD SWAP1 PUSH2 0x100 EXP SWAP1 DIV PUSH1 0xFF AND ISZERO ISZERO EQ PUSH2 0x6DF JUMPI PUSH1 0x40 MLOAD PUSH32 0x8C379A000000000000000000000000000000000000000000000000000000000 DUP2 MSTORE PUSH1 0x4 ADD PUSH2 0x6D6 SWAP1 PUSH2 0x1033 JUMP JUMPDEST PUSH1 0x40 MLOAD DUP1 SWAP2 SUB SWAP1 REVERT JUMPDEST PUSH32 0xEAFF4B37086828766AD3268786972C0CD24259D4C87A80F9D3963A3C3D999B0D CALLER PUSH1 0x7 PUSH1 0x0 CALLER PUSH20 0xFFFFFFFFFFFFFFFFFFFFFFFFFFFFFFFFFFFFFFFF AND PUSH20 0xFFFFFFFFFFFFFFFFFFFFFFFFFFFFFFFFFFFFFFFF AND DUP2 MSTORE PUSH1 0x20 ADD SWAP1 DUP2 MSTORE PUSH1 0x20 ADD PUSH1 0x0 KECCAK256 SLOAD PUSH1 0x40 MLOAD PUSH2 0x74F SWAP3 SWAP2 SWAP1 PUSH2 0x120E JUMP JUMPDEST PUSH1 0x40 MLOAD DUP1 SWAP2 SUB SWAP1 LOG1 CALLER PUSH20 0xFFFFFFFFFFFFFFFFFFFFFFFFFFFFFFFFFFFFFFFF AND PUSH2 0x8FC PUSH1 0x7 PUSH1 0x0 CALLER PUSH20 0xFFFFFFFFFFFFFFFFFFFFFFFFFFFFFFFFFFFFFFFF AND PUSH20 0xFFFFFFFFFFFFFFFFFFFFFFFFFFFFFFFFFFFFFFFF AND DUP2 MSTORE PUSH1 0x20 ADD SWAP1 DUP2 MSTORE PUSH1 0x20 ADD PUSH1 0x0 KECCAK256 SLOAD SWAP1 DUP2 ISZERO MUL SWAP1 PUSH1 0x40 MLOAD PUSH1 0x0 PUSH1 0x40 MLOAD DUP1 DUP4 SUB DUP2 DUP6 DUP9 DUP9 CALL SWAP4 POP POP POP POP ISZERO DUP1 ISZERO PUSH2 0x7DC JUMPI RETURNDATASIZE PUSH1 0x0 DUP1 RETURNDATACOPY RETURNDATASIZE PUSH1 0x0 REVERT JUMPDEST POP PUSH1 0x0 PUSH1 0x7 PUSH1 0x0 CALLER PUSH20 0xFFFFFFFFFFFFFFFFFFFFFFFFFFFFFFFFFFFFFFFF AND PUSH20 0xFFFFFFFFFFFFFFFFFFFFFFFFFFFFFFFFFFFFFFFF AND DUP2 MSTORE PUSH1 0x20 ADD SWAP1 DUP2 MSTORE PUSH1 0x20 ADD PUSH1 0x0 KECCAK256 DUP2 SWAP1 SSTORE POP JUMP JUMPDEST PUSH1 0x1 ISZERO ISZERO PUSH1 0x6 PUSH1 0x0 SWAP1 SLOAD SWAP1 PUSH2 0x100 EXP SWAP1 DIV PUSH1 0xFF AND ISZERO ISZERO EQ PUSH2 0x87A JUMPI PUSH1 0x40 MLOAD PUSH32 0x8C379A000000000000000000000000000000000000000000000000000000000 DUP2 MSTORE PUSH1 0x4 ADD PUSH2 0x871 SWAP1 PUSH2 0xE33 JUMP JUMPDEST PUSH1 0x40 MLOAD DUP1 SWAP2 SUB SWAP1 REVERT JUMPDEST PUSH1 0x5 SLOAD CALLVALUE LT PUSH2 0x8BE JUMPI PUSH1 0x40 MLOAD PUSH32 0x8C379A000000000000000000000000000000000000000000000000000000000 DUP2 MSTORE PUSH1 0x4 ADD PUSH2 0x8B5 SWAP1 PUSH2 0x12A9 JUMP JUMPDEST PUSH1 0x40 MLOAD DUP1 SWAP2 SUB SWAP1 REVERT JUMPDEST PUSH1 0x3 SLOAD TIMESTAMP LT PUSH2 0x902 JUMPI PUSH1 0x40 MLOAD PUSH32 0x8C379A000000000000000000000000000000000000000000000000000000000 DUP2 MSTORE PUSH1 0x4 ADD PUSH2 0x8F9 SWAP1 PUSH2 0x1315 JUMP JUMPDEST PUSH1 0x40 MLOAD DUP1 SWAP2 SUB SWAP1 REVERT JUMPDEST PUSH32 0x7A1EF295A7B3EAD528A3D5DC5108DF6FBE47739A34AA589A11433B98CE53C60E CALLER CALLVALUE PUSH1 0x40 MLOAD PUSH2 0x933 SWAP3 SWAP2 SWAP1 PUSH2 0x1381 JUMP JUMPDEST PUSH1 0x40 MLOAD DUP1 SWAP2 SUB SWAP1 LOG1 CALLVALUE PUSH1 0x5 DUP2 SWAP1 SSTORE POP CALLER PUSH1 0x4 PUSH1 0x0 PUSH2 0x100 EXP DUP2 SLOAD DUP2 PUSH20 0xFFFFFFFFFFFFFFFFFFFFFFFFFFFFFFFFFFFFFFFF MUL NOT AND SWAP1 DUP4 PUSH20 0xFFFFFFFFFFFFFFFFFFFFFFFFFFFFFFFFFFFFFFFF AND MUL OR SWAP1 SSTORE POP PUSH1 0x0 PUSH1 0x7 PUSH1 0x0 PUSH1 0x4 PUSH1 0x0 SWAP1 SLOAD SWAP1 PUSH2 0x100 EXP SWAP1 DIV PUSH20 0xFFFFFFFFFFFFFFFFFFFFFFFFFFFFFFFFFFFFFFFF AND PUSH20 0xFFFFFFFFFFFFFFFFFFFFFFFFFFFFFFFFFFFFFFFF AND PUSH20 0xFFFFFFFFFFFFFFFFFFFFFFFFFFFFFFFFFFFFFFFF AND DUP2 MSTORE PUSH1 0x20 ADD SWAP1 DUP2 MSTORE PUSH1 0x20 ADD PUSH1 0x0 KECCAK256 SLOAD SUB PUSH2 0xA72 JUMPI PUSH1 0x8 PUSH1 0x4 PUSH1 0x0 SWAP1 SLOAD SWAP1 PUSH2 0x100 EXP SWAP1 DIV PUSH20 0xFFFFFFFFFFFFFFFFFFFFFFFFFFFFFFFFFFFFFFFF AND SWAP1 DUP1 PUSH1 0x1 DUP2 SLOAD ADD DUP1 DUP3 SSTORE DUP1 SWAP2 POP POP PUSH1 0x1 SWAP1 SUB SWAP1 PUSH1 0x0 MSTORE PUSH1 0x20 PUSH1 0x0 KECCAK256 ADD PUSH1 0x0 SWAP1 SWAP2 SWAP1 SWAP2 SWAP1 SWAP2 PUSH2 0x100 EXP DUP2 SLOAD DUP2 PUSH20 0xFFFFFFFFFFFFFFFFFFFFFFFFFFFFFFFFFFFFFFFF MUL NOT AND SWAP1 DUP4 PUSH20 0xFFFFFFFFFFFFFFFFFFFFFFFFFFFFFFFFFFFFFFFF AND MUL OR SWAP1 SSTORE POP JUMPDEST CALLVALUE PUSH1 0x7 PUSH1 0x0 PUSH1 0x4 PUSH1 0x0 SWAP1 SLOAD SWAP1 PUSH2 0x100 EXP SWAP1 DIV PUSH20 0xFFFFFFFFFFFFFFFFFFFFFFFFFFFFFFFFFFFFFFFF AND PUSH20 0xFFFFFFFFFFFFFFFFFFFFFFFFFFFFFFFFFFFFFFFF AND PUSH20 0xFFFFFFFFFFFFFFFFFFFFFFFFFFFFFFFFFFFFFFFF AND DUP2 MSTORE PUSH1 0x20 ADD SWAP1 DUP2 MSTORE PUSH1 0x20 ADD PUSH1 0x0 KECCAK256 PUSH1 0x0 DUP3 DUP3 SLOAD PUSH2 0xAE3 SWAP2 SWAP1 PUSH2 0x13EC JUMP JUMPDEST SWAP3 POP POP DUP2 SWAP1 SSTORE POP JUMP JUMPDEST PUSH1 0x7 PUSH1 0x20 MSTORE DUP1 PUSH1 0x0 MSTORE PUSH1 0x40 PUSH1 0x0 KECCAK256 PUSH1 0x0 SWAP2 POP SWAP1 POP SLOAD DUP2 JUMP JUMPDEST CALLER PUSH20 0xFFFFFFFFFFFFFFFFFFFFFFFFFFFFFFFFFFFFFFFF AND PUSH1 0x0 DUP1 SLOAD SWAP1 PUSH2 0x100 EXP SWAP1 DIV PUSH20 0xFFFFFFFFFFFFFFFFFFFFFFFFFFFFFFFFFFFFFFFF AND PUSH20 0xFFFFFFFFFFFFFFFFFFFFFFFFFFFFFFFFFFFFFFFF AND EQ PUSH2 0xB92 JUMPI PUSH1 0x40 MLOAD PUSH32 0x8C379A000000000000000000000000000000000000000000000000000000000 DUP2 MSTORE PUSH1 0x4 ADD PUSH2 0xB89 SWAP1 PUSH2 0xDC7 JUMP JUMPDEST PUSH1 0x40 MLOAD DUP1 SWAP2 SUB SWAP1 REVERT JUMPDEST PUSH1 0x1 PUSH1 0x6 PUSH1 0x0 PUSH2 0x100 EXP DUP2 SLOAD DUP2 PUSH1 0xFF MUL NOT AND SWAP1 DUP4 ISZERO ISZERO MUL OR SWAP1 SSTORE POP PUSH32 0x6969A1BC7452D86873151BFD13167742E1951B4AF640DFD8218B7EDDD7EC6632 PUSH1 0x0 DUP1 SLOAD SWAP1 PUSH2 0x100 EXP SWAP1 DIV PUSH20 0xFFFFFFFFFFFFFFFFFFFFFFFFFFFFFFFFFFFFFFFF AND PUSH1 0x1 PUSH1 0x2 SLOAD PUSH1 0x40 MLOAD PUSH2 0xC03 SWAP4 SWAP3 SWAP2 SWAP1 PUSH2 0x1420 JUMP JUMPDEST PUSH1 0x40 MLOAD DUP1 SWAP2 SUB SWAP1 LOG1 PUSH1 0xF TIMESTAMP PUSH2 0xC18 SWAP2 SWAP1 PUSH2 0x13EC JUMP JUMPDEST PUSH1 0x3 DUP2 SWAP1 SSTORE POP JUMP JUMPDEST PUSH1 0x0 DUP2 ISZERO ISZERO SWAP1 POP SWAP2 SWAP1 POP JUMP JUMPDEST PUSH2 0xC35 DUP2 PUSH2 0xC20 JUMP JUMPDEST DUP3 MSTORE POP POP JUMP JUMPDEST PUSH1 0x0 PUSH1 0x20 DUP3 ADD SWAP1 POP PUSH2 0xC50 PUSH1 0x0 DUP4 ADD DUP5 PUSH2 0xC2C JUMP JUMPDEST SWAP3 SWAP2 POP POP JUMP JUMPDEST PUSH1 0x0 DUP2 SWAP1 POP SWAP2 SWAP1 POP JUMP JUMPDEST PUSH2 0xC69 DUP2 PUSH2 0xC56 JUMP JUMPDEST DUP3 MSTORE POP POP JUMP JUMPDEST PUSH1 0x0 PUSH1 0x20 DUP3 ADD SWAP1 POP PUSH2 0xC84 PUSH1 0x0 DUP4 ADD DUP5 PUSH2 0xC60 JUMP JUMPDEST SWAP3 SWAP2 POP POP JUMP JUMPDEST PUSH1 0x0 PUSH20 0xFFFFFFFFFFFFFFFFFFFFFFFFFFFFFFFFFFFFFFFF DUP3 AND SWAP1 POP SWAP2 SWAP1 POP JUMP JUMPDEST PUSH1 0x0 PUSH2 0xCB5 DUP3 PUSH2 0xC8A JUMP JUMPDEST SWAP1 POP SWAP2 SWAP1 POP JUMP JUMPDEST PUSH2 0xCC5 DUP2 PUSH2 0xCAA JUMP JUMPDEST DUP3 MSTORE POP POP JUMP JUMPDEST PUSH1 0x0 PUSH1 0x20 DUP3 ADD SWAP1 POP PUSH2 0xCE0 PUSH1 0x0 DUP4 ADD DUP5 PUSH2 0xCBC JUMP JUMPDEST SWAP3 SWAP2 POP POP JUMP JUMPDEST PUSH1 0x0 DUP1 REVERT JUMPDEST PUSH2 0xCF4 DUP2 PUSH2 0xCAA JUMP JUMPDEST DUP2 EQ PUSH2 0xCFF JUMPI PUSH1 0x0 DUP1 REVERT JUMPDEST POP JUMP JUMPDEST PUSH1 0x0 DUP2 CALLDATALOAD SWAP1 POP PUSH2 0xD11 DUP2 PUSH2 0xCEB JUMP JUMPDEST SWAP3 SWAP2 POP POP JUMP JUMPDEST PUSH1 0x0 PUSH1 0x20 DUP3 DUP5 SUB SLT ISZERO PUSH2 0xD2D JUMPI PUSH2 0xD2C PUSH2 0xCE6 JUMP JUMPDEST JUMPDEST PUSH1 0x0 PUSH2 0xD3B DUP5 DUP3 DUP6 ADD PUSH2 0xD02 JUMP JUMPDEST SWAP2 POP POP SWAP3 SWAP2 POP POP JUMP JUMPDEST PUSH1 0x0 DUP3 DUP3 MSTORE PUSH1 0x20 DUP3 ADD SWAP1 POP SWAP3 SWAP2 POP POP JUMP JUMPDEST PUSH32 0x4F6E6C7920746865206F776E6572206F70656E2F63616E20636C6F7365207468 PUSH1 0x0 DUP3 ADD MSTORE PUSH32 0x652061756374696F6E0000000000000000000000000000000000000000000000 PUSH1 0x20 DUP3 ADD MSTORE POP JUMP JUMPDEST PUSH1 0x0 PUSH2 0xDB1 PUSH1 0x29 DUP4 PUSH2 0xD44 JUMP JUMPDEST SWAP2 POP PUSH2 0xDBC DUP3 PUSH2 0xD55 JUMP JUMPDEST PUSH1 0x40 DUP3 ADD SWAP1 POP SWAP2 SWAP1 POP JUMP JUMPDEST PUSH1 0x0 PUSH1 0x20 DUP3 ADD SWAP1 POP DUP2 DUP2 SUB PUSH1 0x0 DUP4 ADD MSTORE PUSH2 0xDE0 DUP2 PUSH2 0xDA4 JUMP JUMPDEST SWAP1 POP SWAP2 SWAP1 POP JUMP JUMPDEST PUSH32 0x5468652061756374696F6E206861766520746F206F70656E6564206669727374 PUSH1 0x0 DUP3 ADD MSTORE POP JUMP JUMPDEST PUSH1 0x0 PUSH2 0xE1D PUSH1 0x20 DUP4 PUSH2 0xD44 JUMP JUMPDEST SWAP2 POP PUSH2 0xE28 DUP3 PUSH2 0xDE7 JUMP JUMPDEST PUSH1 0x20 DUP3 ADD SWAP1 POP SWAP2 SWAP1 POP JUMP JUMPDEST PUSH1 0x0 PUSH1 0x20 DUP3 ADD SWAP1 POP DUP2 DUP2 SUB PUSH1 0x0 DUP4 ADD MSTORE PUSH2 0xE4C DUP2 PUSH2 0xE10 JUMP JUMPDEST SWAP1 POP SWAP2 SWAP1 POP JUMP JUMPDEST PUSH32 0x6E6F7420656E6465640000000000000000000000000000000000000000000000 PUSH1 0x0 DUP3 ADD MSTORE POP JUMP JUMPDEST PUSH1 0x0 PUSH2 0xE89 PUSH1 0x9 DUP4 PUSH2 0xD44 JUMP JUMPDEST SWAP2 POP PUSH2 0xE94 DUP3 PUSH2 0xE53 JUMP JUMPDEST PUSH1 0x20 DUP3 ADD SWAP1 POP SWAP2 SWAP1 POP JUMP JUMPDEST PUSH1 0x0 PUSH1 0x20 DUP3 ADD SWAP1 POP DUP2 DUP2 SUB PUSH1 0x0 DUP4 ADD MSTORE PUSH2 0xEB8 DUP2 PUSH2 0xE7C JUMP JUMPDEST SWAP1 POP SWAP2 SWAP1 POP JUMP JUMPDEST PUSH1 0x0 DUP2 SWAP1 POP SWAP2 SWAP1 POP JUMP JUMPDEST PUSH1 0x0 PUSH2 0xEE4 PUSH2 0xEDF PUSH2 0xEDA DUP5 PUSH2 0xC8A JUMP JUMPDEST PUSH2 0xEBF JUMP JUMPDEST PUSH2 0xC8A JUMP JUMPDEST SWAP1 POP SWAP2 SWAP1 POP JUMP JUMPDEST PUSH1 0x0 PUSH2 0xEF6 DUP3 PUSH2 0xEC9 JUMP JUMPDEST SWAP1 POP SWAP2 SWAP1 POP JUMP JUMPDEST PUSH1 0x0 PUSH2 0xF08 DUP3 PUSH2 0xEEB JUMP JUMPDEST SWAP1 POP SWAP2 SWAP1 POP JUMP JUMPDEST PUSH2 0xF18 DUP2 PUSH2 0xEFD JUMP JUMPDEST DUP3 MSTORE POP POP JUMP JUMPDEST PUSH1 0x0 PUSH1 0x60 DUP3 ADD SWAP1 POP PUSH2 0xF33 PUSH1 0x0 DUP4 ADD DUP7 PUSH2 0xF0F JUMP JUMPDEST PUSH2 0xF40 PUSH1 0x20 DUP4 ADD DUP6 PUSH2 0xCBC JUMP JUMPDEST PUSH2 0xF4D PUSH1 0x40 DUP4 ADD DUP5 PUSH2 0xC60 JUMP JUMPDEST SWAP5 SWAP4 POP POP POP POP JUMP JUMPDEST PUSH32 0x536F6C6F20696C2076696E6369746F72652064656C6C27617374612070756F27 PUSH1 0x0 DUP3 ADD MSTORE PUSH32 0x207269746972617265206C612076696E63697461000000000000000000000000 PUSH1 0x20 DUP3 ADD MSTORE POP JUMP JUMPDEST PUSH1 0x0 PUSH2 0xFB1 PUSH1 0x34 DUP4 PUSH2 0xD44 JUMP JUMPDEST SWAP2 POP PUSH2 0xFBC DUP3 PUSH2 0xF55 JUMP JUMPDEST PUSH1 0x40 DUP3 ADD SWAP1 POP SWAP2 SWAP1 POP JUMP JUMPDEST PUSH1 0x0 PUSH1 0x20 DUP3 ADD SWAP1 POP DUP2 DUP2 SUB PUSH1 0x0 DUP4 ADD MSTORE PUSH2 0xFE0 DUP2 PUSH2 0xFA4 JUMP JUMPDEST SWAP1 POP SWAP2 SWAP1 POP JUMP JUMPDEST PUSH32 0x5468652061756374696F6E206973207374696C6C206F70656E65640000000000 PUSH1 0x0 DUP3 ADD MSTORE POP JUMP JUMPDEST PUSH1 0x0 PUSH2 0x101D PUSH1 0x1B DUP4 PUSH2 0xD44 JUMP JUMPDEST SWAP2 POP PUSH2 0x1028 DUP3 PUSH2 0xFE7 JUMP JUMPDEST PUSH1 0x20 DUP3 ADD SWAP1 POP SWAP2 SWAP1 POP JUMP JUMPDEST PUSH1 0x0 PUSH1 0x20 DUP3 ADD SWAP1 POP DUP2 DUP2 SUB PUSH1 0x0 DUP4 ADD MSTORE PUSH2 0x104C DUP2 PUSH2 0x1010 JUMP JUMPDEST SWAP1 POP SWAP2 SWAP1 POP JUMP JUMPDEST PUSH32 0x4E487B7100000000000000000000000000000000000000000000000000000000 PUSH1 0x0 MSTORE PUSH1 0x22 PUSH1 0x4 MSTORE PUSH1 0x24 PUSH1 0x0 REVERT JUMPDEST PUSH1 0x0 PUSH1 0x2 DUP3 DIV SWAP1 POP PUSH1 0x1 DUP3 AND DUP1 PUSH2 0x109A JUMPI PUSH1 0x7F DUP3 AND SWAP2 POP JUMPDEST PUSH1 0x20 DUP3 LT DUP2 SUB PUSH2 0x10AD JUMPI PUSH2 0x10AC PUSH2 0x1053 JUMP JUMPDEST JUMPDEST POP SWAP2 SWAP1 POP JUMP JUMPDEST PUSH1 0x0 DUP2 SWAP1 POP DUP2 PUSH1 0x0 MSTORE PUSH1 0x20 PUSH1 0x0 KECCAK256 SWAP1 POP SWAP2 SWAP1 POP JUMP JUMPDEST PUSH1 0x0 DUP2 SLOAD PUSH2 0x10D5 DUP2 PUSH2 0x1082 JUMP JUMPDEST PUSH2 0x10DF DUP2 DUP7 PUSH2 0xD44 JUMP JUMPDEST SWAP5 POP PUSH1 0x1 DUP3 AND PUSH1 0x0 DUP2 EQ PUSH2 0x10FA JUMPI PUSH1 0x1 DUP2 EQ PUSH2 0x1110 JUMPI PUSH2 0x1143 JUMP JUMPDEST PUSH1 0xFF NOT DUP4 AND DUP7 MSTORE DUP2 ISZERO ISZERO PUSH1 0x20 MUL DUP7 ADD SWAP4 POP PUSH2 0x1143 JUMP JUMPDEST PUSH2 0x1119 DUP6 PUSH2 0x10B3 JUMP JUMPDEST PUSH1 0x0 JUMPDEST DUP4 DUP2 LT ISZERO PUSH2 0x113B JUMPI DUP2 SLOAD DUP2 DUP10 ADD MSTORE PUSH1 0x1 DUP3 ADD SWAP2 POP PUSH1 0x20 DUP2 ADD SWAP1 POP PUSH2 0x111C JUMP JUMPDEST DUP1 DUP9 ADD SWAP6 POP POP POP JUMPDEST POP POP POP SWAP3 SWAP2 POP POP JUMP JUMPDEST PUSH1 0x0 PUSH1 0x40 DUP3 ADD SWAP1 POP PUSH2 0x1161 PUSH1 0x0 DUP4 ADD DUP6 PUSH2 0xCBC JUMP JUMPDEST DUP2 DUP2 SUB PUSH1 0x20 DUP4 ADD MSTORE PUSH2 0x1173 DUP2 DUP5 PUSH2 0x10C8 JUMP JUMPDEST SWAP1 POP SWAP4 SWAP3 POP POP POP JUMP JUMPDEST PUSH32 0x496C2076696E6369746F72652064656C6C2761737461206E6F6E2070756F2720 PUSH1 0x0 DUP3 ADD MSTORE PUSH32 0x7269746972617265206920666F6E646900000000000000000000000000000000 PUSH1 0x20 DUP3 ADD MSTORE POP JUMP JUMPDEST PUSH1 0x0 PUSH2 0x11D8 PUSH1 0x30 DUP4 PUSH2 0xD44 JUMP JUMPDEST SWAP2 POP PUSH2 0x11E3 DUP3 PUSH2 0x117C JUMP JUMPDEST PUSH1 0x40 DUP3 ADD SWAP1 POP SWAP2 SWAP1 POP JUMP JUMPDEST PUSH1 0x0 PUSH1 0x20 DUP3 ADD SWAP1 POP DUP2 DUP2 SUB PUSH1 0x0 DUP4 ADD MSTORE PUSH2 0x1207 DUP2 PUSH2 0x11CB JUMP JUMPDEST SWAP1 POP SWAP2 SWAP1 POP JUMP JUMPDEST PUSH1 0x0 PUSH1 0x40 DUP3 ADD SWAP1 POP PUSH2 0x1223 PUSH1 0x0 DUP4 ADD DUP6 PUSH2 0xCBC JUMP JUMPDEST PUSH2 0x1230 PUSH1 0x20 DUP4 ADD DUP5 PUSH2 0xC60 JUMP JUMPDEST SWAP4 SWAP3 POP POP POP JUMP JUMPDEST PUSH32 0x4C276F666665727461206661747461206E6F6E20737570657261206C61206D69 PUSH1 0x0 DUP3 ADD MSTORE PUSH32 0x676C696F72650000000000000000000000000000000000000000000000000000 PUSH1 0x20 DUP3 ADD MSTORE POP JUMP JUMPDEST PUSH1 0x0 PUSH2 0x1293 PUSH1 0x26 DUP4 PUSH2 0xD44 JUMP JUMPDEST SWAP2 POP PUSH2 0x129E DUP3 PUSH2 0x1237 JUMP JUMPDEST PUSH1 0x40 DUP3 ADD SWAP1 POP SWAP2 SWAP1 POP JUMP JUMPDEST PUSH1 0x0 PUSH1 0x20 DUP3 ADD SWAP1 POP DUP2 DUP2 SUB PUSH1 0x0 DUP4 ADD MSTORE PUSH2 0x12C2 DUP2 PUSH2 0x1286 JUMP JUMPDEST SWAP1 POP SWAP2 SWAP1 POP JUMP JUMPDEST PUSH32 0x656E646564000000000000000000000000000000000000000000000000000000 PUSH1 0x0 DUP3 ADD MSTORE POP JUMP JUMPDEST PUSH1 0x0 PUSH2 0x12FF PUSH1 0x5 DUP4 PUSH2 0xD44 JUMP JUMPDEST SWAP2 POP PUSH2 0x130A DUP3 PUSH2 0x12C9 JUMP JUMPDEST PUSH1 0x20 DUP3 ADD SWAP1 POP SWAP2 SWAP1 POP JUMP JUMPDEST PUSH1 0x0 PUSH1 0x20 DUP3 ADD SWAP1 POP DUP2 DUP2 SUB PUSH1 0x0 DUP4 ADD MSTORE PUSH2 0x132E DUP2 PUSH2 0x12F2 JUMP JUMPDEST SWAP1 POP SWAP2 SWAP1 POP JUMP JUMPDEST PUSH32 0x4E6577206269642069732070726F706F7365643A000000000000000000000000 PUSH1 0x0 DUP3 ADD MSTORE POP JUMP JUMPDEST PUSH1 0x0 PUSH2 0x136B PUSH1 0x14 DUP4 PUSH2 0xD44 JUMP JUMPDEST SWAP2 POP PUSH2 0x1376 DUP3 PUSH2 0x1335 JUMP JUMPDEST PUSH1 0x20 DUP3 ADD SWAP1 POP SWAP2 SWAP1 POP JUMP JUMPDEST PUSH1 0x0 PUSH1 0x60 DUP3 ADD SWAP1 POP DUP2 DUP2 SUB PUSH1 0x0 DUP4 ADD MSTORE PUSH2 0x139A DUP2 PUSH2 0x135E JUMP JUMPDEST SWAP1 POP PUSH2 0x13A9 PUSH1 0x20 DUP4 ADD DUP6 PUSH2 0xCBC JUMP JUMPDEST PUSH2 0x13B6 PUSH1 0x40 DUP4 ADD DUP5 PUSH2 0xC60 JUMP JUMPDEST SWAP4 SWAP3 POP POP POP JUMP JUMPDEST PUSH32 0x4E487B7100000000000000000000000000000000000000000000000000000000 PUSH1 0x0 MSTORE PUSH1 0x11 PUSH1 0x4 MSTORE PUSH1 0x24 PUSH1 0x0 REVERT JUMPDEST PUSH1 0x0 PUSH2 0x13F7 DUP3 PUSH2 0xC56 JUMP JUMPDEST SWAP2 POP PUSH2 0x1402 DUP4 PUSH2 0xC56 JUMP JUMPDEST SWAP3 POP DUP3 DUP3 ADD SWAP1 POP DUP1 DUP3 GT ISZERO PUSH2 0x141A JUMPI PUSH2 0x1419 PUSH2 0x13BD JUMP JUMPDEST JUMPDEST SWAP3 SWAP2 POP POP JUMP JUMPDEST PUSH1 0x0 PUSH1 0x60 DUP3 ADD SWAP1 POP PUSH2 0x1435 PUSH1 0x0 DUP4 ADD DUP7 PUSH2 0xF0F JUMP JUMPDEST DUP2 DUP2 SUB PUSH1 0x20 DUP4 ADD MSTORE PUSH2 0x1447 DUP2 DUP6 PUSH2 0x10C8 JUMP JUMPDEST SWAP1 POP PUSH2 0x1456 PUSH1 0x40 DUP4 ADD DUP5 PUSH2 0xC60 JUMP JUMPDEST SWAP5 SWAP4 POP POP POP POP JUMP INVALID LOG2 PUSH5 0x6970667358 0x22 SLT KECCAK256 PUSH28 0xCECA3A722F886996CC3622915FCC1CFCCC09F5F83741661510AEA2B7 PUSH23 0x2A1B64736F6C6343000813003300000000000000000000 "
				},
				"gasEstimates": {
					"creation": {
						"codeDepositCost": "1053600",
						"executionCost": "infinite",
						"totalCost": "infinite"
					},
					"external": {
						"bidders(address)": "2880",
						"close()": "infinite",
						"endAt()": "2496",
						"getWinner()": "4693",
						"isOpen()": "4673",
						"offer()": "6868",
						"open()": "infinite",
						"retireFunds()": "infinite",
						"retireWin()": "infinite"
					}
				},
				"methodIdentifiers": {
					"bidders(address)": "fcc8f793",
					"close()": "43d726d6",
					"endAt()": "7cc3ae8c",
					"getWinner()": "8e7ea5b2",
					"isOpen()": "47535d7b",
					"offer()": "c028df06",
					"open()": "fcfff16f",
					"retireFunds()": "9ba33eb5",
					"retireWin()": "4df1deb7"
				}
			},
			"storageLayout": {
				"storage": [
					{
						"astId": 3,
						"contract": "Project/MultiAgentBlockchain/auction.sol:Auction",
						"label": "owner",
						"offset": 0,
						"slot": "0",
						"type": "t_address_payable"
					},
					{
						"astId": 5,
						"contract": "Project/MultiAgentBlockchain/auction.sol:Auction",
						"label": "object",
						"offset": 0,
						"slot": "1",
						"type": "t_string_storage"
					},
					{
						"astId": 7,
						"contract": "Project/MultiAgentBlockchain/auction.sol:Auction",
						"label": "price",
						"offset": 0,
						"slot": "2",
						"type": "t_uint256"
					},
					{
						"astId": 9,
						"contract": "Project/MultiAgentBlockchain/auction.sol:Auction",
						"label": "endAt",
						"offset": 0,
						"slot": "3",
						"type": "t_uint256"
					},
					{
						"astId": 11,
						"contract": "Project/MultiAgentBlockchain/auction.sol:Auction",
						"label": "winner",
						"offset": 0,
						"slot": "4",
						"type": "t_address"
					},
					{
						"astId": 13,
						"contract": "Project/MultiAgentBlockchain/auction.sol:Auction",
						"label": "best_price",
						"offset": 0,
						"slot": "5",
						"type": "t_uint256"
					},
					{
						"astId": 15,
						"contract": "Project/MultiAgentBlockchain/auction.sol:Auction",
						"label": "is_open",
						"offset": 0,
						"slot": "6",
						"type": "t_bool"
					},
					{
						"astId": 19,
						"contract": "Project/MultiAgentBlockchain/auction.sol:Auction",
						"label": "bidders",
						"offset": 0,
						"slot": "7",
						"type": "t_mapping(t_address,t_uint256)"
					},
					{
						"astId": 22,
						"contract": "Project/MultiAgentBlockchain/auction.sol:Auction",
						"label": "users",
						"offset": 0,
						"slot": "8",
						"type": "t_array(t_address)dyn_storage"
					},
					{
						"astId": 37,
						"contract": "Project/MultiAgentBlockchain/auction.sol:Auction",
						"label": "userPositions",
						"offset": 0,
						"slot": "9",
						"type": "t_array(t_uint256)10_storage"
					}
				],
				"types": {
					"t_address": {
						"encoding": "inplace",
						"label": "address",
						"numberOfBytes": "20"
					},
					"t_address_payable": {
						"encoding": "inplace",
						"label": "address payable",
						"numberOfBytes": "20"
					},
					"t_array(t_address)dyn_storage": {
						"base": "t_address",
						"encoding": "dynamic_array",
						"label": "address[]",
						"numberOfBytes": "32"
					},
					"t_array(t_uint256)10_storage": {
						"base": "t_uint256",
						"encoding": "inplace",
						"label": "uint256[10]",
						"numberOfBytes": "320"
					},
					"t_bool": {
						"encoding": "inplace",
						"label": "bool",
						"numberOfBytes": "1"
					},
					"t_mapping(t_address,t_uint256)": {
						"encoding": "mapping",
						"key": "t_address",
						"label": "mapping(address => uint256)",
						"numberOfBytes": "32",
						"value": "t_uint256"
					},
					"t_string_storage": {
						"encoding": "bytes",
						"label": "string",
						"numberOfBytes": "32"
					},
					"t_uint256": {
						"encoding": "inplace",
						"label": "uint256",
						"numberOfBytes": "32"
					}
				}
			},
			"userdoc": {
				"kind": "user",
				"methods": {},
				"version": 1
			}
		}
	}
}