{
  "contractName": "First_Try",
  "abi": [
    {
      "inputs": [],
      "stateMutability": "nonpayable",
      "type": "constructor"
    },
    {
      "inputs": [],
      "name": "owner",
      "outputs": [
        {
          "internalType": "address",
          "name": "",
          "type": "address"
        }
      ],
      "stateMutability": "view",
      "type": "function",
      "constant": true
    },
    {
      "inputs": [
        {
          "internalType": "uint256",
          "name": "",
          "type": "uint256"
        }
      ],
      "name": "tickets",
      "outputs": [
        {
          "internalType": "address",
          "name": "owner",
          "type": "address"
        },
        {
          "internalType": "uint256",
          "name": "price",
          "type": "uint256"
        }
      ],
      "stateMutability": "view",
      "type": "function",
      "constant": true
    },
    {
      "inputs": [
        {
          "internalType": "uint256",
          "name": "ticketId",
          "type": "uint256"
        }
      ],
      "name": "buyTicket",
      "outputs": [],
      "stateMutability": "payable",
      "type": "function",
      "payable": true
    }
  ],
  "bytecode": "0x6080604052335f806101000a81548173ffffffffffffffffffffffffffffffffffffffff021916908373ffffffffffffffffffffffffffffffffffffffff16021790555034801561004e575f80fd5b505f5b600a8110156100ed575f600182600a811061006f5761006e6100f3565b5b600202015f015f6101000a81548173ffffffffffffffffffffffffffffffffffffffff021916908373ffffffffffffffffffffffffffffffffffffffff16021790555067016345785d8a0000600182600a81106100cf576100ce6100f3565b5b600202016001018190555080806100e590610156565b915050610051565b5061019d565b7f4e487b71000000000000000000000000000000000000000000000000000000005f52603260045260245ffd5b7f4e487b71000000000000000000000000000000000000000000000000000000005f52601160045260245ffd5b5f819050919050565b5f6101608261014d565b91507fffffffffffffffffffffffffffffffffffffffffffffffffffffffffffffffff820361019257610191610120565b5b600182019050919050565b61056c806101aa5f395ff3fe608060405260043610610033575f3560e01c806350b447121461003757806367dd74ca146100745780638da5cb5b14610090575b5f80fd5b348015610042575f80fd5b5061005d60048036038101906100589190610308565b6100ba565b60405161006b929190610381565b60405180910390f35b61008e60048036038101906100899190610308565b610100565b005b34801561009b575f80fd5b506100a46102ae565b6040516100b191906103a8565b60405180910390f35b600181600a81106100c9575f80fd5b600202015f91509050805f015f9054906101000a900473ffffffffffffffffffffffffffffffffffffffff16908060010154905082565b5f81101580156101105750600a81105b61014f576040517f08c379a00000000000000000000000000000000000000000000000000000000081526004016101469061041b565b60405180910390fd5b600181600a811061016357610162610439565b5b600202016001015434146101ac576040517f08c379a00000000000000000000000000000000000000000000000000000000081526004016101a3906104b0565b60405180910390fd5b5f73ffffffffffffffffffffffffffffffffffffffff16600182600a81106101d7576101d6610439565b5b600202015f015f9054906101000a900473ffffffffffffffffffffffffffffffffffffffff1673ffffffffffffffffffffffffffffffffffffffff1614610253576040517f08c379a000000000000000000000000000000000000000000000000000000000815260040161024a90610518565b60405180910390fd5b33600182600a811061026857610267610439565b5b600202015f015f6101000a81548173ffffffffffffffffffffffffffffffffffffffff021916908373ffffffffffffffffffffffffffffffffffffffff16021790555050565b5f8054906101000a900473ffffffffffffffffffffffffffffffffffffffff1681565b5f80fd5b5f819050919050565b6102e7816102d5565b81146102f1575f80fd5b50565b5f81359050610302816102de565b92915050565b5f6020828403121561031d5761031c6102d1565b5b5f61032a848285016102f4565b91505092915050565b5f73ffffffffffffffffffffffffffffffffffffffff82169050919050565b5f61035c82610333565b9050919050565b61036c81610352565b82525050565b61037b816102d5565b82525050565b5f6040820190506103945f830185610363565b6103a16020830184610372565b9392505050565b5f6020820190506103bb5f830184610363565b92915050565b5f82825260208201905092915050565b7f5469636b657420494420646f6573206e6f7420657869737400000000000000005f82015250565b5f6104056018836103c1565b9150610410826103d1565b602082019050919050565b5f6020820190508181035f830152610432816103f9565b9050919050565b7f4e487b71000000000000000000000000000000000000000000000000000000005f52603260045260245ffd5b7f4e6f7420656e6f7567682045746865722070726f7669646564000000000000005f82015250565b5f61049a6019836103c1565b91506104a582610466565b602082019050919050565b5f6020820190508181035f8301526104c78161048e565b9050919050565b7f5469636b657420616c726561647920736f6c64000000000000000000000000005f82015250565b5f6105026013836103c1565b915061050d826104ce565b602082019050919050565b5f6020820190508181035f83015261052f816104f6565b905091905056fea2646970667358221220888c113df215a8ec4b3fc4befb6aa707cff8d2e3ed978dc1d8dfecfb23f34ceb64736f6c63430008150033",
  "immutableReferences": {},
  "source": "// SPDX-License-Identifier: MIT\npragma solidity >=0.4.22 <0.9.0;\n\nuint256 constant TOTAL_TICKETS = 10;\n\ncontract First_Try {\n  address public owner = msg.sender;\n\n  struct Ticket {\n    address owner;\n    uint256 price;\n  }\n\n  Ticket[TOTAL_TICKETS] public tickets;\n\n  constructor() {\n    for (uint256 i = 0; i < TOTAL_TICKETS; i++) {\n      tickets[i].owner = address(0x0);\n      tickets[i].price = 1e17;\n    }\n  }\n  \n  function buyTicket(uint256 ticketId) external payable {\n    require(ticketId >= 0 && ticketId < TOTAL_TICKETS, \"Ticket ID does not exist\");\n    require(msg.value == tickets[ticketId].price, \"Not enough Ether provided\");\n    require(tickets[ticketId].owner == address(0x0), \"Ticket already sold\");\n\n    tickets[ticketId].owner = msg.sender;\n  }\n\n}\n\n\n",
  "sourcePath": "/home/vinz/Project/MultiAgentBlockchain/sc_deploy/contracts/First_Try.sol",
  "compiler": {
    "name": "solc",
    "version": "0.8.21+commit.d9974bed.Emscripten.clang"
  },
  "schemaVersion": "3.4.16",
  "updatedAt": "2024-01-19T16:07:43.238Z",
  "networkType": "ethereum",
  "devdoc": {
    "kind": "dev",
    "methods": {},
    "version": 1
  },
  "userdoc": {
    "kind": "user",
    "methods": {},
    "version": 1
  }
}