{
  "contractName": "First_Try",
  "abi": [
    {
      "inputs": [],
      "stateMutability": "nonpayable",
      "type": "constructor"
    },
    {
      "inputs": [],
      "name": "owner",
      "outputs": [
        {
          "internalType": "address",
          "name": "",
          "type": "address"
        }
      ],
      "stateMutability": "view",
      "type": "function",
      "constant": true
    },
    {
      "inputs": [
        {
          "internalType": "uint256",
          "name": "",
          "type": "uint256"
        }
      ],
      "name": "tickets",
      "outputs": [
        {
          "internalType": "address",
          "name": "owner",
          "type": "address"
        },
        {
          "internalType": "uint256",
          "name": "price",
          "type": "uint256"
        }
      ],
      "stateMutability": "view",
      "type": "function",
      "constant": true
    },
    {
      "inputs": [
        {
          "internalType": "uint256",
          "name": "ticketId",
          "type": "uint256"
        }
      ],
      "name": "buyTicket",
      "outputs": [],
      "stateMutability": "payable",
      "type": "function",
      "payable": true
    }
  ],
  "bytecode": "0x6080604052336000806101000a81548173ffffffffffffffffffffffffffffffffffffffff021916908373ffffffffffffffffffffffffffffffffffffffff16021790555034801561005057600080fd5b5060005b600a8110156100f3576000600182600a8110610073576100726100f9565b5b6002020160000160006101000a81548173ffffffffffffffffffffffffffffffffffffffff021916908373ffffffffffffffffffffffffffffffffffffffff160217905550670de0b6b3a7640000600182600a81106100d5576100d46100f9565b5b600202016001018190555080806100eb90610161565b915050610054565b506101a9565b7f4e487b7100000000000000000000000000000000000000000000000000000000600052603260045260246000fd5b7f4e487b7100000000000000000000000000000000000000000000000000000000600052601160045260246000fd5b6000819050919050565b600061016c82610157565b91507fffffffffffffffffffffffffffffffffffffffffffffffffffffffffffffffff820361019e5761019d610128565b5b600182019050919050565b610596806101b86000396000f3fe6080604052600436106100345760003560e01c806350b447121461003957806367dd74ca146100775780638da5cb5b14610093575b600080fd5b34801561004557600080fd5b50610060600480360381019061005b919061031b565b6100be565b60405161006e929190610398565b60405180910390f35b610091600480360381019061008c919061031b565b610108565b005b34801561009f57600080fd5b506100a86102bc565b6040516100b591906103c1565b60405180910390f35b600181600a81106100ce57600080fd5b600202016000915090508060000160009054906101000a900473ffffffffffffffffffffffffffffffffffffffff16908060010154905082565b600081101580156101195750600a81105b610158576040517f08c379a000000000000000000000000000000000000000000000000000000000815260040161014f90610439565b60405180910390fd5b600181600a811061016c5761016b610459565b5b600202016001015434146101b5576040517f08c379a00000000000000000000000000000000000000000000000000000000081526004016101ac906104d4565b60405180910390fd5b600073ffffffffffffffffffffffffffffffffffffffff16600182600a81106101e1576101e0610459565b5b6002020160000160009054906101000a900473ffffffffffffffffffffffffffffffffffffffff1673ffffffffffffffffffffffffffffffffffffffff161461025f576040517f08c379a000000000000000000000000000000000000000000000000000000000815260040161025690610540565b60405180910390fd5b33600182600a811061027457610273610459565b5b6002020160000160006101000a81548173ffffffffffffffffffffffffffffffffffffffff021916908373ffffffffffffffffffffffffffffffffffffffff16021790555050565b60008054906101000a900473ffffffffffffffffffffffffffffffffffffffff1681565b600080fd5b6000819050919050565b6102f8816102e5565b811461030357600080fd5b50565b600081359050610315816102ef565b92915050565b600060208284031215610331576103306102e0565b5b600061033f84828501610306565b91505092915050565b600073ffffffffffffffffffffffffffffffffffffffff82169050919050565b600061037382610348565b9050919050565b61038381610368565b82525050565b610392816102e5565b82525050565b60006040820190506103ad600083018561037a565b6103ba6020830184610389565b9392505050565b60006020820190506103d6600083018461037a565b92915050565b600082825260208201905092915050565b7f5469636b657420494420646f6573206e6f742065786973740000000000000000600082015250565b60006104236018836103dc565b915061042e826103ed565b602082019050919050565b6000602082019050818103600083015261045281610416565b9050919050565b7f4e487b7100000000000000000000000000000000000000000000000000000000600052603260045260246000fd5b7f4e6f7420656e6f7567682045746865722070726f766964656400000000000000600082015250565b60006104be6019836103dc565b91506104c982610488565b602082019050919050565b600060208201905081810360008301526104ed816104b1565b9050919050565b7f5469636b657420616c726561647920736f6c6400000000000000000000000000600082015250565b600061052a6013836103dc565b9150610535826104f4565b602082019050919050565b600060208201905081810360008301526105598161051d565b905091905056fea2646970667358221220a1a385587b33ed9978725317934de3a8c1230fd351358c22ff6a1846b0ad0e9c64736f6c63430008130033",
  "immutableReferences": {},
  "source": "// SPDX-License-Identifier: UNLICENSED\npragma solidity ^ 0.8.9;\n\nuint256 constant TOTAL_TICKETS = 10;\n\ncontract First_Try {\n  address public owner = msg.sender;\n\n  struct Ticket {\n    address owner;\n    uint256 price;\n  }\n\n  Ticket[TOTAL_TICKETS] public tickets;\n\n  constructor() {\n    for (uint256 i = 0; i < TOTAL_TICKETS; i++) {\n      tickets[i].owner = address(0x0);\n      tickets[i].price = 10e17;\n    }\n  }\n  \n  function buyTicket(uint256 ticketId) external payable {\n    require(ticketId >= 0 && ticketId < TOTAL_TICKETS, \"Ticket ID does not exist\");\n    require(msg.value == tickets[ticketId].price, \"Not enough Ether provided\");\n    require(tickets[ticketId].owner == address(0x0), \"Ticket already sold\");\n\n    tickets[ticketId].owner = msg.sender;\n  }\n\n}\n\n\n",
  "sourcePath": "/home/vinz/Project/MultiAgentBlockchain/sc_deploy/contracts/First_Try.sol",
  "compiler": {
    "name": "solc",
    "version": "0.8.19+commit.7dd6d404.Emscripten.clang"
  },
  "schemaVersion": "3.4.16",
  "updatedAt": "2024-01-22T15:17:39.839Z",
  "networkType": "ethereum",
  "devdoc": {
    "kind": "dev",
    "methods": {},
    "version": 1
  },
  "userdoc": {
    "kind": "user",
    "methods": {},
    "version": 1
  }
}