{
	"data": {
		"bytecode": {
			"linkReferences": {},
			"object": "60806040526040518061014001604052806040518060400160405280600781526020017f546172676574310000000000000000000000000000000000000000000000000081525081526020016040518060400160405280600781526020017f546172676574320000000000000000000000000000000000000000000000000081525081526020016040518060400160405280600781526020017f546172676574330000000000000000000000000000000000000000000000000081525081526020016040518060400160405280600781526020017f546172676574340000000000000000000000000000000000000000000000000081525081526020016040518060400160405280600781526020017f546172676574350000000000000000000000000000000000000000000000000081525081526020016040518060400160405280600781526020017f546172676574360000000000000000000000000000000000000000000000000081525081526020016040518060400160405280600781526020017f546172676574370000000000000000000000000000000000000000000000000081525081526020016040518060400160405280600781526020017f546172676574380000000000000000000000000000000000000000000000000081525081526020016040518060400160405280600781526020017f546172676574390000000000000000000000000000000000000000000000000081525081526020016040518060400160405280600881526020017f5461726765743130000000000000000000000000000000000000000000000000815250815250600090600a6200026e929190620003cb565b50604051806101400160405280603760ff168152602001600c60ff168152602001601c60ff168152602001605660ff168152602001602760ff168152602001606360ff168152602001600460ff168152602001604160ff168152602001601e60ff168152602001600860ff16815250600a90600a620002ef9291906200041e565b50604051806101400160405280603960ff168152602001605960ff168152602001601760ff168152602001604460ff168152602001600560ff168152602001605e60ff168152602001601160ff168152602001602460ff168152602001602e60ff168152602001604960ff16815250601490600a620003709291906200041e565b5060006023553480156200038357600080fd5b5033601f60006101000a81548173ffffffffffffffffffffffffffffffffffffffff021916908373ffffffffffffffffffffffffffffffffffffffff16021790555062000856565b82600a81019282156200040b579160200282015b828111156200040a578251829081620003f991906200076f565b5091602001919060010190620003df565b5b5090506200041a919062000468565b5090565b82600a810192821562000455579160200282015b8281111562000454578251829060ff1690559160200191906001019062000432565b5b50905062000464919062000490565b5090565b5b808211156200048c5760008181620004829190620004af565b5060010162000469565b5090565b5b80821115620004ab57600081600090555060010162000491565b5090565b508054620004bd906200055e565b6000825580601f10620004d15750620004f2565b601f016020900490600052602060002090810190620004f1919062000490565b5b50565b600081519050919050565b7f4e487b7100000000000000000000000000000000000000000000000000000000600052604160045260246000fd5b7f4e487b7100000000000000000000000000000000000000000000000000000000600052602260045260246000fd5b600060028204905060018216806200057757607f821691505b6020821081036200058d576200058c6200052f565b5b50919050565b60008190508160005260206000209050919050565b60006020601f8301049050919050565b600082821b905092915050565b600060088302620005f77fffffffffffffffffffffffffffffffffffffffffffffffffffffffffffffffff82620005b8565b620006038683620005b8565b95508019841693508086168417925050509392505050565b6000819050919050565b6000819050919050565b6000620006506200064a62000644846200061b565b62000625565b6200061b565b9050919050565b6000819050919050565b6200066c836200062f565b620006846200067b8262000657565b848454620005c5565b825550505050565b600090565b6200069b6200068c565b620006a881848462000661565b505050565b5b81811015620006d057620006c460008262000691565b600181019050620006ae565b5050565b601f8211156200071f57620006e98162000593565b620006f484620005a8565b8101602085101562000704578190505b6200071c6200071385620005a8565b830182620006ad565b50505b505050565b600082821c905092915050565b6000620007446000198460080262000724565b1980831691505092915050565b60006200075f838362000731565b9150826002028217905092915050565b6200077a82620004f5565b67ffffffffffffffff81111562000796576200079562000500565b5b620007a282546200055e565b620007af828285620006d4565b600060209050601f831160018114620007e75760008415620007d2578287015190505b620007de858262000751565b8655506200084e565b601f198416620007f78662000593565b60005b828110156200082157848901518255600182019150602085019450602081019050620007fa565b868310156200084157848901516200083d601f89168262000731565b8355505b6001600288020188555050505b505050505050565b611a0580620008666000396000f3fe6080604052600436106100705760003560e01c80639a2f64741161004e5780639a2f6474146100ad5780639ba33eb5146100d6578063da3bf0bf146100e0578063fcfff16f1461010957610070565b806343d726d6146100755780634df1deb71461008c5780636b64c76914610096575b600080fd5b34801561008157600080fd5b5061008a610120565b005b6100946102e9565b005b3480156100a257600080fd5b506100ab6104c2565b005b3480156100b957600080fd5b506100d460048036038101906100cf9190610da2565b610634565b005b6100de6108fd565b005b3480156100ec57600080fd5b5061010760048036038101906101029190610f15565b610b28565b005b34801561011557600080fd5b5061011e610c38565b005b60011515602660009054906101000a900460ff16151514610176576040517f08c379a000000000000000000000000000000000000000000000000000000000815260040161016d90610fce565b60405180910390fd5b601f60009054906101000a900473ffffffffffffffffffffffffffffffffffffffff1673ffffffffffffffffffffffffffffffffffffffff163373ffffffffffffffffffffffffffffffffffffffff1614610206576040517f08c379a00000000000000000000000000000000000000000000000000000000081526004016101fd90611060565b60405180910390fd5b60225442101561024b576040517f08c379a0000000000000000000000000000000000000000000000000000000008152600401610242906110cc565b60405180910390fd5b7fe810c871ce50ff674e2e5e2a570cf162a6ee85fe638d22afd8c00a57904f86e8601f60009054906101000a900473ffffffffffffffffffffffffffffffffffffffff16602460009054906101000a900473ffffffffffffffffffffffffffffffffffffffff166025546040516102c49392919061119b565b60405180910390a16000602660006101000a81548160ff021916908315150217905550565b602460009054906101000a900473ffffffffffffffffffffffffffffffffffffffff1673ffffffffffffffffffffffffffffffffffffffff163373ffffffffffffffffffffffffffffffffffffffff1614610379576040517f08c379a000000000000000000000000000000000000000000000000000000000815260040161037090611244565b60405180910390fd5b60001515602660009054906101000a900460ff161515146103cf576040517f08c379a00000000000000000000000000000000000000000000000000000000081526004016103c6906112b0565b60405180910390fd5b7f5e8c64c7c4bf81541143e96785b6fe89c8c1c2e524aac8b02d7e09f899a3108e602460009054906101000a900473ffffffffffffffffffffffffffffffffffffffff1660206040516104239291906113c9565b60405180910390a1602460009054906101000a900473ffffffffffffffffffffffffffffffffffffffff16601e6000602354600a8110610466576104656113f9565b5b0160405161047491906114b6565b908152602001604051809103902060006101000a81548173ffffffffffffffffffffffffffffffffffffffff021916908373ffffffffffffffffffffffffffffffffffffffff160217905550565b601f60009054906101000a900473ffffffffffffffffffffffffffffffffffffffff1673ffffffffffffffffffffffffffffffffffffffff163373ffffffffffffffffffffffffffffffffffffffff1614610552576040517f08c379a000000000000000000000000000000000000000000000000000000000815260040161054990611060565b60405180910390fd5b6106126000602354600a811061056b5761056a6113f9565b5b018054610577906112ff565b80601f01602080910402602001604051908101604052809291908181526020018280546105a3906112ff565b80156105f05780601f106105c5576101008083540402835291602001916105f0565b820191906000526020600020905b8154815290600101906020018083116105d357829003601f168201915b5050505050600a602354600a811061060b5761060a6113f9565b5b0154610b28565b61061a610c38565b6023600081548092919061062d906114fc565b9190505550565b60011515602660009054906101000a900460ff1615151461068a576040517f08c379a000000000000000000000000000000000000000000000000000000000815260040161068190610fce565b60405180910390fd5b60255481106106ce576040517f08c379a00000000000000000000000000000000000000000000000000000000081526004016106c5906115b6565b60405180910390fd5b6022544210610712576040517f08c379a0000000000000000000000000000000000000000000000000000000008152600401610709906110cc565b60405180910390fd5b7f7a1ef295a7b3ead528a3d5dc5108df6fbe47739a34aa589a11433b98ce53c60e3382604051610743929190611622565b60405180910390a18060258190555033602460006101000a81548173ffffffffffffffffffffffffffffffffffffffff021916908373ffffffffffffffffffffffffffffffffffffffff160217905550600060276000602460009054906101000a900473ffffffffffffffffffffffffffffffffffffffff1673ffffffffffffffffffffffffffffffffffffffff1673ffffffffffffffffffffffffffffffffffffffff1681526020019081526020016000205403610882576028602460009054906101000a900473ffffffffffffffffffffffffffffffffffffffff169080600181540180825580915050600190039060005260206000200160009091909190916101000a81548173ffffffffffffffffffffffffffffffffffffffff021916908373ffffffffffffffffffffffffffffffffffffffff1602179055505b8060276000602460009054906101000a900473ffffffffffffffffffffffffffffffffffffffff1673ffffffffffffffffffffffffffffffffffffffff1673ffffffffffffffffffffffffffffffffffffffff16815260200190815260200160002060008282546108f3919061165e565b9250508190555050565b602460009054906101000a900473ffffffffffffffffffffffffffffffffffffffff1673ffffffffffffffffffffffffffffffffffffffff163373ffffffffffffffffffffffffffffffffffffffff160361098d576040517f08c379a0000000000000000000000000000000000000000000000000000000008152600401610984906116de565b60405180910390fd5b60001515602660009054906101000a900460ff161515146109e3576040517f08c379a00000000000000000000000000000000000000000000000000000000081526004016109da906112b0565b60405180910390fd5b7feaff4b37086828766ad3268786972c0cd24259d4c87a80f9d3963a3c3d999b0d33602760003373ffffffffffffffffffffffffffffffffffffffff1673ffffffffffffffffffffffffffffffffffffffff16815260200190815260200160002054604051610a539291906116fe565b60405180910390a13373ffffffffffffffffffffffffffffffffffffffff166108fc602760003373ffffffffffffffffffffffffffffffffffffffff1673ffffffffffffffffffffffffffffffffffffffff168152602001908152602001600020549081150290604051600060405180830381858888f19350505050158015610ae0573d6000803e3d6000fd5b506000602760003373ffffffffffffffffffffffffffffffffffffffff1673ffffffffffffffffffffffffffffffffffffffff16815260200190815260200160002081905550565b601f60009054906101000a900473ffffffffffffffffffffffffffffffffffffffff1673ffffffffffffffffffffffffffffffffffffffff163373ffffffffffffffffffffffffffffffffffffffff1614610bb8576040517f08c379a0000000000000000000000000000000000000000000000000000000008152600401610baf90611060565b60405180910390fd5b8160209081610bc791906118bf565b50806021819055506000602460006101000a81548173ffffffffffffffffffffffffffffffffffffffff021916908373ffffffffffffffffffffffffffffffffffffffff16021790555060006025819055506000602660006101000a81548160ff0219169083151502179055505050565b601f60009054906101000a900473ffffffffffffffffffffffffffffffffffffffff1673ffffffffffffffffffffffffffffffffffffffff163373ffffffffffffffffffffffffffffffffffffffff1614610cc8576040517f08c379a0000000000000000000000000000000000000000000000000000000008152600401610cbf90611060565b60405180910390fd5b7f6969a1bc7452d86873151bfd13167742e1951b4af640dfd8218b7eddd7ec6632601f60009054906101000a900473ffffffffffffffffffffffffffffffffffffffff166020602154604051610d2093929190611991565b60405180910390a16001602660006101000a81548160ff021916908315150217905550600a42610d50919061165e565b602281905550565b6000604051905090565b600080fd5b600080fd5b6000819050919050565b610d7f81610d6c565b8114610d8a57600080fd5b50565b600081359050610d9c81610d76565b92915050565b600060208284031215610db857610db7610d62565b5b6000610dc684828501610d8d565b91505092915050565b600080fd5b600080fd5b6000601f19601f8301169050919050565b7f4e487b7100000000000000000000000000000000000000000000000000000000600052604160045260246000fd5b610e2282610dd9565b810181811067ffffffffffffffff82111715610e4157610e40610dea565b5b80604052505050565b6000610e54610d58565b9050610e608282610e19565b919050565b600067ffffffffffffffff821115610e8057610e7f610dea565b5b610e8982610dd9565b9050602081019050919050565b82818337600083830152505050565b6000610eb8610eb384610e65565b610e4a565b905082815260208101848484011115610ed457610ed3610dd4565b5b610edf848285610e96565b509392505050565b600082601f830112610efc57610efb610dcf565b5b8135610f0c848260208601610ea5565b91505092915050565b60008060408385031215610f2c57610f2b610d62565b5b600083013567ffffffffffffffff811115610f4a57610f49610d67565b5b610f5685828601610ee7565b9250506020610f6785828601610d8d565b9150509250929050565b600082825260208201905092915050565b7f5468652061756374696f6e206861766520746f206f70656e6564206669727374600082015250565b6000610fb8602083610f71565b9150610fc382610f82565b602082019050919050565b60006020820190508181036000830152610fe781610fab565b9050919050565b7f4f6e6c7920746865206f776e65722063616e206d61646520746869732061637460008201527f696f6e0000000000000000000000000000000000000000000000000000000000602082015250565b600061104a602383610f71565b915061105582610fee565b604082019050919050565b600060208201905081810360008301526110798161103d565b9050919050565b7f41756374696f6e207374696c6c206e6f7420656e646564000000000000000000600082015250565b60006110b6601783610f71565b91506110c182611080565b602082019050919050565b600060208201905081810360008301526110e5816110a9565b9050919050565b600073ffffffffffffffffffffffffffffffffffffffff82169050919050565b6000819050919050565b600061113161112c611127846110ec565b61110c565b6110ec565b9050919050565b600061114382611116565b9050919050565b600061115582611138565b9050919050565b6111658161114a565b82525050565b6000611176826110ec565b9050919050565b6111868161116b565b82525050565b61119581610d6c565b82525050565b60006060820190506111b0600083018661115c565b6111bd602083018561117d565b6111ca604083018461118c565b949350505050565b7f4f6e6c79207468652077696e6e65722063616e206f627461696e20746865207460008201527f61736b0000000000000000000000000000000000000000000000000000000000602082015250565b600061122e602383610f71565b9150611239826111d2565b604082019050919050565b6000602082019050818103600083015261125d81611221565b9050919050565b7f5468652061756374696f6e206973207374696c6c206f70656e65640000000000600082015250565b600061129a601b83610f71565b91506112a582611264565b602082019050919050565b600060208201905081810360008301526112c98161128d565b9050919050565b7f4e487b7100000000000000000000000000000000000000000000000000000000600052602260045260246000fd5b6000600282049050600182168061131757607f821691505b60208210810361132a576113296112d0565b5b50919050565b60008190508160005260206000209050919050565b60008154611352816112ff565b61135c8186610f71565b94506001821660008114611377576001811461138d576113c0565b60ff1983168652811515602002860193506113c0565b61139685611330565b60005b838110156113b857815481890152600182019150602081019050611399565b808801955050505b50505092915050565b60006040820190506113de600083018561117d565b81810360208301526113f08184611345565b90509392505050565b7f4e487b7100000000000000000000000000000000000000000000000000000000600052603260045260246000fd5b600081905092915050565b60008154611440816112ff565b61144a8186611428565b94506001821660008114611465576001811461147a576114ad565b60ff19831686528115158202860193506114ad565b61148385611330565b60005b838110156114a557815481890152600182019150602081019050611486565b838801955050505b50505092915050565b60006114c28284611433565b915081905092915050565b7f4e487b7100000000000000000000000000000000000000000000000000000000600052601160045260246000fd5b600061150782610d6c565b91507fffffffffffffffffffffffffffffffffffffffffffffffffffffffffffffffff8203611539576115386114cd565b5b600182019050919050565b7f546865206f66666572206d61646520646f6573206e6f7420657863656564207460008201527f6865206265737400000000000000000000000000000000000000000000000000602082015250565b60006115a0602783610f71565b91506115ab82611544565b604082019050919050565b600060208201905081810360008301526115cf81611593565b9050919050565b7f4e6577206269642069732070726f706f7365643a000000000000000000000000600082015250565b600061160c601483610f71565b9150611617826115d6565b602082019050919050565b6000606082019050818103600083015261163b816115ff565b905061164a602083018561117d565b611657604083018461118c565b9392505050565b600061166982610d6c565b915061167483610d6c565b925082820190508082111561168c5761168b6114cd565b5b92915050565b7f57696e6e65722063616e27742077697468647261772066756e64730000000000600082015250565b60006116c8601b83610f71565b91506116d382611692565b602082019050919050565b600060208201905081810360008301526116f7816116bb565b9050919050565b6000604082019050611713600083018561117d565b611720602083018461118c565b9392505050565b600081519050919050565b60006020601f8301049050919050565b600082821b905092915050565b60006008830261177f7fffffffffffffffffffffffffffffffffffffffffffffffffffffffffffffffff82611742565b6117898683611742565b95508019841693508086168417925050509392505050565b60006117bc6117b76117b284610d6c565b61110c565b610d6c565b9050919050565b6000819050919050565b6117d6836117a1565b6117ea6117e2826117c3565b84845461174f565b825550505050565b600090565b6117ff6117f2565b61180a8184846117cd565b505050565b5b8181101561182e576118236000826117f7565b600181019050611810565b5050565b601f8211156118735761184481611330565b61184d84611732565b8101602085101561185c578190505b61187061186885611732565b83018261180f565b50505b505050565b600082821c905092915050565b600061189660001984600802611878565b1980831691505092915050565b60006118af8383611885565b9150826002028217905092915050565b6118c882611727565b67ffffffffffffffff8111156118e1576118e0610dea565b5b6118eb82546112ff565b6118f6828285611832565b600060209050601f8311600181146119295760008415611917578287015190505b61192185826118a3565b865550611989565b601f19841661193786611330565b60005b8281101561195f5784890151825560018201915060208501945060208101905061193a565b8683101561197c5784890151611978601f891682611885565b8355505b6001600288020188555050505b505050505050565b60006060820190506119a6600083018661115c565b81810360208301526119b88185611345565b90506119c7604083018461118c565b94935050505056fea264697066735822122093afefe73d920bc466cc9a146b385075772be1a1fd004f8e3e2612abc40d87f964736f6c63430008130033",
			"opcodes": "PUSH1 0x80 PUSH1 0x40 MSTORE PUSH1 0x40 MLOAD DUP1 PUSH2 0x140 ADD PUSH1 0x40 MSTORE DUP1 PUSH1 0x40 MLOAD DUP1 PUSH1 0x40 ADD PUSH1 0x40 MSTORE DUP1 PUSH1 0x7 DUP2 MSTORE PUSH1 0x20 ADD PUSH32 0x5461726765743100000000000000000000000000000000000000000000000000 DUP2 MSTORE POP DUP2 MSTORE PUSH1 0x20 ADD PUSH1 0x40 MLOAD DUP1 PUSH1 0x40 ADD PUSH1 0x40 MSTORE DUP1 PUSH1 0x7 DUP2 MSTORE PUSH1 0x20 ADD PUSH32 0x5461726765743200000000000000000000000000000000000000000000000000 DUP2 MSTORE POP DUP2 MSTORE PUSH1 0x20 ADD PUSH1 0x40 MLOAD DUP1 PUSH1 0x40 ADD PUSH1 0x40 MSTORE DUP1 PUSH1 0x7 DUP2 MSTORE PUSH1 0x20 ADD PUSH32 0x5461726765743300000000000000000000000000000000000000000000000000 DUP2 MSTORE POP DUP2 MSTORE PUSH1 0x20 ADD PUSH1 0x40 MLOAD DUP1 PUSH1 0x40 ADD PUSH1 0x40 MSTORE DUP1 PUSH1 0x7 DUP2 MSTORE PUSH1 0x20 ADD PUSH32 0x5461726765743400000000000000000000000000000000000000000000000000 DUP2 MSTORE POP DUP2 MSTORE PUSH1 0x20 ADD PUSH1 0x40 MLOAD DUP1 PUSH1 0x40 ADD PUSH1 0x40 MSTORE DUP1 PUSH1 0x7 DUP2 MSTORE PUSH1 0x20 ADD PUSH32 0x5461726765743500000000000000000000000000000000000000000000000000 DUP2 MSTORE POP DUP2 MSTORE PUSH1 0x20 ADD PUSH1 0x40 MLOAD DUP1 PUSH1 0x40 ADD PUSH1 0x40 MSTORE DUP1 PUSH1 0x7 DUP2 MSTORE PUSH1 0x20 ADD PUSH32 0x5461726765743600000000000000000000000000000000000000000000000000 DUP2 MSTORE POP DUP2 MSTORE PUSH1 0x20 ADD PUSH1 0x40 MLOAD DUP1 PUSH1 0x40 ADD PUSH1 0x40 MSTORE DUP1 PUSH1 0x7 DUP2 MSTORE PUSH1 0x20 ADD PUSH32 0x5461726765743700000000000000000000000000000000000000000000000000 DUP2 MSTORE POP DUP2 MSTORE PUSH1 0x20 ADD PUSH1 0x40 MLOAD DUP1 PUSH1 0x40 ADD PUSH1 0x40 MSTORE DUP1 PUSH1 0x7 DUP2 MSTORE PUSH1 0x20 ADD PUSH32 0x5461726765743800000000000000000000000000000000000000000000000000 DUP2 MSTORE POP DUP2 MSTORE PUSH1 0x20 ADD PUSH1 0x40 MLOAD DUP1 PUSH1 0x40 ADD PUSH1 0x40 MSTORE DUP1 PUSH1 0x7 DUP2 MSTORE PUSH1 0x20 ADD PUSH32 0x5461726765743900000000000000000000000000000000000000000000000000 DUP2 MSTORE POP DUP2 MSTORE PUSH1 0x20 ADD PUSH1 0x40 MLOAD DUP1 PUSH1 0x40 ADD PUSH1 0x40 MSTORE DUP1 PUSH1 0x8 DUP2 MSTORE PUSH1 0x20 ADD PUSH32 0x5461726765743130000000000000000000000000000000000000000000000000 DUP2 MSTORE POP DUP2 MSTORE POP PUSH1 0x0 SWAP1 PUSH1 0xA PUSH3 0x26E SWAP3 SWAP2 SWAP1 PUSH3 0x3CB JUMP JUMPDEST POP PUSH1 0x40 MLOAD DUP1 PUSH2 0x140 ADD PUSH1 0x40 MSTORE DUP1 PUSH1 0x37 PUSH1 0xFF AND DUP2 MSTORE PUSH1 0x20 ADD PUSH1 0xC PUSH1 0xFF AND DUP2 MSTORE PUSH1 0x20 ADD PUSH1 0x1C PUSH1 0xFF AND DUP2 MSTORE PUSH1 0x20 ADD PUSH1 0x56 PUSH1 0xFF AND DUP2 MSTORE PUSH1 0x20 ADD PUSH1 0x27 PUSH1 0xFF AND DUP2 MSTORE PUSH1 0x20 ADD PUSH1 0x63 PUSH1 0xFF AND DUP2 MSTORE PUSH1 0x20 ADD PUSH1 0x4 PUSH1 0xFF AND DUP2 MSTORE PUSH1 0x20 ADD PUSH1 0x41 PUSH1 0xFF AND DUP2 MSTORE PUSH1 0x20 ADD PUSH1 0x1E PUSH1 0xFF AND DUP2 MSTORE PUSH1 0x20 ADD PUSH1 0x8 PUSH1 0xFF AND DUP2 MSTORE POP PUSH1 0xA SWAP1 PUSH1 0xA PUSH3 0x2EF SWAP3 SWAP2 SWAP1 PUSH3 0x41E JUMP JUMPDEST POP PUSH1 0x40 MLOAD DUP1 PUSH2 0x140 ADD PUSH1 0x40 MSTORE DUP1 PUSH1 0x39 PUSH1 0xFF AND DUP2 MSTORE PUSH1 0x20 ADD PUSH1 0x59 PUSH1 0xFF AND DUP2 MSTORE PUSH1 0x20 ADD PUSH1 0x17 PUSH1 0xFF AND DUP2 MSTORE PUSH1 0x20 ADD PUSH1 0x44 PUSH1 0xFF AND DUP2 MSTORE PUSH1 0x20 ADD PUSH1 0x5 PUSH1 0xFF AND DUP2 MSTORE PUSH1 0x20 ADD PUSH1 0x5E PUSH1 0xFF AND DUP2 MSTORE PUSH1 0x20 ADD PUSH1 0x11 PUSH1 0xFF AND DUP2 MSTORE PUSH1 0x20 ADD PUSH1 0x24 PUSH1 0xFF AND DUP2 MSTORE PUSH1 0x20 ADD PUSH1 0x2E PUSH1 0xFF AND DUP2 MSTORE PUSH1 0x20 ADD PUSH1 0x49 PUSH1 0xFF AND DUP2 MSTORE POP PUSH1 0x14 SWAP1 PUSH1 0xA PUSH3 0x370 SWAP3 SWAP2 SWAP1 PUSH3 0x41E JUMP JUMPDEST POP PUSH1 0x0 PUSH1 0x23 SSTORE CALLVALUE DUP1 ISZERO PUSH3 0x383 JUMPI PUSH1 0x0 DUP1 REVERT JUMPDEST POP CALLER PUSH1 0x1F PUSH1 0x0 PUSH2 0x100 EXP DUP2 SLOAD DUP2 PUSH20 0xFFFFFFFFFFFFFFFFFFFFFFFFFFFFFFFFFFFFFFFF MUL NOT AND SWAP1 DUP4 PUSH20 0xFFFFFFFFFFFFFFFFFFFFFFFFFFFFFFFFFFFFFFFF AND MUL OR SWAP1 SSTORE POP PUSH3 0x856 JUMP JUMPDEST DUP3 PUSH1 0xA DUP2 ADD SWAP3 DUP3 ISZERO PUSH3 0x40B JUMPI SWAP2 PUSH1 0x20 MUL DUP3 ADD JUMPDEST DUP3 DUP2 GT ISZERO PUSH3 0x40A JUMPI DUP3 MLOAD DUP3 SWAP1 DUP2 PUSH3 0x3F9 SWAP2 SWAP1 PUSH3 0x76F JUMP JUMPDEST POP SWAP2 PUSH1 0x20 ADD SWAP2 SWAP1 PUSH1 0x1 ADD SWAP1 PUSH3 0x3DF JUMP JUMPDEST JUMPDEST POP SWAP1 POP PUSH3 0x41A SWAP2 SWAP1 PUSH3 0x468 JUMP JUMPDEST POP SWAP1 JUMP JUMPDEST DUP3 PUSH1 0xA DUP2 ADD SWAP3 DUP3 ISZERO PUSH3 0x455 JUMPI SWAP2 PUSH1 0x20 MUL DUP3 ADD JUMPDEST DUP3 DUP2 GT ISZERO PUSH3 0x454 JUMPI DUP3 MLOAD DUP3 SWAP1 PUSH1 0xFF AND SWAP1 SSTORE SWAP2 PUSH1 0x20 ADD SWAP2 SWAP1 PUSH1 0x1 ADD SWAP1 PUSH3 0x432 JUMP JUMPDEST JUMPDEST POP SWAP1 POP PUSH3 0x464 SWAP2 SWAP1 PUSH3 0x490 JUMP JUMPDEST POP SWAP1 JUMP JUMPDEST JUMPDEST DUP1 DUP3 GT ISZERO PUSH3 0x48C JUMPI PUSH1 0x0 DUP2 DUP2 PUSH3 0x482 SWAP2 SWAP1 PUSH3 0x4AF JUMP JUMPDEST POP PUSH1 0x1 ADD PUSH3 0x469 JUMP JUMPDEST POP SWAP1 JUMP JUMPDEST JUMPDEST DUP1 DUP3 GT ISZERO PUSH3 0x4AB JUMPI PUSH1 0x0 DUP2 PUSH1 0x0 SWAP1 SSTORE POP PUSH1 0x1 ADD PUSH3 0x491 JUMP JUMPDEST POP SWAP1 JUMP JUMPDEST POP DUP1 SLOAD PUSH3 0x4BD SWAP1 PUSH3 0x55E JUMP JUMPDEST PUSH1 0x0 DUP3 SSTORE DUP1 PUSH1 0x1F LT PUSH3 0x4D1 JUMPI POP PUSH3 0x4F2 JUMP JUMPDEST PUSH1 0x1F ADD PUSH1 0x20 SWAP1 DIV SWAP1 PUSH1 0x0 MSTORE PUSH1 0x20 PUSH1 0x0 KECCAK256 SWAP1 DUP2 ADD SWAP1 PUSH3 0x4F1 SWAP2 SWAP1 PUSH3 0x490 JUMP JUMPDEST JUMPDEST POP JUMP JUMPDEST PUSH1 0x0 DUP2 MLOAD SWAP1 POP SWAP2 SWAP1 POP JUMP JUMPDEST PUSH32 0x4E487B7100000000000000000000000000000000000000000000000000000000 PUSH1 0x0 MSTORE PUSH1 0x41 PUSH1 0x4 MSTORE PUSH1 0x24 PUSH1 0x0 REVERT JUMPDEST PUSH32 0x4E487B7100000000000000000000000000000000000000000000000000000000 PUSH1 0x0 MSTORE PUSH1 0x22 PUSH1 0x4 MSTORE PUSH1 0x24 PUSH1 0x0 REVERT JUMPDEST PUSH1 0x0 PUSH1 0x2 DUP3 DIV SWAP1 POP PUSH1 0x1 DUP3 AND DUP1 PUSH3 0x577 JUMPI PUSH1 0x7F DUP3 AND SWAP2 POP JUMPDEST PUSH1 0x20 DUP3 LT DUP2 SUB PUSH3 0x58D JUMPI PUSH3 0x58C PUSH3 0x52F JUMP JUMPDEST JUMPDEST POP SWAP2 SWAP1 POP JUMP JUMPDEST PUSH1 0x0 DUP2 SWAP1 POP DUP2 PUSH1 0x0 MSTORE PUSH1 0x20 PUSH1 0x0 KECCAK256 SWAP1 POP SWAP2 SWAP1 POP JUMP JUMPDEST PUSH1 0x0 PUSH1 0x20 PUSH1 0x1F DUP4 ADD DIV SWAP1 POP SWAP2 SWAP1 POP JUMP JUMPDEST PUSH1 0x0 DUP3 DUP3 SHL SWAP1 POP SWAP3 SWAP2 POP POP JUMP JUMPDEST PUSH1 0x0 PUSH1 0x8 DUP4 MUL PUSH3 0x5F7 PUSH32 0xFFFFFFFFFFFFFFFFFFFFFFFFFFFFFFFFFFFFFFFFFFFFFFFFFFFFFFFFFFFFFFFF DUP3 PUSH3 0x5B8 JUMP JUMPDEST PUSH3 0x603 DUP7 DUP4 PUSH3 0x5B8 JUMP JUMPDEST SWAP6 POP DUP1 NOT DUP5 AND SWAP4 POP DUP1 DUP7 AND DUP5 OR SWAP3 POP POP POP SWAP4 SWAP3 POP POP POP JUMP JUMPDEST PUSH1 0x0 DUP2 SWAP1 POP SWAP2 SWAP1 POP JUMP JUMPDEST PUSH1 0x0 DUP2 SWAP1 POP SWAP2 SWAP1 POP JUMP JUMPDEST PUSH1 0x0 PUSH3 0x650 PUSH3 0x64A PUSH3 0x644 DUP5 PUSH3 0x61B JUMP JUMPDEST PUSH3 0x625 JUMP JUMPDEST PUSH3 0x61B JUMP JUMPDEST SWAP1 POP SWAP2 SWAP1 POP JUMP JUMPDEST PUSH1 0x0 DUP2 SWAP1 POP SWAP2 SWAP1 POP JUMP JUMPDEST PUSH3 0x66C DUP4 PUSH3 0x62F JUMP JUMPDEST PUSH3 0x684 PUSH3 0x67B DUP3 PUSH3 0x657 JUMP JUMPDEST DUP5 DUP5 SLOAD PUSH3 0x5C5 JUMP JUMPDEST DUP3 SSTORE POP POP POP POP JUMP JUMPDEST PUSH1 0x0 SWAP1 JUMP JUMPDEST PUSH3 0x69B PUSH3 0x68C JUMP JUMPDEST PUSH3 0x6A8 DUP2 DUP5 DUP5 PUSH3 0x661 JUMP JUMPDEST POP POP POP JUMP JUMPDEST JUMPDEST DUP2 DUP2 LT ISZERO PUSH3 0x6D0 JUMPI PUSH3 0x6C4 PUSH1 0x0 DUP3 PUSH3 0x691 JUMP JUMPDEST PUSH1 0x1 DUP2 ADD SWAP1 POP PUSH3 0x6AE JUMP JUMPDEST POP POP JUMP JUMPDEST PUSH1 0x1F DUP3 GT ISZERO PUSH3 0x71F JUMPI PUSH3 0x6E9 DUP2 PUSH3 0x593 JUMP JUMPDEST PUSH3 0x6F4 DUP5 PUSH3 0x5A8 JUMP JUMPDEST DUP2 ADD PUSH1 0x20 DUP6 LT ISZERO PUSH3 0x704 JUMPI DUP2 SWAP1 POP JUMPDEST PUSH3 0x71C PUSH3 0x713 DUP6 PUSH3 0x5A8 JUMP JUMPDEST DUP4 ADD DUP3 PUSH3 0x6AD JUMP JUMPDEST POP POP JUMPDEST POP POP POP JUMP JUMPDEST PUSH1 0x0 DUP3 DUP3 SHR SWAP1 POP SWAP3 SWAP2 POP POP JUMP JUMPDEST PUSH1 0x0 PUSH3 0x744 PUSH1 0x0 NOT DUP5 PUSH1 0x8 MUL PUSH3 0x724 JUMP JUMPDEST NOT DUP1 DUP4 AND SWAP2 POP POP SWAP3 SWAP2 POP POP JUMP JUMPDEST PUSH1 0x0 PUSH3 0x75F DUP4 DUP4 PUSH3 0x731 JUMP JUMPDEST SWAP2 POP DUP3 PUSH1 0x2 MUL DUP3 OR SWAP1 POP SWAP3 SWAP2 POP POP JUMP JUMPDEST PUSH3 0x77A DUP3 PUSH3 0x4F5 JUMP JUMPDEST PUSH8 0xFFFFFFFFFFFFFFFF DUP2 GT ISZERO PUSH3 0x796 JUMPI PUSH3 0x795 PUSH3 0x500 JUMP JUMPDEST JUMPDEST PUSH3 0x7A2 DUP3 SLOAD PUSH3 0x55E JUMP JUMPDEST PUSH3 0x7AF DUP3 DUP3 DUP6 PUSH3 0x6D4 JUMP JUMPDEST PUSH1 0x0 PUSH1 0x20 SWAP1 POP PUSH1 0x1F DUP4 GT PUSH1 0x1 DUP2 EQ PUSH3 0x7E7 JUMPI PUSH1 0x0 DUP5 ISZERO PUSH3 0x7D2 JUMPI DUP3 DUP8 ADD MLOAD SWAP1 POP JUMPDEST PUSH3 0x7DE DUP6 DUP3 PUSH3 0x751 JUMP JUMPDEST DUP7 SSTORE POP PUSH3 0x84E JUMP JUMPDEST PUSH1 0x1F NOT DUP5 AND PUSH3 0x7F7 DUP7 PUSH3 0x593 JUMP JUMPDEST PUSH1 0x0 JUMPDEST DUP3 DUP2 LT ISZERO PUSH3 0x821 JUMPI DUP5 DUP10 ADD MLOAD DUP3 SSTORE PUSH1 0x1 DUP3 ADD SWAP2 POP PUSH1 0x20 DUP6 ADD SWAP5 POP PUSH1 0x20 DUP2 ADD SWAP1 POP PUSH3 0x7FA JUMP JUMPDEST DUP7 DUP4 LT ISZERO PUSH3 0x841 JUMPI DUP5 DUP10 ADD MLOAD PUSH3 0x83D PUSH1 0x1F DUP10 AND DUP3 PUSH3 0x731 JUMP JUMPDEST DUP4 SSTORE POP JUMPDEST PUSH1 0x1 PUSH1 0x2 DUP9 MUL ADD DUP9 SSTORE POP POP POP JUMPDEST POP POP POP POP POP POP JUMP JUMPDEST PUSH2 0x1A05 DUP1 PUSH3 0x866 PUSH1 0x0 CODECOPY PUSH1 0x0 RETURN INVALID PUSH1 0x80 PUSH1 0x40 MSTORE PUSH1 0x4 CALLDATASIZE LT PUSH2 0x70 JUMPI PUSH1 0x0 CALLDATALOAD PUSH1 0xE0 SHR DUP1 PUSH4 0x9A2F6474 GT PUSH2 0x4E JUMPI DUP1 PUSH4 0x9A2F6474 EQ PUSH2 0xAD JUMPI DUP1 PUSH4 0x9BA33EB5 EQ PUSH2 0xD6 JUMPI DUP1 PUSH4 0xDA3BF0BF EQ PUSH2 0xE0 JUMPI DUP1 PUSH4 0xFCFFF16F EQ PUSH2 0x109 JUMPI PUSH2 0x70 JUMP JUMPDEST DUP1 PUSH4 0x43D726D6 EQ PUSH2 0x75 JUMPI DUP1 PUSH4 0x4DF1DEB7 EQ PUSH2 0x8C JUMPI DUP1 PUSH4 0x6B64C769 EQ PUSH2 0x96 JUMPI JUMPDEST PUSH1 0x0 DUP1 REVERT JUMPDEST CALLVALUE DUP1 ISZERO PUSH2 0x81 JUMPI PUSH1 0x0 DUP1 REVERT JUMPDEST POP PUSH2 0x8A PUSH2 0x120 JUMP JUMPDEST STOP JUMPDEST PUSH2 0x94 PUSH2 0x2E9 JUMP JUMPDEST STOP JUMPDEST CALLVALUE DUP1 ISZERO PUSH2 0xA2 JUMPI PUSH1 0x0 DUP1 REVERT JUMPDEST POP PUSH2 0xAB PUSH2 0x4C2 JUMP JUMPDEST STOP JUMPDEST CALLVALUE DUP1 ISZERO PUSH2 0xB9 JUMPI PUSH1 0x0 DUP1 REVERT JUMPDEST POP PUSH2 0xD4 PUSH1 0x4 DUP1 CALLDATASIZE SUB DUP2 ADD SWAP1 PUSH2 0xCF SWAP2 SWAP1 PUSH2 0xDA2 JUMP JUMPDEST PUSH2 0x634 JUMP JUMPDEST STOP JUMPDEST PUSH2 0xDE PUSH2 0x8FD JUMP JUMPDEST STOP JUMPDEST CALLVALUE DUP1 ISZERO PUSH2 0xEC JUMPI PUSH1 0x0 DUP1 REVERT JUMPDEST POP PUSH2 0x107 PUSH1 0x4 DUP1 CALLDATASIZE SUB DUP2 ADD SWAP1 PUSH2 0x102 SWAP2 SWAP1 PUSH2 0xF15 JUMP JUMPDEST PUSH2 0xB28 JUMP JUMPDEST STOP JUMPDEST CALLVALUE DUP1 ISZERO PUSH2 0x115 JUMPI PUSH1 0x0 DUP1 REVERT JUMPDEST POP PUSH2 0x11E PUSH2 0xC38 JUMP JUMPDEST STOP JUMPDEST PUSH1 0x1 ISZERO ISZERO PUSH1 0x26 PUSH1 0x0 SWAP1 SLOAD SWAP1 PUSH2 0x100 EXP SWAP1 DIV PUSH1 0xFF AND ISZERO ISZERO EQ PUSH2 0x176 JUMPI PUSH1 0x40 MLOAD PUSH32 0x8C379A000000000000000000000000000000000000000000000000000000000 DUP2 MSTORE PUSH1 0x4 ADD PUSH2 0x16D SWAP1 PUSH2 0xFCE JUMP JUMPDEST PUSH1 0x40 MLOAD DUP1 SWAP2 SUB SWAP1 REVERT JUMPDEST PUSH1 0x1F PUSH1 0x0 SWAP1 SLOAD SWAP1 PUSH2 0x100 EXP SWAP1 DIV PUSH20 0xFFFFFFFFFFFFFFFFFFFFFFFFFFFFFFFFFFFFFFFF AND PUSH20 0xFFFFFFFFFFFFFFFFFFFFFFFFFFFFFFFFFFFFFFFF AND CALLER PUSH20 0xFFFFFFFFFFFFFFFFFFFFFFFFFFFFFFFFFFFFFFFF AND EQ PUSH2 0x206 JUMPI PUSH1 0x40 MLOAD PUSH32 0x8C379A000000000000000000000000000000000000000000000000000000000 DUP2 MSTORE PUSH1 0x4 ADD PUSH2 0x1FD SWAP1 PUSH2 0x1060 JUMP JUMPDEST PUSH1 0x40 MLOAD DUP1 SWAP2 SUB SWAP1 REVERT JUMPDEST PUSH1 0x22 SLOAD TIMESTAMP LT ISZERO PUSH2 0x24B JUMPI PUSH1 0x40 MLOAD PUSH32 0x8C379A000000000000000000000000000000000000000000000000000000000 DUP2 MSTORE PUSH1 0x4 ADD PUSH2 0x242 SWAP1 PUSH2 0x10CC JUMP JUMPDEST PUSH1 0x40 MLOAD DUP1 SWAP2 SUB SWAP1 REVERT JUMPDEST PUSH32 0xE810C871CE50FF674E2E5E2A570CF162A6EE85FE638D22AFD8C00A57904F86E8 PUSH1 0x1F PUSH1 0x0 SWAP1 SLOAD SWAP1 PUSH2 0x100 EXP SWAP1 DIV PUSH20 0xFFFFFFFFFFFFFFFFFFFFFFFFFFFFFFFFFFFFFFFF AND PUSH1 0x24 PUSH1 0x0 SWAP1 SLOAD SWAP1 PUSH2 0x100 EXP SWAP1 DIV PUSH20 0xFFFFFFFFFFFFFFFFFFFFFFFFFFFFFFFFFFFFFFFF AND PUSH1 0x25 SLOAD PUSH1 0x40 MLOAD PUSH2 0x2C4 SWAP4 SWAP3 SWAP2 SWAP1 PUSH2 0x119B JUMP JUMPDEST PUSH1 0x40 MLOAD DUP1 SWAP2 SUB SWAP1 LOG1 PUSH1 0x0 PUSH1 0x26 PUSH1 0x0 PUSH2 0x100 EXP DUP2 SLOAD DUP2 PUSH1 0xFF MUL NOT AND SWAP1 DUP4 ISZERO ISZERO MUL OR SWAP1 SSTORE POP JUMP JUMPDEST PUSH1 0x24 PUSH1 0x0 SWAP1 SLOAD SWAP1 PUSH2 0x100 EXP SWAP1 DIV PUSH20 0xFFFFFFFFFFFFFFFFFFFFFFFFFFFFFFFFFFFFFFFF AND PUSH20 0xFFFFFFFFFFFFFFFFFFFFFFFFFFFFFFFFFFFFFFFF AND CALLER PUSH20 0xFFFFFFFFFFFFFFFFFFFFFFFFFFFFFFFFFFFFFFFF AND EQ PUSH2 0x379 JUMPI PUSH1 0x40 MLOAD PUSH32 0x8C379A000000000000000000000000000000000000000000000000000000000 DUP2 MSTORE PUSH1 0x4 ADD PUSH2 0x370 SWAP1 PUSH2 0x1244 JUMP JUMPDEST PUSH1 0x40 MLOAD DUP1 SWAP2 SUB SWAP1 REVERT JUMPDEST PUSH1 0x0 ISZERO ISZERO PUSH1 0x26 PUSH1 0x0 SWAP1 SLOAD SWAP1 PUSH2 0x100 EXP SWAP1 DIV PUSH1 0xFF AND ISZERO ISZERO EQ PUSH2 0x3CF JUMPI PUSH1 0x40 MLOAD PUSH32 0x8C379A000000000000000000000000000000000000000000000000000000000 DUP2 MSTORE PUSH1 0x4 ADD PUSH2 0x3C6 SWAP1 PUSH2 0x12B0 JUMP JUMPDEST PUSH1 0x40 MLOAD DUP1 SWAP2 SUB SWAP1 REVERT JUMPDEST PUSH32 0x5E8C64C7C4BF81541143E96785B6FE89C8C1C2E524AAC8B02D7E09F899A3108E PUSH1 0x24 PUSH1 0x0 SWAP1 SLOAD SWAP1 PUSH2 0x100 EXP SWAP1 DIV PUSH20 0xFFFFFFFFFFFFFFFFFFFFFFFFFFFFFFFFFFFFFFFF AND PUSH1 0x20 PUSH1 0x40 MLOAD PUSH2 0x423 SWAP3 SWAP2 SWAP1 PUSH2 0x13C9 JUMP JUMPDEST PUSH1 0x40 MLOAD DUP1 SWAP2 SUB SWAP1 LOG1 PUSH1 0x24 PUSH1 0x0 SWAP1 SLOAD SWAP1 PUSH2 0x100 EXP SWAP1 DIV PUSH20 0xFFFFFFFFFFFFFFFFFFFFFFFFFFFFFFFFFFFFFFFF AND PUSH1 0x1E PUSH1 0x0 PUSH1 0x23 SLOAD PUSH1 0xA DUP2 LT PUSH2 0x466 JUMPI PUSH2 0x465 PUSH2 0x13F9 JUMP JUMPDEST JUMPDEST ADD PUSH1 0x40 MLOAD PUSH2 0x474 SWAP2 SWAP1 PUSH2 0x14B6 JUMP JUMPDEST SWAP1 DUP2 MSTORE PUSH1 0x20 ADD PUSH1 0x40 MLOAD DUP1 SWAP2 SUB SWAP1 KECCAK256 PUSH1 0x0 PUSH2 0x100 EXP DUP2 SLOAD DUP2 PUSH20 0xFFFFFFFFFFFFFFFFFFFFFFFFFFFFFFFFFFFFFFFF MUL NOT AND SWAP1 DUP4 PUSH20 0xFFFFFFFFFFFFFFFFFFFFFFFFFFFFFFFFFFFFFFFF AND MUL OR SWAP1 SSTORE POP JUMP JUMPDEST PUSH1 0x1F PUSH1 0x0 SWAP1 SLOAD SWAP1 PUSH2 0x100 EXP SWAP1 DIV PUSH20 0xFFFFFFFFFFFFFFFFFFFFFFFFFFFFFFFFFFFFFFFF AND PUSH20 0xFFFFFFFFFFFFFFFFFFFFFFFFFFFFFFFFFFFFFFFF AND CALLER PUSH20 0xFFFFFFFFFFFFFFFFFFFFFFFFFFFFFFFFFFFFFFFF AND EQ PUSH2 0x552 JUMPI PUSH1 0x40 MLOAD PUSH32 0x8C379A000000000000000000000000000000000000000000000000000000000 DUP2 MSTORE PUSH1 0x4 ADD PUSH2 0x549 SWAP1 PUSH2 0x1060 JUMP JUMPDEST PUSH1 0x40 MLOAD DUP1 SWAP2 SUB SWAP1 REVERT JUMPDEST PUSH2 0x612 PUSH1 0x0 PUSH1 0x23 SLOAD PUSH1 0xA DUP2 LT PUSH2 0x56B JUMPI PUSH2 0x56A PUSH2 0x13F9 JUMP JUMPDEST JUMPDEST ADD DUP1 SLOAD PUSH2 0x577 SWAP1 PUSH2 0x12FF JUMP JUMPDEST DUP1 PUSH1 0x1F ADD PUSH1 0x20 DUP1 SWAP2 DIV MUL PUSH1 0x20 ADD PUSH1 0x40 MLOAD SWAP1 DUP2 ADD PUSH1 0x40 MSTORE DUP1 SWAP3 SWAP2 SWAP1 DUP2 DUP2 MSTORE PUSH1 0x20 ADD DUP3 DUP1 SLOAD PUSH2 0x5A3 SWAP1 PUSH2 0x12FF JUMP JUMPDEST DUP1 ISZERO PUSH2 0x5F0 JUMPI DUP1 PUSH1 0x1F LT PUSH2 0x5C5 JUMPI PUSH2 0x100 DUP1 DUP4 SLOAD DIV MUL DUP4 MSTORE SWAP2 PUSH1 0x20 ADD SWAP2 PUSH2 0x5F0 JUMP JUMPDEST DUP3 ADD SWAP2 SWAP1 PUSH1 0x0 MSTORE PUSH1 0x20 PUSH1 0x0 KECCAK256 SWAP1 JUMPDEST DUP2 SLOAD DUP2 MSTORE SWAP1 PUSH1 0x1 ADD SWAP1 PUSH1 0x20 ADD DUP1 DUP4 GT PUSH2 0x5D3 JUMPI DUP3 SWAP1 SUB PUSH1 0x1F AND DUP3 ADD SWAP2 JUMPDEST POP POP POP POP POP PUSH1 0xA PUSH1 0x23 SLOAD PUSH1 0xA DUP2 LT PUSH2 0x60B JUMPI PUSH2 0x60A PUSH2 0x13F9 JUMP JUMPDEST JUMPDEST ADD SLOAD PUSH2 0xB28 JUMP JUMPDEST PUSH2 0x61A PUSH2 0xC38 JUMP JUMPDEST PUSH1 0x23 PUSH1 0x0 DUP2 SLOAD DUP1 SWAP3 SWAP2 SWAP1 PUSH2 0x62D SWAP1 PUSH2 0x14FC JUMP JUMPDEST SWAP2 SWAP1 POP SSTORE POP JUMP JUMPDEST PUSH1 0x1 ISZERO ISZERO PUSH1 0x26 PUSH1 0x0 SWAP1 SLOAD SWAP1 PUSH2 0x100 EXP SWAP1 DIV PUSH1 0xFF AND ISZERO ISZERO EQ PUSH2 0x68A JUMPI PUSH1 0x40 MLOAD PUSH32 0x8C379A000000000000000000000000000000000000000000000000000000000 DUP2 MSTORE PUSH1 0x4 ADD PUSH2 0x681 SWAP1 PUSH2 0xFCE JUMP JUMPDEST PUSH1 0x40 MLOAD DUP1 SWAP2 SUB SWAP1 REVERT JUMPDEST PUSH1 0x25 SLOAD DUP2 LT PUSH2 0x6CE JUMPI PUSH1 0x40 MLOAD PUSH32 0x8C379A000000000000000000000000000000000000000000000000000000000 DUP2 MSTORE PUSH1 0x4 ADD PUSH2 0x6C5 SWAP1 PUSH2 0x15B6 JUMP JUMPDEST PUSH1 0x40 MLOAD DUP1 SWAP2 SUB SWAP1 REVERT JUMPDEST PUSH1 0x22 SLOAD TIMESTAMP LT PUSH2 0x712 JUMPI PUSH1 0x40 MLOAD PUSH32 0x8C379A000000000000000000000000000000000000000000000000000000000 DUP2 MSTORE PUSH1 0x4 ADD PUSH2 0x709 SWAP1 PUSH2 0x10CC JUMP JUMPDEST PUSH1 0x40 MLOAD DUP1 SWAP2 SUB SWAP1 REVERT JUMPDEST PUSH32 0x7A1EF295A7B3EAD528A3D5DC5108DF6FBE47739A34AA589A11433B98CE53C60E CALLER DUP3 PUSH1 0x40 MLOAD PUSH2 0x743 SWAP3 SWAP2 SWAP1 PUSH2 0x1622 JUMP JUMPDEST PUSH1 0x40 MLOAD DUP1 SWAP2 SUB SWAP1 LOG1 DUP1 PUSH1 0x25 DUP2 SWAP1 SSTORE POP CALLER PUSH1 0x24 PUSH1 0x0 PUSH2 0x100 EXP DUP2 SLOAD DUP2 PUSH20 0xFFFFFFFFFFFFFFFFFFFFFFFFFFFFFFFFFFFFFFFF MUL NOT AND SWAP1 DUP4 PUSH20 0xFFFFFFFFFFFFFFFFFFFFFFFFFFFFFFFFFFFFFFFF AND MUL OR SWAP1 SSTORE POP PUSH1 0x0 PUSH1 0x27 PUSH1 0x0 PUSH1 0x24 PUSH1 0x0 SWAP1 SLOAD SWAP1 PUSH2 0x100 EXP SWAP1 DIV PUSH20 0xFFFFFFFFFFFFFFFFFFFFFFFFFFFFFFFFFFFFFFFF AND PUSH20 0xFFFFFFFFFFFFFFFFFFFFFFFFFFFFFFFFFFFFFFFF AND PUSH20 0xFFFFFFFFFFFFFFFFFFFFFFFFFFFFFFFFFFFFFFFF AND DUP2 MSTORE PUSH1 0x20 ADD SWAP1 DUP2 MSTORE PUSH1 0x20 ADD PUSH1 0x0 KECCAK256 SLOAD SUB PUSH2 0x882 JUMPI PUSH1 0x28 PUSH1 0x24 PUSH1 0x0 SWAP1 SLOAD SWAP1 PUSH2 0x100 EXP SWAP1 DIV PUSH20 0xFFFFFFFFFFFFFFFFFFFFFFFFFFFFFFFFFFFFFFFF AND SWAP1 DUP1 PUSH1 0x1 DUP2 SLOAD ADD DUP1 DUP3 SSTORE DUP1 SWAP2 POP POP PUSH1 0x1 SWAP1 SUB SWAP1 PUSH1 0x0 MSTORE PUSH1 0x20 PUSH1 0x0 KECCAK256 ADD PUSH1 0x0 SWAP1 SWAP2 SWAP1 SWAP2 SWAP1 SWAP2 PUSH2 0x100 EXP DUP2 SLOAD DUP2 PUSH20 0xFFFFFFFFFFFFFFFFFFFFFFFFFFFFFFFFFFFFFFFF MUL NOT AND SWAP1 DUP4 PUSH20 0xFFFFFFFFFFFFFFFFFFFFFFFFFFFFFFFFFFFFFFFF AND MUL OR SWAP1 SSTORE POP JUMPDEST DUP1 PUSH1 0x27 PUSH1 0x0 PUSH1 0x24 PUSH1 0x0 SWAP1 SLOAD SWAP1 PUSH2 0x100 EXP SWAP1 DIV PUSH20 0xFFFFFFFFFFFFFFFFFFFFFFFFFFFFFFFFFFFFFFFF AND PUSH20 0xFFFFFFFFFFFFFFFFFFFFFFFFFFFFFFFFFFFFFFFF AND PUSH20 0xFFFFFFFFFFFFFFFFFFFFFFFFFFFFFFFFFFFFFFFF AND DUP2 MSTORE PUSH1 0x20 ADD SWAP1 DUP2 MSTORE PUSH1 0x20 ADD PUSH1 0x0 KECCAK256 PUSH1 0x0 DUP3 DUP3 SLOAD PUSH2 0x8F3 SWAP2 SWAP1 PUSH2 0x165E JUMP JUMPDEST SWAP3 POP POP DUP2 SWAP1 SSTORE POP POP JUMP JUMPDEST PUSH1 0x24 PUSH1 0x0 SWAP1 SLOAD SWAP1 PUSH2 0x100 EXP SWAP1 DIV PUSH20 0xFFFFFFFFFFFFFFFFFFFFFFFFFFFFFFFFFFFFFFFF AND PUSH20 0xFFFFFFFFFFFFFFFFFFFFFFFFFFFFFFFFFFFFFFFF AND CALLER PUSH20 0xFFFFFFFFFFFFFFFFFFFFFFFFFFFFFFFFFFFFFFFF AND SUB PUSH2 0x98D JUMPI PUSH1 0x40 MLOAD PUSH32 0x8C379A000000000000000000000000000000000000000000000000000000000 DUP2 MSTORE PUSH1 0x4 ADD PUSH2 0x984 SWAP1 PUSH2 0x16DE JUMP JUMPDEST PUSH1 0x40 MLOAD DUP1 SWAP2 SUB SWAP1 REVERT JUMPDEST PUSH1 0x0 ISZERO ISZERO PUSH1 0x26 PUSH1 0x0 SWAP1 SLOAD SWAP1 PUSH2 0x100 EXP SWAP1 DIV PUSH1 0xFF AND ISZERO ISZERO EQ PUSH2 0x9E3 JUMPI PUSH1 0x40 MLOAD PUSH32 0x8C379A000000000000000000000000000000000000000000000000000000000 DUP2 MSTORE PUSH1 0x4 ADD PUSH2 0x9DA SWAP1 PUSH2 0x12B0 JUMP JUMPDEST PUSH1 0x40 MLOAD DUP1 SWAP2 SUB SWAP1 REVERT JUMPDEST PUSH32 0xEAFF4B37086828766AD3268786972C0CD24259D4C87A80F9D3963A3C3D999B0D CALLER PUSH1 0x27 PUSH1 0x0 CALLER PUSH20 0xFFFFFFFFFFFFFFFFFFFFFFFFFFFFFFFFFFFFFFFF AND PUSH20 0xFFFFFFFFFFFFFFFFFFFFFFFFFFFFFFFFFFFFFFFF AND DUP2 MSTORE PUSH1 0x20 ADD SWAP1 DUP2 MSTORE PUSH1 0x20 ADD PUSH1 0x0 KECCAK256 SLOAD PUSH1 0x40 MLOAD PUSH2 0xA53 SWAP3 SWAP2 SWAP1 PUSH2 0x16FE JUMP JUMPDEST PUSH1 0x40 MLOAD DUP1 SWAP2 SUB SWAP1 LOG1 CALLER PUSH20 0xFFFFFFFFFFFFFFFFFFFFFFFFFFFFFFFFFFFFFFFF AND PUSH2 0x8FC PUSH1 0x27 PUSH1 0x0 CALLER PUSH20 0xFFFFFFFFFFFFFFFFFFFFFFFFFFFFFFFFFFFFFFFF AND PUSH20 0xFFFFFFFFFFFFFFFFFFFFFFFFFFFFFFFFFFFFFFFF AND DUP2 MSTORE PUSH1 0x20 ADD SWAP1 DUP2 MSTORE PUSH1 0x20 ADD PUSH1 0x0 KECCAK256 SLOAD SWAP1 DUP2 ISZERO MUL SWAP1 PUSH1 0x40 MLOAD PUSH1 0x0 PUSH1 0x40 MLOAD DUP1 DUP4 SUB DUP2 DUP6 DUP9 DUP9 CALL SWAP4 POP POP POP POP ISZERO DUP1 ISZERO PUSH2 0xAE0 JUMPI RETURNDATASIZE PUSH1 0x0 DUP1 RETURNDATACOPY RETURNDATASIZE PUSH1 0x0 REVERT JUMPDEST POP PUSH1 0x0 PUSH1 0x27 PUSH1 0x0 CALLER PUSH20 0xFFFFFFFFFFFFFFFFFFFFFFFFFFFFFFFFFFFFFFFF AND PUSH20 0xFFFFFFFFFFFFFFFFFFFFFFFFFFFFFFFFFFFFFFFF AND DUP2 MSTORE PUSH1 0x20 ADD SWAP1 DUP2 MSTORE PUSH1 0x20 ADD PUSH1 0x0 KECCAK256 DUP2 SWAP1 SSTORE POP JUMP JUMPDEST PUSH1 0x1F PUSH1 0x0 SWAP1 SLOAD SWAP1 PUSH2 0x100 EXP SWAP1 DIV PUSH20 0xFFFFFFFFFFFFFFFFFFFFFFFFFFFFFFFFFFFFFFFF AND PUSH20 0xFFFFFFFFFFFFFFFFFFFFFFFFFFFFFFFFFFFFFFFF AND CALLER PUSH20 0xFFFFFFFFFFFFFFFFFFFFFFFFFFFFFFFFFFFFFFFF AND EQ PUSH2 0xBB8 JUMPI PUSH1 0x40 MLOAD PUSH32 0x8C379A000000000000000000000000000000000000000000000000000000000 DUP2 MSTORE PUSH1 0x4 ADD PUSH2 0xBAF SWAP1 PUSH2 0x1060 JUMP JUMPDEST PUSH1 0x40 MLOAD DUP1 SWAP2 SUB SWAP1 REVERT JUMPDEST DUP2 PUSH1 0x20 SWAP1 DUP2 PUSH2 0xBC7 SWAP2 SWAP1 PUSH2 0x18BF JUMP JUMPDEST POP DUP1 PUSH1 0x21 DUP2 SWAP1 SSTORE POP PUSH1 0x0 PUSH1 0x24 PUSH1 0x0 PUSH2 0x100 EXP DUP2 SLOAD DUP2 PUSH20 0xFFFFFFFFFFFFFFFFFFFFFFFFFFFFFFFFFFFFFFFF MUL NOT AND SWAP1 DUP4 PUSH20 0xFFFFFFFFFFFFFFFFFFFFFFFFFFFFFFFFFFFFFFFF AND MUL OR SWAP1 SSTORE POP PUSH1 0x0 PUSH1 0x25 DUP2 SWAP1 SSTORE POP PUSH1 0x0 PUSH1 0x26 PUSH1 0x0 PUSH2 0x100 EXP DUP2 SLOAD DUP2 PUSH1 0xFF MUL NOT AND SWAP1 DUP4 ISZERO ISZERO MUL OR SWAP1 SSTORE POP POP POP JUMP JUMPDEST PUSH1 0x1F PUSH1 0x0 SWAP1 SLOAD SWAP1 PUSH2 0x100 EXP SWAP1 DIV PUSH20 0xFFFFFFFFFFFFFFFFFFFFFFFFFFFFFFFFFFFFFFFF AND PUSH20 0xFFFFFFFFFFFFFFFFFFFFFFFFFFFFFFFFFFFFFFFF AND CALLER PUSH20 0xFFFFFFFFFFFFFFFFFFFFFFFFFFFFFFFFFFFFFFFF AND EQ PUSH2 0xCC8 JUMPI PUSH1 0x40 MLOAD PUSH32 0x8C379A000000000000000000000000000000000000000000000000000000000 DUP2 MSTORE PUSH1 0x4 ADD PUSH2 0xCBF SWAP1 PUSH2 0x1060 JUMP JUMPDEST PUSH1 0x40 MLOAD DUP1 SWAP2 SUB SWAP1 REVERT JUMPDEST PUSH32 0x6969A1BC7452D86873151BFD13167742E1951B4AF640DFD8218B7EDDD7EC6632 PUSH1 0x1F PUSH1 0x0 SWAP1 SLOAD SWAP1 PUSH2 0x100 EXP SWAP1 DIV PUSH20 0xFFFFFFFFFFFFFFFFFFFFFFFFFFFFFFFFFFFFFFFF AND PUSH1 0x20 PUSH1 0x21 SLOAD PUSH1 0x40 MLOAD PUSH2 0xD20 SWAP4 SWAP3 SWAP2 SWAP1 PUSH2 0x1991 JUMP JUMPDEST PUSH1 0x40 MLOAD DUP1 SWAP2 SUB SWAP1 LOG1 PUSH1 0x1 PUSH1 0x26 PUSH1 0x0 PUSH2 0x100 EXP DUP2 SLOAD DUP2 PUSH1 0xFF MUL NOT AND SWAP1 DUP4 ISZERO ISZERO MUL OR SWAP1 SSTORE POP PUSH1 0xA TIMESTAMP PUSH2 0xD50 SWAP2 SWAP1 PUSH2 0x165E JUMP JUMPDEST PUSH1 0x22 DUP2 SWAP1 SSTORE POP JUMP JUMPDEST PUSH1 0x0 PUSH1 0x40 MLOAD SWAP1 POP SWAP1 JUMP JUMPDEST PUSH1 0x0 DUP1 REVERT JUMPDEST PUSH1 0x0 DUP1 REVERT JUMPDEST PUSH1 0x0 DUP2 SWAP1 POP SWAP2 SWAP1 POP JUMP JUMPDEST PUSH2 0xD7F DUP2 PUSH2 0xD6C JUMP JUMPDEST DUP2 EQ PUSH2 0xD8A JUMPI PUSH1 0x0 DUP1 REVERT JUMPDEST POP JUMP JUMPDEST PUSH1 0x0 DUP2 CALLDATALOAD SWAP1 POP PUSH2 0xD9C DUP2 PUSH2 0xD76 JUMP JUMPDEST SWAP3 SWAP2 POP POP JUMP JUMPDEST PUSH1 0x0 PUSH1 0x20 DUP3 DUP5 SUB SLT ISZERO PUSH2 0xDB8 JUMPI PUSH2 0xDB7 PUSH2 0xD62 JUMP JUMPDEST JUMPDEST PUSH1 0x0 PUSH2 0xDC6 DUP5 DUP3 DUP6 ADD PUSH2 0xD8D JUMP JUMPDEST SWAP2 POP POP SWAP3 SWAP2 POP POP JUMP JUMPDEST PUSH1 0x0 DUP1 REVERT JUMPDEST PUSH1 0x0 DUP1 REVERT JUMPDEST PUSH1 0x0 PUSH1 0x1F NOT PUSH1 0x1F DUP4 ADD AND SWAP1 POP SWAP2 SWAP1 POP JUMP JUMPDEST PUSH32 0x4E487B7100000000000000000000000000000000000000000000000000000000 PUSH1 0x0 MSTORE PUSH1 0x41 PUSH1 0x4 MSTORE PUSH1 0x24 PUSH1 0x0 REVERT JUMPDEST PUSH2 0xE22 DUP3 PUSH2 0xDD9 JUMP JUMPDEST DUP2 ADD DUP2 DUP2 LT PUSH8 0xFFFFFFFFFFFFFFFF DUP3 GT OR ISZERO PUSH2 0xE41 JUMPI PUSH2 0xE40 PUSH2 0xDEA JUMP JUMPDEST JUMPDEST DUP1 PUSH1 0x40 MSTORE POP POP POP JUMP JUMPDEST PUSH1 0x0 PUSH2 0xE54 PUSH2 0xD58 JUMP JUMPDEST SWAP1 POP PUSH2 0xE60 DUP3 DUP3 PUSH2 0xE19 JUMP JUMPDEST SWAP2 SWAP1 POP JUMP JUMPDEST PUSH1 0x0 PUSH8 0xFFFFFFFFFFFFFFFF DUP3 GT ISZERO PUSH2 0xE80 JUMPI PUSH2 0xE7F PUSH2 0xDEA JUMP JUMPDEST JUMPDEST PUSH2 0xE89 DUP3 PUSH2 0xDD9 JUMP JUMPDEST SWAP1 POP PUSH1 0x20 DUP2 ADD SWAP1 POP SWAP2 SWAP1 POP JUMP JUMPDEST DUP3 DUP2 DUP4 CALLDATACOPY PUSH1 0x0 DUP4 DUP4 ADD MSTORE POP POP POP JUMP JUMPDEST PUSH1 0x0 PUSH2 0xEB8 PUSH2 0xEB3 DUP5 PUSH2 0xE65 JUMP JUMPDEST PUSH2 0xE4A JUMP JUMPDEST SWAP1 POP DUP3 DUP2 MSTORE PUSH1 0x20 DUP2 ADD DUP5 DUP5 DUP5 ADD GT ISZERO PUSH2 0xED4 JUMPI PUSH2 0xED3 PUSH2 0xDD4 JUMP JUMPDEST JUMPDEST PUSH2 0xEDF DUP5 DUP3 DUP6 PUSH2 0xE96 JUMP JUMPDEST POP SWAP4 SWAP3 POP POP POP JUMP JUMPDEST PUSH1 0x0 DUP3 PUSH1 0x1F DUP4 ADD SLT PUSH2 0xEFC JUMPI PUSH2 0xEFB PUSH2 0xDCF JUMP JUMPDEST JUMPDEST DUP2 CALLDATALOAD PUSH2 0xF0C DUP5 DUP3 PUSH1 0x20 DUP7 ADD PUSH2 0xEA5 JUMP JUMPDEST SWAP2 POP POP SWAP3 SWAP2 POP POP JUMP JUMPDEST PUSH1 0x0 DUP1 PUSH1 0x40 DUP4 DUP6 SUB SLT ISZERO PUSH2 0xF2C JUMPI PUSH2 0xF2B PUSH2 0xD62 JUMP JUMPDEST JUMPDEST PUSH1 0x0 DUP4 ADD CALLDATALOAD PUSH8 0xFFFFFFFFFFFFFFFF DUP2 GT ISZERO PUSH2 0xF4A JUMPI PUSH2 0xF49 PUSH2 0xD67 JUMP JUMPDEST JUMPDEST PUSH2 0xF56 DUP6 DUP3 DUP7 ADD PUSH2 0xEE7 JUMP JUMPDEST SWAP3 POP POP PUSH1 0x20 PUSH2 0xF67 DUP6 DUP3 DUP7 ADD PUSH2 0xD8D JUMP JUMPDEST SWAP2 POP POP SWAP3 POP SWAP3 SWAP1 POP JUMP JUMPDEST PUSH1 0x0 DUP3 DUP3 MSTORE PUSH1 0x20 DUP3 ADD SWAP1 POP SWAP3 SWAP2 POP POP JUMP JUMPDEST PUSH32 0x5468652061756374696F6E206861766520746F206F70656E6564206669727374 PUSH1 0x0 DUP3 ADD MSTORE POP JUMP JUMPDEST PUSH1 0x0 PUSH2 0xFB8 PUSH1 0x20 DUP4 PUSH2 0xF71 JUMP JUMPDEST SWAP2 POP PUSH2 0xFC3 DUP3 PUSH2 0xF82 JUMP JUMPDEST PUSH1 0x20 DUP3 ADD SWAP1 POP SWAP2 SWAP1 POP JUMP JUMPDEST PUSH1 0x0 PUSH1 0x20 DUP3 ADD SWAP1 POP DUP2 DUP2 SUB PUSH1 0x0 DUP4 ADD MSTORE PUSH2 0xFE7 DUP2 PUSH2 0xFAB JUMP JUMPDEST SWAP1 POP SWAP2 SWAP1 POP JUMP JUMPDEST PUSH32 0x4F6E6C7920746865206F776E65722063616E206D616465207468697320616374 PUSH1 0x0 DUP3 ADD MSTORE PUSH32 0x696F6E0000000000000000000000000000000000000000000000000000000000 PUSH1 0x20 DUP3 ADD MSTORE POP JUMP JUMPDEST PUSH1 0x0 PUSH2 0x104A PUSH1 0x23 DUP4 PUSH2 0xF71 JUMP JUMPDEST SWAP2 POP PUSH2 0x1055 DUP3 PUSH2 0xFEE JUMP JUMPDEST PUSH1 0x40 DUP3 ADD SWAP1 POP SWAP2 SWAP1 POP JUMP JUMPDEST PUSH1 0x0 PUSH1 0x20 DUP3 ADD SWAP1 POP DUP2 DUP2 SUB PUSH1 0x0 DUP4 ADD MSTORE PUSH2 0x1079 DUP2 PUSH2 0x103D JUMP JUMPDEST SWAP1 POP SWAP2 SWAP1 POP JUMP JUMPDEST PUSH32 0x41756374696F6E207374696C6C206E6F7420656E646564000000000000000000 PUSH1 0x0 DUP3 ADD MSTORE POP JUMP JUMPDEST PUSH1 0x0 PUSH2 0x10B6 PUSH1 0x17 DUP4 PUSH2 0xF71 JUMP JUMPDEST SWAP2 POP PUSH2 0x10C1 DUP3 PUSH2 0x1080 JUMP JUMPDEST PUSH1 0x20 DUP3 ADD SWAP1 POP SWAP2 SWAP1 POP JUMP JUMPDEST PUSH1 0x0 PUSH1 0x20 DUP3 ADD SWAP1 POP DUP2 DUP2 SUB PUSH1 0x0 DUP4 ADD MSTORE PUSH2 0x10E5 DUP2 PUSH2 0x10A9 JUMP JUMPDEST SWAP1 POP SWAP2 SWAP1 POP JUMP JUMPDEST PUSH1 0x0 PUSH20 0xFFFFFFFFFFFFFFFFFFFFFFFFFFFFFFFFFFFFFFFF DUP3 AND SWAP1 POP SWAP2 SWAP1 POP JUMP JUMPDEST PUSH1 0x0 DUP2 SWAP1 POP SWAP2 SWAP1 POP JUMP JUMPDEST PUSH1 0x0 PUSH2 0x1131 PUSH2 0x112C PUSH2 0x1127 DUP5 PUSH2 0x10EC JUMP JUMPDEST PUSH2 0x110C JUMP JUMPDEST PUSH2 0x10EC JUMP JUMPDEST SWAP1 POP SWAP2 SWAP1 POP JUMP JUMPDEST PUSH1 0x0 PUSH2 0x1143 DUP3 PUSH2 0x1116 JUMP JUMPDEST SWAP1 POP SWAP2 SWAP1 POP JUMP JUMPDEST PUSH1 0x0 PUSH2 0x1155 DUP3 PUSH2 0x1138 JUMP JUMPDEST SWAP1 POP SWAP2 SWAP1 POP JUMP JUMPDEST PUSH2 0x1165 DUP2 PUSH2 0x114A JUMP JUMPDEST DUP3 MSTORE POP POP JUMP JUMPDEST PUSH1 0x0 PUSH2 0x1176 DUP3 PUSH2 0x10EC JUMP JUMPDEST SWAP1 POP SWAP2 SWAP1 POP JUMP JUMPDEST PUSH2 0x1186 DUP2 PUSH2 0x116B JUMP JUMPDEST DUP3 MSTORE POP POP JUMP JUMPDEST PUSH2 0x1195 DUP2 PUSH2 0xD6C JUMP JUMPDEST DUP3 MSTORE POP POP JUMP JUMPDEST PUSH1 0x0 PUSH1 0x60 DUP3 ADD SWAP1 POP PUSH2 0x11B0 PUSH1 0x0 DUP4 ADD DUP7 PUSH2 0x115C JUMP JUMPDEST PUSH2 0x11BD PUSH1 0x20 DUP4 ADD DUP6 PUSH2 0x117D JUMP JUMPDEST PUSH2 0x11CA PUSH1 0x40 DUP4 ADD DUP5 PUSH2 0x118C JUMP JUMPDEST SWAP5 SWAP4 POP POP POP POP JUMP JUMPDEST PUSH32 0x4F6E6C79207468652077696E6E65722063616E206F627461696E207468652074 PUSH1 0x0 DUP3 ADD MSTORE PUSH32 0x61736B0000000000000000000000000000000000000000000000000000000000 PUSH1 0x20 DUP3 ADD MSTORE POP JUMP JUMPDEST PUSH1 0x0 PUSH2 0x122E PUSH1 0x23 DUP4 PUSH2 0xF71 JUMP JUMPDEST SWAP2 POP PUSH2 0x1239 DUP3 PUSH2 0x11D2 JUMP JUMPDEST PUSH1 0x40 DUP3 ADD SWAP1 POP SWAP2 SWAP1 POP JUMP JUMPDEST PUSH1 0x0 PUSH1 0x20 DUP3 ADD SWAP1 POP DUP2 DUP2 SUB PUSH1 0x0 DUP4 ADD MSTORE PUSH2 0x125D DUP2 PUSH2 0x1221 JUMP JUMPDEST SWAP1 POP SWAP2 SWAP1 POP JUMP JUMPDEST PUSH32 0x5468652061756374696F6E206973207374696C6C206F70656E65640000000000 PUSH1 0x0 DUP3 ADD MSTORE POP JUMP JUMPDEST PUSH1 0x0 PUSH2 0x129A PUSH1 0x1B DUP4 PUSH2 0xF71 JUMP JUMPDEST SWAP2 POP PUSH2 0x12A5 DUP3 PUSH2 0x1264 JUMP JUMPDEST PUSH1 0x20 DUP3 ADD SWAP1 POP SWAP2 SWAP1 POP JUMP JUMPDEST PUSH1 0x0 PUSH1 0x20 DUP3 ADD SWAP1 POP DUP2 DUP2 SUB PUSH1 0x0 DUP4 ADD MSTORE PUSH2 0x12C9 DUP2 PUSH2 0x128D JUMP JUMPDEST SWAP1 POP SWAP2 SWAP1 POP JUMP JUMPDEST PUSH32 0x4E487B7100000000000000000000000000000000000000000000000000000000 PUSH1 0x0 MSTORE PUSH1 0x22 PUSH1 0x4 MSTORE PUSH1 0x24 PUSH1 0x0 REVERT JUMPDEST PUSH1 0x0 PUSH1 0x2 DUP3 DIV SWAP1 POP PUSH1 0x1 DUP3 AND DUP1 PUSH2 0x1317 JUMPI PUSH1 0x7F DUP3 AND SWAP2 POP JUMPDEST PUSH1 0x20 DUP3 LT DUP2 SUB PUSH2 0x132A JUMPI PUSH2 0x1329 PUSH2 0x12D0 JUMP JUMPDEST JUMPDEST POP SWAP2 SWAP1 POP JUMP JUMPDEST PUSH1 0x0 DUP2 SWAP1 POP DUP2 PUSH1 0x0 MSTORE PUSH1 0x20 PUSH1 0x0 KECCAK256 SWAP1 POP SWAP2 SWAP1 POP JUMP JUMPDEST PUSH1 0x0 DUP2 SLOAD PUSH2 0x1352 DUP2 PUSH2 0x12FF JUMP JUMPDEST PUSH2 0x135C DUP2 DUP7 PUSH2 0xF71 JUMP JUMPDEST SWAP5 POP PUSH1 0x1 DUP3 AND PUSH1 0x0 DUP2 EQ PUSH2 0x1377 JUMPI PUSH1 0x1 DUP2 EQ PUSH2 0x138D JUMPI PUSH2 0x13C0 JUMP JUMPDEST PUSH1 0xFF NOT DUP4 AND DUP7 MSTORE DUP2 ISZERO ISZERO PUSH1 0x20 MUL DUP7 ADD SWAP4 POP PUSH2 0x13C0 JUMP JUMPDEST PUSH2 0x1396 DUP6 PUSH2 0x1330 JUMP JUMPDEST PUSH1 0x0 JUMPDEST DUP4 DUP2 LT ISZERO PUSH2 0x13B8 JUMPI DUP2 SLOAD DUP2 DUP10 ADD MSTORE PUSH1 0x1 DUP3 ADD SWAP2 POP PUSH1 0x20 DUP2 ADD SWAP1 POP PUSH2 0x1399 JUMP JUMPDEST DUP1 DUP9 ADD SWAP6 POP POP POP JUMPDEST POP POP POP SWAP3 SWAP2 POP POP JUMP JUMPDEST PUSH1 0x0 PUSH1 0x40 DUP3 ADD SWAP1 POP PUSH2 0x13DE PUSH1 0x0 DUP4 ADD DUP6 PUSH2 0x117D JUMP JUMPDEST DUP2 DUP2 SUB PUSH1 0x20 DUP4 ADD MSTORE PUSH2 0x13F0 DUP2 DUP5 PUSH2 0x1345 JUMP JUMPDEST SWAP1 POP SWAP4 SWAP3 POP POP POP JUMP JUMPDEST PUSH32 0x4E487B7100000000000000000000000000000000000000000000000000000000 PUSH1 0x0 MSTORE PUSH1 0x32 PUSH1 0x4 MSTORE PUSH1 0x24 PUSH1 0x0 REVERT JUMPDEST PUSH1 0x0 DUP2 SWAP1 POP SWAP3 SWAP2 POP POP JUMP JUMPDEST PUSH1 0x0 DUP2 SLOAD PUSH2 0x1440 DUP2 PUSH2 0x12FF JUMP JUMPDEST PUSH2 0x144A DUP2 DUP7 PUSH2 0x1428 JUMP JUMPDEST SWAP5 POP PUSH1 0x1 DUP3 AND PUSH1 0x0 DUP2 EQ PUSH2 0x1465 JUMPI PUSH1 0x1 DUP2 EQ PUSH2 0x147A JUMPI PUSH2 0x14AD JUMP JUMPDEST PUSH1 0xFF NOT DUP4 AND DUP7 MSTORE DUP2 ISZERO ISZERO DUP3 MUL DUP7 ADD SWAP4 POP PUSH2 0x14AD JUMP JUMPDEST PUSH2 0x1483 DUP6 PUSH2 0x1330 JUMP JUMPDEST PUSH1 0x0 JUMPDEST DUP4 DUP2 LT ISZERO PUSH2 0x14A5 JUMPI DUP2 SLOAD DUP2 DUP10 ADD MSTORE PUSH1 0x1 DUP3 ADD SWAP2 POP PUSH1 0x20 DUP2 ADD SWAP1 POP PUSH2 0x1486 JUMP JUMPDEST DUP4 DUP9 ADD SWAP6 POP POP POP JUMPDEST POP POP POP SWAP3 SWAP2 POP POP JUMP JUMPDEST PUSH1 0x0 PUSH2 0x14C2 DUP3 DUP5 PUSH2 0x1433 JUMP JUMPDEST SWAP2 POP DUP2 SWAP1 POP SWAP3 SWAP2 POP POP JUMP JUMPDEST PUSH32 0x4E487B7100000000000000000000000000000000000000000000000000000000 PUSH1 0x0 MSTORE PUSH1 0x11 PUSH1 0x4 MSTORE PUSH1 0x24 PUSH1 0x0 REVERT JUMPDEST PUSH1 0x0 PUSH2 0x1507 DUP3 PUSH2 0xD6C JUMP JUMPDEST SWAP2 POP PUSH32 0xFFFFFFFFFFFFFFFFFFFFFFFFFFFFFFFFFFFFFFFFFFFFFFFFFFFFFFFFFFFFFFFF DUP3 SUB PUSH2 0x1539 JUMPI PUSH2 0x1538 PUSH2 0x14CD JUMP JUMPDEST JUMPDEST PUSH1 0x1 DUP3 ADD SWAP1 POP SWAP2 SWAP1 POP JUMP JUMPDEST PUSH32 0x546865206F66666572206D61646520646F6573206E6F74206578636565642074 PUSH1 0x0 DUP3 ADD MSTORE PUSH32 0x6865206265737400000000000000000000000000000000000000000000000000 PUSH1 0x20 DUP3 ADD MSTORE POP JUMP JUMPDEST PUSH1 0x0 PUSH2 0x15A0 PUSH1 0x27 DUP4 PUSH2 0xF71 JUMP JUMPDEST SWAP2 POP PUSH2 0x15AB DUP3 PUSH2 0x1544 JUMP JUMPDEST PUSH1 0x40 DUP3 ADD SWAP1 POP SWAP2 SWAP1 POP JUMP JUMPDEST PUSH1 0x0 PUSH1 0x20 DUP3 ADD SWAP1 POP DUP2 DUP2 SUB PUSH1 0x0 DUP4 ADD MSTORE PUSH2 0x15CF DUP2 PUSH2 0x1593 JUMP JUMPDEST SWAP1 POP SWAP2 SWAP1 POP JUMP JUMPDEST PUSH32 0x4E6577206269642069732070726F706F7365643A000000000000000000000000 PUSH1 0x0 DUP3 ADD MSTORE POP JUMP JUMPDEST PUSH1 0x0 PUSH2 0x160C PUSH1 0x14 DUP4 PUSH2 0xF71 JUMP JUMPDEST SWAP2 POP PUSH2 0x1617 DUP3 PUSH2 0x15D6 JUMP JUMPDEST PUSH1 0x20 DUP3 ADD SWAP1 POP SWAP2 SWAP1 POP JUMP JUMPDEST PUSH1 0x0 PUSH1 0x60 DUP3 ADD SWAP1 POP DUP2 DUP2 SUB PUSH1 0x0 DUP4 ADD MSTORE PUSH2 0x163B DUP2 PUSH2 0x15FF JUMP JUMPDEST SWAP1 POP PUSH2 0x164A PUSH1 0x20 DUP4 ADD DUP6 PUSH2 0x117D JUMP JUMPDEST PUSH2 0x1657 PUSH1 0x40 DUP4 ADD DUP5 PUSH2 0x118C JUMP JUMPDEST SWAP4 SWAP3 POP POP POP JUMP JUMPDEST PUSH1 0x0 PUSH2 0x1669 DUP3 PUSH2 0xD6C JUMP JUMPDEST SWAP2 POP PUSH2 0x1674 DUP4 PUSH2 0xD6C JUMP JUMPDEST SWAP3 POP DUP3 DUP3 ADD SWAP1 POP DUP1 DUP3 GT ISZERO PUSH2 0x168C JUMPI PUSH2 0x168B PUSH2 0x14CD JUMP JUMPDEST JUMPDEST SWAP3 SWAP2 POP POP JUMP JUMPDEST PUSH32 0x57696E6E65722063616E27742077697468647261772066756E64730000000000 PUSH1 0x0 DUP3 ADD MSTORE POP JUMP JUMPDEST PUSH1 0x0 PUSH2 0x16C8 PUSH1 0x1B DUP4 PUSH2 0xF71 JUMP JUMPDEST SWAP2 POP PUSH2 0x16D3 DUP3 PUSH2 0x1692 JUMP JUMPDEST PUSH1 0x20 DUP3 ADD SWAP1 POP SWAP2 SWAP1 POP JUMP JUMPDEST PUSH1 0x0 PUSH1 0x20 DUP3 ADD SWAP1 POP DUP2 DUP2 SUB PUSH1 0x0 DUP4 ADD MSTORE PUSH2 0x16F7 DUP2 PUSH2 0x16BB JUMP JUMPDEST SWAP1 POP SWAP2 SWAP1 POP JUMP JUMPDEST PUSH1 0x0 PUSH1 0x40 DUP3 ADD SWAP1 POP PUSH2 0x1713 PUSH1 0x0 DUP4 ADD DUP6 PUSH2 0x117D JUMP JUMPDEST PUSH2 0x1720 PUSH1 0x20 DUP4 ADD DUP5 PUSH2 0x118C JUMP JUMPDEST SWAP4 SWAP3 POP POP POP JUMP JUMPDEST PUSH1 0x0 DUP2 MLOAD SWAP1 POP SWAP2 SWAP1 POP JUMP JUMPDEST PUSH1 0x0 PUSH1 0x20 PUSH1 0x1F DUP4 ADD DIV SWAP1 POP SWAP2 SWAP1 POP JUMP JUMPDEST PUSH1 0x0 DUP3 DUP3 SHL SWAP1 POP SWAP3 SWAP2 POP POP JUMP JUMPDEST PUSH1 0x0 PUSH1 0x8 DUP4 MUL PUSH2 0x177F PUSH32 0xFFFFFFFFFFFFFFFFFFFFFFFFFFFFFFFFFFFFFFFFFFFFFFFFFFFFFFFFFFFFFFFF DUP3 PUSH2 0x1742 JUMP JUMPDEST PUSH2 0x1789 DUP7 DUP4 PUSH2 0x1742 JUMP JUMPDEST SWAP6 POP DUP1 NOT DUP5 AND SWAP4 POP DUP1 DUP7 AND DUP5 OR SWAP3 POP POP POP SWAP4 SWAP3 POP POP POP JUMP JUMPDEST PUSH1 0x0 PUSH2 0x17BC PUSH2 0x17B7 PUSH2 0x17B2 DUP5 PUSH2 0xD6C JUMP JUMPDEST PUSH2 0x110C JUMP JUMPDEST PUSH2 0xD6C JUMP JUMPDEST SWAP1 POP SWAP2 SWAP1 POP JUMP JUMPDEST PUSH1 0x0 DUP2 SWAP1 POP SWAP2 SWAP1 POP JUMP JUMPDEST PUSH2 0x17D6 DUP4 PUSH2 0x17A1 JUMP JUMPDEST PUSH2 0x17EA PUSH2 0x17E2 DUP3 PUSH2 0x17C3 JUMP JUMPDEST DUP5 DUP5 SLOAD PUSH2 0x174F JUMP JUMPDEST DUP3 SSTORE POP POP POP POP JUMP JUMPDEST PUSH1 0x0 SWAP1 JUMP JUMPDEST PUSH2 0x17FF PUSH2 0x17F2 JUMP JUMPDEST PUSH2 0x180A DUP2 DUP5 DUP5 PUSH2 0x17CD JUMP JUMPDEST POP POP POP JUMP JUMPDEST JUMPDEST DUP2 DUP2 LT ISZERO PUSH2 0x182E JUMPI PUSH2 0x1823 PUSH1 0x0 DUP3 PUSH2 0x17F7 JUMP JUMPDEST PUSH1 0x1 DUP2 ADD SWAP1 POP PUSH2 0x1810 JUMP JUMPDEST POP POP JUMP JUMPDEST PUSH1 0x1F DUP3 GT ISZERO PUSH2 0x1873 JUMPI PUSH2 0x1844 DUP2 PUSH2 0x1330 JUMP JUMPDEST PUSH2 0x184D DUP5 PUSH2 0x1732 JUMP JUMPDEST DUP2 ADD PUSH1 0x20 DUP6 LT ISZERO PUSH2 0x185C JUMPI DUP2 SWAP1 POP JUMPDEST PUSH2 0x1870 PUSH2 0x1868 DUP6 PUSH2 0x1732 JUMP JUMPDEST DUP4 ADD DUP3 PUSH2 0x180F JUMP JUMPDEST POP POP JUMPDEST POP POP POP JUMP JUMPDEST PUSH1 0x0 DUP3 DUP3 SHR SWAP1 POP SWAP3 SWAP2 POP POP JUMP JUMPDEST PUSH1 0x0 PUSH2 0x1896 PUSH1 0x0 NOT DUP5 PUSH1 0x8 MUL PUSH2 0x1878 JUMP JUMPDEST NOT DUP1 DUP4 AND SWAP2 POP POP SWAP3 SWAP2 POP POP JUMP JUMPDEST PUSH1 0x0 PUSH2 0x18AF DUP4 DUP4 PUSH2 0x1885 JUMP JUMPDEST SWAP2 POP DUP3 PUSH1 0x2 MUL DUP3 OR SWAP1 POP SWAP3 SWAP2 POP POP JUMP JUMPDEST PUSH2 0x18C8 DUP3 PUSH2 0x1727 JUMP JUMPDEST PUSH8 0xFFFFFFFFFFFFFFFF DUP2 GT ISZERO PUSH2 0x18E1 JUMPI PUSH2 0x18E0 PUSH2 0xDEA JUMP JUMPDEST JUMPDEST PUSH2 0x18EB DUP3 SLOAD PUSH2 0x12FF JUMP JUMPDEST PUSH2 0x18F6 DUP3 DUP3 DUP6 PUSH2 0x1832 JUMP JUMPDEST PUSH1 0x0 PUSH1 0x20 SWAP1 POP PUSH1 0x1F DUP4 GT PUSH1 0x1 DUP2 EQ PUSH2 0x1929 JUMPI PUSH1 0x0 DUP5 ISZERO PUSH2 0x1917 JUMPI DUP3 DUP8 ADD MLOAD SWAP1 POP JUMPDEST PUSH2 0x1921 DUP6 DUP3 PUSH2 0x18A3 JUMP JUMPDEST DUP7 SSTORE POP PUSH2 0x1989 JUMP JUMPDEST PUSH1 0x1F NOT DUP5 AND PUSH2 0x1937 DUP7 PUSH2 0x1330 JUMP JUMPDEST PUSH1 0x0 JUMPDEST DUP3 DUP2 LT ISZERO PUSH2 0x195F JUMPI DUP5 DUP10 ADD MLOAD DUP3 SSTORE PUSH1 0x1 DUP3 ADD SWAP2 POP PUSH1 0x20 DUP6 ADD SWAP5 POP PUSH1 0x20 DUP2 ADD SWAP1 POP PUSH2 0x193A JUMP JUMPDEST DUP7 DUP4 LT ISZERO PUSH2 0x197C JUMPI DUP5 DUP10 ADD MLOAD PUSH2 0x1978 PUSH1 0x1F DUP10 AND DUP3 PUSH2 0x1885 JUMP JUMPDEST DUP4 SSTORE POP JUMPDEST PUSH1 0x1 PUSH1 0x2 DUP9 MUL ADD DUP9 SSTORE POP POP POP JUMPDEST POP POP POP POP POP POP JUMP JUMPDEST PUSH1 0x0 PUSH1 0x60 DUP3 ADD SWAP1 POP PUSH2 0x19A6 PUSH1 0x0 DUP4 ADD DUP7 PUSH2 0x115C JUMP JUMPDEST DUP2 DUP2 SUB PUSH1 0x20 DUP4 ADD MSTORE PUSH2 0x19B8 DUP2 DUP6 PUSH2 0x1345 JUMP JUMPDEST SWAP1 POP PUSH2 0x19C7 PUSH1 0x40 DUP4 ADD DUP5 PUSH2 0x118C JUMP JUMPDEST SWAP5 SWAP4 POP POP POP POP JUMP INVALID LOG2 PUSH5 0x6970667358 0x22 SLT KECCAK256 SWAP4 0xAF 0xEF 0xE7 RETURNDATASIZE SWAP3 SIGNEXTEND 0xC4 PUSH7 0xCC9A146B385075 PUSH24 0x2BE1A1FD004F8E3E2612ABC40D87F964736F6C6343000813 STOP CALLER "
		},
		"gasEstimates": {
			"creation": {
				"codeDepositCost": "1332200",
				"executionCost": "infinite",
				"totalCost": "infinite"
			},
			"external": {
				"buildAuction(string,uint256)": "infinite",
				"close()": "infinite",
				"makeOffer(uint256)": "7109",
				"open()": "infinite",
				"retireFunds()": "infinite",
				"retireWin()": "infinite",
				"startAuction()": "infinite"
			}
		},
		"methodIdentifiers": {
			"buildAuction(string,uint256)": "da3bf0bf",
			"close()": "43d726d6",
			"makeOffer(uint256)": "9a2f6474",
			"open()": "fcfff16f",
			"retireFunds()": "9ba33eb5",
			"retireWin()": "4df1deb7",
			"startAuction()": "6b64c769"
		}
	},
	"abi": [
		{
			"inputs": [],
			"stateMutability": "nonpayable",
			"type": "constructor"
		},
		{
			"anonymous": false,
			"inputs": [
				{
					"indexed": false,
					"internalType": "address",
					"name": "_owner",
					"type": "address"
				},
				{
					"indexed": false,
					"internalType": "address",
					"name": "_winner",
					"type": "address"
				},
				{
					"indexed": false,
					"internalType": "uint256",
					"name": "_winningBid",
					"type": "uint256"
				}
			],
			"name": "AuctionClosed",
			"type": "event"
		},
		{
			"anonymous": false,
			"inputs": [
				{
					"indexed": false,
					"internalType": "address",
					"name": "_owner",
					"type": "address"
				},
				{
					"indexed": false,
					"internalType": "string",
					"name": "_object",
					"type": "string"
				},
				{
					"indexed": false,
					"internalType": "uint256",
					"name": "_initialPrice",
					"type": "uint256"
				}
			],
			"name": "AuctionOpened",
			"type": "event"
		},
		{
			"anonymous": false,
			"inputs": [
				{
					"indexed": false,
					"internalType": "address",
					"name": "_withdrawer",
					"type": "address"
				},
				{
					"indexed": false,
					"internalType": "uint256",
					"name": "amount",
					"type": "uint256"
				}
			],
			"name": "FundsWithdrawn",
			"type": "event"
		},
		{
			"anonymous": false,
			"inputs": [
				{
					"indexed": false,
					"internalType": "string",
					"name": "_text",
					"type": "string"
				},
				{
					"indexed": false,
					"internalType": "address",
					"name": "_bidder",
					"type": "address"
				},
				{
					"indexed": false,
					"internalType": "uint256",
					"name": "_bidAmount",
					"type": "uint256"
				}
			],
			"name": "NewBid",
			"type": "event"
		},
		{
			"anonymous": false,
			"inputs": [
				{
					"indexed": false,
					"internalType": "address",
					"name": "_winner",
					"type": "address"
				},
				{
					"indexed": false,
					"internalType": "string",
					"name": "_object",
					"type": "string"
				}
			],
			"name": "WinningWithdrawn",
			"type": "event"
		},
		{
			"inputs": [
				{
					"internalType": "string",
					"name": "_obj",
					"type": "string"
				},
				{
					"internalType": "uint256",
					"name": "_price",
					"type": "uint256"
				}
			],
			"name": "buildAuction",
			"outputs": [],
			"stateMutability": "nonpayable",
			"type": "function"
		},
		{
			"inputs": [],
			"name": "close",
			"outputs": [],
			"stateMutability": "nonpayable",
			"type": "function"
		},
		{
			"inputs": [
				{
					"internalType": "uint256",
					"name": "value",
					"type": "uint256"
				}
			],
			"name": "makeOffer",
			"outputs": [],
			"stateMutability": "nonpayable",
			"type": "function"
		},
		{
			"inputs": [],
			"name": "open",
			"outputs": [],
			"stateMutability": "nonpayable",
			"type": "function"
		},
		{
			"inputs": [],
			"name": "retireFunds",
			"outputs": [],
			"stateMutability": "payable",
			"type": "function"
		},
		{
			"inputs": [],
			"name": "retireWin",
			"outputs": [],
			"stateMutability": "payable",
			"type": "function"
		},
		{
			"inputs": [],
			"name": "startAuction",
			"outputs": [],
			"stateMutability": "nonpayable",
			"type": "function"
		}
	]
}